{
  "contractName": "Character",
  "abi": [
    {
      "inputs": [],
      "stateMutability": "nonpayable",
      "type": "constructor"
    },
    {
      "anonymous": false,
      "inputs": [
        {
          "indexed": true,
          "internalType": "address",
          "name": "owner",
          "type": "address"
        },
        {
          "indexed": true,
          "internalType": "address",
          "name": "approved",
          "type": "address"
        },
        {
          "indexed": true,
          "internalType": "uint256",
          "name": "tokenId",
          "type": "uint256"
        }
      ],
      "name": "Approval",
      "type": "event"
    },
    {
      "anonymous": false,
      "inputs": [
        {
          "indexed": true,
          "internalType": "address",
          "name": "owner",
          "type": "address"
        },
        {
          "indexed": true,
          "internalType": "address",
          "name": "operator",
          "type": "address"
        },
        {
          "indexed": false,
          "internalType": "bool",
          "name": "approved",
          "type": "bool"
        }
      ],
      "name": "ApprovalForAll",
      "type": "event"
    },
    {
      "anonymous": false,
      "inputs": [
        {
          "indexed": true,
          "internalType": "address",
          "name": "owner",
          "type": "address"
        },
        {
          "indexed": false,
          "internalType": "uint256",
          "name": "id",
          "type": "uint256"
        },
        {
          "indexed": false,
          "internalType": "uint256",
          "name": "dna",
          "type": "uint256"
        }
      ],
      "name": "NewChar",
      "type": "event"
    },
    {
      "anonymous": false,
      "inputs": [
        {
          "indexed": true,
          "internalType": "address",
          "name": "previousOwner",
          "type": "address"
        },
        {
          "indexed": true,
          "internalType": "address",
          "name": "newOwner",
          "type": "address"
        }
      ],
      "name": "OwnershipTransferred",
      "type": "event"
    },
    {
      "anonymous": false,
      "inputs": [
        {
          "indexed": true,
          "internalType": "address",
          "name": "from",
          "type": "address"
        },
        {
          "indexed": true,
          "internalType": "address",
          "name": "to",
          "type": "address"
        },
        {
          "indexed": true,
          "internalType": "uint256",
          "name": "tokenId",
          "type": "uint256"
        }
      ],
      "name": "Transfer",
      "type": "event"
    },
    {
      "inputs": [
        {
          "internalType": "uint256",
          "name": "",
          "type": "uint256"
        }
      ],
      "name": "_tokenDetails",
      "outputs": [
        {
          "internalType": "uint256",
          "name": "id",
          "type": "uint256"
        },
        {
          "internalType": "uint256",
          "name": "dna",
          "type": "uint256"
        },
        {
          "internalType": "uint8",
          "name": "level",
          "type": "uint8"
        },
        {
          "internalType": "uint8",
          "name": "rarity",
          "type": "uint8"
        },
        {
          "internalType": "uint256",
          "name": "evac",
          "type": "uint256"
        },
        {
          "internalType": "string",
          "name": "tokenURI",
          "type": "string"
        }
      ],
      "stateMutability": "view",
      "type": "function"
    },
    {
      "inputs": [
        {
          "internalType": "address",
          "name": "",
          "type": "address"
        }
      ],
      "name": "addressMintedBalance",
      "outputs": [
        {
          "internalType": "uint256",
          "name": "",
          "type": "uint256"
        }
      ],
      "stateMutability": "view",
      "type": "function"
    },
    {
      "inputs": [
        {
          "internalType": "address",
          "name": "to",
          "type": "address"
        },
        {
          "internalType": "uint256",
          "name": "tokenId",
          "type": "uint256"
        }
      ],
      "name": "approve",
      "outputs": [],
      "stateMutability": "nonpayable",
      "type": "function"
    },
    {
      "inputs": [
        {
          "internalType": "address",
          "name": "owner",
          "type": "address"
        }
      ],
      "name": "balanceOf",
      "outputs": [
        {
          "internalType": "uint256",
          "name": "",
          "type": "uint256"
        }
      ],
      "stateMutability": "view",
      "type": "function"
    },
    {
      "inputs": [
        {
          "internalType": "uint256",
          "name": "tokenId",
          "type": "uint256"
        }
      ],
      "name": "getApproved",
      "outputs": [
        {
          "internalType": "address",
          "name": "",
          "type": "address"
        }
      ],
      "stateMutability": "view",
      "type": "function"
    },
    {
      "inputs": [
        {
          "internalType": "address",
          "name": "owner",
          "type": "address"
        },
        {
          "internalType": "address",
          "name": "operator",
          "type": "address"
        }
      ],
      "name": "isApprovedForAll",
      "outputs": [
        {
          "internalType": "bool",
          "name": "",
          "type": "bool"
        }
      ],
      "stateMutability": "view",
      "type": "function"
    },
    {
      "inputs": [],
      "name": "maxMintAmountPerTx",
      "outputs": [
        {
          "internalType": "uint256",
          "name": "",
          "type": "uint256"
        }
      ],
      "stateMutability": "view",
      "type": "function"
    },
    {
      "inputs": [],
      "name": "maxSupply",
      "outputs": [
        {
          "internalType": "uint256",
          "name": "",
          "type": "uint256"
        }
      ],
      "stateMutability": "view",
      "type": "function"
    },
    {
      "inputs": [],
      "name": "name",
      "outputs": [
        {
          "internalType": "string",
          "name": "",
          "type": "string"
        }
      ],
      "stateMutability": "view",
      "type": "function"
    },
    {
      "inputs": [],
      "name": "notRevealedUri",
      "outputs": [
        {
          "internalType": "string",
          "name": "",
          "type": "string"
        }
      ],
      "stateMutability": "view",
      "type": "function"
    },
    {
      "inputs": [],
      "name": "owner",
      "outputs": [
        {
          "internalType": "address",
          "name": "",
          "type": "address"
        }
      ],
      "stateMutability": "view",
      "type": "function"
    },
    {
      "inputs": [
        {
          "internalType": "uint256",
          "name": "tokenId",
          "type": "uint256"
        }
      ],
      "name": "ownerOf",
      "outputs": [
        {
          "internalType": "address",
          "name": "",
          "type": "address"
        }
      ],
      "stateMutability": "view",
      "type": "function"
    },
    {
      "inputs": [],
      "name": "paused",
      "outputs": [
        {
          "internalType": "bool",
          "name": "",
          "type": "bool"
        }
      ],
      "stateMutability": "view",
      "type": "function"
    },
    {
      "inputs": [],
      "name": "perAddressLimit",
      "outputs": [
        {
          "internalType": "uint256",
          "name": "",
          "type": "uint256"
        }
      ],
      "stateMutability": "view",
      "type": "function"
    },
    {
      "inputs": [],
      "name": "renounceOwnership",
      "outputs": [],
      "stateMutability": "nonpayable",
      "type": "function"
    },
    {
      "inputs": [],
      "name": "revealed",
      "outputs": [
        {
          "internalType": "bool",
          "name": "",
          "type": "bool"
        }
      ],
      "stateMutability": "view",
      "type": "function"
    },
    {
      "inputs": [
        {
          "internalType": "address",
          "name": "from",
          "type": "address"
        },
        {
          "internalType": "address",
          "name": "to",
          "type": "address"
        },
        {
          "internalType": "uint256",
          "name": "tokenId",
          "type": "uint256"
        }
      ],
      "name": "safeTransferFrom",
      "outputs": [],
      "stateMutability": "nonpayable",
      "type": "function"
    },
    {
      "inputs": [
        {
          "internalType": "address",
          "name": "from",
          "type": "address"
        },
        {
          "internalType": "address",
          "name": "to",
          "type": "address"
        },
        {
          "internalType": "uint256",
          "name": "tokenId",
          "type": "uint256"
        },
        {
          "internalType": "bytes",
          "name": "_data",
          "type": "bytes"
        }
      ],
      "name": "safeTransferFrom",
      "outputs": [],
      "stateMutability": "nonpayable",
      "type": "function"
    },
    {
      "inputs": [
        {
          "internalType": "address",
          "name": "operator",
          "type": "address"
        },
        {
          "internalType": "bool",
          "name": "approved",
          "type": "bool"
        }
      ],
      "name": "setApprovalForAll",
      "outputs": [],
      "stateMutability": "nonpayable",
      "type": "function"
    },
    {
      "inputs": [
        {
          "internalType": "bytes4",
          "name": "interfaceId",
          "type": "bytes4"
        }
      ],
      "name": "supportsInterface",
      "outputs": [
        {
          "internalType": "bool",
          "name": "",
          "type": "bool"
        }
      ],
      "stateMutability": "view",
      "type": "function"
    },
    {
      "inputs": [],
      "name": "symbol",
      "outputs": [
        {
          "internalType": "string",
          "name": "",
          "type": "string"
        }
      ],
      "stateMutability": "view",
      "type": "function"
    },
    {
      "inputs": [
        {
          "internalType": "address",
          "name": "from",
          "type": "address"
        },
        {
          "internalType": "address",
          "name": "to",
          "type": "address"
        },
        {
          "internalType": "uint256",
          "name": "tokenId",
          "type": "uint256"
        }
      ],
      "name": "transferFrom",
      "outputs": [],
      "stateMutability": "nonpayable",
      "type": "function"
    },
    {
      "inputs": [
        {
          "internalType": "address",
          "name": "newOwner",
          "type": "address"
        }
      ],
      "name": "transferOwnership",
      "outputs": [],
      "stateMutability": "nonpayable",
      "type": "function"
    },
    {
      "inputs": [
        {
          "internalType": "uint256",
          "name": "_id",
          "type": "uint256"
        }
      ],
      "name": "getTokenDetails",
      "outputs": [
        {
          "components": [
            {
              "internalType": "uint256",
              "name": "id",
              "type": "uint256"
            },
            {
              "internalType": "uint256",
              "name": "dna",
              "type": "uint256"
            },
            {
              "internalType": "uint8",
              "name": "level",
              "type": "uint8"
            },
            {
              "internalType": "uint8",
              "name": "rarity",
              "type": "uint8"
            },
            {
              "internalType": "uint256",
              "name": "evac",
              "type": "uint256"
            },
            {
              "internalType": "string",
              "name": "tokenURI",
              "type": "string"
            }
          ],
          "internalType": "struct Character.Char",
          "name": "",
          "type": "tuple"
        }
      ],
      "stateMutability": "view",
      "type": "function"
    },
    {
      "inputs": [],
      "name": "getTokenCirculations",
      "outputs": [
        {
          "internalType": "uint256",
          "name": "",
          "type": "uint256"
        }
      ],
      "stateMutability": "view",
      "type": "function"
    },
    {
      "inputs": [
        {
          "internalType": "uint256",
          "name": "_id",
          "type": "uint256"
        }
      ],
      "name": "tokenURI",
      "outputs": [
        {
          "internalType": "string",
          "name": "",
          "type": "string"
        }
      ],
      "stateMutability": "view",
      "type": "function"
    },
    {
      "inputs": [
        {
          "internalType": "uint256",
          "name": "_charId",
          "type": "uint256"
        }
      ],
      "name": "levelUp",
      "outputs": [],
      "stateMutability": "nonpayable",
      "type": "function"
    },
    {
      "inputs": [],
      "name": "contractURI",
      "outputs": [
        {
          "internalType": "string",
          "name": "",
          "type": "string"
        }
      ],
      "stateMutability": "pure",
      "type": "function"
    },
    {
      "inputs": [
        {
          "internalType": "uint256",
          "name": "_mintAmount",
          "type": "uint256"
        },
        {
          "internalType": "string",
          "name": "_tokenURI",
          "type": "string"
        }
      ],
      "name": "mintToken",
      "outputs": [],
      "stateMutability": "payable",
      "type": "function"
    },
    {
      "inputs": [
        {
          "internalType": "uint256",
          "name": "_id",
          "type": "uint256"
        },
        {
          "internalType": "string",
          "name": "_tokenURI",
          "type": "string"
        }
      ],
      "name": "updateMetadata",
      "outputs": [],
      "stateMutability": "nonpayable",
      "type": "function"
    },
    {
      "inputs": [
        {
          "internalType": "uint256",
          "name": "_newPerAddressLimit",
          "type": "uint256"
        },
        {
          "internalType": "uint256",
          "name": "_maxMintAmountPerTx",
          "type": "uint256"
        }
      ],
      "name": "setmaxMintAmount",
      "outputs": [],
      "stateMutability": "nonpayable",
      "type": "function"
    },
    {
      "inputs": [],
      "name": "reveal",
      "outputs": [],
      "stateMutability": "nonpayable",
      "type": "function"
    },
    {
      "inputs": [
        {
          "internalType": "uint256",
          "name": "_fee",
          "type": "uint256"
        }
      ],
      "name": "updateFee",
      "outputs": [],
      "stateMutability": "nonpayable",
      "type": "function"
    },
    {
      "inputs": [],
      "name": "withdraw",
      "outputs": [],
      "stateMutability": "payable",
      "type": "function"
    }
  ],
  "bytecode": "0x6080604052662386f26fc10000600955612710600a556001600b556064600c556040518060800160405280604b81526020016200473a604b9139600d90805190602001906200005092919062000229565b506000600e60006101000a81548160ff0219169083151502179055506001600e60016101000a81548160ff0219169083151502179055503480156200009457600080fd5b506040518060400160405280600981526020017f43686172616374657200000000000000000000000000000000000000000000008152506040518060400160405280600481526020017f434841520000000000000000000000000000000000000000000000000000000081525081600090805190602001906200011992919062000229565b5080600190805190602001906200013292919062000229565b50505062000155620001496200015b60201b60201c565b6200016360201b60201c565b6200033e565b600033905090565b6000600760009054906101000a900473ffffffffffffffffffffffffffffffffffffffff16905081600760006101000a81548173ffffffffffffffffffffffffffffffffffffffff021916908373ffffffffffffffffffffffffffffffffffffffff1602179055508173ffffffffffffffffffffffffffffffffffffffff168173ffffffffffffffffffffffffffffffffffffffff167f8be0079c531659141344cd1fd0a4f28419497f9722a3daafe3b4186f6b6457e060405160405180910390a35050565b828054620002379062000308565b90600052602060002090601f0160209004810192826200025b5760008555620002a7565b82601f106200027657805160ff1916838001178555620002a7565b82800160010185558215620002a7579182015b82811115620002a657825182559160200191906001019062000289565b5b509050620002b69190620002ba565b5090565b5b80821115620002d5576000816000905550600101620002bb565b5090565b7f4e487b7100000000000000000000000000000000000000000000000000000000600052602260045260246000fd5b600060028204905060018216806200032157607f821691505b60208210811415620003385762000337620002d9565b5b50919050565b6143ec806200034e6000396000f3fe6080604052600436106101f95760003560e01c806370a082311161010d578063a22cb465116100a0578063c87b56dd1161006f578063c87b56dd146106f6578063d5abeb0114610733578063e8a3d4851461075e578063e985e9c514610789578063f2fde38b146107c6576101f9565b8063a22cb46514610650578063a475b5dd14610679578063b88d4fde14610690578063c1e03728146106b9576101f9565b80638da5cb5b116100dc5780638da5cb5b146105a65780639012c4a8146105d157806394354fd0146105fa57806395d89b4114610625576101f9565b806370a08231146104f4578063715018a614610531578063752312a91461054857806385f7229a14610564576101f9565b80633ccfd60b1161019057806353c8388e1161015f57806353c8388e1461040d5780635c975abb146104365780636007eeed146104615780636204f5d71461048c5780636352211e146104b7576101f9565b80633ccfd60b1461038657806342842e0e146103905780634ca3ecd9146103b957806351830227146103e2576101f9565b8063095ea7b3116101cc578063095ea7b3146102ce5780630ce90ec2146102f757806318cae2691461032057806323b872dd1461035d576101f9565b806301ffc9a7146101fe57806306fdde031461023b578063081812fc14610266578063081c8c44146102a3575b600080fd5b34801561020a57600080fd5b5061022560048036038101906102209190612b47565b6107ef565b6040516102329190612b8f565b60405180910390f35b34801561024757600080fd5b506102506108d1565b60405161025d9190612c43565b60405180910390f35b34801561027257600080fd5b5061028d60048036038101906102889190612c9b565b610963565b60405161029a9190612d09565b60405180910390f35b3480156102af57600080fd5b506102b86109e8565b6040516102c59190612c43565b60405180910390f35b3480156102da57600080fd5b506102f560048036038101906102f09190612d50565b610a76565b005b34801561030357600080fd5b5061031e60048036038101906103199190612c9b565b610b8e565b005b34801561032c57600080fd5b5061034760048036038101906103429190612d90565b610c29565b6040516103549190612dcc565b60405180910390f35b34801561036957600080fd5b50610384600480360381019061037f9190612de7565b610c42565b005b61038e610ca2565b005b34801561039c57600080fd5b506103b760048036038101906103b29190612de7565b610d9e565b005b3480156103c557600080fd5b506103e060048036038101906103db9190612e3a565b610dbe565b005b3480156103ee57600080fd5b506103f7610e4c565b6040516104049190612b8f565b60405180910390f35b34801561041957600080fd5b50610434600480360381019061042f9190612faf565b610e5f565b005b34801561044257600080fd5b5061044b610f62565b6040516104589190612b8f565b60405180910390f35b34801561046d57600080fd5b50610476610f75565b6040516104839190612dcc565b60405180910390f35b34801561049857600080fd5b506104a1610f7b565b6040516104ae9190612dcc565b60405180910390f35b3480156104c357600080fd5b506104de60048036038101906104d99190612c9b565b610f8c565b6040516104eb9190612d09565b60405180910390f35b34801561050057600080fd5b5061051b60048036038101906105169190612d90565b61103e565b6040516105289190612dcc565b60405180910390f35b34801561053d57600080fd5b506105466110f6565b005b610562600480360381019061055d9190612faf565b61117e565b005b34801561057057600080fd5b5061058b60048036038101906105869190612c9b565b611626565b60405161059d96959493929190613027565b60405180910390f35b3480156105b257600080fd5b506105bb61170b565b6040516105c89190612d09565b60405180910390f35b3480156105dd57600080fd5b506105f860048036038101906105f39190612c9b565b611735565b005b34801561060657600080fd5b5061060f6117bb565b60405161061c9190612dcc565b60405180910390f35b34801561063157600080fd5b5061063a6117c1565b6040516106479190612c43565b60405180910390f35b34801561065c57600080fd5b50610677600480360381019061067291906130bb565b611853565b005b34801561068557600080fd5b5061068e611869565b005b34801561069c57600080fd5b506106b760048036038101906106b2919061319c565b611902565b005b3480156106c557600080fd5b506106e060048036038101906106db9190612c9b565b611964565b6040516106ed9190613310565b60405180910390f35b34801561070257600080fd5b5061071d60048036038101906107189190612c9b565b611a81565b60405161072a9190612c43565b60405180910390f35b34801561073f57600080fd5b50610748611c26565b6040516107559190612dcc565b60405180910390f35b34801561076a57600080fd5b50610773611c2c565b6040516107809190612c43565b60405180910390f35b34801561079557600080fd5b506107b060048036038101906107ab9190613332565b611c4c565b6040516107bd9190612b8f565b60405180910390f35b3480156107d257600080fd5b506107ed60048036038101906107e89190612d90565b611ce0565b005b60007f80ac58cd000000000000000000000000000000000000000000000000000000007bffffffffffffffffffffffffffffffffffffffffffffffffffffffff1916827bffffffffffffffffffffffffffffffffffffffffffffffffffffffff191614806108ba57507f5b5e139f000000000000000000000000000000000000000000000000000000007bffffffffffffffffffffffffffffffffffffffffffffffffffffffff1916827bffffffffffffffffffffffffffffffffffffffffffffffffffffffff1916145b806108ca57506108c982611dd8565b5b9050919050565b6060600080546108e0906133a1565b80601f016020809104026020016040519081016040528092919081815260200182805461090c906133a1565b80156109595780601f1061092e57610100808354040283529160200191610959565b820191906000526020600020905b81548152906001019060200180831161093c57829003601f168201915b5050505050905090565b600061096e82611e42565b6109ad576040517f08c379a00000000000000000000000000000000000000000000000000000000081526004016109a490613445565b60405180910390fd5b6004600083815260200190815260200160002060009054906101000a900473ffffffffffffffffffffffffffffffffffffffff169050919050565b600d80546109f5906133a1565b80601f0160208091040260200160405190810160405280929190818152602001828054610a21906133a1565b8015610a6e5780601f10610a4357610100808354040283529160200191610a6e565b820191906000526020600020905b815481529060010190602001808311610a5157829003601f168201915b505050505081565b6000610a8182610f8c565b90508073ffffffffffffffffffffffffffffffffffffffff168373ffffffffffffffffffffffffffffffffffffffff161415610af2576040517f08c379a0000000000000000000000000000000000000000000000000000000008152600401610ae9906134d7565b60405180910390fd5b8073ffffffffffffffffffffffffffffffffffffffff16610b11611eae565b73ffffffffffffffffffffffffffffffffffffffff161480610b405750610b3f81610b3a611eae565b611c4c565b5b610b7f576040517f08c379a0000000000000000000000000000000000000000000000000000000008152600401610b7690613569565b60405180910390fd5b610b898383611eb6565b505050565b3373ffffffffffffffffffffffffffffffffffffffff16610bae82610f8c565b73ffffffffffffffffffffffffffffffffffffffff1614610bce57600080fd5b6000600f826127108110610be557610be4613589565b5b60050201905080600201600081819054906101000a900460ff1680929190610c0c906135e7565b91906101000a81548160ff021916908360ff160217905550505050565b61c35f6020528060005260406000206000915090505481565b610c53610c4d611eae565b82611f6f565b610c92576040517f08c379a0000000000000000000000000000000000000000000000000000000008152600401610c8990613683565b60405180910390fd5b610c9d83838361204d565b505050565b610caa611eae565b73ffffffffffffffffffffffffffffffffffffffff16610cc861170b565b73ffffffffffffffffffffffffffffffffffffffff1614610d1e576040517f08c379a0000000000000000000000000000000000000000000000000000000008152600401610d15906136ef565b60405180910390fd5b6000610d2861170b565b73ffffffffffffffffffffffffffffffffffffffff1647604051610d4b90613740565b60006040518083038185875af1925050503d8060008114610d88576040519150601f19603f3d011682016040523d82523d6000602084013e610d8d565b606091505b5050905080610d9b57600080fd5b50565b610db983838360405180602001604052806000815250611902565b505050565b610dc6611eae565b73ffffffffffffffffffffffffffffffffffffffff16610de461170b565b73ffffffffffffffffffffffffffffffffffffffff1614610e3a576040517f08c379a0000000000000000000000000000000000000000000000000000000008152600401610e31906136ef565b60405180910390fd5b81600c8190555080600b819055505050565b600e60019054906101000a900460ff1681565b610e67611eae565b73ffffffffffffffffffffffffffffffffffffffff16610e8561170b565b73ffffffffffffffffffffffffffffffffffffffff1614610edb576040517f08c379a0000000000000000000000000000000000000000000000000000000008152600401610ed2906136ef565b60405180910390fd5b610ee482611e42565b610f23576040517f08c379a0000000000000000000000000000000000000000000000000000000008152600401610f1a906137c7565b60405180910390fd5b80600f836127108110610f3957610f38613589565b5b600502016004019080519060200190610f539291906129fc565b50610f5e82826122a9565b5050565b600e60009054906101000a900460ff1681565b600c5481565b6000610f87600861231d565b905090565b6000806002600084815260200190815260200160002060009054906101000a900473ffffffffffffffffffffffffffffffffffffffff169050600073ffffffffffffffffffffffffffffffffffffffff168173ffffffffffffffffffffffffffffffffffffffff161415611035576040517f08c379a000000000000000000000000000000000000000000000000000000000815260040161102c90613859565b60405180910390fd5b80915050919050565b60008073ffffffffffffffffffffffffffffffffffffffff168273ffffffffffffffffffffffffffffffffffffffff1614156110af576040517f08c379a00000000000000000000000000000000000000000000000000000000081526004016110a6906138eb565b60405180910390fd5b600360008373ffffffffffffffffffffffffffffffffffffffff1673ffffffffffffffffffffffffffffffffffffffff168152602001908152602001600020549050919050565b6110fe611eae565b73ffffffffffffffffffffffffffffffffffffffff1661111c61170b565b73ffffffffffffffffffffffffffffffffffffffff1614611172576040517f08c379a0000000000000000000000000000000000000000000000000000000008152600401611169906136ef565b60405180910390fd5b61117c600061232b565b565b611186611eae565b73ffffffffffffffffffffffffffffffffffffffff166111a461170b565b73ffffffffffffffffffffffffffffffffffffffff16146111fa576040517f08c379a00000000000000000000000000000000000000000000000000000000081526004016111f1906136ef565b60405180910390fd5b81600e60009054906101000a900460ff161561124b576040517f08c379a000000000000000000000000000000000000000000000000000000000815260040161124290613957565b60405180910390fd5b3373ffffffffffffffffffffffffffffffffffffffff16313411156112a5576040517f08c379a000000000000000000000000000000000000000000000000000000000815260040161129c906139c3565b60405180910390fd5b6000811180156112b75750600b548111155b6112f6576040517f08c379a00000000000000000000000000000000000000000000000000000000081526004016112ed90613a2f565b60405180910390fd5b600a5481611304600861231d565b61130e9190613a4f565b111561134f576040517f08c379a000000000000000000000000000000000000000000000000000000000815260040161134690613af1565b60405180910390fd5b8060095461135d9190613b11565b34101561139f576040517f08c379a000000000000000000000000000000000000000000000000000000000815260040161139690613bb7565b60405180910390fd5b600061c35f60003373ffffffffffffffffffffffffffffffffffffffff1673ffffffffffffffffffffffffffffffffffffffff168152602001908152602001600020549050600c5482826113f39190613a4f565b1115611434576040517f08c379a000000000000000000000000000000000000000000000000000000000815260040161142b90613c23565b60405180910390fd5b61143e60086123f1565b600061144a600861231d565b90506114563382612407565b61146081856122a9565b600061146c6064612425565b90506000611480662386f26fc10000612425565b905060006040518060c00160405280858152602001838152602001600160ff1681526020018460ff16815260200142815260200188815250905080600f8561271081106114d0576114cf613589565b5b60050201600082015181600001556020820151816001015560408201518160020160006101000a81548160ff021916908360ff16021790555060608201518160020160016101000a81548160ff021916908360ff1602179055506080820151816003015560a08201518160040190805190602001906115509291906129fc565b509050506000600190505b8881116115cb5761c35f60003373ffffffffffffffffffffffffffffffffffffffff1673ffffffffffffffffffffffffffffffffffffffff16815260200190815260200160002060008154809291906115b390613c43565b919050555080806115c390613c43565b91505061155b565b503373ffffffffffffffffffffffffffffffffffffffff167f5204a044357c967ad181d0a7bb9936cf03d235351ff1a5a5b6362a2234ff40758584604051611614929190613c8c565b60405180910390a25050505050505050565b600f81612710811061163757600080fd5b600502016000915090508060000154908060010154908060020160009054906101000a900460ff16908060020160019054906101000a900460ff1690806003015490806004018054611688906133a1565b80601f01602080910402602001604051908101604052809291908181526020018280546116b4906133a1565b80156117015780601f106116d657610100808354040283529160200191611701565b820191906000526020600020905b8154815290600101906020018083116116e457829003601f168201915b5050505050905086565b6000600760009054906101000a900473ffffffffffffffffffffffffffffffffffffffff16905090565b61173d611eae565b73ffffffffffffffffffffffffffffffffffffffff1661175b61170b565b73ffffffffffffffffffffffffffffffffffffffff16146117b1576040517f08c379a00000000000000000000000000000000000000000000000000000000081526004016117a8906136ef565b60405180910390fd5b8060098190555050565b600b5481565b6060600180546117d0906133a1565b80601f01602080910402602001604051908101604052809291908181526020018280546117fc906133a1565b80156118495780601f1061181e57610100808354040283529160200191611849565b820191906000526020600020905b81548152906001019060200180831161182c57829003601f168201915b5050505050905090565b61186561185e611eae565b838361246a565b5050565b611871611eae565b73ffffffffffffffffffffffffffffffffffffffff1661188f61170b565b73ffffffffffffffffffffffffffffffffffffffff16146118e5576040517f08c379a00000000000000000000000000000000000000000000000000000000081526004016118dc906136ef565b60405180910390fd5b6001600e60016101000a81548160ff021916908315150217905550565b61191361190d611eae565b83611f6f565b611952576040517f08c379a000000000000000000000000000000000000000000000000000000000815260040161194990613683565b60405180910390fd5b61195e848484846125d7565b50505050565b61196c612a82565b600f82612710811061198157611980613589565b5b600502016040518060c001604052908160008201548152602001600182015481526020016002820160009054906101000a900460ff1660ff1660ff1681526020016002820160019054906101000a900460ff1660ff1660ff168152602001600382015481526020016004820180546119f8906133a1565b80601f0160208091040260200160405190810160405280929190818152602001828054611a24906133a1565b8015611a715780601f10611a4657610100808354040283529160200191611a71565b820191906000526020600020905b815481529060010190602001808311611a5457829003601f168201915b5050505050815250509050919050565b6060611a8c82611e42565b611acb576040517f08c379a0000000000000000000000000000000000000000000000000000000008152600401611ac290613d27565b60405180910390fd5b60001515600e60019054906101000a900460ff1615151415611b7957600d8054611af4906133a1565b80601f0160208091040260200160405190810160405280929190818152602001828054611b20906133a1565b8015611b6d5780601f10611b4257610100808354040283529160200191611b6d565b820191906000526020600020905b815481529060010190602001808311611b5057829003601f168201915b50505050509050611c21565b600f826127108110611b8e57611b8d613589565b5b600502016004018054611ba0906133a1565b80601f0160208091040260200160405190810160405280929190818152602001828054611bcc906133a1565b8015611c195780601f10611bee57610100808354040283529160200191611c19565b820191906000526020600020905b815481529060010190602001808311611bfc57829003601f168201915b505050505090505b919050565b600a5481565b606060405180608001604052806045815260200161437260459139905090565b6000600560008473ffffffffffffffffffffffffffffffffffffffff1673ffffffffffffffffffffffffffffffffffffffff16815260200190815260200160002060008373ffffffffffffffffffffffffffffffffffffffff1673ffffffffffffffffffffffffffffffffffffffff16815260200190815260200160002060009054906101000a900460ff16905092915050565b611ce8611eae565b73ffffffffffffffffffffffffffffffffffffffff16611d0661170b565b73ffffffffffffffffffffffffffffffffffffffff1614611d5c576040517f08c379a0000000000000000000000000000000000000000000000000000000008152600401611d53906136ef565b60405180910390fd5b600073ffffffffffffffffffffffffffffffffffffffff168173ffffffffffffffffffffffffffffffffffffffff161415611dcc576040517f08c379a0000000000000000000000000000000000000000000000000000000008152600401611dc390613db9565b60405180910390fd5b611dd58161232b565b50565b60007f01ffc9a7000000000000000000000000000000000000000000000000000000007bffffffffffffffffffffffffffffffffffffffffffffffffffffffff1916827bffffffffffffffffffffffffffffffffffffffffffffffffffffffff1916149050919050565b60008073ffffffffffffffffffffffffffffffffffffffff166002600084815260200190815260200160002060009054906101000a900473ffffffffffffffffffffffffffffffffffffffff1673ffffffffffffffffffffffffffffffffffffffff1614159050919050565b600033905090565b816004600083815260200190815260200160002060006101000a81548173ffffffffffffffffffffffffffffffffffffffff021916908373ffffffffffffffffffffffffffffffffffffffff160217905550808273ffffffffffffffffffffffffffffffffffffffff16611f2983610f8c565b73ffffffffffffffffffffffffffffffffffffffff167f8c5be1e5ebec7d5bd14f71427d1e84f3dd0314c0f7b2291e5b200ac8c7c3b92560405160405180910390a45050565b6000611f7a82611e42565b611fb9576040517f08c379a0000000000000000000000000000000000000000000000000000000008152600401611fb090613e4b565b60405180910390fd5b6000611fc483610f8c565b90508073ffffffffffffffffffffffffffffffffffffffff168473ffffffffffffffffffffffffffffffffffffffff16148061203357508373ffffffffffffffffffffffffffffffffffffffff1661201b84610963565b73ffffffffffffffffffffffffffffffffffffffff16145b8061204457506120438185611c4c565b5b91505092915050565b8273ffffffffffffffffffffffffffffffffffffffff1661206d82610f8c565b73ffffffffffffffffffffffffffffffffffffffff16146120c3576040517f08c379a00000000000000000000000000000000000000000000000000000000081526004016120ba90613edd565b60405180910390fd5b600073ffffffffffffffffffffffffffffffffffffffff168273ffffffffffffffffffffffffffffffffffffffff161415612133576040517f08c379a000000000000000000000000000000000000000000000000000000000815260040161212a90613f6f565b60405180910390fd5b61213e838383612633565b612149600082611eb6565b6001600360008573ffffffffffffffffffffffffffffffffffffffff1673ffffffffffffffffffffffffffffffffffffffff16815260200190815260200160002060008282546121999190613f8f565b925050819055506001600360008473ffffffffffffffffffffffffffffffffffffffff1673ffffffffffffffffffffffffffffffffffffffff16815260200190815260200160002060008282546121f09190613a4f565b92505081905550816002600083815260200190815260200160002060006101000a81548173ffffffffffffffffffffffffffffffffffffffff021916908373ffffffffffffffffffffffffffffffffffffffff160217905550808273ffffffffffffffffffffffffffffffffffffffff168473ffffffffffffffffffffffffffffffffffffffff167fddf252ad1be2c89b69c2b068fc378daa952ba7f163c4a11628f55a4df523b3ef60405160405180910390a4505050565b6122b282611e42565b6122f1576040517f08c379a00000000000000000000000000000000000000000000000000000000081526004016122e8906137c7565b60405180910390fd5b806006600084815260200190815260200160002090805190602001906123189291906129fc565b505050565b600081600001549050919050565b6000600760009054906101000a900473ffffffffffffffffffffffffffffffffffffffff16905081600760006101000a81548173ffffffffffffffffffffffffffffffffffffffff021916908373ffffffffffffffffffffffffffffffffffffffff1602179055508173ffffffffffffffffffffffffffffffffffffffff168173ffffffffffffffffffffffffffffffffffffffff167f8be0079c531659141344cd1fd0a4f28419497f9722a3daafe3b4186f6b6457e060405160405180910390a35050565b6001816000016000828254019250508190555050565b612421828260405180602001604052806000815250612638565b5050565b600080423360405160200161243b92919061402c565b6040516020818303038152906040528051906020012060001c905082816124629190614087565b915050919050565b8173ffffffffffffffffffffffffffffffffffffffff168373ffffffffffffffffffffffffffffffffffffffff1614156124d9576040517f08c379a00000000000000000000000000000000000000000000000000000000081526004016124d090614104565b60405180910390fd5b80600560008573ffffffffffffffffffffffffffffffffffffffff1673ffffffffffffffffffffffffffffffffffffffff16815260200190815260200160002060008473ffffffffffffffffffffffffffffffffffffffff1673ffffffffffffffffffffffffffffffffffffffff16815260200190815260200160002060006101000a81548160ff0219169083151502179055508173ffffffffffffffffffffffffffffffffffffffff168373ffffffffffffffffffffffffffffffffffffffff167f17307eab39ab6107e8899845ad3d59bd9653f200f220920489ca2b5937696c31836040516125ca9190612b8f565b60405180910390a3505050565b6125e284848461204d565b6125ee84848484612693565b61262d576040517f08c379a000000000000000000000000000000000000000000000000000000000815260040161262490614196565b60405180910390fd5b50505050565b505050565b612642838361281b565b61264f6000848484612693565b61268e576040517f08c379a000000000000000000000000000000000000000000000000000000000815260040161268590614196565b60405180910390fd5b505050565b60006126b48473ffffffffffffffffffffffffffffffffffffffff166129e9565b1561280e578373ffffffffffffffffffffffffffffffffffffffff1663150b7a026126dd611eae565b8786866040518563ffffffff1660e01b81526004016126ff949392919061420b565b6020604051808303816000875af192505050801561273b57506040513d601f19601f82011682018060405250810190612738919061426c565b60015b6127be573d806000811461276b576040519150601f19603f3d011682016040523d82523d6000602084013e612770565b606091505b506000815114156127b6576040517f08c379a00000000000000000000000000000000000000000000000000000000081526004016127ad90614196565b60405180910390fd5b805181602001fd5b63150b7a0260e01b7bffffffffffffffffffffffffffffffffffffffffffffffffffffffff1916817bffffffffffffffffffffffffffffffffffffffffffffffffffffffff191614915050612813565b600190505b949350505050565b600073ffffffffffffffffffffffffffffffffffffffff168273ffffffffffffffffffffffffffffffffffffffff16141561288b576040517f08c379a0000000000000000000000000000000000000000000000000000000008152600401612882906142e5565b60405180910390fd5b61289481611e42565b156128d4576040517f08c379a00000000000000000000000000000000000000000000000000000000081526004016128cb90614351565b60405180910390fd5b6128e060008383612633565b6001600360008473ffffffffffffffffffffffffffffffffffffffff1673ffffffffffffffffffffffffffffffffffffffff16815260200190815260200160002060008282546129309190613a4f565b92505081905550816002600083815260200190815260200160002060006101000a81548173ffffffffffffffffffffffffffffffffffffffff021916908373ffffffffffffffffffffffffffffffffffffffff160217905550808273ffffffffffffffffffffffffffffffffffffffff16600073ffffffffffffffffffffffffffffffffffffffff167fddf252ad1be2c89b69c2b068fc378daa952ba7f163c4a11628f55a4df523b3ef60405160405180910390a45050565b600080823b905060008111915050919050565b828054612a08906133a1565b90600052602060002090601f016020900481019282612a2a5760008555612a71565b82601f10612a4357805160ff1916838001178555612a71565b82800160010185558215612a71579182015b82811115612a70578251825591602001919060010190612a55565b5b509050612a7e9190612abe565b5090565b6040518060c001604052806000815260200160008152602001600060ff168152602001600060ff16815260200160008152602001606081525090565b5b80821115612ad7576000816000905550600101612abf565b5090565b6000604051905090565b600080fd5b600080fd5b60007fffffffff0000000000000000000000000000000000000000000000000000000082169050919050565b612b2481612aef565b8114612b2f57600080fd5b50565b600081359050612b4181612b1b565b92915050565b600060208284031215612b5d57612b5c612ae5565b5b6000612b6b84828501612b32565b91505092915050565b60008115159050919050565b612b8981612b74565b82525050565b6000602082019050612ba46000830184612b80565b92915050565b600081519050919050565b600082825260208201905092915050565b60005b83811015612be4578082015181840152602081019050612bc9565b83811115612bf3576000848401525b50505050565b6000601f19601f8301169050919050565b6000612c1582612baa565b612c1f8185612bb5565b9350612c2f818560208601612bc6565b612c3881612bf9565b840191505092915050565b60006020820190508181036000830152612c5d8184612c0a565b905092915050565b6000819050919050565b612c7881612c65565b8114612c8357600080fd5b50565b600081359050612c9581612c6f565b92915050565b600060208284031215612cb157612cb0612ae5565b5b6000612cbf84828501612c86565b91505092915050565b600073ffffffffffffffffffffffffffffffffffffffff82169050919050565b6000612cf382612cc8565b9050919050565b612d0381612ce8565b82525050565b6000602082019050612d1e6000830184612cfa565b92915050565b612d2d81612ce8565b8114612d3857600080fd5b50565b600081359050612d4a81612d24565b92915050565b60008060408385031215612d6757612d66612ae5565b5b6000612d7585828601612d3b565b9250506020612d8685828601612c86565b9150509250929050565b600060208284031215612da657612da5612ae5565b5b6000612db484828501612d3b565b91505092915050565b612dc681612c65565b82525050565b6000602082019050612de16000830184612dbd565b92915050565b600080600060608486031215612e0057612dff612ae5565b5b6000612e0e86828701612d3b565b9350506020612e1f86828701612d3b565b9250506040612e3086828701612c86565b9150509250925092565b60008060408385031215612e5157612e50612ae5565b5b6000612e5f85828601612c86565b9250506020612e7085828601612c86565b9150509250929050565b600080fd5b600080fd5b7f4e487b7100000000000000000000000000000000000000000000000000000000600052604160045260246000fd5b612ebc82612bf9565b810181811067ffffffffffffffff82111715612edb57612eda612e84565b5b80604052505050565b6000612eee612adb565b9050612efa8282612eb3565b919050565b600067ffffffffffffffff821115612f1a57612f19612e84565b5b612f2382612bf9565b9050602081019050919050565b82818337600083830152505050565b6000612f52612f4d84612eff565b612ee4565b905082815260208101848484011115612f6e57612f6d612e7f565b5b612f79848285612f30565b509392505050565b600082601f830112612f9657612f95612e7a565b5b8135612fa6848260208601612f3f565b91505092915050565b60008060408385031215612fc657612fc5612ae5565b5b6000612fd485828601612c86565b925050602083013567ffffffffffffffff811115612ff557612ff4612aea565b5b61300185828601612f81565b9150509250929050565b600060ff82169050919050565b6130218161300b565b82525050565b600060c08201905061303c6000830189612dbd565b6130496020830188612dbd565b6130566040830187613018565b6130636060830186613018565b6130706080830185612dbd565b81810360a08301526130828184612c0a565b9050979650505050505050565b61309881612b74565b81146130a357600080fd5b50565b6000813590506130b58161308f565b92915050565b600080604083850312156130d2576130d1612ae5565b5b60006130e085828601612d3b565b92505060206130f1858286016130a6565b9150509250929050565b600067ffffffffffffffff82111561311657613115612e84565b5b61311f82612bf9565b9050602081019050919050565b600061313f61313a846130fb565b612ee4565b90508281526020810184848401111561315b5761315a612e7f565b5b613166848285612f30565b509392505050565b600082601f83011261318357613182612e7a565b5b813561319384826020860161312c565b91505092915050565b600080600080608085870312156131b6576131b5612ae5565b5b60006131c487828801612d3b565b94505060206131d587828801612d3b565b93505060406131e687828801612c86565b925050606085013567ffffffffffffffff81111561320757613206612aea565b5b6132138782880161316e565b91505092959194509250565b61322881612c65565b82525050565b6132378161300b565b82525050565b600082825260208201905092915050565b600061325982612baa565b613263818561323d565b9350613273818560208601612bc6565b61327c81612bf9565b840191505092915050565b600060c08301600083015161329f600086018261321f565b5060208301516132b2602086018261321f565b5060408301516132c5604086018261322e565b5060608301516132d8606086018261322e565b5060808301516132eb608086018261321f565b5060a083015184820360a0860152613303828261324e565b9150508091505092915050565b6000602082019050818103600083015261332a8184613287565b905092915050565b6000806040838503121561334957613348612ae5565b5b600061335785828601612d3b565b925050602061336885828601612d3b565b9150509250929050565b7f4e487b7100000000000000000000000000000000000000000000000000000000600052602260045260246000fd5b600060028204905060018216806133b957607f821691505b602082108114156133cd576133cc613372565b5b50919050565b7f4552433732313a20617070726f76656420717565727920666f72206e6f6e657860008201527f697374656e7420746f6b656e0000000000000000000000000000000000000000602082015250565b600061342f602c83612bb5565b915061343a826133d3565b604082019050919050565b6000602082019050818103600083015261345e81613422565b9050919050565b7f4552433732313a20617070726f76616c20746f2063757272656e74206f776e6560008201527f7200000000000000000000000000000000000000000000000000000000000000602082015250565b60006134c1602183612bb5565b91506134cc82613465565b604082019050919050565b600060208201905081810360008301526134f0816134b4565b9050919050565b7f4552433732313a20617070726f76652063616c6c6572206973206e6f74206f7760008201527f6e6572206e6f7220617070726f76656420666f7220616c6c0000000000000000602082015250565b6000613553603883612bb5565b915061355e826134f7565b604082019050919050565b6000602082019050818103600083015261358281613546565b9050919050565b7f4e487b7100000000000000000000000000000000000000000000000000000000600052603260045260246000fd5b7f4e487b7100000000000000000000000000000000000000000000000000000000600052601160045260246000fd5b60006135f28261300b565b915060ff821415613606576136056135b8565b5b600182019050919050565b7f4552433732313a207472616e736665722063616c6c6572206973206e6f74206f60008201527f776e6572206e6f7220617070726f766564000000000000000000000000000000602082015250565b600061366d603183612bb5565b915061367882613611565b604082019050919050565b6000602082019050818103600083015261369c81613660565b9050919050565b7f4f776e61626c653a2063616c6c6572206973206e6f7420746865206f776e6572600082015250565b60006136d9602083612bb5565b91506136e4826136a3565b602082019050919050565b60006020820190508181036000830152613708816136cc565b9050919050565b600081905092915050565b50565b600061372a60008361370f565b91506137358261371a565b600082019050919050565b600061374b8261371d565b9150819050919050565b7f45524337323155524953746f726167653a2055524920736574206f66206e6f6e60008201527f6578697374656e7420746f6b656e000000000000000000000000000000000000602082015250565b60006137b1602e83612bb5565b91506137bc82613755565b604082019050919050565b600060208201905081810360008301526137e0816137a4565b9050919050565b7f4552433732313a206f776e657220717565727920666f72206e6f6e657869737460008201527f656e7420746f6b656e0000000000000000000000000000000000000000000000602082015250565b6000613843602983612bb5565b915061384e826137e7565b604082019050919050565b6000602082019050818103600083015261387281613836565b9050919050565b7f4552433732313a2062616c616e636520717565727920666f7220746865207a6560008201527f726f206164647265737300000000000000000000000000000000000000000000602082015250565b60006138d5602a83612bb5565b91506138e082613879565b604082019050919050565b60006020820190508181036000830152613904816138c8565b9050919050565b7f54686520636f6e7472616374206973207061757365642e000000000000000000600082015250565b6000613941601783612bb5565b915061394c8261390b565b602082019050919050565b6000602082019050818103600083015261397081613934565b9050919050565b7f496e73756666696369656e742062616c616e63652e0000000000000000000000600082015250565b60006139ad601583612bb5565b91506139b882613977565b602082019050919050565b600060208201905081810360008301526139dc816139a0565b9050919050565b7f496e76616c6964206d696e7420616d6f756e742e000000000000000000000000600082015250565b6000613a19601483612bb5565b9150613a24826139e3565b602082019050919050565b60006020820190508181036000830152613a4881613a0c565b9050919050565b6000613a5a82612c65565b9150613a6583612c65565b9250827fffffffffffffffffffffffffffffffffffffffffffffffffffffffffffffffff03821115613a9a57613a996135b8565b5b828201905092915050565b7f4d617820737570706c792065786365656465642e000000000000000000000000600082015250565b6000613adb601483612bb5565b9150613ae682613aa5565b602082019050919050565b60006020820190508181036000830152613b0a81613ace565b9050919050565b6000613b1c82612c65565b9150613b2783612c65565b9250817fffffffffffffffffffffffffffffffffffffffffffffffffffffffffffffffff0483118215151615613b6057613b5f6135b8565b5b828202905092915050565b7f496e73756666696369656e742066756e64732e00000000000000000000000000600082015250565b6000613ba1601383612bb5565b9150613bac82613b6b565b602082019050919050565b60006020820190508181036000830152613bd081613b94565b9050919050565b7f4d6178204e46542070657220616464726573732065786365656465642e000000600082015250565b6000613c0d601d83612bb5565b9150613c1882613bd7565b602082019050919050565b60006020820190508181036000830152613c3c81613c00565b9050919050565b6000613c4e82612c65565b91507fffffffffffffffffffffffffffffffffffffffffffffffffffffffffffffffff821415613c8157613c806135b8565b5b600182019050919050565b6000604082019050613ca16000830185612dbd565b613cae6020830184612dbd565b9392505050565b7f4552433732314d657461646174613a2055524920717565727920666f72206e6f60008201527f6e6578697374656e7420746f6b656e0000000000000000000000000000000000602082015250565b6000613d11602f83612bb5565b9150613d1c82613cb5565b604082019050919050565b60006020820190508181036000830152613d4081613d04565b9050919050565b7f4f776e61626c653a206e6577206f776e657220697320746865207a65726f206160008201527f6464726573730000000000000000000000000000000000000000000000000000602082015250565b6000613da3602683612bb5565b9150613dae82613d47565b604082019050919050565b60006020820190508181036000830152613dd281613d96565b9050919050565b7f4552433732313a206f70657261746f7220717565727920666f72206e6f6e657860008201527f697374656e7420746f6b656e0000000000000000000000000000000000000000602082015250565b6000613e35602c83612bb5565b9150613e4082613dd9565b604082019050919050565b60006020820190508181036000830152613e6481613e28565b9050919050565b7f4552433732313a207472616e73666572206f6620746f6b656e2074686174206960008201527f73206e6f74206f776e0000000000000000000000000000000000000000000000602082015250565b6000613ec7602983612bb5565b9150613ed282613e6b565b604082019050919050565b60006020820190508181036000830152613ef681613eba565b9050919050565b7f4552433732313a207472616e7366657220746f20746865207a65726f2061646460008201527f7265737300000000000000000000000000000000000000000000000000000000602082015250565b6000613f59602483612bb5565b9150613f6482613efd565b604082019050919050565b60006020820190508181036000830152613f8881613f4c565b9050919050565b6000613f9a82612c65565b9150613fa583612c65565b925082821015613fb857613fb76135b8565b5b828203905092915050565b6000819050919050565b613fde613fd982612c65565b613fc3565b82525050565b60008160601b9050919050565b6000613ffc82613fe4565b9050919050565b600061400e82613ff1565b9050919050565b61402661402182612ce8565b614003565b82525050565b60006140388285613fcd565b6020820191506140488284614015565b6014820191508190509392505050565b7f4e487b7100000000000000000000000000000000000000000000000000000000600052601260045260246000fd5b600061409282612c65565b915061409d83612c65565b9250826140ad576140ac614058565b5b828206905092915050565b7f4552433732313a20617070726f766520746f2063616c6c657200000000000000600082015250565b60006140ee601983612bb5565b91506140f9826140b8565b602082019050919050565b6000602082019050818103600083015261411d816140e1565b9050919050565b7f4552433732313a207472616e7366657220746f206e6f6e20455243373231526560008201527f63656976657220696d706c656d656e7465720000000000000000000000000000602082015250565b6000614180603283612bb5565b915061418b82614124565b604082019050919050565b600060208201905081810360008301526141af81614173565b9050919050565b600081519050919050565b600082825260208201905092915050565b60006141dd826141b6565b6141e781856141c1565b93506141f7818560208601612bc6565b61420081612bf9565b840191505092915050565b60006080820190506142206000830187612cfa565b61422d6020830186612cfa565b61423a6040830185612dbd565b818103606083015261424c81846141d2565b905095945050505050565b60008151905061426681612b1b565b92915050565b60006020828403121561428257614281612ae5565b5b600061429084828501614257565b91505092915050565b7f4552433732313a206d696e7420746f20746865207a65726f2061646472657373600082015250565b60006142cf602083612bb5565b91506142da82614299565b602082019050919050565b600060208201905081810360008301526142fe816142c2565b9050919050565b7f4552433732313a20746f6b656e20616c7265616479206d696e74656400000000600082015250565b600061433b601c83612bb5565b915061434682614305565b602082019050919050565b6000602082019050818103600083015261436a8161432e565b905091905056fe697066733a2f2f516d637a46634a76663876596669634d507038755a36623331514b695a4d4c6b79364576465245635657554b34522f636861726163746572732e6a736f6ea26469706673582212208013bc74c368cf0b5ccf9c2dceb84d945a01e1f52c08a14b75c2f96384019e5b64736f6c634300080a0033697066733a2f2f516d637a46634a76663876596669634d507038755a36623331514b695a4d4c6b79364576465245635657554b34522f6368617261637465722d68696464656e2e6a736f6e",
  "immutableReferences": {},
  "source": "// SPDX-License-Identifier: MIT\npragma solidity ^0.8.0;\n\n/* import \"../node_modules/@openzeppelin/contracts/token/ERC721/extensions/ERC721URIStorage.sol\";\nimport \"../node_modules/@openzeppelin/contracts/utils/math/SafeMath.sol\";\nimport \"../node_modules/@openzeppelin/contracts/utils/Counters.sol\";\nimport \"../node_modules/@openzeppelin/contracts/access/Ownable.sol\";\n */\nimport \"@openzeppelin/contracts/token/ERC721/extensions/ERC721URIStorage.sol\";\nimport \"@openzeppelin/contracts/utils/math/SafeMath.sol\";\nimport \"@openzeppelin/contracts/utils/Counters.sol\";\nimport \"@openzeppelin/contracts/access/Ownable.sol\";\n\ncontract Character is ERC721URIStorage, Ownable {\n    using Counters for Counters.Counter;\n    using SafeMath for uint256;\n\n    Counters.Counter private _tokenIds;\n\n    uint256 fee = 0.01 ether;\n    uint256 public maxSupply = 10000;\n    uint256 public maxMintAmountPerTx = 1;\n    uint256 public perAddressLimit = 100;\n    string public notRevealedUri =\n        \"ipfs://QmczFcJvf8vYficMPp8uZ6b31QKiZMLky6EvFREcVWUK4R/character-hidden.json\";\n    bool public paused = false;\n    bool public revealed = true;\n\n    // id, dna, level, rarity, evac, tokenURI\n    struct Char {\n        uint256 id;\n        uint256 dna;\n        uint8 level;\n        uint8 rarity;\n        uint256 evac;\n        string tokenURI;\n    }\n    // mapping char to token count\n    Char[10000] public _tokenDetails;\n    event NewChar(address indexed owner, uint256 id, uint256 dna);\n    mapping(address => uint256) public addressMintedBalance;\n\n    constructor() ERC721(\"Character\", \"CHAR\") {}\n\n    // helpers\n    function _createRandomNum(uint256 _mod) internal view returns (uint256) {\n        uint256 randomNum = uint256(\n            keccak256(abi.encodePacked(block.timestamp, msg.sender))\n        );\n        return randomNum % _mod;\n    }\n\n    /** func to apply conditions to token mint/creation\n     *  - condition: contract paused/unpaused\n     *  - condition: insufficient account balance\n     *  - condition: minting at least 1 or more\n     *  - condition: total minted + this potential tx is under maxsupply\n     *  - condition: minting limit per address\n     */\n    modifier mintCompliance(uint256 _mintAmount) {\n        require(!paused, \"The contract is paused.\");\n\n        // condition: insufficient account balance\n        require(msg.value <= msg.sender.balance, \"Insufficient balance.\");\n\n        // condition: minting at least 1 or more\n        require(\n            _mintAmount > 0 && _mintAmount <= maxMintAmountPerTx,\n            \"Invalid mint amount.\"\n        );\n\n        // condition: total minted + this potential tx is under maxsupply\n        require(\n            _tokenIds.current() + _mintAmount <= maxSupply,\n            \"Max supply exceeded.\"\n        );\n\n        // condition: value more than fee\n        // TODO: opensea won't let list with fee(?)\n        require(msg.value >= fee * _mintAmount, \"Insufficient funds.\");\n\n        uint256 ownerMintedCount = addressMintedBalance[msg.sender];\n        // condition: minting limit per address\n        require(\n            ownerMintedCount + _mintAmount <= perAddressLimit,\n            \"Max NFT per address exceeded.\"\n        );\n        _;\n    }\n\n    /** func to get token details\n     *  - token by id\n     *  - returns array\n     */\n    function getTokenDetails(uint256 _id) public view returns (Char memory) {\n        return _tokenDetails[_id];\n    }\n\n    /** func to get total supply\n     *\n     */\n    function getTokenCirculations() public view returns (uint256) {\n        return _tokenIds.current();\n    }\n\n    /** func to link token to metadata\n     *\n     */\n    function tokenURI(uint256 _id)\n        public\n        view\n        virtual\n        override\n        returns (string memory)\n    {\n        require(\n            _exists(_id),\n            \"ERC721Metadata: URI query for nonexistent token\"\n        );\n\n        if (revealed == false) {\n            return notRevealedUri;\n        }\n\n        return _tokenDetails[_id].tokenURI;\n    }\n\n    /** levelling-up func\n     *\n     */\n    function levelUp(uint256 _charId) public {\n        require(ownerOf(_charId) == msg.sender);\n        Char storage char = _tokenDetails[_charId];\n        char.level++;\n    }\n\n    /** contract-level metadata for OpenSea.\n     *  - update for collection-specific metadata.\n     */\n    function contractURI() public pure returns (string memory) {\n        return\n            \"ipfs://QmczFcJvf8vYficMPp8uZ6b31QKiZMLky6EvFREcVWUK4R/characters.json\"; // Contract-level metadata\n    }\n\n    /** onlyOwner funcs\n     *  - only game creator can run\n     *  - strictly for versioning only \n\n    /** func to mint/create token\n     *  - amount to be minted/created\n     *  - set link to token's metadata\n     *  - emits array of new token's details\n     */\n    function mintToken(uint256 _mintAmount, string memory _tokenURI)\n        public\n        payable\n        onlyOwner\n        mintCompliance(_mintAmount)\n    {\n        _tokenIds.increment();\n        uint256 newCharID = _tokenIds.current();\n\n        _safeMint(msg.sender, newCharID);\n        _setTokenURI(newCharID, _tokenURI);\n\n        uint8 randRarity = uint8(_createRandomNum(100));\n        uint256 randDna = _createRandomNum(10**16);\n\n        // id, dna, level, rarity, evac, tokenURI\n        Char memory newChar = Char(\n            newCharID,\n            randDna,\n            1,\n            randRarity,\n            block.timestamp,\n            _tokenURI\n        );\n\n        //\"ipfs://QmeXyRUNK1Zh3AGZWSzwyX8weyt1vDAs3HsTLRyqmzYJgz/0000000000000000000000000000000000000000000000000000000000000001.json\"\n        _tokenDetails[newCharID] = newChar;\n\n        // check for addresses already minted\n        for (uint256 i = 1; i <= _mintAmount; i++) {\n            addressMintedBalance[msg.sender]++;\n        }\n\n        emit NewChar(msg.sender, newCharID, randDna);\n    }\n\n    /** metadata versioning func\n     *  - update _tokenURI to metadata (previous version of metadata remains accessible)\n     */\n    function updateMetadata(uint256 _id, string memory _tokenURI)\n        public\n        onlyOwner\n    {\n        require(_exists(_id), \"ERC721URIStorage: URI set of nonexistent token\");\n        _tokenDetails[_id].tokenURI = _tokenURI;\n        _setTokenURI(_id, _tokenURI);\n    }\n\n    function setmaxMintAmount(\n        uint256 _newPerAddressLimit,\n        uint256 _maxMintAmountPerTx\n    ) public onlyOwner {\n        perAddressLimit = _newPerAddressLimit;\n        maxMintAmountPerTx = _maxMintAmountPerTx;\n    }\n\n    function reveal() public onlyOwner {\n        revealed = true;\n    }\n\n    function updateFee(uint256 _fee) external onlyOwner {\n        fee = _fee;\n    }\n\n    function withdraw() external payable onlyOwner {\n        // This will transfer the remaining contract balance to the owner.\n        // Do not remove this otherwise you will not be able to withdraw the funds.\n        // =============================================================================\n        (bool os, ) = payable(owner()).call{value: address(this).balance}(\"\");\n        require(os);\n        // =============================================================================\n    }\n}\n",
  "sourcePath": "/Users/ashleydavison/dev/nft-game-sandbox/contracts/Character.sol",
  "compiler": {
    "name": "solc",
    "version": "0.8.10+commit.fc410830.Emscripten.clang"
  },
  "schemaVersion": "3.4.4",
  "updatedAt": "2022-01-30T11:06:47.852Z",
  "devdoc": {
    "kind": "dev",
    "methods": {
      "approve(address,uint256)": {
        "details": "See {IERC721-approve}."
      },
      "balanceOf(address)": {
        "details": "See {IERC721-balanceOf}."
      },
      "getApproved(uint256)": {
        "details": "See {IERC721-getApproved}."
      },
      "isApprovedForAll(address,address)": {
        "details": "See {IERC721-isApprovedForAll}."
      },
      "name()": {
        "details": "See {IERC721Metadata-name}."
      },
      "owner()": {
        "details": "Returns the address of the current owner."
      },
      "ownerOf(uint256)": {
        "details": "See {IERC721-ownerOf}."
      },
      "renounceOwnership()": {
        "details": "Leaves the contract without owner. It will not be possible to call `onlyOwner` functions anymore. Can only be called by the current owner. NOTE: Renouncing ownership will leave the contract without an owner, thereby removing any functionality that is only available to the owner."
      },
      "safeTransferFrom(address,address,uint256)": {
        "details": "See {IERC721-safeTransferFrom}."
      },
      "safeTransferFrom(address,address,uint256,bytes)": {
        "details": "See {IERC721-safeTransferFrom}."
      },
      "setApprovalForAll(address,bool)": {
        "details": "See {IERC721-setApprovalForAll}."
      },
      "supportsInterface(bytes4)": {
        "details": "See {IERC165-supportsInterface}."
      },
      "symbol()": {
        "details": "See {IERC721Metadata-symbol}."
      },
      "transferFrom(address,address,uint256)": {
        "details": "See {IERC721-transferFrom}."
      },
      "transferOwnership(address)": {
        "details": "Transfers ownership of the contract to a new account (`newOwner`). Can only be called by the current owner."
      }
    },
    "version": 1
  },
  "userdoc": {
    "kind": "user",
    "methods": {
      "contractURI()": {
        "notice": "contract-level metadata for OpenSea.  - update for collection-specific metadata."
      },
      "getTokenCirculations()": {
        "notice": "func to get total supply"
      },
      "getTokenDetails(uint256)": {
        "notice": "func to get token details  - token by id  - returns array"
      },
      "levelUp(uint256)": {
        "notice": "levelling-up func"
      },
      "mintToken(uint256,string)": {
        "notice": "onlyOwner funcs  - only game creator can run  - strictly for versioning only  /** func to mint/create token  - amount to be minted/created  - set link to token's metadata  - emits array of new token's details"
      },
      "tokenURI(uint256)": {
        "notice": "func to link token to metadata"
      },
      "updateMetadata(uint256,string)": {
        "notice": "metadata versioning func  - update _tokenURI to metadata (previous version of metadata remains accessible)"
      }
    },
    "version": 1
  }
}