{
  "contractName": "Character",
  "abi": [
    {
      "inputs": [],
      "stateMutability": "nonpayable",
      "type": "constructor"
    },
    {
      "anonymous": false,
      "inputs": [
        {
          "indexed": true,
          "internalType": "address",
          "name": "owner",
          "type": "address"
        },
        {
          "indexed": true,
          "internalType": "address",
          "name": "approved",
          "type": "address"
        },
        {
          "indexed": true,
          "internalType": "uint256",
          "name": "tokenId",
          "type": "uint256"
        }
      ],
      "name": "Approval",
      "type": "event"
    },
    {
      "anonymous": false,
      "inputs": [
        {
          "indexed": true,
          "internalType": "address",
          "name": "owner",
          "type": "address"
        },
        {
          "indexed": true,
          "internalType": "address",
          "name": "operator",
          "type": "address"
        },
        {
          "indexed": false,
          "internalType": "bool",
          "name": "approved",
          "type": "bool"
        }
      ],
      "name": "ApprovalForAll",
      "type": "event"
    },
    {
      "anonymous": false,
      "inputs": [
        {
          "indexed": true,
          "internalType": "address",
          "name": "owner",
          "type": "address"
        },
        {
          "indexed": false,
          "internalType": "uint256",
          "name": "id",
          "type": "uint256"
        },
        {
          "indexed": false,
          "internalType": "uint256",
          "name": "dna",
          "type": "uint256"
        }
      ],
      "name": "NewChar",
      "type": "event"
    },
    {
      "anonymous": false,
      "inputs": [
        {
          "indexed": true,
          "internalType": "address",
          "name": "previousOwner",
          "type": "address"
        },
        {
          "indexed": true,
          "internalType": "address",
          "name": "newOwner",
          "type": "address"
        }
      ],
      "name": "OwnershipTransferred",
      "type": "event"
    },
    {
      "anonymous": false,
      "inputs": [
        {
          "indexed": true,
          "internalType": "address",
          "name": "from",
          "type": "address"
        },
        {
          "indexed": true,
          "internalType": "address",
          "name": "to",
          "type": "address"
        },
        {
          "indexed": true,
          "internalType": "uint256",
          "name": "tokenId",
          "type": "uint256"
        }
      ],
      "name": "Transfer",
      "type": "event"
    },
    {
      "inputs": [
        {
          "internalType": "uint256",
          "name": "",
          "type": "uint256"
        }
      ],
      "name": "_tokenDetails",
      "outputs": [
        {
          "internalType": "uint256",
          "name": "id",
          "type": "uint256"
        },
        {
          "internalType": "uint256",
          "name": "dna",
          "type": "uint256"
        },
        {
          "internalType": "uint8",
          "name": "level",
          "type": "uint8"
        },
        {
          "internalType": "uint8",
          "name": "rarity",
          "type": "uint8"
        },
        {
          "internalType": "uint256",
          "name": "evac",
          "type": "uint256"
        },
        {
          "internalType": "string",
          "name": "tokenURI",
          "type": "string"
        }
      ],
      "stateMutability": "view",
      "type": "function",
      "constant": true
    },
    {
      "inputs": [
        {
          "internalType": "address",
          "name": "",
          "type": "address"
        }
      ],
      "name": "addressMintedBalance",
      "outputs": [
        {
          "internalType": "uint256",
          "name": "",
          "type": "uint256"
        }
      ],
      "stateMutability": "view",
      "type": "function",
      "constant": true
    },
    {
      "inputs": [
        {
          "internalType": "address",
          "name": "to",
          "type": "address"
        },
        {
          "internalType": "uint256",
          "name": "tokenId",
          "type": "uint256"
        }
      ],
      "name": "approve",
      "outputs": [],
      "stateMutability": "nonpayable",
      "type": "function"
    },
    {
      "inputs": [
        {
          "internalType": "address",
          "name": "owner",
          "type": "address"
        }
      ],
      "name": "balanceOf",
      "outputs": [
        {
          "internalType": "uint256",
          "name": "",
          "type": "uint256"
        }
      ],
      "stateMutability": "view",
      "type": "function",
      "constant": true
    },
    {
      "inputs": [],
      "name": "contractOwner",
      "outputs": [
        {
          "internalType": "address",
          "name": "",
          "type": "address"
        }
      ],
      "stateMutability": "view",
      "type": "function",
      "constant": true
    },
    {
      "inputs": [
        {
          "internalType": "uint256",
          "name": "tokenId",
          "type": "uint256"
        }
      ],
      "name": "getApproved",
      "outputs": [
        {
          "internalType": "address",
          "name": "",
          "type": "address"
        }
      ],
      "stateMutability": "view",
      "type": "function",
      "constant": true
    },
    {
      "inputs": [
        {
          "internalType": "address",
          "name": "owner",
          "type": "address"
        },
        {
          "internalType": "address",
          "name": "operator",
          "type": "address"
        }
      ],
      "name": "isApprovedForAll",
      "outputs": [
        {
          "internalType": "bool",
          "name": "",
          "type": "bool"
        }
      ],
      "stateMutability": "view",
      "type": "function",
      "constant": true
    },
    {
      "inputs": [],
      "name": "maxMintAmountPerTx",
      "outputs": [
        {
          "internalType": "uint256",
          "name": "",
          "type": "uint256"
        }
      ],
      "stateMutability": "view",
      "type": "function",
      "constant": true
    },
    {
      "inputs": [],
      "name": "maxSupply",
      "outputs": [
        {
          "internalType": "uint256",
          "name": "",
          "type": "uint256"
        }
      ],
      "stateMutability": "view",
      "type": "function",
      "constant": true
    },
    {
      "inputs": [],
      "name": "name",
      "outputs": [
        {
          "internalType": "string",
          "name": "",
          "type": "string"
        }
      ],
      "stateMutability": "view",
      "type": "function",
      "constant": true
    },
    {
      "inputs": [],
      "name": "notRevealedUri",
      "outputs": [
        {
          "internalType": "string",
          "name": "",
          "type": "string"
        }
      ],
      "stateMutability": "view",
      "type": "function",
      "constant": true
    },
    {
      "inputs": [],
      "name": "owner",
      "outputs": [
        {
          "internalType": "address",
          "name": "",
          "type": "address"
        }
      ],
      "stateMutability": "view",
      "type": "function",
      "constant": true
    },
    {
      "inputs": [
        {
          "internalType": "uint256",
          "name": "tokenId",
          "type": "uint256"
        }
      ],
      "name": "ownerOf",
      "outputs": [
        {
          "internalType": "address",
          "name": "",
          "type": "address"
        }
      ],
      "stateMutability": "view",
      "type": "function",
      "constant": true
    },
    {
      "inputs": [],
      "name": "paused",
      "outputs": [
        {
          "internalType": "bool",
          "name": "",
          "type": "bool"
        }
      ],
      "stateMutability": "view",
      "type": "function",
      "constant": true
    },
    {
      "inputs": [],
      "name": "perAddressLimit",
      "outputs": [
        {
          "internalType": "uint256",
          "name": "",
          "type": "uint256"
        }
      ],
      "stateMutability": "view",
      "type": "function",
      "constant": true
    },
    {
      "inputs": [],
      "name": "renounceOwnership",
      "outputs": [],
      "stateMutability": "nonpayable",
      "type": "function"
    },
    {
      "inputs": [],
      "name": "revealed",
      "outputs": [
        {
          "internalType": "bool",
          "name": "",
          "type": "bool"
        }
      ],
      "stateMutability": "view",
      "type": "function",
      "constant": true
    },
    {
      "inputs": [
        {
          "internalType": "address",
          "name": "from",
          "type": "address"
        },
        {
          "internalType": "address",
          "name": "to",
          "type": "address"
        },
        {
          "internalType": "uint256",
          "name": "tokenId",
          "type": "uint256"
        }
      ],
      "name": "safeTransferFrom",
      "outputs": [],
      "stateMutability": "nonpayable",
      "type": "function"
    },
    {
      "inputs": [
        {
          "internalType": "address",
          "name": "from",
          "type": "address"
        },
        {
          "internalType": "address",
          "name": "to",
          "type": "address"
        },
        {
          "internalType": "uint256",
          "name": "tokenId",
          "type": "uint256"
        },
        {
          "internalType": "bytes",
          "name": "_data",
          "type": "bytes"
        }
      ],
      "name": "safeTransferFrom",
      "outputs": [],
      "stateMutability": "nonpayable",
      "type": "function"
    },
    {
      "inputs": [
        {
          "internalType": "address",
          "name": "operator",
          "type": "address"
        },
        {
          "internalType": "bool",
          "name": "approved",
          "type": "bool"
        }
      ],
      "name": "setApprovalForAll",
      "outputs": [],
      "stateMutability": "nonpayable",
      "type": "function"
    },
    {
      "inputs": [
        {
          "internalType": "bytes4",
          "name": "interfaceId",
          "type": "bytes4"
        }
      ],
      "name": "supportsInterface",
      "outputs": [
        {
          "internalType": "bool",
          "name": "",
          "type": "bool"
        }
      ],
      "stateMutability": "view",
      "type": "function",
      "constant": true
    },
    {
      "inputs": [],
      "name": "symbol",
      "outputs": [
        {
          "internalType": "string",
          "name": "",
          "type": "string"
        }
      ],
      "stateMutability": "view",
      "type": "function",
      "constant": true
    },
    {
      "inputs": [
        {
          "internalType": "address",
          "name": "from",
          "type": "address"
        },
        {
          "internalType": "address",
          "name": "to",
          "type": "address"
        },
        {
          "internalType": "uint256",
          "name": "tokenId",
          "type": "uint256"
        }
      ],
      "name": "transferFrom",
      "outputs": [],
      "stateMutability": "nonpayable",
      "type": "function"
    },
    {
      "inputs": [
        {
          "internalType": "address",
          "name": "newOwner",
          "type": "address"
        }
      ],
      "name": "transferOwnership",
      "outputs": [],
      "stateMutability": "nonpayable",
      "type": "function"
    },
    {
      "inputs": [
        {
          "internalType": "uint256",
          "name": "_id",
          "type": "uint256"
        }
      ],
      "name": "getTokenDetails",
      "outputs": [
        {
          "components": [
            {
              "internalType": "uint256",
              "name": "id",
              "type": "uint256"
            },
            {
              "internalType": "uint256",
              "name": "dna",
              "type": "uint256"
            },
            {
              "internalType": "uint8",
              "name": "level",
              "type": "uint8"
            },
            {
              "internalType": "uint8",
              "name": "rarity",
              "type": "uint8"
            },
            {
              "internalType": "uint256",
              "name": "evac",
              "type": "uint256"
            },
            {
              "internalType": "string",
              "name": "tokenURI",
              "type": "string"
            }
          ],
          "internalType": "struct Character.Char",
          "name": "",
          "type": "tuple"
        }
      ],
      "stateMutability": "view",
      "type": "function",
      "constant": true
    },
    {
      "inputs": [],
      "name": "getTokenCirculations",
      "outputs": [
        {
          "internalType": "uint256",
          "name": "",
          "type": "uint256"
        }
      ],
      "stateMutability": "view",
      "type": "function",
      "constant": true
    },
    {
      "inputs": [
        {
          "internalType": "uint256",
          "name": "_id",
          "type": "uint256"
        }
      ],
      "name": "tokenURI",
      "outputs": [
        {
          "internalType": "string",
          "name": "",
          "type": "string"
        }
      ],
      "stateMutability": "view",
      "type": "function",
      "constant": true
    },
    {
      "inputs": [
        {
          "internalType": "uint256",
          "name": "_charId",
          "type": "uint256"
        }
      ],
      "name": "levelUp",
      "outputs": [],
      "stateMutability": "nonpayable",
      "type": "function"
    },
    {
      "inputs": [],
      "name": "contractURI",
      "outputs": [
        {
          "internalType": "string",
          "name": "",
          "type": "string"
        }
      ],
      "stateMutability": "pure",
      "type": "function",
      "constant": true
    },
    {
      "inputs": [
        {
          "internalType": "uint256",
          "name": "_id",
          "type": "uint256"
        },
        {
          "internalType": "string",
          "name": "_tokenURI",
          "type": "string"
        }
      ],
      "name": "updateMetadata",
      "outputs": [],
      "stateMutability": "nonpayable",
      "type": "function"
    },
    {
      "inputs": [
        {
          "internalType": "uint256",
          "name": "_mintAmount",
          "type": "uint256"
        },
        {
          "internalType": "string",
          "name": "_tokenURI",
          "type": "string"
        }
      ],
      "name": "mintToken",
      "outputs": [],
      "stateMutability": "payable",
      "type": "function",
      "payable": true
    },
    {
      "inputs": [
        {
          "internalType": "uint256",
          "name": "_newPerAddressLimit",
          "type": "uint256"
        },
        {
          "internalType": "uint256",
          "name": "_maxMintAmountPerTx",
          "type": "uint256"
        }
      ],
      "name": "setmaxMintAmount",
      "outputs": [],
      "stateMutability": "nonpayable",
      "type": "function"
    },
    {
      "inputs": [],
      "name": "reveal",
      "outputs": [],
      "stateMutability": "nonpayable",
      "type": "function"
    },
    {
      "inputs": [
        {
          "internalType": "uint256",
          "name": "_fee",
          "type": "uint256"
        }
      ],
      "name": "updateFee",
      "outputs": [],
      "stateMutability": "nonpayable",
      "type": "function"
    },
    {
      "inputs": [],
      "name": "withdraw",
      "outputs": [],
      "stateMutability": "payable",
      "type": "function",
      "payable": true
    }
  ],
  "bytecode": "0x60806040526000600955612710600a556001600b556064600c556040518060600160405280602c81526020016200480a602c9139600d90805190602001906200004a92919062000264565b506000600e60006101000a81548160ff0219169083151502179055506001600e60016101000a81548160ff0219169083151502179055503480156200008e57600080fd5b506040518060400160405280600981526020017f43686172616374657200000000000000000000000000000000000000000000008152506040518060400160405280600481526020017f434841520000000000000000000000000000000000000000000000000000000081525081600090805190602001906200011392919062000264565b5080600190805190602001906200012c92919062000264565b5050506200014f620001436200019660201b60201c565b6200019e60201b60201c565b33600e60026101000a81548173ffffffffffffffffffffffffffffffffffffffff021916908373ffffffffffffffffffffffffffffffffffffffff16021790555062000379565b600033905090565b6000600760009054906101000a900473ffffffffffffffffffffffffffffffffffffffff16905081600760006101000a81548173ffffffffffffffffffffffffffffffffffffffff021916908373ffffffffffffffffffffffffffffffffffffffff1602179055508173ffffffffffffffffffffffffffffffffffffffff168173ffffffffffffffffffffffffffffffffffffffff167f8be0079c531659141344cd1fd0a4f28419497f9722a3daafe3b4186f6b6457e060405160405180910390a35050565b828054620002729062000343565b90600052602060002090601f016020900481019282620002965760008555620002e2565b82601f10620002b157805160ff1916838001178555620002e2565b82800160010185558215620002e2579182015b82811115620002e1578251825591602001919060010190620002c4565b5b509050620002f19190620002f5565b5090565b5b8082111562000310576000816000905550600101620002f6565b5090565b7f4e487b7100000000000000000000000000000000000000000000000000000000600052602260045260246000fd5b600060028204905060018216806200035c57607f821691505b6020821081141562000373576200037262000314565b5b50919050565b61448180620003896000396000f3fe6080604052600436106102045760003560e01c806370a0823111610118578063a475b5dd116100a0578063ce606ee01161006f578063ce606ee01461073e578063d5abeb0114610769578063e8a3d48514610794578063e985e9c5146107bf578063f2fde38b146107fc57610204565b8063a475b5dd14610684578063b88d4fde1461069b578063c1e03728146106c4578063c87b56dd1461070157610204565b80638da5cb5b116100e75780638da5cb5b146105b15780639012c4a8146105dc57806394354fd01461060557806395d89b4114610630578063a22cb4651461065b57610204565b806370a08231146104ff578063715018a61461053c578063752312a91461055357806385f7229a1461056f57610204565b80633ccfd60b1161019b57806353c8388e1161016a57806353c8388e146104185780635c975abb146104415780636007eeed1461046c5780636204f5d7146104975780636352211e146104c257610204565b80633ccfd60b1461039157806342842e0e1461039b5780634ca3ecd9146103c457806351830227146103ed57610204565b8063095ea7b3116101d7578063095ea7b3146102d95780630ce90ec21461030257806318cae2691461032b57806323b872dd1461036857610204565b806301ffc9a71461020957806306fdde0314610246578063081812fc14610271578063081c8c44146102ae575b600080fd5b34801561021557600080fd5b50610230600480360381019061022b9190612bfb565b610825565b60405161023d9190612c43565b60405180910390f35b34801561025257600080fd5b5061025b610907565b6040516102689190612cf7565b60405180910390f35b34801561027d57600080fd5b5061029860048036038101906102939190612d4f565b610999565b6040516102a59190612dbd565b60405180910390f35b3480156102ba57600080fd5b506102c3610a1e565b6040516102d09190612cf7565b60405180910390f35b3480156102e557600080fd5b5061030060048036038101906102fb9190612e04565b610aac565b005b34801561030e57600080fd5b5061032960048036038101906103249190612d4f565b610bc4565b005b34801561033757600080fd5b50610352600480360381019061034d9190612e44565b610c9b565b60405161035f9190612e80565b60405180910390f35b34801561037457600080fd5b5061038f600480360381019061038a9190612e9b565b610cb4565b005b610399610d14565b005b3480156103a757600080fd5b506103c260048036038101906103bd9190612e9b565b610e10565b005b3480156103d057600080fd5b506103eb60048036038101906103e69190612eee565b610e30565b005b3480156103f957600080fd5b50610402610ebe565b60405161040f9190612c43565b60405180910390f35b34801561042457600080fd5b5061043f600480360381019061043a9190613063565b610ed1565b005b34801561044d57600080fd5b50610456610ff0565b6040516104639190612c43565b60405180910390f35b34801561047857600080fd5b50610481611003565b60405161048e9190612e80565b60405180910390f35b3480156104a357600080fd5b506104ac611009565b6040516104b99190612e80565b60405180910390f35b3480156104ce57600080fd5b506104e960048036038101906104e49190612d4f565b61101a565b6040516104f69190612dbd565b60405180910390f35b34801561050b57600080fd5b5061052660048036038101906105219190612e44565b6110cc565b6040516105339190612e80565b60405180910390f35b34801561054857600080fd5b50610551611184565b005b61056d60048036038101906105689190613063565b61120c565b005b34801561057b57600080fd5b5061059660048036038101906105919190612d4f565b6116b4565b6040516105a8969594939291906130db565b60405180910390f35b3480156105bd57600080fd5b506105c6611799565b6040516105d39190612dbd565b60405180910390f35b3480156105e857600080fd5b5061060360048036038101906105fe9190612d4f565b6117c3565b005b34801561061157600080fd5b5061061a611849565b6040516106279190612e80565b60405180910390f35b34801561063c57600080fd5b5061064561184f565b6040516106529190612cf7565b60405180910390f35b34801561066757600080fd5b50610682600480360381019061067d919061316f565b6118e1565b005b34801561069057600080fd5b506106996118f7565b005b3480156106a757600080fd5b506106c260048036038101906106bd9190613250565b611990565b005b3480156106d057600080fd5b506106eb60048036038101906106e69190612d4f565b6119f2565b6040516106f891906133c4565b60405180910390f35b34801561070d57600080fd5b5061072860048036038101906107239190612d4f565b611b0f565b6040516107359190612cf7565b60405180910390f35b34801561074a57600080fd5b50610753611cb4565b6040516107609190612dbd565b60405180910390f35b34801561077557600080fd5b5061077e611cda565b60405161078b9190612e80565b60405180910390f35b3480156107a057600080fd5b506107a9611ce0565b6040516107b69190612cf7565b60405180910390f35b3480156107cb57600080fd5b506107e660048036038101906107e191906133e6565b611d00565b6040516107f39190612c43565b60405180910390f35b34801561080857600080fd5b50610823600480360381019061081e9190612e44565b611d94565b005b60007f80ac58cd000000000000000000000000000000000000000000000000000000007bffffffffffffffffffffffffffffffffffffffffffffffffffffffff1916827bffffffffffffffffffffffffffffffffffffffffffffffffffffffff191614806108f057507f5b5e139f000000000000000000000000000000000000000000000000000000007bffffffffffffffffffffffffffffffffffffffffffffffffffffffff1916827bffffffffffffffffffffffffffffffffffffffffffffffffffffffff1916145b8061090057506108ff82611e8c565b5b9050919050565b60606000805461091690613455565b80601f016020809104026020016040519081016040528092919081815260200182805461094290613455565b801561098f5780601f106109645761010080835404028352916020019161098f565b820191906000526020600020905b81548152906001019060200180831161097257829003601f168201915b5050505050905090565b60006109a482611ef6565b6109e3576040517f08c379a00000000000000000000000000000000000000000000000000000000081526004016109da906134f9565b60405180910390fd5b6004600083815260200190815260200160002060009054906101000a900473ffffffffffffffffffffffffffffffffffffffff169050919050565b600d8054610a2b90613455565b80601f0160208091040260200160405190810160405280929190818152602001828054610a5790613455565b8015610aa45780601f10610a7957610100808354040283529160200191610aa4565b820191906000526020600020905b815481529060010190602001808311610a8757829003601f168201915b505050505081565b6000610ab78261101a565b90508073ffffffffffffffffffffffffffffffffffffffff168373ffffffffffffffffffffffffffffffffffffffff161415610b28576040517f08c379a0000000000000000000000000000000000000000000000000000000008152600401610b1f9061358b565b60405180910390fd5b8073ffffffffffffffffffffffffffffffffffffffff16610b47611f62565b73ffffffffffffffffffffffffffffffffffffffff161480610b765750610b7581610b70611f62565b611d00565b5b610bb5576040517f08c379a0000000000000000000000000000000000000000000000000000000008152600401610bac9061361d565b60405180910390fd5b610bbf8383611f6a565b505050565b610bcc611f62565b73ffffffffffffffffffffffffffffffffffffffff16610bea611799565b73ffffffffffffffffffffffffffffffffffffffff1614610c40576040517f08c379a0000000000000000000000000000000000000000000000000000000008152600401610c3790613689565b60405180910390fd5b6000600f826127108110610c5757610c566136a9565b5b60050201905080600201600081819054906101000a900460ff1680929190610c7e90613707565b91906101000a81548160ff021916908360ff160217905550505050565b61c35f6020528060005260406000206000915090505481565b610cc5610cbf611f62565b82612023565b610d04576040517f08c379a0000000000000000000000000000000000000000000000000000000008152600401610cfb906137a3565b60405180910390fd5b610d0f838383612101565b505050565b610d1c611f62565b73ffffffffffffffffffffffffffffffffffffffff16610d3a611799565b73ffffffffffffffffffffffffffffffffffffffff1614610d90576040517f08c379a0000000000000000000000000000000000000000000000000000000008152600401610d8790613689565b60405180910390fd5b6000610d9a611799565b73ffffffffffffffffffffffffffffffffffffffff1647604051610dbd906137f4565b60006040518083038185875af1925050503d8060008114610dfa576040519150601f19603f3d011682016040523d82523d6000602084013e610dff565b606091505b5050905080610e0d57600080fd5b50565b610e2b83838360405180602001604052806000815250611990565b505050565b610e38611f62565b73ffffffffffffffffffffffffffffffffffffffff16610e56611799565b73ffffffffffffffffffffffffffffffffffffffff1614610eac576040517f08c379a0000000000000000000000000000000000000000000000000000000008152600401610ea390613689565b60405180910390fd5b81600c8190555080600b819055505050565b600e60019054906101000a900460ff1681565b610eda82611ef6565b610f19576040517f08c379a0000000000000000000000000000000000000000000000000000000008152600401610f109061387b565b60405180910390fd5b3373ffffffffffffffffffffffffffffffffffffffff16610f398361101a565b73ffffffffffffffffffffffffffffffffffffffff161480610fa857503373ffffffffffffffffffffffffffffffffffffffff16600e60029054906101000a900473ffffffffffffffffffffffffffffffffffffffff1673ffffffffffffffffffffffffffffffffffffffff16145b610fb157600080fd5b80600f836127108110610fc757610fc66136a9565b5b600502016004019080519060200190610fe1929190612ab0565b50610fec828261235d565b5050565b600e60009054906101000a900460ff1681565b600c5481565b600061101560086123d1565b905090565b6000806002600084815260200190815260200160002060009054906101000a900473ffffffffffffffffffffffffffffffffffffffff169050600073ffffffffffffffffffffffffffffffffffffffff168173ffffffffffffffffffffffffffffffffffffffff1614156110c3576040517f08c379a00000000000000000000000000000000000000000000000000000000081526004016110ba9061390d565b60405180910390fd5b80915050919050565b60008073ffffffffffffffffffffffffffffffffffffffff168273ffffffffffffffffffffffffffffffffffffffff16141561113d576040517f08c379a00000000000000000000000000000000000000000000000000000000081526004016111349061399f565b60405180910390fd5b600360008373ffffffffffffffffffffffffffffffffffffffff1673ffffffffffffffffffffffffffffffffffffffff168152602001908152602001600020549050919050565b61118c611f62565b73ffffffffffffffffffffffffffffffffffffffff166111aa611799565b73ffffffffffffffffffffffffffffffffffffffff1614611200576040517f08c379a00000000000000000000000000000000000000000000000000000000081526004016111f790613689565b60405180910390fd5b61120a60006123df565b565b611214611f62565b73ffffffffffffffffffffffffffffffffffffffff16611232611799565b73ffffffffffffffffffffffffffffffffffffffff1614611288576040517f08c379a000000000000000000000000000000000000000000000000000000000815260040161127f90613689565b60405180910390fd5b81600e60009054906101000a900460ff16156112d9576040517f08c379a00000000000000000000000000000000000000000000000000000000081526004016112d090613a0b565b60405180910390fd5b3373ffffffffffffffffffffffffffffffffffffffff1631341115611333576040517f08c379a000000000000000000000000000000000000000000000000000000000815260040161132a90613a77565b60405180910390fd5b6000811180156113455750600b548111155b611384576040517f08c379a000000000000000000000000000000000000000000000000000000000815260040161137b90613ae3565b60405180910390fd5b600a548161139260086123d1565b61139c9190613b03565b11156113dd576040517f08c379a00000000000000000000000000000000000000000000000000000000081526004016113d490613ba5565b60405180910390fd5b806009546113eb9190613bc5565b34101561142d576040517f08c379a000000000000000000000000000000000000000000000000000000000815260040161142490613c6b565b60405180910390fd5b600061c35f60003373ffffffffffffffffffffffffffffffffffffffff1673ffffffffffffffffffffffffffffffffffffffff168152602001908152602001600020549050600c5482826114819190613b03565b11156114c2576040517f08c379a00000000000000000000000000000000000000000000000000000000081526004016114b990613cd7565b60405180910390fd5b6114cc60086124a5565b60006114d860086123d1565b90506114e433826124bb565b6114ee818561235d565b60006114fa60646124d9565b9050600061150e662386f26fc100006124d9565b905060006040518060c00160405280858152602001838152602001600160ff1681526020018460ff16815260200142815260200188815250905080600f85612710811061155e5761155d6136a9565b5b60050201600082015181600001556020820151816001015560408201518160020160006101000a81548160ff021916908360ff16021790555060608201518160020160016101000a81548160ff021916908360ff1602179055506080820151816003015560a08201518160040190805190602001906115de929190612ab0565b509050506000600190505b8881116116595761c35f60003373ffffffffffffffffffffffffffffffffffffffff1673ffffffffffffffffffffffffffffffffffffffff168152602001908152602001600020600081548092919061164190613cf7565b9190505550808061165190613cf7565b9150506115e9565b503373ffffffffffffffffffffffffffffffffffffffff167f5204a044357c967ad181d0a7bb9936cf03d235351ff1a5a5b6362a2234ff407585846040516116a2929190613d40565b60405180910390a25050505050505050565b600f8161271081106116c557600080fd5b600502016000915090508060000154908060010154908060020160009054906101000a900460ff16908060020160019054906101000a900460ff169080600301549080600401805461171690613455565b80601f016020809104026020016040519081016040528092919081815260200182805461174290613455565b801561178f5780601f106117645761010080835404028352916020019161178f565b820191906000526020600020905b81548152906001019060200180831161177257829003601f168201915b5050505050905086565b6000600760009054906101000a900473ffffffffffffffffffffffffffffffffffffffff16905090565b6117cb611f62565b73ffffffffffffffffffffffffffffffffffffffff166117e9611799565b73ffffffffffffffffffffffffffffffffffffffff161461183f576040517f08c379a000000000000000000000000000000000000000000000000000000000815260040161183690613689565b60405180910390fd5b8060098190555050565b600b5481565b60606001805461185e90613455565b80601f016020809104026020016040519081016040528092919081815260200182805461188a90613455565b80156118d75780601f106118ac576101008083540402835291602001916118d7565b820191906000526020600020905b8154815290600101906020018083116118ba57829003601f168201915b5050505050905090565b6118f36118ec611f62565b838361251e565b5050565b6118ff611f62565b73ffffffffffffffffffffffffffffffffffffffff1661191d611799565b73ffffffffffffffffffffffffffffffffffffffff1614611973576040517f08c379a000000000000000000000000000000000000000000000000000000000815260040161196a90613689565b60405180910390fd5b6001600e60016101000a81548160ff021916908315150217905550565b6119a161199b611f62565b83612023565b6119e0576040517f08c379a00000000000000000000000000000000000000000000000000000000081526004016119d7906137a3565b60405180910390fd5b6119ec8484848461268b565b50505050565b6119fa612b36565b600f826127108110611a0f57611a0e6136a9565b5b600502016040518060c001604052908160008201548152602001600182015481526020016002820160009054906101000a900460ff1660ff1660ff1681526020016002820160019054906101000a900460ff1660ff1660ff16815260200160038201548152602001600482018054611a8690613455565b80601f0160208091040260200160405190810160405280929190818152602001828054611ab290613455565b8015611aff5780601f10611ad457610100808354040283529160200191611aff565b820191906000526020600020905b815481529060010190602001808311611ae257829003601f168201915b5050505050815250509050919050565b6060611b1a82611ef6565b611b59576040517f08c379a0000000000000000000000000000000000000000000000000000000008152600401611b5090613ddb565b60405180910390fd5b60001515600e60019054906101000a900460ff1615151415611c0757600d8054611b8290613455565b80601f0160208091040260200160405190810160405280929190818152602001828054611bae90613455565b8015611bfb5780601f10611bd057610100808354040283529160200191611bfb565b820191906000526020600020905b815481529060010190602001808311611bde57829003601f168201915b50505050509050611caf565b600f826127108110611c1c57611c1b6136a9565b5b600502016004018054611c2e90613455565b80601f0160208091040260200160405190810160405280929190818152602001828054611c5a90613455565b8015611ca75780601f10611c7c57610100808354040283529160200191611ca7565b820191906000526020600020905b815481529060010190602001808311611c8a57829003601f168201915b505050505090505b919050565b600e60029054906101000a900473ffffffffffffffffffffffffffffffffffffffff1681565b600a5481565b606060405180606001604052806026815260200161442660269139905090565b6000600560008473ffffffffffffffffffffffffffffffffffffffff1673ffffffffffffffffffffffffffffffffffffffff16815260200190815260200160002060008373ffffffffffffffffffffffffffffffffffffffff1673ffffffffffffffffffffffffffffffffffffffff16815260200190815260200160002060009054906101000a900460ff16905092915050565b611d9c611f62565b73ffffffffffffffffffffffffffffffffffffffff16611dba611799565b73ffffffffffffffffffffffffffffffffffffffff1614611e10576040517f08c379a0000000000000000000000000000000000000000000000000000000008152600401611e0790613689565b60405180910390fd5b600073ffffffffffffffffffffffffffffffffffffffff168173ffffffffffffffffffffffffffffffffffffffff161415611e80576040517f08c379a0000000000000000000000000000000000000000000000000000000008152600401611e7790613e6d565b60405180910390fd5b611e89816123df565b50565b60007f01ffc9a7000000000000000000000000000000000000000000000000000000007bffffffffffffffffffffffffffffffffffffffffffffffffffffffff1916827bffffffffffffffffffffffffffffffffffffffffffffffffffffffff1916149050919050565b60008073ffffffffffffffffffffffffffffffffffffffff166002600084815260200190815260200160002060009054906101000a900473ffffffffffffffffffffffffffffffffffffffff1673ffffffffffffffffffffffffffffffffffffffff1614159050919050565b600033905090565b816004600083815260200190815260200160002060006101000a81548173ffffffffffffffffffffffffffffffffffffffff021916908373ffffffffffffffffffffffffffffffffffffffff160217905550808273ffffffffffffffffffffffffffffffffffffffff16611fdd8361101a565b73ffffffffffffffffffffffffffffffffffffffff167f8c5be1e5ebec7d5bd14f71427d1e84f3dd0314c0f7b2291e5b200ac8c7c3b92560405160405180910390a45050565b600061202e82611ef6565b61206d576040517f08c379a000000000000000000000000000000000000000000000000000000000815260040161206490613eff565b60405180910390fd5b60006120788361101a565b90508073ffffffffffffffffffffffffffffffffffffffff168473ffffffffffffffffffffffffffffffffffffffff1614806120e757508373ffffffffffffffffffffffffffffffffffffffff166120cf84610999565b73ffffffffffffffffffffffffffffffffffffffff16145b806120f857506120f78185611d00565b5b91505092915050565b8273ffffffffffffffffffffffffffffffffffffffff166121218261101a565b73ffffffffffffffffffffffffffffffffffffffff1614612177576040517f08c379a000000000000000000000000000000000000000000000000000000000815260040161216e90613f91565b60405180910390fd5b600073ffffffffffffffffffffffffffffffffffffffff168273ffffffffffffffffffffffffffffffffffffffff1614156121e7576040517f08c379a00000000000000000000000000000000000000000000000000000000081526004016121de90614023565b60405180910390fd5b6121f28383836126e7565b6121fd600082611f6a565b6001600360008573ffffffffffffffffffffffffffffffffffffffff1673ffffffffffffffffffffffffffffffffffffffff168152602001908152602001600020600082825461224d9190614043565b925050819055506001600360008473ffffffffffffffffffffffffffffffffffffffff1673ffffffffffffffffffffffffffffffffffffffff16815260200190815260200160002060008282546122a49190613b03565b92505081905550816002600083815260200190815260200160002060006101000a81548173ffffffffffffffffffffffffffffffffffffffff021916908373ffffffffffffffffffffffffffffffffffffffff160217905550808273ffffffffffffffffffffffffffffffffffffffff168473ffffffffffffffffffffffffffffffffffffffff167fddf252ad1be2c89b69c2b068fc378daa952ba7f163c4a11628f55a4df523b3ef60405160405180910390a4505050565b61236682611ef6565b6123a5576040517f08c379a000000000000000000000000000000000000000000000000000000000815260040161239c9061387b565b60405180910390fd5b806006600084815260200190815260200160002090805190602001906123cc929190612ab0565b505050565b600081600001549050919050565b6000600760009054906101000a900473ffffffffffffffffffffffffffffffffffffffff16905081600760006101000a81548173ffffffffffffffffffffffffffffffffffffffff021916908373ffffffffffffffffffffffffffffffffffffffff1602179055508173ffffffffffffffffffffffffffffffffffffffff168173ffffffffffffffffffffffffffffffffffffffff167f8be0079c531659141344cd1fd0a4f28419497f9722a3daafe3b4186f6b6457e060405160405180910390a35050565b6001816000016000828254019250508190555050565b6124d58282604051806020016040528060008152506126ec565b5050565b60008042336040516020016124ef9291906140e0565b6040516020818303038152906040528051906020012060001c90508281612516919061413b565b915050919050565b8173ffffffffffffffffffffffffffffffffffffffff168373ffffffffffffffffffffffffffffffffffffffff16141561258d576040517f08c379a0000000000000000000000000000000000000000000000000000000008152600401612584906141b8565b60405180910390fd5b80600560008573ffffffffffffffffffffffffffffffffffffffff1673ffffffffffffffffffffffffffffffffffffffff16815260200190815260200160002060008473ffffffffffffffffffffffffffffffffffffffff1673ffffffffffffffffffffffffffffffffffffffff16815260200190815260200160002060006101000a81548160ff0219169083151502179055508173ffffffffffffffffffffffffffffffffffffffff168373ffffffffffffffffffffffffffffffffffffffff167f17307eab39ab6107e8899845ad3d59bd9653f200f220920489ca2b5937696c318360405161267e9190612c43565b60405180910390a3505050565b612696848484612101565b6126a284848484612747565b6126e1576040517f08c379a00000000000000000000000000000000000000000000000000000000081526004016126d89061424a565b60405180910390fd5b50505050565b505050565b6126f683836128cf565b6127036000848484612747565b612742576040517f08c379a00000000000000000000000000000000000000000000000000000000081526004016127399061424a565b60405180910390fd5b505050565b60006127688473ffffffffffffffffffffffffffffffffffffffff16612a9d565b156128c2578373ffffffffffffffffffffffffffffffffffffffff1663150b7a02612791611f62565b8786866040518563ffffffff1660e01b81526004016127b394939291906142bf565b6020604051808303816000875af19250505080156127ef57506040513d601f19601f820116820180604052508101906127ec9190614320565b60015b612872573d806000811461281f576040519150601f19603f3d011682016040523d82523d6000602084013e612824565b606091505b5060008151141561286a576040517f08c379a00000000000000000000000000000000000000000000000000000000081526004016128619061424a565b60405180910390fd5b805181602001fd5b63150b7a0260e01b7bffffffffffffffffffffffffffffffffffffffffffffffffffffffff1916817bffffffffffffffffffffffffffffffffffffffffffffffffffffffff1916149150506128c7565b600190505b949350505050565b600073ffffffffffffffffffffffffffffffffffffffff168273ffffffffffffffffffffffffffffffffffffffff16141561293f576040517f08c379a000000000000000000000000000000000000000000000000000000000815260040161293690614399565b60405180910390fd5b61294881611ef6565b15612988576040517f08c379a000000000000000000000000000000000000000000000000000000000815260040161297f90614405565b60405180910390fd5b612994600083836126e7565b6001600360008473ffffffffffffffffffffffffffffffffffffffff1673ffffffffffffffffffffffffffffffffffffffff16815260200190815260200160002060008282546129e49190613b03565b92505081905550816002600083815260200190815260200160002060006101000a81548173ffffffffffffffffffffffffffffffffffffffff021916908373ffffffffffffffffffffffffffffffffffffffff160217905550808273ffffffffffffffffffffffffffffffffffffffff16600073ffffffffffffffffffffffffffffffffffffffff167fddf252ad1be2c89b69c2b068fc378daa952ba7f163c4a11628f55a4df523b3ef60405160405180910390a45050565b600080823b905060008111915050919050565b828054612abc90613455565b90600052602060002090601f016020900481019282612ade5760008555612b25565b82601f10612af757805160ff1916838001178555612b25565b82800160010185558215612b25579182015b82811115612b24578251825591602001919060010190612b09565b5b509050612b329190612b72565b5090565b6040518060c001604052806000815260200160008152602001600060ff168152602001600060ff16815260200160008152602001606081525090565b5b80821115612b8b576000816000905550600101612b73565b5090565b6000604051905090565b600080fd5b600080fd5b60007fffffffff0000000000000000000000000000000000000000000000000000000082169050919050565b612bd881612ba3565b8114612be357600080fd5b50565b600081359050612bf581612bcf565b92915050565b600060208284031215612c1157612c10612b99565b5b6000612c1f84828501612be6565b91505092915050565b60008115159050919050565b612c3d81612c28565b82525050565b6000602082019050612c586000830184612c34565b92915050565b600081519050919050565b600082825260208201905092915050565b60005b83811015612c98578082015181840152602081019050612c7d565b83811115612ca7576000848401525b50505050565b6000601f19601f8301169050919050565b6000612cc982612c5e565b612cd38185612c69565b9350612ce3818560208601612c7a565b612cec81612cad565b840191505092915050565b60006020820190508181036000830152612d118184612cbe565b905092915050565b6000819050919050565b612d2c81612d19565b8114612d3757600080fd5b50565b600081359050612d4981612d23565b92915050565b600060208284031215612d6557612d64612b99565b5b6000612d7384828501612d3a565b91505092915050565b600073ffffffffffffffffffffffffffffffffffffffff82169050919050565b6000612da782612d7c565b9050919050565b612db781612d9c565b82525050565b6000602082019050612dd26000830184612dae565b92915050565b612de181612d9c565b8114612dec57600080fd5b50565b600081359050612dfe81612dd8565b92915050565b60008060408385031215612e1b57612e1a612b99565b5b6000612e2985828601612def565b9250506020612e3a85828601612d3a565b9150509250929050565b600060208284031215612e5a57612e59612b99565b5b6000612e6884828501612def565b91505092915050565b612e7a81612d19565b82525050565b6000602082019050612e956000830184612e71565b92915050565b600080600060608486031215612eb457612eb3612b99565b5b6000612ec286828701612def565b9350506020612ed386828701612def565b9250506040612ee486828701612d3a565b9150509250925092565b60008060408385031215612f0557612f04612b99565b5b6000612f1385828601612d3a565b9250506020612f2485828601612d3a565b9150509250929050565b600080fd5b600080fd5b7f4e487b7100000000000000000000000000000000000000000000000000000000600052604160045260246000fd5b612f7082612cad565b810181811067ffffffffffffffff82111715612f8f57612f8e612f38565b5b80604052505050565b6000612fa2612b8f565b9050612fae8282612f67565b919050565b600067ffffffffffffffff821115612fce57612fcd612f38565b5b612fd782612cad565b9050602081019050919050565b82818337600083830152505050565b600061300661300184612fb3565b612f98565b90508281526020810184848401111561302257613021612f33565b5b61302d848285612fe4565b509392505050565b600082601f83011261304a57613049612f2e565b5b813561305a848260208601612ff3565b91505092915050565b6000806040838503121561307a57613079612b99565b5b600061308885828601612d3a565b925050602083013567ffffffffffffffff8111156130a9576130a8612b9e565b5b6130b585828601613035565b9150509250929050565b600060ff82169050919050565b6130d5816130bf565b82525050565b600060c0820190506130f06000830189612e71565b6130fd6020830188612e71565b61310a60408301876130cc565b61311760608301866130cc565b6131246080830185612e71565b81810360a08301526131368184612cbe565b9050979650505050505050565b61314c81612c28565b811461315757600080fd5b50565b60008135905061316981613143565b92915050565b6000806040838503121561318657613185612b99565b5b600061319485828601612def565b92505060206131a58582860161315a565b9150509250929050565b600067ffffffffffffffff8211156131ca576131c9612f38565b5b6131d382612cad565b9050602081019050919050565b60006131f36131ee846131af565b612f98565b90508281526020810184848401111561320f5761320e612f33565b5b61321a848285612fe4565b509392505050565b600082601f83011261323757613236612f2e565b5b81356132478482602086016131e0565b91505092915050565b6000806000806080858703121561326a57613269612b99565b5b600061327887828801612def565b945050602061328987828801612def565b935050604061329a87828801612d3a565b925050606085013567ffffffffffffffff8111156132bb576132ba612b9e565b5b6132c787828801613222565b91505092959194509250565b6132dc81612d19565b82525050565b6132eb816130bf565b82525050565b600082825260208201905092915050565b600061330d82612c5e565b61331781856132f1565b9350613327818560208601612c7a565b61333081612cad565b840191505092915050565b600060c08301600083015161335360008601826132d3565b50602083015161336660208601826132d3565b50604083015161337960408601826132e2565b50606083015161338c60608601826132e2565b50608083015161339f60808601826132d3565b5060a083015184820360a08601526133b78282613302565b9150508091505092915050565b600060208201905081810360008301526133de818461333b565b905092915050565b600080604083850312156133fd576133fc612b99565b5b600061340b85828601612def565b925050602061341c85828601612def565b9150509250929050565b7f4e487b7100000000000000000000000000000000000000000000000000000000600052602260045260246000fd5b6000600282049050600182168061346d57607f821691505b6020821081141561348157613480613426565b5b50919050565b7f4552433732313a20617070726f76656420717565727920666f72206e6f6e657860008201527f697374656e7420746f6b656e0000000000000000000000000000000000000000602082015250565b60006134e3602c83612c69565b91506134ee82613487565b604082019050919050565b60006020820190508181036000830152613512816134d6565b9050919050565b7f4552433732313a20617070726f76616c20746f2063757272656e74206f776e6560008201527f7200000000000000000000000000000000000000000000000000000000000000602082015250565b6000613575602183612c69565b915061358082613519565b604082019050919050565b600060208201905081810360008301526135a481613568565b9050919050565b7f4552433732313a20617070726f76652063616c6c6572206973206e6f74206f7760008201527f6e6572206e6f7220617070726f76656420666f7220616c6c0000000000000000602082015250565b6000613607603883612c69565b9150613612826135ab565b604082019050919050565b60006020820190508181036000830152613636816135fa565b9050919050565b7f4f776e61626c653a2063616c6c6572206973206e6f7420746865206f776e6572600082015250565b6000613673602083612c69565b915061367e8261363d565b602082019050919050565b600060208201905081810360008301526136a281613666565b9050919050565b7f4e487b7100000000000000000000000000000000000000000000000000000000600052603260045260246000fd5b7f4e487b7100000000000000000000000000000000000000000000000000000000600052601160045260246000fd5b6000613712826130bf565b915060ff821415613726576137256136d8565b5b600182019050919050565b7f4552433732313a207472616e736665722063616c6c6572206973206e6f74206f60008201527f776e6572206e6f7220617070726f766564000000000000000000000000000000602082015250565b600061378d603183612c69565b915061379882613731565b604082019050919050565b600060208201905081810360008301526137bc81613780565b9050919050565b600081905092915050565b50565b60006137de6000836137c3565b91506137e9826137ce565b600082019050919050565b60006137ff826137d1565b9150819050919050565b7f45524337323155524953746f726167653a2055524920736574206f66206e6f6e60008201527f6578697374656e7420746f6b656e000000000000000000000000000000000000602082015250565b6000613865602e83612c69565b915061387082613809565b604082019050919050565b6000602082019050818103600083015261389481613858565b9050919050565b7f4552433732313a206f776e657220717565727920666f72206e6f6e657869737460008201527f656e7420746f6b656e0000000000000000000000000000000000000000000000602082015250565b60006138f7602983612c69565b91506139028261389b565b604082019050919050565b60006020820190508181036000830152613926816138ea565b9050919050565b7f4552433732313a2062616c616e636520717565727920666f7220746865207a6560008201527f726f206164647265737300000000000000000000000000000000000000000000602082015250565b6000613989602a83612c69565b91506139948261392d565b604082019050919050565b600060208201905081810360008301526139b88161397c565b9050919050565b7f54686520636f6e7472616374206973207061757365642e000000000000000000600082015250565b60006139f5601783612c69565b9150613a00826139bf565b602082019050919050565b60006020820190508181036000830152613a24816139e8565b9050919050565b7f496e73756666696369656e742062616c616e63652e0000000000000000000000600082015250565b6000613a61601583612c69565b9150613a6c82613a2b565b602082019050919050565b60006020820190508181036000830152613a9081613a54565b9050919050565b7f496e76616c6964206d696e7420616d6f756e742e000000000000000000000000600082015250565b6000613acd601483612c69565b9150613ad882613a97565b602082019050919050565b60006020820190508181036000830152613afc81613ac0565b9050919050565b6000613b0e82612d19565b9150613b1983612d19565b9250827fffffffffffffffffffffffffffffffffffffffffffffffffffffffffffffffff03821115613b4e57613b4d6136d8565b5b828201905092915050565b7f4d617820737570706c792065786365656465642e000000000000000000000000600082015250565b6000613b8f601483612c69565b9150613b9a82613b59565b602082019050919050565b60006020820190508181036000830152613bbe81613b82565b9050919050565b6000613bd082612d19565b9150613bdb83612d19565b9250817fffffffffffffffffffffffffffffffffffffffffffffffffffffffffffffffff0483118215151615613c1457613c136136d8565b5b828202905092915050565b7f496e73756666696369656e742066756e64732e00000000000000000000000000600082015250565b6000613c55601383612c69565b9150613c6082613c1f565b602082019050919050565b60006020820190508181036000830152613c8481613c48565b9050919050565b7f4d6178204e46542070657220616464726573732065786365656465642e000000600082015250565b6000613cc1601d83612c69565b9150613ccc82613c8b565b602082019050919050565b60006020820190508181036000830152613cf081613cb4565b9050919050565b6000613d0282612d19565b91507fffffffffffffffffffffffffffffffffffffffffffffffffffffffffffffffff821415613d3557613d346136d8565b5b600182019050919050565b6000604082019050613d556000830185612e71565b613d626020830184612e71565b9392505050565b7f4552433732314d657461646174613a2055524920717565727920666f72206e6f60008201527f6e6578697374656e7420746f6b656e0000000000000000000000000000000000602082015250565b6000613dc5602f83612c69565b9150613dd082613d69565b604082019050919050565b60006020820190508181036000830152613df481613db8565b9050919050565b7f4f776e61626c653a206e6577206f776e657220697320746865207a65726f206160008201527f6464726573730000000000000000000000000000000000000000000000000000602082015250565b6000613e57602683612c69565b9150613e6282613dfb565b604082019050919050565b60006020820190508181036000830152613e8681613e4a565b9050919050565b7f4552433732313a206f70657261746f7220717565727920666f72206e6f6e657860008201527f697374656e7420746f6b656e0000000000000000000000000000000000000000602082015250565b6000613ee9602c83612c69565b9150613ef482613e8d565b604082019050919050565b60006020820190508181036000830152613f1881613edc565b9050919050565b7f4552433732313a207472616e73666572206f6620746f6b656e2074686174206960008201527f73206e6f74206f776e0000000000000000000000000000000000000000000000602082015250565b6000613f7b602983612c69565b9150613f8682613f1f565b604082019050919050565b60006020820190508181036000830152613faa81613f6e565b9050919050565b7f4552433732313a207472616e7366657220746f20746865207a65726f2061646460008201527f7265737300000000000000000000000000000000000000000000000000000000602082015250565b600061400d602483612c69565b915061401882613fb1565b604082019050919050565b6000602082019050818103600083015261403c81614000565b9050919050565b600061404e82612d19565b915061405983612d19565b92508282101561406c5761406b6136d8565b5b828203905092915050565b6000819050919050565b61409261408d82612d19565b614077565b82525050565b60008160601b9050919050565b60006140b082614098565b9050919050565b60006140c2826140a5565b9050919050565b6140da6140d582612d9c565b6140b7565b82525050565b60006140ec8285614081565b6020820191506140fc82846140c9565b6014820191508190509392505050565b7f4e487b7100000000000000000000000000000000000000000000000000000000600052601260045260246000fd5b600061414682612d19565b915061415183612d19565b9250826141615761416061410c565b5b828206905092915050565b7f4552433732313a20617070726f766520746f2063616c6c657200000000000000600082015250565b60006141a2601983612c69565b91506141ad8261416c565b602082019050919050565b600060208201905081810360008301526141d181614195565b9050919050565b7f4552433732313a207472616e7366657220746f206e6f6e20455243373231526560008201527f63656976657220696d706c656d656e7465720000000000000000000000000000602082015250565b6000614234603283612c69565b915061423f826141d8565b604082019050919050565b6000602082019050818103600083015261426381614227565b9050919050565b600081519050919050565b600082825260208201905092915050565b60006142918261426a565b61429b8185614275565b93506142ab818560208601612c7a565b6142b481612cad565b840191505092915050565b60006080820190506142d46000830187612dae565b6142e16020830186612dae565b6142ee6040830185612e71565b81810360608301526143008184614286565b905095945050505050565b60008151905061431a81612bcf565b92915050565b60006020828403121561433657614335612b99565b5b60006143448482850161430b565b91505092915050565b7f4552433732313a206d696e7420746f20746865207a65726f2061646472657373600082015250565b6000614383602083612c69565b915061438e8261434d565b602082019050919050565b600060208201905081810360008301526143b281614376565b9050919050565b7f4552433732313a20746f6b656e20616c7265616479206d696e74656400000000600082015250565b60006143ef601c83612c69565b91506143fa826143b9565b602082019050919050565b6000602082019050818103600083015261441e816143e2565b905091905056fe697066733a2f2f494e534552545f594f55525f4349442f636861726163746572732e6a736f6ea26469706673582212208c47df194604c2beb0497dee921256a856d4b9da741104e045f78e47b70780fc64736f6c634300080a0033697066733a2f2f494e534552545f594f55525f4349442f6368617261637465722d68696464656e2e6a736f6e",
  "immutableReferences": {},
  "source": "// SPDX-License-Identifier: MIT\npragma solidity ^0.8.0;\n\n/* import \"../node_modules/@openzeppelin/contracts/token/ERC721/extensions/ERC721URIStorage.sol\";\nimport \"../node_modules/@openzeppelin/contracts/utils/math/SafeMath.sol\";\nimport \"../node_modules/@openzeppelin/contracts/utils/Counters.sol\";\nimport \"../node_modules/@openzeppelin/contracts/access/Ownable.sol\";\n */\nimport \"@openzeppelin/contracts/token/ERC721/extensions/ERC721URIStorage.sol\";\nimport \"@openzeppelin/contracts/utils/math/SafeMath.sol\";\nimport \"@openzeppelin/contracts/utils/Counters.sol\";\nimport \"@openzeppelin/contracts/access/Ownable.sol\";\n\ncontract Character is ERC721URIStorage, Ownable {\n  using Counters for Counters.Counter;\n  using SafeMath for uint256;\n\n  Counters.Counter private _tokenIds;\n\n  uint256 fee = 0.00 ether;\n  uint256 public maxSupply = 10000;\n  uint256 public maxMintAmountPerTx = 1;\n  uint256 public perAddressLimit = 100;\n  string public notRevealedUri = \"ipfs://INSERT_YOUR_CID/character-hidden.json\";\n  bool public paused = false;\n  bool public revealed = true;\n  address public contractOwner;\n\n  // id, dna, level, rarity, evac, tokenURI\n  struct Char {\n    uint256 id;\n    uint256 dna;\n    uint8 level;\n    uint8 rarity;\n    uint256 evac;\n    string tokenURI;\n  }\n  // mapping char to token count\n  Char[10000] public _tokenDetails;\n  event NewChar(address indexed owner, uint256 id, uint256 dna);\n  mapping(address => uint256) public addressMintedBalance;\n\n  constructor() ERC721(\"Character\", \"CHAR\") {\n    contractOwner = msg.sender;\n  }\n\n  // helpers\n  function _createRandomNum(uint256 _mod) internal view returns (uint256) {\n    uint256 randomNum = uint256(\n      keccak256(abi.encodePacked(block.timestamp, msg.sender))\n    );\n    return randomNum % _mod;\n  }\n\n  /** func to apply conditions to token mint/creation\n   *  - condition: contract paused/unpaused\n   *  - condition: insufficient account balance\n   *  - condition: minting at least 1 or more\n   *  - condition: total minted + this potential tx is under maxsupply\n   *  - condition: minting limit per address\n   */\n  modifier mintCompliance(uint256 _mintAmount) {\n    require(!paused, \"The contract is paused.\");\n\n    // condition: insufficient account balance\n    require(msg.value <= msg.sender.balance, \"Insufficient balance.\");\n\n    // condition: minting at least 1 or more\n    require(\n      _mintAmount > 0 && _mintAmount <= maxMintAmountPerTx,\n      \"Invalid mint amount.\"\n    );\n\n    // condition: total minted + this potential tx is under maxsupply\n    require(\n      _tokenIds.current() + _mintAmount <= maxSupply,\n      \"Max supply exceeded.\"\n    );\n\n    // condition: value more than fee\n    // TODO: opensea won't let list with fee(?)\n    require(msg.value >= fee * _mintAmount, \"Insufficient funds.\");\n\n    uint256 ownerMintedCount = addressMintedBalance[msg.sender];\n    // condition: minting limit per address\n    require(\n      ownerMintedCount + _mintAmount <= perAddressLimit,\n      \"Max NFT per address exceeded.\"\n    );\n    _;\n  }\n\n  /** func to get token details\n   *  - token by id\n   *  - returns array\n   */\n  function getTokenDetails(uint256 _id) public view returns (Char memory) {\n    return _tokenDetails[_id];\n  }\n\n  /** func to get total supply\n   *\n   */\n  function getTokenCirculations() public view returns (uint256) {\n    return _tokenIds.current();\n  }\n\n  /** func to link token to metadata\n   *\n   */\n  function tokenURI(uint256 _id)\n    public\n    view\n    virtual\n    override\n    returns (string memory)\n  {\n    require(_exists(_id), \"ERC721Metadata: URI query for nonexistent token\");\n\n    if (revealed == false) {\n      return notRevealedUri;\n    }\n\n    return _tokenDetails[_id].tokenURI;\n  }\n\n  /** levelling-up func\n   * level-up token_id (char: level 1 -> level 2) via cloud function\n   * 1/2 front-end calls cloud\n   * 2/2 cloud functions call this func in contract\n   * token id is a dependancy\n   * only allows contract host to run (onlyOwner)\n   * onlyOwner could be other specific wallet address or one a number within a role\n   */\n  function levelUp(uint256 _charId) public onlyOwner {\n    Char storage char = _tokenDetails[_charId];\n    char.level++;\n  }\n\n  /*\n    // alternative method to single level++ iteration\n    // also employs example of token owner condition\n    function levelUp(uint256 _charId, uint8 level) public {\n        require(ownerOf(_charId) == msg.sender);\n        Char storage char = _tokenDetails[_charId];\n        char.level = char.level + level;\n    }\n  */\n\n  /** contract-level metadata for OpenSea.\n   *  - update for collection-specific metadata.\n   */\n  function contractURI() public pure returns (string memory) {\n    return \"ipfs://INSERT_YOUR_CID/characters.json\"; // Contract-level metadata\n  }\n\n  /** metadata versioning func\n   *  - update _tokenURI to metadata (previous version of metadata remains accessible)\n   *  - only token owner can execute func\n   */\n  function updateMetadata(uint256 _id, string memory _tokenURI) public {\n    require(_exists(_id), \"ERC721URIStorage: URI set of nonexistent token\");\n    require(ownerOf(_id) == msg.sender || contractOwner == msg.sender);\n    _tokenDetails[_id].tokenURI = _tokenURI;\n    _setTokenURI(_id, _tokenURI);\n    //char.level++;\n  }\n\n  //WIP: updateMetadata w/o\n  /*\n    function updateMetadata(uint256 _id) public {\n        require(_exists(_id), \"ERC721URIStorage: URI set of nonexistent token\");\n        require(ownerOf(_id) == msg.sender || contractOwner == msg.sender);\n\n\n        _tokenDetails[_id].tokenURI = _tokenURI;\n        _setTokenURI(_id, _tokenURI);\n    }\n    */\n\n  /** onlyOwner funcs\n     *  - only game creator can run\n     *  - strictly for versioning only \n\n    /** func to mint/create token\n     *  - amount to be minted/created\n     *  - set link to token's metadata\n     *  - emits array of new token's details\n     */\n  function mintToken(uint256 _mintAmount, string memory _tokenURI)\n    public\n    payable\n    onlyOwner\n    mintCompliance(_mintAmount)\n  {\n    _tokenIds.increment();\n    uint256 newCharID = _tokenIds.current();\n\n    _safeMint(msg.sender, newCharID);\n    _setTokenURI(newCharID, _tokenURI);\n\n    uint8 randRarity = uint8(_createRandomNum(100));\n    uint256 randDna = _createRandomNum(10**16);\n\n    // id, dna, level, rarity, evac, tokenURI\n    Char memory newChar = Char(\n      newCharID,\n      randDna,\n      1,\n      randRarity,\n      block.timestamp,\n      _tokenURI\n    );\n\n    //\"ipfs://INSERT_YOUR_CID/0000000000000000000000000000000000000000000000000000000000000001.json\"\n    _tokenDetails[newCharID] = newChar;\n\n    // check for addresses already minted\n    for (uint256 i = 1; i <= _mintAmount; i++) {\n      addressMintedBalance[msg.sender]++;\n    }\n\n    emit NewChar(msg.sender, newCharID, randDna);\n  }\n\n  function setmaxMintAmount(\n    uint256 _newPerAddressLimit,\n    uint256 _maxMintAmountPerTx\n  ) public onlyOwner {\n    perAddressLimit = _newPerAddressLimit;\n    maxMintAmountPerTx = _maxMintAmountPerTx;\n  }\n\n  function reveal() public onlyOwner {\n    revealed = true;\n  }\n\n  function updateFee(uint256 _fee) external onlyOwner {\n    fee = _fee;\n  }\n\n  function withdraw() external payable onlyOwner {\n    // This will transfer the remaining contract balance to the owner.\n    // Do not remove this otherwise you will not be able to withdraw the funds.\n    // =============================================================================\n    (bool os, ) = payable(owner()).call{value: address(this).balance}(\"\");\n    require(os);\n    // =============================================================================\n  }\n}\n",
  "sourcePath": "/Users/ashleydavison/dev/nft-game-sandbox/contracts/Character.sol",
  "compiler": {
    "name": "solc",
    "version": "0.8.10+commit.fc410830.Emscripten.clang"
  },
  "schemaVersion": "3.4.4",
  "updatedAt": "2022-02-12T18:02:58.807Z",
  "networkType": "ethereum",
  "devdoc": {
    "kind": "dev",
    "methods": {
      "approve(address,uint256)": {
        "details": "See {IERC721-approve}."
      },
      "balanceOf(address)": {
        "details": "See {IERC721-balanceOf}."
      },
      "getApproved(uint256)": {
        "details": "See {IERC721-getApproved}."
      },
      "isApprovedForAll(address,address)": {
        "details": "See {IERC721-isApprovedForAll}."
      },
      "name()": {
        "details": "See {IERC721Metadata-name}."
      },
      "owner()": {
        "details": "Returns the address of the current owner."
      },
      "ownerOf(uint256)": {
        "details": "See {IERC721-ownerOf}."
      },
      "renounceOwnership()": {
        "details": "Leaves the contract without owner. It will not be possible to call `onlyOwner` functions anymore. Can only be called by the current owner. NOTE: Renouncing ownership will leave the contract without an owner, thereby removing any functionality that is only available to the owner."
      },
      "safeTransferFrom(address,address,uint256)": {
        "details": "See {IERC721-safeTransferFrom}."
      },
      "safeTransferFrom(address,address,uint256,bytes)": {
        "details": "See {IERC721-safeTransferFrom}."
      },
      "setApprovalForAll(address,bool)": {
        "details": "See {IERC721-setApprovalForAll}."
      },
      "supportsInterface(bytes4)": {
        "details": "See {IERC165-supportsInterface}."
      },
      "symbol()": {
        "details": "See {IERC721Metadata-symbol}."
      },
      "transferFrom(address,address,uint256)": {
        "details": "See {IERC721-transferFrom}."
      },
      "transferOwnership(address)": {
        "details": "Transfers ownership of the contract to a new account (`newOwner`). Can only be called by the current owner."
      }
    },
    "version": 1
  },
  "userdoc": {
    "kind": "user",
    "methods": {
      "contractURI()": {
        "notice": "contract-level metadata for OpenSea.  - update for collection-specific metadata."
      },
      "getTokenCirculations()": {
        "notice": "func to get total supply"
      },
      "getTokenDetails(uint256)": {
        "notice": "func to get token details  - token by id  - returns array"
      },
      "levelUp(uint256)": {
        "notice": "levelling-up func level-up token_id (char: level 1 -> level 2) via cloud function 1/2 front-end calls cloud 2/2 cloud functions call this func in contract token id is a dependancy only allows contract host to run (onlyOwner) onlyOwner could be other specific wallet address or one a number within a role"
      },
      "mintToken(uint256,string)": {
        "notice": "onlyOwner funcs  - only game creator can run  - strictly for versioning only  /** func to mint/create token  - amount to be minted/created  - set link to token's metadata  - emits array of new token's details"
      },
      "tokenURI(uint256)": {
        "notice": "func to link token to metadata"
      },
      "updateMetadata(uint256,string)": {
        "notice": "metadata versioning func  - update _tokenURI to metadata (previous version of metadata remains accessible)  - only token owner can execute func"
      }
    },
    "version": 1
  }
}