{
  "contractName": "Character",
  "abi": [
    {
      "inputs": [],
      "stateMutability": "nonpayable",
      "type": "constructor"
    },
    {
      "anonymous": false,
      "inputs": [
        {
          "indexed": true,
          "internalType": "address",
          "name": "owner",
          "type": "address"
        },
        {
          "indexed": true,
          "internalType": "address",
          "name": "approved",
          "type": "address"
        },
        {
          "indexed": true,
          "internalType": "uint256",
          "name": "tokenId",
          "type": "uint256"
        }
      ],
      "name": "Approval",
      "type": "event"
    },
    {
      "anonymous": false,
      "inputs": [
        {
          "indexed": true,
          "internalType": "address",
          "name": "owner",
          "type": "address"
        },
        {
          "indexed": true,
          "internalType": "address",
          "name": "operator",
          "type": "address"
        },
        {
          "indexed": false,
          "internalType": "bool",
          "name": "approved",
          "type": "bool"
        }
      ],
      "name": "ApprovalForAll",
      "type": "event"
    },
    {
      "anonymous": false,
      "inputs": [
        {
          "indexed": true,
          "internalType": "address",
          "name": "previousOwner",
          "type": "address"
        },
        {
          "indexed": true,
          "internalType": "address",
          "name": "newOwner",
          "type": "address"
        }
      ],
      "name": "OwnershipTransferred",
      "type": "event"
    },
    {
      "anonymous": false,
      "inputs": [
        {
          "indexed": true,
          "internalType": "address",
          "name": "from",
          "type": "address"
        },
        {
          "indexed": true,
          "internalType": "address",
          "name": "to",
          "type": "address"
        },
        {
          "indexed": true,
          "internalType": "uint256",
          "name": "tokenId",
          "type": "uint256"
        }
      ],
      "name": "Transfer",
      "type": "event"
    },
    {
      "inputs": [
        {
          "internalType": "uint256",
          "name": "",
          "type": "uint256"
        }
      ],
      "name": "_tokenDetails",
      "outputs": [
        {
          "internalType": "uint256",
          "name": "id",
          "type": "uint256"
        },
        {
          "internalType": "uint8",
          "name": "damage",
          "type": "uint8"
        },
        {
          "internalType": "uint8",
          "name": "power",
          "type": "uint8"
        },
        {
          "internalType": "uint256",
          "name": "lastMeal",
          "type": "uint256"
        },
        {
          "internalType": "uint256",
          "name": "endurance",
          "type": "uint256"
        },
        {
          "internalType": "string",
          "name": "tokenURI",
          "type": "string"
        }
      ],
      "stateMutability": "view",
      "type": "function",
      "constant": true
    },
    {
      "inputs": [
        {
          "internalType": "address",
          "name": "",
          "type": "address"
        }
      ],
      "name": "addressMintedBalance",
      "outputs": [
        {
          "internalType": "uint256",
          "name": "",
          "type": "uint256"
        }
      ],
      "stateMutability": "view",
      "type": "function",
      "constant": true
    },
    {
      "inputs": [
        {
          "internalType": "address",
          "name": "to",
          "type": "address"
        },
        {
          "internalType": "uint256",
          "name": "tokenId",
          "type": "uint256"
        }
      ],
      "name": "approve",
      "outputs": [],
      "stateMutability": "nonpayable",
      "type": "function"
    },
    {
      "inputs": [
        {
          "internalType": "address",
          "name": "owner",
          "type": "address"
        }
      ],
      "name": "balanceOf",
      "outputs": [
        {
          "internalType": "uint256",
          "name": "",
          "type": "uint256"
        }
      ],
      "stateMutability": "view",
      "type": "function",
      "constant": true
    },
    {
      "inputs": [
        {
          "internalType": "uint256",
          "name": "tokenId",
          "type": "uint256"
        }
      ],
      "name": "getApproved",
      "outputs": [
        {
          "internalType": "address",
          "name": "",
          "type": "address"
        }
      ],
      "stateMutability": "view",
      "type": "function",
      "constant": true
    },
    {
      "inputs": [
        {
          "internalType": "address",
          "name": "owner",
          "type": "address"
        },
        {
          "internalType": "address",
          "name": "operator",
          "type": "address"
        }
      ],
      "name": "isApprovedForAll",
      "outputs": [
        {
          "internalType": "bool",
          "name": "",
          "type": "bool"
        }
      ],
      "stateMutability": "view",
      "type": "function",
      "constant": true
    },
    {
      "inputs": [],
      "name": "maxMintAmountPerTx",
      "outputs": [
        {
          "internalType": "uint256",
          "name": "",
          "type": "uint256"
        }
      ],
      "stateMutability": "view",
      "type": "function",
      "constant": true
    },
    {
      "inputs": [],
      "name": "maxSupply",
      "outputs": [
        {
          "internalType": "uint256",
          "name": "",
          "type": "uint256"
        }
      ],
      "stateMutability": "view",
      "type": "function",
      "constant": true
    },
    {
      "inputs": [],
      "name": "name",
      "outputs": [
        {
          "internalType": "string",
          "name": "",
          "type": "string"
        }
      ],
      "stateMutability": "view",
      "type": "function",
      "constant": true
    },
    {
      "inputs": [],
      "name": "nftPerAddressLimit",
      "outputs": [
        {
          "internalType": "uint256",
          "name": "",
          "type": "uint256"
        }
      ],
      "stateMutability": "view",
      "type": "function",
      "constant": true
    },
    {
      "inputs": [],
      "name": "owner",
      "outputs": [
        {
          "internalType": "address",
          "name": "",
          "type": "address"
        }
      ],
      "stateMutability": "view",
      "type": "function",
      "constant": true
    },
    {
      "inputs": [
        {
          "internalType": "uint256",
          "name": "tokenId",
          "type": "uint256"
        }
      ],
      "name": "ownerOf",
      "outputs": [
        {
          "internalType": "address",
          "name": "",
          "type": "address"
        }
      ],
      "stateMutability": "view",
      "type": "function",
      "constant": true
    },
    {
      "inputs": [],
      "name": "paused",
      "outputs": [
        {
          "internalType": "bool",
          "name": "",
          "type": "bool"
        }
      ],
      "stateMutability": "view",
      "type": "function",
      "constant": true
    },
    {
      "inputs": [],
      "name": "renounceOwnership",
      "outputs": [],
      "stateMutability": "nonpayable",
      "type": "function"
    },
    {
      "inputs": [],
      "name": "revealed",
      "outputs": [
        {
          "internalType": "bool",
          "name": "",
          "type": "bool"
        }
      ],
      "stateMutability": "view",
      "type": "function",
      "constant": true
    },
    {
      "inputs": [
        {
          "internalType": "address",
          "name": "from",
          "type": "address"
        },
        {
          "internalType": "address",
          "name": "to",
          "type": "address"
        },
        {
          "internalType": "uint256",
          "name": "tokenId",
          "type": "uint256"
        }
      ],
      "name": "safeTransferFrom",
      "outputs": [],
      "stateMutability": "nonpayable",
      "type": "function"
    },
    {
      "inputs": [
        {
          "internalType": "address",
          "name": "from",
          "type": "address"
        },
        {
          "internalType": "address",
          "name": "to",
          "type": "address"
        },
        {
          "internalType": "uint256",
          "name": "tokenId",
          "type": "uint256"
        },
        {
          "internalType": "bytes",
          "name": "_data",
          "type": "bytes"
        }
      ],
      "name": "safeTransferFrom",
      "outputs": [],
      "stateMutability": "nonpayable",
      "type": "function"
    },
    {
      "inputs": [
        {
          "internalType": "address",
          "name": "operator",
          "type": "address"
        },
        {
          "internalType": "bool",
          "name": "approved",
          "type": "bool"
        }
      ],
      "name": "setApprovalForAll",
      "outputs": [],
      "stateMutability": "nonpayable",
      "type": "function"
    },
    {
      "inputs": [
        {
          "internalType": "bytes4",
          "name": "interfaceId",
          "type": "bytes4"
        }
      ],
      "name": "supportsInterface",
      "outputs": [
        {
          "internalType": "bool",
          "name": "",
          "type": "bool"
        }
      ],
      "stateMutability": "view",
      "type": "function",
      "constant": true
    },
    {
      "inputs": [],
      "name": "symbol",
      "outputs": [
        {
          "internalType": "string",
          "name": "",
          "type": "string"
        }
      ],
      "stateMutability": "view",
      "type": "function",
      "constant": true
    },
    {
      "inputs": [
        {
          "internalType": "uint256",
          "name": "tokenId",
          "type": "uint256"
        }
      ],
      "name": "tokenURI",
      "outputs": [
        {
          "internalType": "string",
          "name": "",
          "type": "string"
        }
      ],
      "stateMutability": "view",
      "type": "function",
      "constant": true
    },
    {
      "inputs": [
        {
          "internalType": "address",
          "name": "from",
          "type": "address"
        },
        {
          "internalType": "address",
          "name": "to",
          "type": "address"
        },
        {
          "internalType": "uint256",
          "name": "tokenId",
          "type": "uint256"
        }
      ],
      "name": "transferFrom",
      "outputs": [],
      "stateMutability": "nonpayable",
      "type": "function"
    },
    {
      "inputs": [
        {
          "internalType": "address",
          "name": "newOwner",
          "type": "address"
        }
      ],
      "name": "transferOwnership",
      "outputs": [],
      "stateMutability": "nonpayable",
      "type": "function"
    },
    {
      "inputs": [
        {
          "internalType": "uint256",
          "name": "_id",
          "type": "uint256"
        }
      ],
      "name": "getTokenDetails",
      "outputs": [
        {
          "components": [
            {
              "internalType": "uint256",
              "name": "id",
              "type": "uint256"
            },
            {
              "internalType": "uint8",
              "name": "damage",
              "type": "uint8"
            },
            {
              "internalType": "uint8",
              "name": "power",
              "type": "uint8"
            },
            {
              "internalType": "uint256",
              "name": "lastMeal",
              "type": "uint256"
            },
            {
              "internalType": "uint256",
              "name": "endurance",
              "type": "uint256"
            },
            {
              "internalType": "string",
              "name": "tokenURI",
              "type": "string"
            }
          ],
          "internalType": "struct Character.CharData",
          "name": "",
          "type": "tuple"
        }
      ],
      "stateMutability": "view",
      "type": "function",
      "constant": true
    },
    {
      "inputs": [
        {
          "internalType": "uint256",
          "name": "_id",
          "type": "uint256"
        }
      ],
      "name": "feed",
      "outputs": [],
      "stateMutability": "nonpayable",
      "type": "function"
    },
    {
      "inputs": [],
      "name": "getTokenCirculations",
      "outputs": [
        {
          "internalType": "uint256",
          "name": "",
          "type": "uint256"
        }
      ],
      "stateMutability": "view",
      "type": "function",
      "constant": true
    },
    {
      "inputs": [
        {
          "internalType": "uint256",
          "name": "_mintAmount",
          "type": "uint256"
        },
        {
          "internalType": "uint8",
          "name": "_damage",
          "type": "uint8"
        },
        {
          "internalType": "uint8",
          "name": "_power",
          "type": "uint8"
        },
        {
          "internalType": "uint256",
          "name": "_endurance",
          "type": "uint256"
        },
        {
          "internalType": "string",
          "name": "_tokenURI",
          "type": "string"
        }
      ],
      "name": "mintToken",
      "outputs": [
        {
          "internalType": "uint256",
          "name": "",
          "type": "uint256"
        }
      ],
      "stateMutability": "payable",
      "type": "function",
      "payable": true
    }
  ],
  "bytecode": "0x60806040526000600960006101000a81548160ff0219169083151502179055506000600960016101000a81548160ff021916908315150217905550612710600a556001600b556064600c553480156200005757600080fd5b506040518060400160405280600981526020017f43686172616374657200000000000000000000000000000000000000000000008152506040518060400160405280600481526020017f43484152000000000000000000000000000000000000000000000000000000008152508160009080519060200190620000dc929190620001ec565b508060019080519060200190620000f5929190620001ec565b505050620001186200010c6200011e60201b60201c565b6200012660201b60201c565b62000301565b600033905090565b6000600760009054906101000a900473ffffffffffffffffffffffffffffffffffffffff16905081600760006101000a81548173ffffffffffffffffffffffffffffffffffffffff021916908373ffffffffffffffffffffffffffffffffffffffff1602179055508173ffffffffffffffffffffffffffffffffffffffff168173ffffffffffffffffffffffffffffffffffffffff167f8be0079c531659141344cd1fd0a4f28419497f9722a3daafe3b4186f6b6457e060405160405180910390a35050565b828054620001fa90620002cb565b90600052602060002090601f0160209004810192826200021e57600085556200026a565b82601f106200023957805160ff19168380011785556200026a565b828001600101855582156200026a579182015b82811115620002695782518255916020019190600101906200024c565b5b5090506200027991906200027d565b5090565b5b80821115620002985760008160009055506001016200027e565b5090565b7f4e487b7100000000000000000000000000000000000000000000000000000000600052602260045260246000fd5b60006002820490506001821680620002e457607f821691505b60208210811415620002fb57620002fa6200029c565b5b50919050565b613dd280620003116000396000f3fe60806040526004361061019c5760003560e01c8063715018a6116100ec578063ba7d2c761161008a578063d5abeb0111610064578063d5abeb01146105fa578063e985e9c514610625578063f2fde38b14610662578063f59dfdfb1461068b5761019c565b8063ba7d2c7614610555578063c1e0372814610580578063c87b56dd146105bd5761019c565b806394354fd0116100c657806394354fd0146104ad57806395d89b41146104d8578063a22cb46514610503578063b88d4fde1461052c5761019c565b8063715018a61461042957806385f7229a146104405780638da5cb5b146104825761019c565b806342842e0e116101595780635cb94403116101335780635cb94403146103545780636204f5d7146103845780636352211e146103af57806370a08231146103ec5761019c565b806342842e0e146102d557806351830227146102fe5780635c975abb146103295761019c565b806301ffc9a7146101a157806306fdde03146101de578063081812fc14610209578063095ea7b31461024657806318cae2691461026f57806323b872dd146102ac575b600080fd5b3480156101ad57600080fd5b506101c860048036038101906101c3919061261c565b6106b4565b6040516101d59190612664565b60405180910390f35b3480156101ea57600080fd5b506101f3610796565b6040516102009190612718565b60405180910390f35b34801561021557600080fd5b50610230600480360381019061022b9190612770565b610828565b60405161023d91906127de565b60405180910390f35b34801561025257600080fd5b5061026d60048036038101906102689190612825565b6108ad565b005b34801561027b57600080fd5b5061029660048036038101906102919190612865565b6109c5565b6040516102a391906128a1565b60405180910390f35b3480156102b857600080fd5b506102d360048036038101906102ce91906128bc565b6109dd565b005b3480156102e157600080fd5b506102fc60048036038101906102f791906128bc565b610a3d565b005b34801561030a57600080fd5b50610313610a5d565b6040516103209190612664565b60405180910390f35b34801561033557600080fd5b5061033e610a70565b60405161034b9190612664565b60405180910390f35b61036e60048036038101906103699190612a7d565b610a83565b60405161037b91906128a1565b60405180910390f35b34801561039057600080fd5b50610399610e62565b6040516103a691906128a1565b60405180910390f35b3480156103bb57600080fd5b506103d660048036038101906103d19190612770565b610e73565b6040516103e391906127de565b60405180910390f35b3480156103f857600080fd5b50610413600480360381019061040e9190612865565b610f25565b60405161042091906128a1565b60405180910390f35b34801561043557600080fd5b5061043e610fdd565b005b34801561044c57600080fd5b5061046760048036038101906104629190612770565b611065565b60405161047996959493929190612b23565b60405180910390f35b34801561048e57600080fd5b50610497611143565b6040516104a491906127de565b60405180910390f35b3480156104b957600080fd5b506104c261116d565b6040516104cf91906128a1565b60405180910390f35b3480156104e457600080fd5b506104ed611173565b6040516104fa9190612718565b60405180910390f35b34801561050f57600080fd5b5061052a60048036038101906105259190612bb7565b611205565b005b34801561053857600080fd5b50610553600480360381019061054e9190612c98565b61121b565b005b34801561056157600080fd5b5061056a61127d565b60405161057791906128a1565b60405180910390f35b34801561058c57600080fd5b506105a760048036038101906105a29190612770565b611283565b6040516105b49190612e0c565b60405180910390f35b3480156105c957600080fd5b506105e460048036038101906105df9190612770565b61139a565b6040516105f19190612718565b60405180910390f35b34801561060657600080fd5b5061060f6114ec565b60405161061c91906128a1565b60405180910390f35b34801561063157600080fd5b5061064c60048036038101906106479190612e2e565b6114f2565b6040516106599190612664565b60405180910390f35b34801561066e57600080fd5b5061068960048036038101906106849190612865565b611586565b005b34801561069757600080fd5b506106b260048036038101906106ad9190612770565b61167e565b005b60007f80ac58cd000000000000000000000000000000000000000000000000000000007bffffffffffffffffffffffffffffffffffffffffffffffffffffffff1916827bffffffffffffffffffffffffffffffffffffffffffffffffffffffff1916148061077f57507f5b5e139f000000000000000000000000000000000000000000000000000000007bffffffffffffffffffffffffffffffffffffffffffffffffffffffff1916827bffffffffffffffffffffffffffffffffffffffffffffffffffffffff1916145b8061078f575061078e826116d3565b5b9050919050565b6060600080546107a590612e9d565b80601f01602080910402602001604051908101604052809291908181526020018280546107d190612e9d565b801561081e5780601f106107f35761010080835404028352916020019161081e565b820191906000526020600020905b81548152906001019060200180831161080157829003601f168201915b5050505050905090565b60006108338261173d565b610872576040517f08c379a000000000000000000000000000000000000000000000000000000000815260040161086990612f41565b60405180910390fd5b6004600083815260200190815260200160002060009054906101000a900473ffffffffffffffffffffffffffffffffffffffff169050919050565b60006108b882610e73565b90508073ffffffffffffffffffffffffffffffffffffffff168373ffffffffffffffffffffffffffffffffffffffff161415610929576040517f08c379a000000000000000000000000000000000000000000000000000000000815260040161092090612fd3565b60405180910390fd5b8073ffffffffffffffffffffffffffffffffffffffff166109486117a9565b73ffffffffffffffffffffffffffffffffffffffff1614806109775750610976816109716117a9565b6114f2565b5b6109b6576040517f08c379a00000000000000000000000000000000000000000000000000000000081526004016109ad90613065565b60405180910390fd5b6109c083836117b1565b505050565b600e6020528060005260406000206000915090505481565b6109ee6109e86117a9565b8261186a565b610a2d576040517f08c379a0000000000000000000000000000000000000000000000000000000008152600401610a24906130f7565b60405180910390fd5b610a38838383611948565b505050565b610a588383836040518060200160405280600081525061121b565b505050565b600960019054906101000a900460ff1681565b600960009054906101000a900460ff1681565b6000610a8d6117a9565b73ffffffffffffffffffffffffffffffffffffffff16610aab611143565b73ffffffffffffffffffffffffffffffffffffffff1614610b01576040517f08c379a0000000000000000000000000000000000000000000000000000000008152600401610af890613163565b60405180910390fd5b85600960009054906101000a900460ff1615610b52576040517f08c379a0000000000000000000000000000000000000000000000000000000008152600401610b49906131cf565b60405180910390fd5b3373ffffffffffffffffffffffffffffffffffffffff1631341115610bac576040517f08c379a0000000000000000000000000000000000000000000000000000000008152600401610ba39061323b565b60405180910390fd5b600081118015610bbe5750600b548111155b610bfd576040517f08c379a0000000000000000000000000000000000000000000000000000000008152600401610bf4906132a7565b60405180910390fd5b600a5481610c0b6008611ba4565b610c1591906132f6565b1115610c56576040517f08c379a0000000000000000000000000000000000000000000000000000000008152600401610c4d90613398565b60405180910390fd5b6000600e60003373ffffffffffffffffffffffffffffffffffffffff1673ffffffffffffffffffffffffffffffffffffffff168152602001908152602001600020549050600c548282610ca991906132f6565b1115610cea576040517f08c379a0000000000000000000000000000000000000000000000000000000008152600401610ce190613404565b60405180910390fd5b610cf46008611bb2565b6000610d006008611ba4565b90506040518060c001604052808281526020018960ff1681526020018860ff16815260200142815260200187815260200186815250600d60008381526020019081526020016000206000820151816000015560208201518160010160006101000a81548160ff021916908360ff16021790555060408201518160010160016101000a81548160ff021916908360ff160217905550606082015181600201556080820151816003015560a0820151816004019080519060200190610dc49291906124d1565b509050506000600190505b898111610e3e57600e60003373ffffffffffffffffffffffffffffffffffffffff1673ffffffffffffffffffffffffffffffffffffffff1681526020019081526020016000206000815480929190610e2690613424565b91905055508080610e3690613424565b915050610dcf565b50610e493382611bc8565b610e538186611be6565b80935050505095945050505050565b6000610e6e6008611ba4565b905090565b6000806002600084815260200190815260200160002060009054906101000a900473ffffffffffffffffffffffffffffffffffffffff169050600073ffffffffffffffffffffffffffffffffffffffff168173ffffffffffffffffffffffffffffffffffffffff161415610f1c576040517f08c379a0000000000000000000000000000000000000000000000000000000008152600401610f13906134df565b60405180910390fd5b80915050919050565b60008073ffffffffffffffffffffffffffffffffffffffff168273ffffffffffffffffffffffffffffffffffffffff161415610f96576040517f08c379a0000000000000000000000000000000000000000000000000000000008152600401610f8d90613571565b60405180910390fd5b600360008373ffffffffffffffffffffffffffffffffffffffff1673ffffffffffffffffffffffffffffffffffffffff168152602001908152602001600020549050919050565b610fe56117a9565b73ffffffffffffffffffffffffffffffffffffffff16611003611143565b73ffffffffffffffffffffffffffffffffffffffff1614611059576040517f08c379a000000000000000000000000000000000000000000000000000000000815260040161105090613163565b60405180910390fd5b6110636000611c5a565b565b600d6020528060005260406000206000915090508060000154908060010160009054906101000a900460ff16908060010160019054906101000a900460ff16908060020154908060030154908060040180546110c090612e9d565b80601f01602080910402602001604051908101604052809291908181526020018280546110ec90612e9d565b80156111395780601f1061110e57610100808354040283529160200191611139565b820191906000526020600020905b81548152906001019060200180831161111c57829003601f168201915b5050505050905086565b6000600760009054906101000a900473ffffffffffffffffffffffffffffffffffffffff16905090565b600b5481565b60606001805461118290612e9d565b80601f01602080910402602001604051908101604052809291908181526020018280546111ae90612e9d565b80156111fb5780601f106111d0576101008083540402835291602001916111fb565b820191906000526020600020905b8154815290600101906020018083116111de57829003601f168201915b5050505050905090565b6112176112106117a9565b8383611d20565b5050565b61122c6112266117a9565b8361186a565b61126b576040517f08c379a0000000000000000000000000000000000000000000000000000000008152600401611262906130f7565b60405180910390fd5b61127784848484611e8d565b50505050565b600c5481565b61128b612557565b600d60008381526020019081526020016000206040518060c0016040529081600082015481526020016001820160009054906101000a900460ff1660ff1660ff1681526020016001820160019054906101000a900460ff1660ff1660ff168152602001600282015481526020016003820154815260200160048201805461131190612e9d565b80601f016020809104026020016040519081016040528092919081815260200182805461133d90612e9d565b801561138a5780601f1061135f5761010080835404028352916020019161138a565b820191906000526020600020905b81548152906001019060200180831161136d57829003601f168201915b5050505050815250509050919050565b60606113a58261173d565b6113e4576040517f08c379a00000000000000000000000000000000000000000000000000000000081526004016113db90613603565b60405180910390fd5b600060066000848152602001908152602001600020805461140490612e9d565b80601f016020809104026020016040519081016040528092919081815260200182805461143090612e9d565b801561147d5780601f106114525761010080835404028352916020019161147d565b820191906000526020600020905b81548152906001019060200180831161146057829003601f168201915b50505050509050600061148e611ee9565b90506000815114156114a45781925050506114e7565b6000825111156114d95780826040516020016114c192919061365f565b604051602081830303815290604052925050506114e7565b6114e284611f00565b925050505b919050565b600a5481565b6000600560008473ffffffffffffffffffffffffffffffffffffffff1673ffffffffffffffffffffffffffffffffffffffff16815260200190815260200160002060008373ffffffffffffffffffffffffffffffffffffffff1673ffffffffffffffffffffffffffffffffffffffff16815260200190815260200160002060009054906101000a900460ff16905092915050565b61158e6117a9565b73ffffffffffffffffffffffffffffffffffffffff166115ac611143565b73ffffffffffffffffffffffffffffffffffffffff1614611602576040517f08c379a00000000000000000000000000000000000000000000000000000000081526004016115f990613163565b60405180910390fd5b600073ffffffffffffffffffffffffffffffffffffffff168173ffffffffffffffffffffffffffffffffffffffff161415611672576040517f08c379a0000000000000000000000000000000000000000000000000000000008152600401611669906136f5565b60405180910390fd5b61167b81611c5a565b50565b6000600d6000838152602001908152602001600020905042816003015482600201546116aa91906132f6565b116116b457600080fd5b42600d6000848152602001908152602001600020600201819055505050565b60007f01ffc9a7000000000000000000000000000000000000000000000000000000007bffffffffffffffffffffffffffffffffffffffffffffffffffffffff1916827bffffffffffffffffffffffffffffffffffffffffffffffffffffffff1916149050919050565b60008073ffffffffffffffffffffffffffffffffffffffff166002600084815260200190815260200160002060009054906101000a900473ffffffffffffffffffffffffffffffffffffffff1673ffffffffffffffffffffffffffffffffffffffff1614159050919050565b600033905090565b816004600083815260200190815260200160002060006101000a81548173ffffffffffffffffffffffffffffffffffffffff021916908373ffffffffffffffffffffffffffffffffffffffff160217905550808273ffffffffffffffffffffffffffffffffffffffff1661182483610e73565b73ffffffffffffffffffffffffffffffffffffffff167f8c5be1e5ebec7d5bd14f71427d1e84f3dd0314c0f7b2291e5b200ac8c7c3b92560405160405180910390a45050565b60006118758261173d565b6118b4576040517f08c379a00000000000000000000000000000000000000000000000000000000081526004016118ab90613787565b60405180910390fd5b60006118bf83610e73565b90508073ffffffffffffffffffffffffffffffffffffffff168473ffffffffffffffffffffffffffffffffffffffff16148061192e57508373ffffffffffffffffffffffffffffffffffffffff1661191684610828565b73ffffffffffffffffffffffffffffffffffffffff16145b8061193f575061193e81856114f2565b5b91505092915050565b8273ffffffffffffffffffffffffffffffffffffffff1661196882610e73565b73ffffffffffffffffffffffffffffffffffffffff16146119be576040517f08c379a00000000000000000000000000000000000000000000000000000000081526004016119b590613819565b60405180910390fd5b600073ffffffffffffffffffffffffffffffffffffffff168273ffffffffffffffffffffffffffffffffffffffff161415611a2e576040517f08c379a0000000000000000000000000000000000000000000000000000000008152600401611a25906138ab565b60405180910390fd5b611a39838383611fa7565b611a446000826117b1565b6001600360008573ffffffffffffffffffffffffffffffffffffffff1673ffffffffffffffffffffffffffffffffffffffff1681526020019081526020016000206000828254611a9491906138cb565b925050819055506001600360008473ffffffffffffffffffffffffffffffffffffffff1673ffffffffffffffffffffffffffffffffffffffff1681526020019081526020016000206000828254611aeb91906132f6565b92505081905550816002600083815260200190815260200160002060006101000a81548173ffffffffffffffffffffffffffffffffffffffff021916908373ffffffffffffffffffffffffffffffffffffffff160217905550808273ffffffffffffffffffffffffffffffffffffffff168473ffffffffffffffffffffffffffffffffffffffff167fddf252ad1be2c89b69c2b068fc378daa952ba7f163c4a11628f55a4df523b3ef60405160405180910390a4505050565b600081600001549050919050565b6001816000016000828254019250508190555050565b611be2828260405180602001604052806000815250611fac565b5050565b611bef8261173d565b611c2e576040517f08c379a0000000000000000000000000000000000000000000000000000000008152600401611c2590613971565b60405180910390fd5b80600660008481526020019081526020016000209080519060200190611c559291906124d1565b505050565b6000600760009054906101000a900473ffffffffffffffffffffffffffffffffffffffff16905081600760006101000a81548173ffffffffffffffffffffffffffffffffffffffff021916908373ffffffffffffffffffffffffffffffffffffffff1602179055508173ffffffffffffffffffffffffffffffffffffffff168173ffffffffffffffffffffffffffffffffffffffff167f8be0079c531659141344cd1fd0a4f28419497f9722a3daafe3b4186f6b6457e060405160405180910390a35050565b8173ffffffffffffffffffffffffffffffffffffffff168373ffffffffffffffffffffffffffffffffffffffff161415611d8f576040517f08c379a0000000000000000000000000000000000000000000000000000000008152600401611d86906139dd565b60405180910390fd5b80600560008573ffffffffffffffffffffffffffffffffffffffff1673ffffffffffffffffffffffffffffffffffffffff16815260200190815260200160002060008473ffffffffffffffffffffffffffffffffffffffff1673ffffffffffffffffffffffffffffffffffffffff16815260200190815260200160002060006101000a81548160ff0219169083151502179055508173ffffffffffffffffffffffffffffffffffffffff168373ffffffffffffffffffffffffffffffffffffffff167f17307eab39ab6107e8899845ad3d59bd9653f200f220920489ca2b5937696c3183604051611e809190612664565b60405180910390a3505050565b611e98848484611948565b611ea484848484612007565b611ee3576040517f08c379a0000000000000000000000000000000000000000000000000000000008152600401611eda90613a6f565b60405180910390fd5b50505050565b606060405180602001604052806000815250905090565b6060611f0b8261173d565b611f4a576040517f08c379a0000000000000000000000000000000000000000000000000000000008152600401611f4190613b01565b60405180910390fd5b6000611f54611ee9565b90506000815111611f745760405180602001604052806000815250611f9f565b80611f7e8461218f565b604051602001611f8f92919061365f565b6040516020818303038152906040525b915050919050565b505050565b611fb683836122f0565b611fc36000848484612007565b612002576040517f08c379a0000000000000000000000000000000000000000000000000000000008152600401611ff990613a6f565b60405180910390fd5b505050565b60006120288473ffffffffffffffffffffffffffffffffffffffff166124be565b15612182578373ffffffffffffffffffffffffffffffffffffffff1663150b7a026120516117a9565b8786866040518563ffffffff1660e01b81526004016120739493929190613b76565b6020604051808303816000875af19250505080156120af57506040513d601f19601f820116820180604052508101906120ac9190613bd7565b60015b612132573d80600081146120df576040519150601f19603f3d011682016040523d82523d6000602084013e6120e4565b606091505b5060008151141561212a576040517f08c379a000000000000000000000000000000000000000000000000000000000815260040161212190613a6f565b60405180910390fd5b805181602001fd5b63150b7a0260e01b7bffffffffffffffffffffffffffffffffffffffffffffffffffffffff1916817bffffffffffffffffffffffffffffffffffffffffffffffffffffffff191614915050612187565b600190505b949350505050565b606060008214156121d7576040518060400160405280600181526020017f300000000000000000000000000000000000000000000000000000000000000081525090506122eb565b600082905060005b600082146122095780806121f290613424565b915050600a826122029190613c33565b91506121df565b60008167ffffffffffffffff81111561222557612224612952565b5b6040519080825280601f01601f1916602001820160405280156122575781602001600182028036833780820191505090505b5090505b600085146122e45760018261227091906138cb565b9150600a8561227f9190613c64565b603061228b91906132f6565b60f81b8183815181106122a1576122a0613c95565b5b60200101907effffffffffffffffffffffffffffffffffffffffffffffffffffffffffffff1916908160001a905350600a856122dd9190613c33565b945061225b565b8093505050505b919050565b600073ffffffffffffffffffffffffffffffffffffffff168273ffffffffffffffffffffffffffffffffffffffff161415612360576040517f08c379a000000000000000000000000000000000000000000000000000000000815260040161235790613d10565b60405180910390fd5b6123698161173d565b156123a9576040517f08c379a00000000000000000000000000000000000000000000000000000000081526004016123a090613d7c565b60405180910390fd5b6123b560008383611fa7565b6001600360008473ffffffffffffffffffffffffffffffffffffffff1673ffffffffffffffffffffffffffffffffffffffff168152602001908152602001600020600082825461240591906132f6565b92505081905550816002600083815260200190815260200160002060006101000a81548173ffffffffffffffffffffffffffffffffffffffff021916908373ffffffffffffffffffffffffffffffffffffffff160217905550808273ffffffffffffffffffffffffffffffffffffffff16600073ffffffffffffffffffffffffffffffffffffffff167fddf252ad1be2c89b69c2b068fc378daa952ba7f163c4a11628f55a4df523b3ef60405160405180910390a45050565b600080823b905060008111915050919050565b8280546124dd90612e9d565b90600052602060002090601f0160209004810192826124ff5760008555612546565b82601f1061251857805160ff1916838001178555612546565b82800160010185558215612546579182015b8281111561254557825182559160200191906001019061252a565b5b5090506125539190612593565b5090565b6040518060c0016040528060008152602001600060ff168152602001600060ff1681526020016000815260200160008152602001606081525090565b5b808211156125ac576000816000905550600101612594565b5090565b6000604051905090565b600080fd5b600080fd5b60007fffffffff0000000000000000000000000000000000000000000000000000000082169050919050565b6125f9816125c4565b811461260457600080fd5b50565b600081359050612616816125f0565b92915050565b600060208284031215612632576126316125ba565b5b600061264084828501612607565b91505092915050565b60008115159050919050565b61265e81612649565b82525050565b60006020820190506126796000830184612655565b92915050565b600081519050919050565b600082825260208201905092915050565b60005b838110156126b957808201518184015260208101905061269e565b838111156126c8576000848401525b50505050565b6000601f19601f8301169050919050565b60006126ea8261267f565b6126f4818561268a565b935061270481856020860161269b565b61270d816126ce565b840191505092915050565b6000602082019050818103600083015261273281846126df565b905092915050565b6000819050919050565b61274d8161273a565b811461275857600080fd5b50565b60008135905061276a81612744565b92915050565b600060208284031215612786576127856125ba565b5b60006127948482850161275b565b91505092915050565b600073ffffffffffffffffffffffffffffffffffffffff82169050919050565b60006127c88261279d565b9050919050565b6127d8816127bd565b82525050565b60006020820190506127f360008301846127cf565b92915050565b612802816127bd565b811461280d57600080fd5b50565b60008135905061281f816127f9565b92915050565b6000806040838503121561283c5761283b6125ba565b5b600061284a85828601612810565b925050602061285b8582860161275b565b9150509250929050565b60006020828403121561287b5761287a6125ba565b5b600061288984828501612810565b91505092915050565b61289b8161273a565b82525050565b60006020820190506128b66000830184612892565b92915050565b6000806000606084860312156128d5576128d46125ba565b5b60006128e386828701612810565b93505060206128f486828701612810565b92505060406129058682870161275b565b9150509250925092565b600060ff82169050919050565b6129258161290f565b811461293057600080fd5b50565b6000813590506129428161291c565b92915050565b600080fd5b600080fd5b7f4e487b7100000000000000000000000000000000000000000000000000000000600052604160045260246000fd5b61298a826126ce565b810181811067ffffffffffffffff821117156129a9576129a8612952565b5b80604052505050565b60006129bc6125b0565b90506129c88282612981565b919050565b600067ffffffffffffffff8211156129e8576129e7612952565b5b6129f1826126ce565b9050602081019050919050565b82818337600083830152505050565b6000612a20612a1b846129cd565b6129b2565b905082815260208101848484011115612a3c57612a3b61294d565b5b612a478482856129fe565b509392505050565b600082601f830112612a6457612a63612948565b5b8135612a74848260208601612a0d565b91505092915050565b600080600080600060a08688031215612a9957612a986125ba565b5b6000612aa78882890161275b565b9550506020612ab888828901612933565b9450506040612ac988828901612933565b9350506060612ada8882890161275b565b925050608086013567ffffffffffffffff811115612afb57612afa6125bf565b5b612b0788828901612a4f565b9150509295509295909350565b612b1d8161290f565b82525050565b600060c082019050612b386000830189612892565b612b456020830188612b14565b612b526040830187612b14565b612b5f6060830186612892565b612b6c6080830185612892565b81810360a0830152612b7e81846126df565b9050979650505050505050565b612b9481612649565b8114612b9f57600080fd5b50565b600081359050612bb181612b8b565b92915050565b60008060408385031215612bce57612bcd6125ba565b5b6000612bdc85828601612810565b9250506020612bed85828601612ba2565b9150509250929050565b600067ffffffffffffffff821115612c1257612c11612952565b5b612c1b826126ce565b9050602081019050919050565b6000612c3b612c3684612bf7565b6129b2565b905082815260208101848484011115612c5757612c5661294d565b5b612c628482856129fe565b509392505050565b600082601f830112612c7f57612c7e612948565b5b8135612c8f848260208601612c28565b91505092915050565b60008060008060808587031215612cb257612cb16125ba565b5b6000612cc087828801612810565b9450506020612cd187828801612810565b9350506040612ce28782880161275b565b925050606085013567ffffffffffffffff811115612d0357612d026125bf565b5b612d0f87828801612c6a565b91505092959194509250565b612d248161273a565b82525050565b612d338161290f565b82525050565b600082825260208201905092915050565b6000612d558261267f565b612d5f8185612d39565b9350612d6f81856020860161269b565b612d78816126ce565b840191505092915050565b600060c083016000830151612d9b6000860182612d1b565b506020830151612dae6020860182612d2a565b506040830151612dc16040860182612d2a565b506060830151612dd46060860182612d1b565b506080830151612de76080860182612d1b565b5060a083015184820360a0860152612dff8282612d4a565b9150508091505092915050565b60006020820190508181036000830152612e268184612d83565b905092915050565b60008060408385031215612e4557612e446125ba565b5b6000612e5385828601612810565b9250506020612e6485828601612810565b9150509250929050565b7f4e487b7100000000000000000000000000000000000000000000000000000000600052602260045260246000fd5b60006002820490506001821680612eb557607f821691505b60208210811415612ec957612ec8612e6e565b5b50919050565b7f4552433732313a20617070726f76656420717565727920666f72206e6f6e657860008201527f697374656e7420746f6b656e0000000000000000000000000000000000000000602082015250565b6000612f2b602c8361268a565b9150612f3682612ecf565b604082019050919050565b60006020820190508181036000830152612f5a81612f1e565b9050919050565b7f4552433732313a20617070726f76616c20746f2063757272656e74206f776e6560008201527f7200000000000000000000000000000000000000000000000000000000000000602082015250565b6000612fbd60218361268a565b9150612fc882612f61565b604082019050919050565b60006020820190508181036000830152612fec81612fb0565b9050919050565b7f4552433732313a20617070726f76652063616c6c6572206973206e6f74206f7760008201527f6e6572206e6f7220617070726f76656420666f7220616c6c0000000000000000602082015250565b600061304f60388361268a565b915061305a82612ff3565b604082019050919050565b6000602082019050818103600083015261307e81613042565b9050919050565b7f4552433732313a207472616e736665722063616c6c6572206973206e6f74206f60008201527f776e6572206e6f7220617070726f766564000000000000000000000000000000602082015250565b60006130e160318361268a565b91506130ec82613085565b604082019050919050565b60006020820190508181036000830152613110816130d4565b9050919050565b7f4f776e61626c653a2063616c6c6572206973206e6f7420746865206f776e6572600082015250565b600061314d60208361268a565b915061315882613117565b602082019050919050565b6000602082019050818103600083015261317c81613140565b9050919050565b7f54686520636f6e74726163742069732070617573656421000000000000000000600082015250565b60006131b960178361268a565b91506131c482613183565b602082019050919050565b600060208201905081810360008301526131e8816131ac565b9050919050565b7f496e73756666696369656e742062616c616e63652e0000000000000000000000600082015250565b600061322560158361268a565b9150613230826131ef565b602082019050919050565b6000602082019050818103600083015261325481613218565b9050919050565b7f496e76616c6964206d696e7420616d6f756e7421000000000000000000000000600082015250565b600061329160148361268a565b915061329c8261325b565b602082019050919050565b600060208201905081810360008301526132c081613284565b9050919050565b7f4e487b7100000000000000000000000000000000000000000000000000000000600052601160045260246000fd5b60006133018261273a565b915061330c8361273a565b9250827fffffffffffffffffffffffffffffffffffffffffffffffffffffffffffffffff03821115613341576133406132c7565b5b828201905092915050565b7f4d617820737570706c7920657863656564656421000000000000000000000000600082015250565b600061338260148361268a565b915061338d8261334c565b602082019050919050565b600060208201905081810360008301526133b181613375565b9050919050565b7f6d6178204e465420706572206164647265737320657863656564656400000000600082015250565b60006133ee601c8361268a565b91506133f9826133b8565b602082019050919050565b6000602082019050818103600083015261341d816133e1565b9050919050565b600061342f8261273a565b91507fffffffffffffffffffffffffffffffffffffffffffffffffffffffffffffffff821415613462576134616132c7565b5b600182019050919050565b7f4552433732313a206f776e657220717565727920666f72206e6f6e657869737460008201527f656e7420746f6b656e0000000000000000000000000000000000000000000000602082015250565b60006134c960298361268a565b91506134d48261346d565b604082019050919050565b600060208201905081810360008301526134f8816134bc565b9050919050565b7f4552433732313a2062616c616e636520717565727920666f7220746865207a6560008201527f726f206164647265737300000000000000000000000000000000000000000000602082015250565b600061355b602a8361268a565b9150613566826134ff565b604082019050919050565b6000602082019050818103600083015261358a8161354e565b9050919050565b7f45524337323155524953746f726167653a2055524920717565727920666f722060008201527f6e6f6e6578697374656e7420746f6b656e000000000000000000000000000000602082015250565b60006135ed60318361268a565b91506135f882613591565b604082019050919050565b6000602082019050818103600083015261361c816135e0565b9050919050565b600081905092915050565b60006136398261267f565b6136438185613623565b935061365381856020860161269b565b80840191505092915050565b600061366b828561362e565b9150613677828461362e565b91508190509392505050565b7f4f776e61626c653a206e6577206f776e657220697320746865207a65726f206160008201527f6464726573730000000000000000000000000000000000000000000000000000602082015250565b60006136df60268361268a565b91506136ea82613683565b604082019050919050565b6000602082019050818103600083015261370e816136d2565b9050919050565b7f4552433732313a206f70657261746f7220717565727920666f72206e6f6e657860008201527f697374656e7420746f6b656e0000000000000000000000000000000000000000602082015250565b6000613771602c8361268a565b915061377c82613715565b604082019050919050565b600060208201905081810360008301526137a081613764565b9050919050565b7f4552433732313a207472616e73666572206f6620746f6b656e2074686174206960008201527f73206e6f74206f776e0000000000000000000000000000000000000000000000602082015250565b600061380360298361268a565b915061380e826137a7565b604082019050919050565b60006020820190508181036000830152613832816137f6565b9050919050565b7f4552433732313a207472616e7366657220746f20746865207a65726f2061646460008201527f7265737300000000000000000000000000000000000000000000000000000000602082015250565b600061389560248361268a565b91506138a082613839565b604082019050919050565b600060208201905081810360008301526138c481613888565b9050919050565b60006138d68261273a565b91506138e18361273a565b9250828210156138f4576138f36132c7565b5b828203905092915050565b7f45524337323155524953746f726167653a2055524920736574206f66206e6f6e60008201527f6578697374656e7420746f6b656e000000000000000000000000000000000000602082015250565b600061395b602e8361268a565b9150613966826138ff565b604082019050919050565b6000602082019050818103600083015261398a8161394e565b9050919050565b7f4552433732313a20617070726f766520746f2063616c6c657200000000000000600082015250565b60006139c760198361268a565b91506139d282613991565b602082019050919050565b600060208201905081810360008301526139f6816139ba565b9050919050565b7f4552433732313a207472616e7366657220746f206e6f6e20455243373231526560008201527f63656976657220696d706c656d656e7465720000000000000000000000000000602082015250565b6000613a5960328361268a565b9150613a64826139fd565b604082019050919050565b60006020820190508181036000830152613a8881613a4c565b9050919050565b7f4552433732314d657461646174613a2055524920717565727920666f72206e6f60008201527f6e6578697374656e7420746f6b656e0000000000000000000000000000000000602082015250565b6000613aeb602f8361268a565b9150613af682613a8f565b604082019050919050565b60006020820190508181036000830152613b1a81613ade565b9050919050565b600081519050919050565b600082825260208201905092915050565b6000613b4882613b21565b613b528185613b2c565b9350613b6281856020860161269b565b613b6b816126ce565b840191505092915050565b6000608082019050613b8b60008301876127cf565b613b9860208301866127cf565b613ba56040830185612892565b8181036060830152613bb78184613b3d565b905095945050505050565b600081519050613bd1816125f0565b92915050565b600060208284031215613bed57613bec6125ba565b5b6000613bfb84828501613bc2565b91505092915050565b7f4e487b7100000000000000000000000000000000000000000000000000000000600052601260045260246000fd5b6000613c3e8261273a565b9150613c498361273a565b925082613c5957613c58613c04565b5b828204905092915050565b6000613c6f8261273a565b9150613c7a8361273a565b925082613c8a57613c89613c04565b5b828206905092915050565b7f4e487b7100000000000000000000000000000000000000000000000000000000600052603260045260246000fd5b7f4552433732313a206d696e7420746f20746865207a65726f2061646472657373600082015250565b6000613cfa60208361268a565b9150613d0582613cc4565b602082019050919050565b60006020820190508181036000830152613d2981613ced565b9050919050565b7f4552433732313a20746f6b656e20616c7265616479206d696e74656400000000600082015250565b6000613d66601c8361268a565b9150613d7182613d30565b602082019050919050565b60006020820190508181036000830152613d9581613d59565b905091905056fea2646970667358221220048b7cb93f4e28a2c325bff56753d91efff059f4604d4e86872ef2962e649e2964736f6c634300080a0033",
  "immutableReferences": {},
  "source": "// SPDX-License-Identifier: MIT\npragma solidity ^0.8.0;\n\nimport \"../node_modules/@openzeppelin/contracts/token/ERC721/extensions/ERC721URIStorage.sol\";\nimport \"../node_modules/@openzeppelin/contracts/utils/math/SafeMath.sol\";\nimport \"../node_modules/@openzeppelin/contracts/utils/Counters.sol\";\nimport \"../node_modules/@openzeppelin/contracts/access/Ownable.sol\";\n\ncontract Character is ERC721URIStorage, Ownable {\n    using Counters for Counters.Counter;\n    using SafeMath for uint256;\n\n    Counters.Counter private _tokenIds;\n\n    bool public paused = false;\n    bool public revealed = false;\n    uint256 public maxSupply = 10000;\n    uint256 public maxMintAmountPerTx = 1;\n    uint256 public nftPerAddressLimit = 100;\n\n    // Mapping char to token count\n    mapping(uint256 => CharData) public _tokenDetails; // 0 -> however many get created\n    mapping(address => uint256) public addressMintedBalance;\n\n    struct CharData {\n        uint256 id;\n        uint8 damage;\n        uint8 power;\n        uint256 lastMeal;\n        uint256 endurance;\n        string tokenURI;\n    }\n\n    constructor() ERC721(\"Character\", \"CHAR\") {}\n\n    function getTokenDetails(uint256 _id)\n        public\n        view\n        returns (CharData memory)\n    {\n        return _tokenDetails[_id];\n    }\n\n    function feed(uint256 _id) public {\n        CharData storage char = _tokenDetails[_id];\n        require(char.lastMeal + char.endurance > block.timestamp); // must not have died of starvation; Hashtro is still alive\n        _tokenDetails[_id].lastMeal = block.timestamp; // update when hashtro character was last fed according to block time\n    }\n\n    function getTokenCirculations() public view returns (uint256) {\n        return _tokenIds.current();\n    }\n\n    modifier mintCompliance(uint256 _mintAmount) {\n        require(!paused, \"The contract is paused!\");\n\n        //require(msg.value > 0);\n        require(msg.value <= msg.sender.balance, \"Insufficient balance.\");\n\n        // condition: minting at least 1 or more\n        require(\n            _mintAmount > 0 && _mintAmount <= maxMintAmountPerTx,\n            \"Invalid mint amount!\"\n        );\n\n        // condition: total minted + this potential tx is under maxsupply\n        require(\n            _tokenIds.current() + _mintAmount <= maxSupply,\n            \"Max supply exceeded!\"\n        );\n\n        uint256 ownerMintedCount = addressMintedBalance[msg.sender];\n        // condition: minting limit per address\n        require(\n            ownerMintedCount + _mintAmount <= nftPerAddressLimit,\n            \"max NFT per address exceeded\"\n        );\n        _;\n    }\n\n    function mintToken(\n        uint256 _mintAmount,\n        uint8 _damage,\n        uint8 _power,\n        uint256 _endurance,\n        string memory _tokenURI\n    ) public payable onlyOwner mintCompliance(_mintAmount) returns (uint256) {\n        _tokenIds.increment();\n\n        uint256 newItemId = _tokenIds.current();\n        _tokenDetails[newItemId] = CharData(\n            newItemId,\n            _damage,\n            _power,\n            block.timestamp,\n            _endurance,\n            _tokenURI\n        );\n\n        for (uint256 i = 1; i <= _mintAmount; i++) {\n            addressMintedBalance[msg.sender]++;\n        }\n\n        _safeMint(msg.sender, newItemId);\n        _setTokenURI(newItemId, _tokenURI);\n\n        return newItemId;\n    }\n}\n",
  "sourcePath": "/Users/ashleydavison/dev/nft-game-sandbox/contracts/Character.sol",
  "compiler": {
    "name": "solc",
    "version": "0.8.10+commit.fc410830.Emscripten.clang"
  },
  "schemaVersion": "3.4.4",
  "updatedAt": "2022-01-17T13:04:31.003Z",
  "networkType": "ethereum",
  "devdoc": {
    "kind": "dev",
    "methods": {
      "approve(address,uint256)": {
        "details": "See {IERC721-approve}."
      },
      "balanceOf(address)": {
        "details": "See {IERC721-balanceOf}."
      },
      "getApproved(uint256)": {
        "details": "See {IERC721-getApproved}."
      },
      "isApprovedForAll(address,address)": {
        "details": "See {IERC721-isApprovedForAll}."
      },
      "name()": {
        "details": "See {IERC721Metadata-name}."
      },
      "owner()": {
        "details": "Returns the address of the current owner."
      },
      "ownerOf(uint256)": {
        "details": "See {IERC721-ownerOf}."
      },
      "renounceOwnership()": {
        "details": "Leaves the contract without owner. It will not be possible to call `onlyOwner` functions anymore. Can only be called by the current owner. NOTE: Renouncing ownership will leave the contract without an owner, thereby removing any functionality that is only available to the owner."
      },
      "safeTransferFrom(address,address,uint256)": {
        "details": "See {IERC721-safeTransferFrom}."
      },
      "safeTransferFrom(address,address,uint256,bytes)": {
        "details": "See {IERC721-safeTransferFrom}."
      },
      "setApprovalForAll(address,bool)": {
        "details": "See {IERC721-setApprovalForAll}."
      },
      "supportsInterface(bytes4)": {
        "details": "See {IERC165-supportsInterface}."
      },
      "symbol()": {
        "details": "See {IERC721Metadata-symbol}."
      },
      "tokenURI(uint256)": {
        "details": "See {IERC721Metadata-tokenURI}."
      },
      "transferFrom(address,address,uint256)": {
        "details": "See {IERC721-transferFrom}."
      },
      "transferOwnership(address)": {
        "details": "Transfers ownership of the contract to a new account (`newOwner`). Can only be called by the current owner."
      }
    },
    "version": 1
  },
  "userdoc": {
    "kind": "user",
    "methods": {},
    "version": 1
  }
}