{
  "contractName": "Token",
  "abi": [
    {
      "inputs": [],
      "stateMutability": "nonpayable",
      "type": "constructor"
    },
    {
      "anonymous": false,
      "inputs": [
        {
          "indexed": true,
          "internalType": "address",
          "name": "account",
          "type": "address"
        },
        {
          "indexed": true,
          "internalType": "address",
          "name": "operator",
          "type": "address"
        },
        {
          "indexed": false,
          "internalType": "bool",
          "name": "approved",
          "type": "bool"
        }
      ],
      "name": "ApprovalForAll",
      "type": "event"
    },
    {
      "anonymous": false,
      "inputs": [
        {
          "indexed": true,
          "internalType": "address",
          "name": "previousOwner",
          "type": "address"
        },
        {
          "indexed": true,
          "internalType": "address",
          "name": "newOwner",
          "type": "address"
        }
      ],
      "name": "OwnershipTransferred",
      "type": "event"
    },
    {
      "anonymous": false,
      "inputs": [
        {
          "indexed": true,
          "internalType": "address",
          "name": "operator",
          "type": "address"
        },
        {
          "indexed": true,
          "internalType": "address",
          "name": "from",
          "type": "address"
        },
        {
          "indexed": true,
          "internalType": "address",
          "name": "to",
          "type": "address"
        },
        {
          "indexed": false,
          "internalType": "uint256[]",
          "name": "ids",
          "type": "uint256[]"
        },
        {
          "indexed": false,
          "internalType": "uint256[]",
          "name": "values",
          "type": "uint256[]"
        }
      ],
      "name": "TransferBatch",
      "type": "event"
    },
    {
      "anonymous": false,
      "inputs": [
        {
          "indexed": true,
          "internalType": "address",
          "name": "operator",
          "type": "address"
        },
        {
          "indexed": true,
          "internalType": "address",
          "name": "from",
          "type": "address"
        },
        {
          "indexed": true,
          "internalType": "address",
          "name": "to",
          "type": "address"
        },
        {
          "indexed": false,
          "internalType": "uint256",
          "name": "id",
          "type": "uint256"
        },
        {
          "indexed": false,
          "internalType": "uint256",
          "name": "value",
          "type": "uint256"
        }
      ],
      "name": "TransferSingle",
      "type": "event"
    },
    {
      "anonymous": false,
      "inputs": [
        {
          "indexed": false,
          "internalType": "string",
          "name": "value",
          "type": "string"
        },
        {
          "indexed": true,
          "internalType": "uint256",
          "name": "id",
          "type": "uint256"
        }
      ],
      "name": "URI",
      "type": "event"
    },
    {
      "inputs": [
        {
          "internalType": "address",
          "name": "account",
          "type": "address"
        },
        {
          "internalType": "uint256",
          "name": "id",
          "type": "uint256"
        }
      ],
      "name": "balanceOf",
      "outputs": [
        {
          "internalType": "uint256",
          "name": "",
          "type": "uint256"
        }
      ],
      "stateMutability": "view",
      "type": "function",
      "constant": true
    },
    {
      "inputs": [
        {
          "internalType": "address[]",
          "name": "accounts",
          "type": "address[]"
        },
        {
          "internalType": "uint256[]",
          "name": "ids",
          "type": "uint256[]"
        }
      ],
      "name": "balanceOfBatch",
      "outputs": [
        {
          "internalType": "uint256[]",
          "name": "",
          "type": "uint256[]"
        }
      ],
      "stateMutability": "view",
      "type": "function",
      "constant": true
    },
    {
      "inputs": [
        {
          "internalType": "address",
          "name": "account",
          "type": "address"
        },
        {
          "internalType": "address",
          "name": "operator",
          "type": "address"
        }
      ],
      "name": "isApprovedForAll",
      "outputs": [
        {
          "internalType": "bool",
          "name": "",
          "type": "bool"
        }
      ],
      "stateMutability": "view",
      "type": "function",
      "constant": true
    },
    {
      "inputs": [],
      "name": "name",
      "outputs": [
        {
          "internalType": "string",
          "name": "",
          "type": "string"
        }
      ],
      "stateMutability": "view",
      "type": "function",
      "constant": true
    },
    {
      "inputs": [],
      "name": "owner",
      "outputs": [
        {
          "internalType": "address",
          "name": "",
          "type": "address"
        }
      ],
      "stateMutability": "view",
      "type": "function",
      "constant": true
    },
    {
      "inputs": [],
      "name": "renounceOwnership",
      "outputs": [],
      "stateMutability": "nonpayable",
      "type": "function"
    },
    {
      "inputs": [
        {
          "internalType": "address",
          "name": "from",
          "type": "address"
        },
        {
          "internalType": "address",
          "name": "to",
          "type": "address"
        },
        {
          "internalType": "uint256[]",
          "name": "ids",
          "type": "uint256[]"
        },
        {
          "internalType": "uint256[]",
          "name": "amounts",
          "type": "uint256[]"
        },
        {
          "internalType": "bytes",
          "name": "data",
          "type": "bytes"
        }
      ],
      "name": "safeBatchTransferFrom",
      "outputs": [],
      "stateMutability": "nonpayable",
      "type": "function"
    },
    {
      "inputs": [
        {
          "internalType": "address",
          "name": "from",
          "type": "address"
        },
        {
          "internalType": "address",
          "name": "to",
          "type": "address"
        },
        {
          "internalType": "uint256",
          "name": "id",
          "type": "uint256"
        },
        {
          "internalType": "uint256",
          "name": "amount",
          "type": "uint256"
        },
        {
          "internalType": "bytes",
          "name": "data",
          "type": "bytes"
        }
      ],
      "name": "safeTransferFrom",
      "outputs": [],
      "stateMutability": "nonpayable",
      "type": "function"
    },
    {
      "inputs": [
        {
          "internalType": "address",
          "name": "operator",
          "type": "address"
        },
        {
          "internalType": "bool",
          "name": "approved",
          "type": "bool"
        }
      ],
      "name": "setApprovalForAll",
      "outputs": [],
      "stateMutability": "nonpayable",
      "type": "function"
    },
    {
      "inputs": [
        {
          "internalType": "bytes4",
          "name": "interfaceId",
          "type": "bytes4"
        }
      ],
      "name": "supportsInterface",
      "outputs": [
        {
          "internalType": "bool",
          "name": "",
          "type": "bool"
        }
      ],
      "stateMutability": "view",
      "type": "function",
      "constant": true
    },
    {
      "inputs": [],
      "name": "symbol",
      "outputs": [
        {
          "internalType": "string",
          "name": "",
          "type": "string"
        }
      ],
      "stateMutability": "view",
      "type": "function",
      "constant": true
    },
    {
      "inputs": [
        {
          "internalType": "uint256",
          "name": "",
          "type": "uint256"
        }
      ],
      "name": "tokenURI",
      "outputs": [
        {
          "internalType": "string",
          "name": "",
          "type": "string"
        }
      ],
      "stateMutability": "view",
      "type": "function",
      "constant": true
    },
    {
      "inputs": [],
      "name": "tokensInCirculation",
      "outputs": [
        {
          "internalType": "uint256",
          "name": "",
          "type": "uint256"
        }
      ],
      "stateMutability": "view",
      "type": "function",
      "constant": true
    },
    {
      "inputs": [
        {
          "internalType": "address",
          "name": "newOwner",
          "type": "address"
        }
      ],
      "name": "transferOwnership",
      "outputs": [],
      "stateMutability": "nonpayable",
      "type": "function"
    },
    {
      "inputs": [
        {
          "internalType": "uint256",
          "name": "tokenId",
          "type": "uint256"
        }
      ],
      "name": "getTokenDetails",
      "outputs": [
        {
          "components": [
            {
              "internalType": "uint256",
              "name": "id",
              "type": "uint256"
            },
            {
              "internalType": "uint8",
              "name": "damage",
              "type": "uint8"
            },
            {
              "internalType": "uint8",
              "name": "power",
              "type": "uint8"
            },
            {
              "internalType": "uint256",
              "name": "lastMeal",
              "type": "uint256"
            },
            {
              "internalType": "uint256",
              "name": "endurance",
              "type": "uint256"
            }
          ],
          "internalType": "struct Token.Hashtro",
          "name": "",
          "type": "tuple"
        }
      ],
      "stateMutability": "view",
      "type": "function",
      "constant": true
    },
    {
      "inputs": [
        {
          "internalType": "uint256",
          "name": "tokenId",
          "type": "uint256"
        }
      ],
      "name": "feed",
      "outputs": [],
      "stateMutability": "nonpayable",
      "type": "function"
    },
    {
      "inputs": [
        {
          "internalType": "uint256",
          "name": "_id",
          "type": "uint256"
        },
        {
          "internalType": "uint256",
          "name": "_amount",
          "type": "uint256"
        },
        {
          "internalType": "uint8",
          "name": "_damage",
          "type": "uint8"
        },
        {
          "internalType": "uint8",
          "name": "_power",
          "type": "uint8"
        },
        {
          "internalType": "uint256",
          "name": "_endurance",
          "type": "uint256"
        }
      ],
      "name": "mint",
      "outputs": [],
      "stateMutability": "nonpayable",
      "type": "function"
    },
    {
      "inputs": [
        {
          "internalType": "address",
          "name": "_to",
          "type": "address"
        },
        {
          "internalType": "uint256[]",
          "name": "_ids",
          "type": "uint256[]"
        },
        {
          "internalType": "uint256[]",
          "name": "_amounts",
          "type": "uint256[]"
        }
      ],
      "name": "mintBatch",
      "outputs": [],
      "stateMutability": "nonpayable",
      "type": "function"
    },
    {
      "inputs": [
        {
          "internalType": "uint256",
          "name": "_id",
          "type": "uint256"
        },
        {
          "internalType": "uint256",
          "name": "_amount",
          "type": "uint256"
        }
      ],
      "name": "burn",
      "outputs": [],
      "stateMutability": "nonpayable",
      "type": "function"
    },
    {
      "inputs": [
        {
          "internalType": "uint256[]",
          "name": "_ids",
          "type": "uint256[]"
        },
        {
          "internalType": "uint256[]",
          "name": "_amounts",
          "type": "uint256[]"
        }
      ],
      "name": "burnBatch",
      "outputs": [],
      "stateMutability": "nonpayable",
      "type": "function"
    },
    {
      "inputs": [
        {
          "internalType": "address",
          "name": "_from",
          "type": "address"
        },
        {
          "internalType": "uint256[]",
          "name": "_burnIds",
          "type": "uint256[]"
        },
        {
          "internalType": "uint256[]",
          "name": "_burnAmounts",
          "type": "uint256[]"
        },
        {
          "internalType": "uint256[]",
          "name": "_mintIds",
          "type": "uint256[]"
        },
        {
          "internalType": "uint256[]",
          "name": "_mintAmounts",
          "type": "uint256[]"
        }
      ],
      "name": "burnForMint",
      "outputs": [],
      "stateMutability": "nonpayable",
      "type": "function"
    },
    {
      "inputs": [
        {
          "internalType": "uint256",
          "name": "_id",
          "type": "uint256"
        },
        {
          "internalType": "string",
          "name": "_uri",
          "type": "string"
        }
      ],
      "name": "setURI",
      "outputs": [],
      "stateMutability": "nonpayable",
      "type": "function"
    },
    {
      "inputs": [
        {
          "internalType": "uint256",
          "name": "_id",
          "type": "uint256"
        }
      ],
      "name": "uri",
      "outputs": [
        {
          "internalType": "string",
          "name": "",
          "type": "string"
        }
      ],
      "stateMutability": "view",
      "type": "function",
      "constant": true
    }
  ],
  "bytecode": "0x60806040523480156200001157600080fd5b50604051806060016040528060328152602001620044fd603291396200003d816200010860201b60201c565b506200005e620000526200012460201b60201c565b6200012c60201b60201c565b6040518060400160405280600881526020017f4861736874726f7300000000000000000000000000000000000000000000000081525060069080519060200190620000ab929190620001f2565b506040518060400160405280600881526020017f4841534854524f5300000000000000000000000000000000000000000000000081525060079080519060200190620000f9929190620001f2565b50600060088190555062000307565b806002908051906020019062000120929190620001f2565b5050565b600033905090565b6000600360009054906101000a900473ffffffffffffffffffffffffffffffffffffffff16905081600360006101000a81548173ffffffffffffffffffffffffffffffffffffffff021916908373ffffffffffffffffffffffffffffffffffffffff1602179055508173ffffffffffffffffffffffffffffffffffffffff168173ffffffffffffffffffffffffffffffffffffffff167f8be0079c531659141344cd1fd0a4f28419497f9722a3daafe3b4186f6b6457e060405160405180910390a35050565b8280546200020090620002d1565b90600052602060002090601f01602090048101928262000224576000855562000270565b82601f106200023f57805160ff191683800117855562000270565b8280016001018555821562000270579182015b828111156200026f57825182559160200191906001019062000252565b5b5090506200027f919062000283565b5090565b5b808211156200029e57600081600090555060010162000284565b5090565b7f4e487b7100000000000000000000000000000000000000000000000000000000600052602260045260246000fd5b60006002820490506001821680620002ea57607f821691505b60208210811415620003015762000300620002a2565b5b50919050565b6141e680620003176000396000f3fe608060405234801561001057600080fd5b506004361061014c5760003560e01c80638da5cb5b116100c3578063d81d0a151161007c578063d81d0a1514610399578063e985e9c5146103b5578063f242432a146103e5578063f2fde38b14610401578063f59dfdfb1461041d578063f5a0d6c0146104395761014c565b80638da5cb5b146102c557806395d89b41146102e3578063a22cb46514610301578063b390c0ab1461031d578063c1e0372814610339578063c87b56dd146103695761014c565b80634e1273f4116101155780634e1273f41461021b578063510f41041461024b57806351330ab414610267578063715018a61461028357806383ca4b6f1461028d578063862440e2146102a95761014c565b8062fdd58e1461015157806301ffc9a71461018157806306fdde03146101b15780630e89341c146101cf5780632eb2c2d6146101ff575b600080fd5b61016b6004803603810190610166919061286d565b610457565b60405161017891906128bc565b60405180910390f35b61019b6004803603810190610196919061292f565b610520565b6040516101a89190612977565b60405180910390f35b6101b9610602565b6040516101c69190612a2b565b60405180910390f35b6101e960048036038101906101e49190612a4d565b610690565b6040516101f69190612a2b565b60405180910390f35b61021960048036038101906102149190612c77565b610735565b005b61023560048036038101906102309190612e09565b6107d6565b6040516102429190612f3f565b60405180910390f35b61026560048036038101906102609190612f61565b6108ef565b005b610281600480360381019061027c9190613085565b610998565b005b61028b610b15565b005b6102a760048036038101906102a29190613100565b610b9d565b005b6102c360048036038101906102be9190613219565b610bac565b005b6102cd610c8c565b6040516102da9190613284565b60405180910390f35b6102eb610cb6565b6040516102f89190612a2b565b60405180910390f35b61031b600480360381019061031691906132cb565b610d44565b005b6103376004803603810190610332919061330b565b610d5a565b005b610353600480360381019061034e9190612a4d565b610d69565b60405161036091906133c2565b60405180910390f35b610383600480360381019061037e9190612a4d565b610dee565b6040516103909190612a2b565b60405180910390f35b6103b360048036038101906103ae91906133dd565b610e8e565b005b6103cf60048036038101906103ca9190613468565b610f2a565b6040516103dc9190612977565b60405180910390f35b6103ff60048036038101906103fa91906134a8565b610fbe565b005b61041b6004803603810190610416919061353f565b61105f565b005b61043760048036038101906104329190612a4d565b611157565b005b6104416111ac565b60405161044e91906128bc565b60405180910390f35b60008073ffffffffffffffffffffffffffffffffffffffff168373ffffffffffffffffffffffffffffffffffffffff1614156104c8576040517f08c379a00000000000000000000000000000000000000000000000000000000081526004016104bf906135de565b60405180910390fd5b60008083815260200190815260200160002060008473ffffffffffffffffffffffffffffffffffffffff1673ffffffffffffffffffffffffffffffffffffffff16815260200190815260200160002054905092915050565b60007fd9b67a26000000000000000000000000000000000000000000000000000000007bffffffffffffffffffffffffffffffffffffffffffffffffffffffff1916827bffffffffffffffffffffffffffffffffffffffffffffffffffffffff191614806105eb57507f0e89341c000000000000000000000000000000000000000000000000000000007bffffffffffffffffffffffffffffffffffffffffffffffffffffffff1916827bffffffffffffffffffffffffffffffffffffffffffffffffffffffff1916145b806105fb57506105fa826111b2565b5b9050919050565b6006805461060f9061362d565b80601f016020809104026020016040519081016040528092919081815260200182805461063b9061362d565b80156106885780601f1061065d57610100808354040283529160200191610688565b820191906000526020600020905b81548152906001019060200180831161066b57829003601f168201915b505050505081565b60606005600083815260200190815260200160002080546106b09061362d565b80601f01602080910402602001604051908101604052809291908181526020018280546106dc9061362d565b80156107295780601f106106fe57610100808354040283529160200191610729565b820191906000526020600020905b81548152906001019060200180831161070c57829003601f168201915b50505050509050919050565b61073d61121c565b73ffffffffffffffffffffffffffffffffffffffff168573ffffffffffffffffffffffffffffffffffffffff16148061078357506107828561077d61121c565b610f2a565b5b6107c2576040517f08c379a00000000000000000000000000000000000000000000000000000000081526004016107b9906136d1565b60405180910390fd5b6107cf8585858585611224565b5050505050565b6060815183511461081c576040517f08c379a000000000000000000000000000000000000000000000000000000000815260040161081390613763565b60405180910390fd5b6000835167ffffffffffffffff81111561083957610838612a7f565b5b6040519080825280602002602001820160405280156108675781602001602082028036833780820191505090505b50905060005b84518110156108e4576108b485828151811061088c5761088b613783565b5b60200260200101518583815181106108a7576108a6613783565b5b6020026020010151610457565b8282815181106108c7576108c6613783565b5b602002602001018181525050806108dd906137e1565b905061086d565b508091505092915050565b6108f761121c565b73ffffffffffffffffffffffffffffffffffffffff16610915610c8c565b73ffffffffffffffffffffffffffffffffffffffff161461096b576040517f08c379a000000000000000000000000000000000000000000000000000000000815260040161096290613876565b60405180910390fd5b610976858585611538565b610991858383604051806020016040528060008152506117e9565b5050505050565b6109a061121c565b73ffffffffffffffffffffffffffffffffffffffff166109be610c8c565b73ffffffffffffffffffffffffffffffffffffffff1614610a14576040517f08c379a0000000000000000000000000000000000000000000000000000000008152600401610a0b90613876565b60405180910390fd5b60005b84811015610b0d576040518060a001604052808781526020018560ff1681526020018460ff168152602001428152602001838152506004600060085481526020019081526020016000206000820151816000015560208201518160010160006101000a81548160ff021916908360ff16021790555060408201518160010160016101000a81548160ff021916908360ff1602179055506060820151816002015560808201518160030155905050610ae233600854600160405180602001604052806000815250611a07565b60086000815480929190610af5906137e1565b91905055508080610b05906137e1565b915050610a17565b505050505050565b610b1d61121c565b73ffffffffffffffffffffffffffffffffffffffff16610b3b610c8c565b73ffffffffffffffffffffffffffffffffffffffff1614610b91576040517f08c379a0000000000000000000000000000000000000000000000000000000008152600401610b8890613876565b60405180910390fd5b610b9b6000611b9d565b565b610ba8338383611538565b5050565b610bb461121c565b73ffffffffffffffffffffffffffffffffffffffff16610bd2610c8c565b73ffffffffffffffffffffffffffffffffffffffff1614610c28576040517f08c379a0000000000000000000000000000000000000000000000000000000008152600401610c1f90613876565b60405180910390fd5b80600560008481526020019081526020016000209080519060200190610c4f9291906126ed565b50817f6bb7ff708619ba0610cba295a58592e0451dee2622938c8755667688daf3529b82604051610c809190612a2b565b60405180910390a25050565b6000600360009054906101000a900473ffffffffffffffffffffffffffffffffffffffff16905090565b60078054610cc39061362d565b80601f0160208091040260200160405190810160405280929190818152602001828054610cef9061362d565b8015610d3c5780601f10610d1157610100808354040283529160200191610d3c565b820191906000526020600020905b815481529060010190602001808311610d1f57829003601f168201915b505050505081565b610d56610d4f61121c565b8383611c63565b5050565b610d65338383611dd0565b5050565b610d71612773565b600460008381526020019081526020016000206040518060a0016040529081600082015481526020016001820160009054906101000a900460ff1660ff1660ff1681526020016001820160019054906101000a900460ff1660ff1660ff168152602001600282015481526020016003820154815250509050919050565b60056020528060005260406000206000915090508054610e0d9061362d565b80601f0160208091040260200160405190810160405280929190818152602001828054610e399061362d565b8015610e865780601f10610e5b57610100808354040283529160200191610e86565b820191906000526020600020905b815481529060010190602001808311610e6957829003601f168201915b505050505081565b610e9661121c565b73ffffffffffffffffffffffffffffffffffffffff16610eb4610c8c565b73ffffffffffffffffffffffffffffffffffffffff1614610f0a576040517f08c379a0000000000000000000000000000000000000000000000000000000008152600401610f0190613876565b60405180910390fd5b610f25838383604051806020016040528060008152506117e9565b505050565b6000600160008473ffffffffffffffffffffffffffffffffffffffff1673ffffffffffffffffffffffffffffffffffffffff16815260200190815260200160002060008373ffffffffffffffffffffffffffffffffffffffff1673ffffffffffffffffffffffffffffffffffffffff16815260200190815260200160002060009054906101000a900460ff16905092915050565b610fc661121c565b73ffffffffffffffffffffffffffffffffffffffff168573ffffffffffffffffffffffffffffffffffffffff16148061100c575061100b8561100661121c565b610f2a565b5b61104b576040517f08c379a000000000000000000000000000000000000000000000000000000000815260040161104290613908565b60405180910390fd5b6110588585858585611fed565b5050505050565b61106761121c565b73ffffffffffffffffffffffffffffffffffffffff16611085610c8c565b73ffffffffffffffffffffffffffffffffffffffff16146110db576040517f08c379a00000000000000000000000000000000000000000000000000000000081526004016110d290613876565b60405180910390fd5b600073ffffffffffffffffffffffffffffffffffffffff168173ffffffffffffffffffffffffffffffffffffffff16141561114b576040517f08c379a00000000000000000000000000000000000000000000000000000000081526004016111429061399a565b60405180910390fd5b61115481611b9d565b50565b6000600460008381526020019081526020016000209050428160030154826002015461118391906139ba565b1161118d57600080fd5b4260046000848152602001908152602001600020600201819055505050565b60085481565b60007f01ffc9a7000000000000000000000000000000000000000000000000000000007bffffffffffffffffffffffffffffffffffffffffffffffffffffffff1916827bffffffffffffffffffffffffffffffffffffffffffffffffffffffff1916149050919050565b600033905090565b8151835114611268576040517f08c379a000000000000000000000000000000000000000000000000000000000815260040161125f90613a82565b60405180910390fd5b600073ffffffffffffffffffffffffffffffffffffffff168473ffffffffffffffffffffffffffffffffffffffff1614156112d8576040517f08c379a00000000000000000000000000000000000000000000000000000000081526004016112cf90613b14565b60405180910390fd5b60006112e261121c565b90506112f281878787878761226f565b60005b84518110156114a357600085828151811061131357611312613783565b5b60200260200101519050600085838151811061133257611331613783565b5b60200260200101519050600080600084815260200190815260200160002060008b73ffffffffffffffffffffffffffffffffffffffff1673ffffffffffffffffffffffffffffffffffffffff168152602001908152602001600020549050818110156113d3576040517f08c379a00000000000000000000000000000000000000000000000000000000081526004016113ca90613ba6565b60405180910390fd5b81810360008085815260200190815260200160002060008c73ffffffffffffffffffffffffffffffffffffffff1673ffffffffffffffffffffffffffffffffffffffff168152602001908152602001600020819055508160008085815260200190815260200160002060008b73ffffffffffffffffffffffffffffffffffffffff1673ffffffffffffffffffffffffffffffffffffffff168152602001908152602001600020600082825461148891906139ba565b925050819055505050508061149c906137e1565b90506112f5565b508473ffffffffffffffffffffffffffffffffffffffff168673ffffffffffffffffffffffffffffffffffffffff168273ffffffffffffffffffffffffffffffffffffffff167f4a39dc06d4c0dbc64b70af90fd698a233a518aa5d07e595d983b8c0526c8f7fb878760405161151a929190613bc6565b60405180910390a46115308187878787876122b0565b505050505050565b600073ffffffffffffffffffffffffffffffffffffffff168373ffffffffffffffffffffffffffffffffffffffff1614156115a8576040517f08c379a000000000000000000000000000000000000000000000000000000000815260040161159f90613c6f565b60405180910390fd5b80518251146115ec576040517f08c379a00000000000000000000000000000000000000000000000000000000081526004016115e390613a82565b60405180910390fd5b60006115f661121c565b90506116168185600086866040518060200160405280600081525061226f565b60005b835181101561176357600084828151811061163757611636613783565b5b60200260200101519050600084838151811061165657611655613783565b5b60200260200101519050600080600084815260200190815260200160002060008973ffffffffffffffffffffffffffffffffffffffff1673ffffffffffffffffffffffffffffffffffffffff168152602001908152602001600020549050818110156116f7576040517f08c379a00000000000000000000000000000000000000000000000000000000081526004016116ee90613d01565b60405180910390fd5b81810360008085815260200190815260200160002060008a73ffffffffffffffffffffffffffffffffffffffff1673ffffffffffffffffffffffffffffffffffffffff16815260200190815260200160002081905550505050808061175b906137e1565b915050611619565b50600073ffffffffffffffffffffffffffffffffffffffff168473ffffffffffffffffffffffffffffffffffffffff168273ffffffffffffffffffffffffffffffffffffffff167f4a39dc06d4c0dbc64b70af90fd698a233a518aa5d07e595d983b8c0526c8f7fb86866040516117db929190613bc6565b60405180910390a450505050565b600073ffffffffffffffffffffffffffffffffffffffff168473ffffffffffffffffffffffffffffffffffffffff161415611859576040517f08c379a000000000000000000000000000000000000000000000000000000000815260040161185090613d93565b60405180910390fd5b815183511461189d576040517f08c379a000000000000000000000000000000000000000000000000000000000815260040161189490613a82565b60405180910390fd5b60006118a761121c565b90506118b88160008787878761226f565b60005b8451811015611971578381815181106118d7576118d6613783565b5b60200260200101516000808784815181106118f5576118f4613783565b5b6020026020010151815260200190815260200160002060008873ffffffffffffffffffffffffffffffffffffffff1673ffffffffffffffffffffffffffffffffffffffff168152602001908152602001600020600082825461195791906139ba565b925050819055508080611969906137e1565b9150506118bb565b508473ffffffffffffffffffffffffffffffffffffffff16600073ffffffffffffffffffffffffffffffffffffffff168273ffffffffffffffffffffffffffffffffffffffff167f4a39dc06d4c0dbc64b70af90fd698a233a518aa5d07e595d983b8c0526c8f7fb87876040516119e9929190613bc6565b60405180910390a4611a00816000878787876122b0565b5050505050565b600073ffffffffffffffffffffffffffffffffffffffff168473ffffffffffffffffffffffffffffffffffffffff161415611a77576040517f08c379a0000000000000000000000000000000000000000000000000000000008152600401611a6e90613d93565b60405180910390fd5b6000611a8161121c565b9050611aa281600087611a9388612488565b611a9c88612488565b8761226f565b8260008086815260200190815260200160002060008773ffffffffffffffffffffffffffffffffffffffff1673ffffffffffffffffffffffffffffffffffffffff1681526020019081526020016000206000828254611b0191906139ba565b925050819055508473ffffffffffffffffffffffffffffffffffffffff16600073ffffffffffffffffffffffffffffffffffffffff168273ffffffffffffffffffffffffffffffffffffffff167fc3d58168c5ae7397731d063d5bbf3d657854427343f4c083240f7aacaa2d0f628787604051611b7f929190613db3565b60405180910390a4611b9681600087878787612502565b5050505050565b6000600360009054906101000a900473ffffffffffffffffffffffffffffffffffffffff16905081600360006101000a81548173ffffffffffffffffffffffffffffffffffffffff021916908373ffffffffffffffffffffffffffffffffffffffff1602179055508173ffffffffffffffffffffffffffffffffffffffff168173ffffffffffffffffffffffffffffffffffffffff167f8be0079c531659141344cd1fd0a4f28419497f9722a3daafe3b4186f6b6457e060405160405180910390a35050565b8173ffffffffffffffffffffffffffffffffffffffff168373ffffffffffffffffffffffffffffffffffffffff161415611cd2576040517f08c379a0000000000000000000000000000000000000000000000000000000008152600401611cc990613e4e565b60405180910390fd5b80600160008573ffffffffffffffffffffffffffffffffffffffff1673ffffffffffffffffffffffffffffffffffffffff16815260200190815260200160002060008473ffffffffffffffffffffffffffffffffffffffff1673ffffffffffffffffffffffffffffffffffffffff16815260200190815260200160002060006101000a81548160ff0219169083151502179055508173ffffffffffffffffffffffffffffffffffffffff168373ffffffffffffffffffffffffffffffffffffffff167f17307eab39ab6107e8899845ad3d59bd9653f200f220920489ca2b5937696c3183604051611dc39190612977565b60405180910390a3505050565b600073ffffffffffffffffffffffffffffffffffffffff168373ffffffffffffffffffffffffffffffffffffffff161415611e40576040517f08c379a0000000000000000000000000000000000000000000000000000000008152600401611e3790613c6f565b60405180910390fd5b6000611e4a61121c565b9050611e7a81856000611e5c87612488565b611e6587612488565b6040518060200160405280600081525061226f565b600080600085815260200190815260200160002060008673ffffffffffffffffffffffffffffffffffffffff1673ffffffffffffffffffffffffffffffffffffffff16815260200190815260200160002054905082811015611f11576040517f08c379a0000000000000000000000000000000000000000000000000000000008152600401611f0890613d01565b60405180910390fd5b82810360008086815260200190815260200160002060008773ffffffffffffffffffffffffffffffffffffffff1673ffffffffffffffffffffffffffffffffffffffff16815260200190815260200160002081905550600073ffffffffffffffffffffffffffffffffffffffff168573ffffffffffffffffffffffffffffffffffffffff168373ffffffffffffffffffffffffffffffffffffffff167fc3d58168c5ae7397731d063d5bbf3d657854427343f4c083240f7aacaa2d0f628787604051611fde929190613db3565b60405180910390a45050505050565b600073ffffffffffffffffffffffffffffffffffffffff168473ffffffffffffffffffffffffffffffffffffffff16141561205d576040517f08c379a000000000000000000000000000000000000000000000000000000000815260040161205490613b14565b60405180910390fd5b600061206761121c565b905061208781878761207888612488565b61208188612488565b8761226f565b600080600086815260200190815260200160002060008873ffffffffffffffffffffffffffffffffffffffff1673ffffffffffffffffffffffffffffffffffffffff1681526020019081526020016000205490508381101561211e576040517f08c379a000000000000000000000000000000000000000000000000000000000815260040161211590613ba6565b60405180910390fd5b83810360008087815260200190815260200160002060008973ffffffffffffffffffffffffffffffffffffffff1673ffffffffffffffffffffffffffffffffffffffff168152602001908152602001600020819055508360008087815260200190815260200160002060008873ffffffffffffffffffffffffffffffffffffffff1673ffffffffffffffffffffffffffffffffffffffff16815260200190815260200160002060008282546121d391906139ba565b925050819055508573ffffffffffffffffffffffffffffffffffffffff168773ffffffffffffffffffffffffffffffffffffffff168373ffffffffffffffffffffffffffffffffffffffff167fc3d58168c5ae7397731d063d5bbf3d657854427343f4c083240f7aacaa2d0f628888604051612250929190613db3565b60405180910390a4612266828888888888612502565b50505050505050565b60006004600060085481526020019081526020016000209050428160030154826002015461229d91906139ba565b116122a757600080fd5b50505050505050565b6122cf8473ffffffffffffffffffffffffffffffffffffffff166126da565b15612480578373ffffffffffffffffffffffffffffffffffffffff1663bc197c8187878686866040518663ffffffff1660e01b8152600401612315959493929190613ec3565b6020604051808303816000875af192505050801561235157506040513d601f19601f8201168201806040525081019061234e9190613f40565b60015b6123f75761235d613f7a565b806308c379a014156123ba5750612372613f9c565b8061237d57506123bc565b806040517f08c379a00000000000000000000000000000000000000000000000000000000081526004016123b19190612a2b565b60405180910390fd5b505b6040517f08c379a00000000000000000000000000000000000000000000000000000000081526004016123ee906140a4565b60405180910390fd5b63bc197c8160e01b7bffffffffffffffffffffffffffffffffffffffffffffffffffffffff1916817bffffffffffffffffffffffffffffffffffffffffffffffffffffffff19161461247e576040517f08c379a000000000000000000000000000000000000000000000000000000000815260040161247590614136565b60405180910390fd5b505b505050505050565b60606000600167ffffffffffffffff8111156124a7576124a6612a7f565b5b6040519080825280602002602001820160405280156124d55781602001602082028036833780820191505090505b50905082816000815181106124ed576124ec613783565b5b60200260200101818152505080915050919050565b6125218473ffffffffffffffffffffffffffffffffffffffff166126da565b156126d2578373ffffffffffffffffffffffffffffffffffffffff1663f23a6e6187878686866040518663ffffffff1660e01b8152600401612567959493929190614156565b6020604051808303816000875af19250505080156125a357506040513d601f19601f820116820180604052508101906125a09190613f40565b60015b612649576125af613f7a565b806308c379a0141561260c57506125c4613f9c565b806125cf575061260e565b806040517f08c379a00000000000000000000000000000000000000000000000000000000081526004016126039190612a2b565b60405180910390fd5b505b6040517f08c379a0000000000000000000000000000000000000000000000000000000008152600401612640906140a4565b60405180910390fd5b63f23a6e6160e01b7bffffffffffffffffffffffffffffffffffffffffffffffffffffffff1916817bffffffffffffffffffffffffffffffffffffffffffffffffffffffff1916146126d0576040517f08c379a00000000000000000000000000000000000000000000000000000000081526004016126c790614136565b60405180910390fd5b505b505050505050565b600080823b905060008111915050919050565b8280546126f99061362d565b90600052602060002090601f01602090048101928261271b5760008555612762565b82601f1061273457805160ff1916838001178555612762565b82800160010185558215612762579182015b82811115612761578251825591602001919060010190612746565b5b50905061276f91906127a8565b5090565b6040518060a0016040528060008152602001600060ff168152602001600060ff16815260200160008152602001600081525090565b5b808211156127c15760008160009055506001016127a9565b5090565b6000604051905090565b600080fd5b600080fd5b600073ffffffffffffffffffffffffffffffffffffffff82169050919050565b6000612804826127d9565b9050919050565b612814816127f9565b811461281f57600080fd5b50565b6000813590506128318161280b565b92915050565b6000819050919050565b61284a81612837565b811461285557600080fd5b50565b60008135905061286781612841565b92915050565b60008060408385031215612884576128836127cf565b5b600061289285828601612822565b92505060206128a385828601612858565b9150509250929050565b6128b681612837565b82525050565b60006020820190506128d160008301846128ad565b92915050565b60007fffffffff0000000000000000000000000000000000000000000000000000000082169050919050565b61290c816128d7565b811461291757600080fd5b50565b60008135905061292981612903565b92915050565b600060208284031215612945576129446127cf565b5b60006129538482850161291a565b91505092915050565b60008115159050919050565b6129718161295c565b82525050565b600060208201905061298c6000830184612968565b92915050565b600081519050919050565b600082825260208201905092915050565b60005b838110156129cc5780820151818401526020810190506129b1565b838111156129db576000848401525b50505050565b6000601f19601f8301169050919050565b60006129fd82612992565b612a07818561299d565b9350612a178185602086016129ae565b612a20816129e1565b840191505092915050565b60006020820190508181036000830152612a4581846129f2565b905092915050565b600060208284031215612a6357612a626127cf565b5b6000612a7184828501612858565b91505092915050565b600080fd5b7f4e487b7100000000000000000000000000000000000000000000000000000000600052604160045260246000fd5b612ab7826129e1565b810181811067ffffffffffffffff82111715612ad657612ad5612a7f565b5b80604052505050565b6000612ae96127c5565b9050612af58282612aae565b919050565b600067ffffffffffffffff821115612b1557612b14612a7f565b5b602082029050602081019050919050565b600080fd5b6000612b3e612b3984612afa565b612adf565b90508083825260208201905060208402830185811115612b6157612b60612b26565b5b835b81811015612b8a5780612b768882612858565b845260208401935050602081019050612b63565b5050509392505050565b600082601f830112612ba957612ba8612a7a565b5b8135612bb9848260208601612b2b565b91505092915050565b600080fd5b600067ffffffffffffffff821115612be257612be1612a7f565b5b612beb826129e1565b9050602081019050919050565b82818337600083830152505050565b6000612c1a612c1584612bc7565b612adf565b905082815260208101848484011115612c3657612c35612bc2565b5b612c41848285612bf8565b509392505050565b600082601f830112612c5e57612c5d612a7a565b5b8135612c6e848260208601612c07565b91505092915050565b600080600080600060a08688031215612c9357612c926127cf565b5b6000612ca188828901612822565b9550506020612cb288828901612822565b945050604086013567ffffffffffffffff811115612cd357612cd26127d4565b5b612cdf88828901612b94565b935050606086013567ffffffffffffffff811115612d0057612cff6127d4565b5b612d0c88828901612b94565b925050608086013567ffffffffffffffff811115612d2d57612d2c6127d4565b5b612d3988828901612c49565b9150509295509295909350565b600067ffffffffffffffff821115612d6157612d60612a7f565b5b602082029050602081019050919050565b6000612d85612d8084612d46565b612adf565b90508083825260208201905060208402830185811115612da857612da7612b26565b5b835b81811015612dd15780612dbd8882612822565b845260208401935050602081019050612daa565b5050509392505050565b600082601f830112612df057612def612a7a565b5b8135612e00848260208601612d72565b91505092915050565b60008060408385031215612e2057612e1f6127cf565b5b600083013567ffffffffffffffff811115612e3e57612e3d6127d4565b5b612e4a85828601612ddb565b925050602083013567ffffffffffffffff811115612e6b57612e6a6127d4565b5b612e7785828601612b94565b9150509250929050565b600081519050919050565b600082825260208201905092915050565b6000819050602082019050919050565b612eb681612837565b82525050565b6000612ec88383612ead565b60208301905092915050565b6000602082019050919050565b6000612eec82612e81565b612ef68185612e8c565b9350612f0183612e9d565b8060005b83811015612f32578151612f198882612ebc565b9750612f2483612ed4565b925050600181019050612f05565b5085935050505092915050565b60006020820190508181036000830152612f598184612ee1565b905092915050565b600080600080600060a08688031215612f7d57612f7c6127cf565b5b6000612f8b88828901612822565b955050602086013567ffffffffffffffff811115612fac57612fab6127d4565b5b612fb888828901612b94565b945050604086013567ffffffffffffffff811115612fd957612fd86127d4565b5b612fe588828901612b94565b935050606086013567ffffffffffffffff811115613006576130056127d4565b5b61301288828901612b94565b925050608086013567ffffffffffffffff811115613033576130326127d4565b5b61303f88828901612b94565b9150509295509295909350565b600060ff82169050919050565b6130628161304c565b811461306d57600080fd5b50565b60008135905061307f81613059565b92915050565b600080600080600060a086880312156130a1576130a06127cf565b5b60006130af88828901612858565b95505060206130c088828901612858565b94505060406130d188828901613070565b93505060606130e288828901613070565b92505060806130f388828901612858565b9150509295509295909350565b60008060408385031215613117576131166127cf565b5b600083013567ffffffffffffffff811115613135576131346127d4565b5b61314185828601612b94565b925050602083013567ffffffffffffffff811115613162576131616127d4565b5b61316e85828601612b94565b9150509250929050565b600067ffffffffffffffff82111561319357613192612a7f565b5b61319c826129e1565b9050602081019050919050565b60006131bc6131b784613178565b612adf565b9050828152602081018484840111156131d8576131d7612bc2565b5b6131e3848285612bf8565b509392505050565b600082601f830112613200576131ff612a7a565b5b81356132108482602086016131a9565b91505092915050565b600080604083850312156132305761322f6127cf565b5b600061323e85828601612858565b925050602083013567ffffffffffffffff81111561325f5761325e6127d4565b5b61326b858286016131eb565b9150509250929050565b61327e816127f9565b82525050565b60006020820190506132996000830184613275565b92915050565b6132a88161295c565b81146132b357600080fd5b50565b6000813590506132c58161329f565b92915050565b600080604083850312156132e2576132e16127cf565b5b60006132f085828601612822565b9250506020613301858286016132b6565b9150509250929050565b60008060408385031215613322576133216127cf565b5b600061333085828601612858565b925050602061334185828601612858565b9150509250929050565b6133548161304c565b82525050565b60a0820160008201516133706000850182612ead565b506020820151613383602085018261334b565b506040820151613396604085018261334b565b5060608201516133a96060850182612ead565b5060808201516133bc6080850182612ead565b50505050565b600060a0820190506133d7600083018461335a565b92915050565b6000806000606084860312156133f6576133f56127cf565b5b600061340486828701612822565b935050602084013567ffffffffffffffff811115613425576134246127d4565b5b61343186828701612b94565b925050604084013567ffffffffffffffff811115613452576134516127d4565b5b61345e86828701612b94565b9150509250925092565b6000806040838503121561347f5761347e6127cf565b5b600061348d85828601612822565b925050602061349e85828601612822565b9150509250929050565b600080600080600060a086880312156134c4576134c36127cf565b5b60006134d288828901612822565b95505060206134e388828901612822565b94505060406134f488828901612858565b935050606061350588828901612858565b925050608086013567ffffffffffffffff811115613526576135256127d4565b5b61353288828901612c49565b9150509295509295909350565b600060208284031215613555576135546127cf565b5b600061356384828501612822565b91505092915050565b7f455243313135353a2062616c616e636520717565727920666f7220746865207a60008201527f65726f2061646472657373000000000000000000000000000000000000000000602082015250565b60006135c8602b8361299d565b91506135d38261356c565b604082019050919050565b600060208201905081810360008301526135f7816135bb565b9050919050565b7f4e487b7100000000000000000000000000000000000000000000000000000000600052602260045260246000fd5b6000600282049050600182168061364557607f821691505b60208210811415613659576136586135fe565b5b50919050565b7f455243313135353a207472616e736665722063616c6c6572206973206e6f742060008201527f6f776e6572206e6f7220617070726f7665640000000000000000000000000000602082015250565b60006136bb60328361299d565b91506136c68261365f565b604082019050919050565b600060208201905081810360008301526136ea816136ae565b9050919050565b7f455243313135353a206163636f756e747320616e6420696473206c656e67746860008201527f206d69736d617463680000000000000000000000000000000000000000000000602082015250565b600061374d60298361299d565b9150613758826136f1565b604082019050919050565b6000602082019050818103600083015261377c81613740565b9050919050565b7f4e487b7100000000000000000000000000000000000000000000000000000000600052603260045260246000fd5b7f4e487b7100000000000000000000000000000000000000000000000000000000600052601160045260246000fd5b60006137ec82612837565b91507fffffffffffffffffffffffffffffffffffffffffffffffffffffffffffffffff82141561381f5761381e6137b2565b5b600182019050919050565b7f4f776e61626c653a2063616c6c6572206973206e6f7420746865206f776e6572600082015250565b600061386060208361299d565b915061386b8261382a565b602082019050919050565b6000602082019050818103600083015261388f81613853565b9050919050565b7f455243313135353a2063616c6c6572206973206e6f74206f776e6572206e6f7260008201527f20617070726f7665640000000000000000000000000000000000000000000000602082015250565b60006138f260298361299d565b91506138fd82613896565b604082019050919050565b60006020820190508181036000830152613921816138e5565b9050919050565b7f4f776e61626c653a206e6577206f776e657220697320746865207a65726f206160008201527f6464726573730000000000000000000000000000000000000000000000000000602082015250565b600061398460268361299d565b915061398f82613928565b604082019050919050565b600060208201905081810360008301526139b381613977565b9050919050565b60006139c582612837565b91506139d083612837565b9250827fffffffffffffffffffffffffffffffffffffffffffffffffffffffffffffffff03821115613a0557613a046137b2565b5b828201905092915050565b7f455243313135353a2069647320616e6420616d6f756e7473206c656e6774682060008201527f6d69736d61746368000000000000000000000000000000000000000000000000602082015250565b6000613a6c60288361299d565b9150613a7782613a10565b604082019050919050565b60006020820190508181036000830152613a9b81613a5f565b9050919050565b7f455243313135353a207472616e7366657220746f20746865207a65726f20616460008201527f6472657373000000000000000000000000000000000000000000000000000000602082015250565b6000613afe60258361299d565b9150613b0982613aa2565b604082019050919050565b60006020820190508181036000830152613b2d81613af1565b9050919050565b7f455243313135353a20696e73756666696369656e742062616c616e636520666f60008201527f72207472616e7366657200000000000000000000000000000000000000000000602082015250565b6000613b90602a8361299d565b9150613b9b82613b34565b604082019050919050565b60006020820190508181036000830152613bbf81613b83565b9050919050565b60006040820190508181036000830152613be08185612ee1565b90508181036020830152613bf48184612ee1565b90509392505050565b7f455243313135353a206275726e2066726f6d20746865207a65726f206164647260008201527f6573730000000000000000000000000000000000000000000000000000000000602082015250565b6000613c5960238361299d565b9150613c6482613bfd565b604082019050919050565b60006020820190508181036000830152613c8881613c4c565b9050919050565b7f455243313135353a206275726e20616d6f756e7420657863656564732062616c60008201527f616e636500000000000000000000000000000000000000000000000000000000602082015250565b6000613ceb60248361299d565b9150613cf682613c8f565b604082019050919050565b60006020820190508181036000830152613d1a81613cde565b9050919050565b7f455243313135353a206d696e7420746f20746865207a65726f2061646472657360008201527f7300000000000000000000000000000000000000000000000000000000000000602082015250565b6000613d7d60218361299d565b9150613d8882613d21565b604082019050919050565b60006020820190508181036000830152613dac81613d70565b9050919050565b6000604082019050613dc860008301856128ad565b613dd560208301846128ad565b9392505050565b7f455243313135353a2073657474696e6720617070726f76616c2073746174757360008201527f20666f722073656c660000000000000000000000000000000000000000000000602082015250565b6000613e3860298361299d565b9150613e4382613ddc565b604082019050919050565b60006020820190508181036000830152613e6781613e2b565b9050919050565b600081519050919050565b600082825260208201905092915050565b6000613e9582613e6e565b613e9f8185613e79565b9350613eaf8185602086016129ae565b613eb8816129e1565b840191505092915050565b600060a082019050613ed86000830188613275565b613ee56020830187613275565b8181036040830152613ef78186612ee1565b90508181036060830152613f0b8185612ee1565b90508181036080830152613f1f8184613e8a565b90509695505050505050565b600081519050613f3a81612903565b92915050565b600060208284031215613f5657613f556127cf565b5b6000613f6484828501613f2b565b91505092915050565b60008160e01c9050919050565b600060033d1115613f995760046000803e613f96600051613f6d565b90505b90565b600060443d1015613fac5761402f565b613fb46127c5565b60043d036004823e80513d602482011167ffffffffffffffff82111715613fdc57505061402f565b808201805167ffffffffffffffff811115613ffa575050505061402f565b80602083010160043d03850181111561401757505050505061402f565b61402682602001850186612aae565b82955050505050505b90565b7f455243313135353a207472616e7366657220746f206e6f6e204552433131353560008201527f526563656976657220696d706c656d656e746572000000000000000000000000602082015250565b600061408e60348361299d565b915061409982614032565b604082019050919050565b600060208201905081810360008301526140bd81614081565b9050919050565b7f455243313135353a204552433131353552656365697665722072656a6563746560008201527f6420746f6b656e73000000000000000000000000000000000000000000000000602082015250565b600061412060288361299d565b915061412b826140c4565b604082019050919050565b6000602082019050818103600083015261414f81614113565b9050919050565b600060a08201905061416b6000830188613275565b6141786020830187613275565b61418560408301866128ad565b61419260608301856128ad565b81810360808301526141a48184613e8a565b9050969550505050505056fea2646970667358221220c1e861b14038b35cf939cd50cb78eb57854fff4256ac6534faa3d09dcccd943464736f6c634300080a0033697066733a2f2f494e534552545f594f55525f4349445f4d455441484153482f6d657461646174612f7b69647d2e6a736f6e",
  "immutableReferences": {},
  "source": "pragma solidity >=0.7.0 <0.9.0;\n\n//import 1155 token contract from Openzeppelin\nimport \"../node_modules/@openzeppelin/contracts/token/ERC1155/ERC1155.sol\";\nimport \"../node_modules/@openzeppelin/contracts/utils/math/SafeMath.sol\";\nimport \"../node_modules/@openzeppelin/contracts/access/Ownable.sol\";\n\ncontract Token is ERC1155, Ownable {\n    using SafeMath for uint256;\n\n    // Hashtro struct can be used within arrays and mappings\n    struct Hashtro {\n        uint256 id;\n        uint8 damage;\n        uint8 power;\n        uint256 lastMeal;\n        uint256 endurance; // 24 hours\n    }\n    // mapping that reference each Hashtro by their token id\n    mapping(uint256 => Hashtro) private _tokenDetails; // 0 -> however many get created\n    mapping(uint256 => string) public tokenURI;\n\n    string public name;\n    string public symbol;\n    uint256 public tokensInCirculation;\n\n    // parent ERC1155 constructor requires this\n    // https://game.example/api/item/0000000000000000000000000000000000000000000000000000000000000001.json\n\n    constructor()\n        ERC1155(\"ipfs://INSERT_YOUR_CID_METAHASH/metadata/{id}.json\")\n    {\n        name = \"Hashtros\";\n        symbol = \"HASHTROS\";\n        tokensInCirculation = 0;\n    }\n\n    function getTokenDetails(uint256 tokenId)\n        public\n        view\n        returns (Hashtro memory)\n    {\n        return _tokenDetails[tokenId];\n    }\n\n    function feed(uint256 tokenId) public {\n        Hashtro storage hashtro = _tokenDetails[tokenId];\n        require(hashtro.lastMeal + hashtro.endurance > block.timestamp); // must not have died of starvation; Hashtro is still alive\n        _tokenDetails[tokenId].lastMeal = block.timestamp; // update when hashtro was last fed according to block time\n    }\n\n    // mint is our publicly exposed func, _mint is parent contract's mint func\n    function mint(\n        uint256 _id,\n        uint256 _amount,\n        uint8 _damage,\n        uint8 _power,\n        uint256 _endurance\n    ) public onlyOwner {\n        for (uint256 i = 0; i < _amount; i++) {\n            // only owner address can mint owner_address, token_id, bytecode\n            _tokenDetails[tokensInCirculation] = Hashtro(\n                _id,\n                _damage,\n                _power,\n                block.timestamp,\n                _endurance\n            );\n            _mint(msg.sender, tokensInCirculation, 1, \"\"); // <- '1' in 1155 = NFT\n            // iterate circulating tokens by minted amount above\n            tokensInCirculation++;\n        }\n    }\n\n    function mintBatch(\n        address _to,\n        uint256[] memory _ids,\n        uint256[] memory _amounts\n    ) external onlyOwner {\n        _mintBatch(_to, _ids, _amounts, \"\");\n    }\n\n    function burn(uint256 _id, uint256 _amount) external {\n        _burn(msg.sender, _id, _amount);\n    }\n\n    function burnBatch(uint256[] memory _ids, uint256[] memory _amounts)\n        external\n    {\n        _burnBatch(msg.sender, _ids, _amounts);\n    }\n\n    function burnForMint(\n        address _from,\n        uint256[] memory _burnIds,\n        uint256[] memory _burnAmounts,\n        uint256[] memory _mintIds,\n        uint256[] memory _mintAmounts\n    ) external onlyOwner {\n        _burnBatch(_from, _burnIds, _burnAmounts);\n        _mintBatch(_from, _mintIds, _mintAmounts, \"\");\n    }\n\n    function _beforeTokenTransfer(\n        address,\n        address,\n        address,\n        uint256[] memory,\n        uint256[] memory,\n        bytes memory\n    ) internal view override {\n        // cannot be transferred IF dead.\n        Hashtro storage hashtro = _tokenDetails[tokensInCirculation];\n        require(hashtro.lastMeal + hashtro.endurance > block.timestamp); // must not have died of starvation; Hashtro is still alive\n    }\n\n    function setURI(uint256 _id, string memory _uri) external onlyOwner {\n        tokenURI[_id] = _uri;\n        emit URI(_uri, _id);\n    }\n\n    function uri(uint256 _id) public view override returns (string memory) {\n        return tokenURI[_id];\n    }\n}\n",
  "sourcePath": "/Users/ashleydavison/dev/nft-game-sandbox/contracts/Token.sol",
  "compiler": {
    "name": "solc",
    "version": "0.8.10+commit.fc410830.Emscripten.clang"
  },
  "schemaVersion": "3.4.4",
  "updatedAt": "2022-01-10T11:32:55.371Z",
  "networkType": "ethereum",
  "devdoc": {
    "kind": "dev",
    "methods": {
      "balanceOf(address,uint256)": {
        "details": "See {IERC1155-balanceOf}. Requirements: - `account` cannot be the zero address."
      },
      "balanceOfBatch(address[],uint256[])": {
        "details": "See {IERC1155-balanceOfBatch}. Requirements: - `accounts` and `ids` must have the same length."
      },
      "isApprovedForAll(address,address)": {
        "details": "See {IERC1155-isApprovedForAll}."
      },
      "owner()": {
        "details": "Returns the address of the current owner."
      },
      "renounceOwnership()": {
        "details": "Leaves the contract without owner. It will not be possible to call `onlyOwner` functions anymore. Can only be called by the current owner. NOTE: Renouncing ownership will leave the contract without an owner, thereby removing any functionality that is only available to the owner."
      },
      "safeBatchTransferFrom(address,address,uint256[],uint256[],bytes)": {
        "details": "See {IERC1155-safeBatchTransferFrom}."
      },
      "safeTransferFrom(address,address,uint256,uint256,bytes)": {
        "details": "See {IERC1155-safeTransferFrom}."
      },
      "setApprovalForAll(address,bool)": {
        "details": "See {IERC1155-setApprovalForAll}."
      },
      "supportsInterface(bytes4)": {
        "details": "See {IERC165-supportsInterface}."
      },
      "transferOwnership(address)": {
        "details": "Transfers ownership of the contract to a new account (`newOwner`). Can only be called by the current owner."
      }
    },
    "version": 1
  },
  "userdoc": {
    "kind": "user",
    "methods": {},
    "version": 1
  }
}