{
  "contractName": "Token",
  "abi": [
    {
      "inputs": [],
      "stateMutability": "nonpayable",
      "type": "constructor"
    },
    {
      "anonymous": false,
      "inputs": [
        {
          "indexed": true,
          "internalType": "address",
          "name": "account",
          "type": "address"
        },
        {
          "indexed": true,
          "internalType": "address",
          "name": "operator",
          "type": "address"
        },
        {
          "indexed": false,
          "internalType": "bool",
          "name": "approved",
          "type": "bool"
        }
      ],
      "name": "ApprovalForAll",
      "type": "event"
    },
    {
      "anonymous": false,
      "inputs": [
        {
          "indexed": true,
          "internalType": "address",
          "name": "previousOwner",
          "type": "address"
        },
        {
          "indexed": true,
          "internalType": "address",
          "name": "newOwner",
          "type": "address"
        }
      ],
      "name": "OwnershipTransferred",
      "type": "event"
    },
    {
      "anonymous": false,
      "inputs": [
        {
          "indexed": true,
          "internalType": "address",
          "name": "operator",
          "type": "address"
        },
        {
          "indexed": true,
          "internalType": "address",
          "name": "from",
          "type": "address"
        },
        {
          "indexed": true,
          "internalType": "address",
          "name": "to",
          "type": "address"
        },
        {
          "indexed": false,
          "internalType": "uint256[]",
          "name": "ids",
          "type": "uint256[]"
        },
        {
          "indexed": false,
          "internalType": "uint256[]",
          "name": "values",
          "type": "uint256[]"
        }
      ],
      "name": "TransferBatch",
      "type": "event"
    },
    {
      "anonymous": false,
      "inputs": [
        {
          "indexed": true,
          "internalType": "address",
          "name": "operator",
          "type": "address"
        },
        {
          "indexed": true,
          "internalType": "address",
          "name": "from",
          "type": "address"
        },
        {
          "indexed": true,
          "internalType": "address",
          "name": "to",
          "type": "address"
        },
        {
          "indexed": false,
          "internalType": "uint256",
          "name": "id",
          "type": "uint256"
        },
        {
          "indexed": false,
          "internalType": "uint256",
          "name": "value",
          "type": "uint256"
        }
      ],
      "name": "TransferSingle",
      "type": "event"
    },
    {
      "anonymous": false,
      "inputs": [
        {
          "indexed": false,
          "internalType": "string",
          "name": "value",
          "type": "string"
        },
        {
          "indexed": true,
          "internalType": "uint256",
          "name": "id",
          "type": "uint256"
        }
      ],
      "name": "URI",
      "type": "event"
    },
    {
      "inputs": [
        {
          "internalType": "address",
          "name": "account",
          "type": "address"
        },
        {
          "internalType": "uint256",
          "name": "id",
          "type": "uint256"
        }
      ],
      "name": "balanceOf",
      "outputs": [
        {
          "internalType": "uint256",
          "name": "",
          "type": "uint256"
        }
      ],
      "stateMutability": "view",
      "type": "function",
      "constant": true
    },
    {
      "inputs": [
        {
          "internalType": "address[]",
          "name": "accounts",
          "type": "address[]"
        },
        {
          "internalType": "uint256[]",
          "name": "ids",
          "type": "uint256[]"
        }
      ],
      "name": "balanceOfBatch",
      "outputs": [
        {
          "internalType": "uint256[]",
          "name": "",
          "type": "uint256[]"
        }
      ],
      "stateMutability": "view",
      "type": "function",
      "constant": true
    },
    {
      "inputs": [
        {
          "internalType": "address",
          "name": "account",
          "type": "address"
        },
        {
          "internalType": "address",
          "name": "operator",
          "type": "address"
        }
      ],
      "name": "isApprovedForAll",
      "outputs": [
        {
          "internalType": "bool",
          "name": "",
          "type": "bool"
        }
      ],
      "stateMutability": "view",
      "type": "function",
      "constant": true
    },
    {
      "inputs": [],
      "name": "name",
      "outputs": [
        {
          "internalType": "string",
          "name": "",
          "type": "string"
        }
      ],
      "stateMutability": "view",
      "type": "function",
      "constant": true
    },
    {
      "inputs": [],
      "name": "owner",
      "outputs": [
        {
          "internalType": "address",
          "name": "",
          "type": "address"
        }
      ],
      "stateMutability": "view",
      "type": "function",
      "constant": true
    },
    {
      "inputs": [],
      "name": "renounceOwnership",
      "outputs": [],
      "stateMutability": "nonpayable",
      "type": "function"
    },
    {
      "inputs": [
        {
          "internalType": "address",
          "name": "from",
          "type": "address"
        },
        {
          "internalType": "address",
          "name": "to",
          "type": "address"
        },
        {
          "internalType": "uint256[]",
          "name": "ids",
          "type": "uint256[]"
        },
        {
          "internalType": "uint256[]",
          "name": "amounts",
          "type": "uint256[]"
        },
        {
          "internalType": "bytes",
          "name": "data",
          "type": "bytes"
        }
      ],
      "name": "safeBatchTransferFrom",
      "outputs": [],
      "stateMutability": "nonpayable",
      "type": "function"
    },
    {
      "inputs": [
        {
          "internalType": "address",
          "name": "from",
          "type": "address"
        },
        {
          "internalType": "address",
          "name": "to",
          "type": "address"
        },
        {
          "internalType": "uint256",
          "name": "id",
          "type": "uint256"
        },
        {
          "internalType": "uint256",
          "name": "amount",
          "type": "uint256"
        },
        {
          "internalType": "bytes",
          "name": "data",
          "type": "bytes"
        }
      ],
      "name": "safeTransferFrom",
      "outputs": [],
      "stateMutability": "nonpayable",
      "type": "function"
    },
    {
      "inputs": [
        {
          "internalType": "address",
          "name": "operator",
          "type": "address"
        },
        {
          "internalType": "bool",
          "name": "approved",
          "type": "bool"
        }
      ],
      "name": "setApprovalForAll",
      "outputs": [],
      "stateMutability": "nonpayable",
      "type": "function"
    },
    {
      "inputs": [
        {
          "internalType": "bytes4",
          "name": "interfaceId",
          "type": "bytes4"
        }
      ],
      "name": "supportsInterface",
      "outputs": [
        {
          "internalType": "bool",
          "name": "",
          "type": "bool"
        }
      ],
      "stateMutability": "view",
      "type": "function",
      "constant": true
    },
    {
      "inputs": [],
      "name": "symbol",
      "outputs": [
        {
          "internalType": "string",
          "name": "",
          "type": "string"
        }
      ],
      "stateMutability": "view",
      "type": "function",
      "constant": true
    },
    {
      "inputs": [
        {
          "internalType": "uint256",
          "name": "",
          "type": "uint256"
        }
      ],
      "name": "tokenURI",
      "outputs": [
        {
          "internalType": "string",
          "name": "",
          "type": "string"
        }
      ],
      "stateMutability": "view",
      "type": "function",
      "constant": true
    },
    {
      "inputs": [],
      "name": "tokensInCirculation",
      "outputs": [
        {
          "internalType": "uint256",
          "name": "",
          "type": "uint256"
        }
      ],
      "stateMutability": "view",
      "type": "function",
      "constant": true
    },
    {
      "inputs": [
        {
          "internalType": "address",
          "name": "newOwner",
          "type": "address"
        }
      ],
      "name": "transferOwnership",
      "outputs": [],
      "stateMutability": "nonpayable",
      "type": "function"
    },
    {
      "inputs": [
        {
          "internalType": "uint256",
          "name": "tokenId",
          "type": "uint256"
        }
      ],
      "name": "getTokenDetails",
      "outputs": [
        {
          "components": [
            {
              "internalType": "uint256",
              "name": "id",
              "type": "uint256"
            },
            {
              "internalType": "uint8",
              "name": "damage",
              "type": "uint8"
            },
            {
              "internalType": "uint8",
              "name": "power",
              "type": "uint8"
            },
            {
              "internalType": "uint256",
              "name": "lastMeal",
              "type": "uint256"
            },
            {
              "internalType": "uint256",
              "name": "endurance",
              "type": "uint256"
            }
          ],
          "internalType": "struct Token.Hashtro",
          "name": "",
          "type": "tuple"
        }
      ],
      "stateMutability": "view",
      "type": "function",
      "constant": true
    },
    {
      "inputs": [],
      "name": "getTokenCirculations",
      "outputs": [
        {
          "internalType": "uint256",
          "name": "",
          "type": "uint256"
        }
      ],
      "stateMutability": "view",
      "type": "function",
      "constant": true
    },
    {
      "inputs": [
        {
          "internalType": "uint256",
          "name": "tokenId",
          "type": "uint256"
        }
      ],
      "name": "feed",
      "outputs": [],
      "stateMutability": "nonpayable",
      "type": "function"
    },
    {
      "inputs": [
        {
          "internalType": "uint256",
          "name": "_id",
          "type": "uint256"
        },
        {
          "internalType": "uint256",
          "name": "_amount",
          "type": "uint256"
        },
        {
          "internalType": "uint8",
          "name": "_damage",
          "type": "uint8"
        },
        {
          "internalType": "uint8",
          "name": "_power",
          "type": "uint8"
        },
        {
          "internalType": "uint256",
          "name": "_endurance",
          "type": "uint256"
        }
      ],
      "name": "mint",
      "outputs": [],
      "stateMutability": "nonpayable",
      "type": "function"
    },
    {
      "inputs": [
        {
          "internalType": "address",
          "name": "_to",
          "type": "address"
        },
        {
          "internalType": "uint256[]",
          "name": "_ids",
          "type": "uint256[]"
        },
        {
          "internalType": "uint256[]",
          "name": "_amounts",
          "type": "uint256[]"
        }
      ],
      "name": "mintBatch",
      "outputs": [],
      "stateMutability": "nonpayable",
      "type": "function"
    },
    {
      "inputs": [
        {
          "internalType": "uint256",
          "name": "_id",
          "type": "uint256"
        },
        {
          "internalType": "uint256",
          "name": "_amount",
          "type": "uint256"
        }
      ],
      "name": "burn",
      "outputs": [],
      "stateMutability": "nonpayable",
      "type": "function"
    },
    {
      "inputs": [
        {
          "internalType": "uint256[]",
          "name": "_ids",
          "type": "uint256[]"
        },
        {
          "internalType": "uint256[]",
          "name": "_amounts",
          "type": "uint256[]"
        }
      ],
      "name": "burnBatch",
      "outputs": [],
      "stateMutability": "nonpayable",
      "type": "function"
    },
    {
      "inputs": [
        {
          "internalType": "address",
          "name": "_from",
          "type": "address"
        },
        {
          "internalType": "uint256[]",
          "name": "_burnIds",
          "type": "uint256[]"
        },
        {
          "internalType": "uint256[]",
          "name": "_burnAmounts",
          "type": "uint256[]"
        },
        {
          "internalType": "uint256[]",
          "name": "_mintIds",
          "type": "uint256[]"
        },
        {
          "internalType": "uint256[]",
          "name": "_mintAmounts",
          "type": "uint256[]"
        }
      ],
      "name": "burnForMint",
      "outputs": [],
      "stateMutability": "nonpayable",
      "type": "function"
    },
    {
      "inputs": [
        {
          "internalType": "uint256",
          "name": "i",
          "type": "uint256"
        }
      ],
      "name": "uint2hexstr",
      "outputs": [
        {
          "internalType": "string",
          "name": "",
          "type": "string"
        }
      ],
      "stateMutability": "pure",
      "type": "function",
      "constant": true
    },
    {
      "inputs": [
        {
          "internalType": "uint256",
          "name": "_tokenID",
          "type": "uint256"
        }
      ],
      "name": "uri",
      "outputs": [
        {
          "internalType": "string",
          "name": "",
          "type": "string"
        }
      ],
      "stateMutability": "pure",
      "type": "function",
      "constant": true
    }
  ],
  "bytecode": "0x60806040523480156200001157600080fd5b506040518060400160405280600d81526020017f697066733a2f2f66307b69647d0000000000000000000000000000000000000081525062000059816200012460201b60201c565b506200007a6200006e6200014060201b60201c565b6200014860201b60201c565b6040518060400160405280600881526020017f4861736874726f7300000000000000000000000000000000000000000000000081525060069080519060200190620000c79291906200020e565b506040518060400160405280600881526020017f4841534854524f5300000000000000000000000000000000000000000000000081525060079080519060200190620001159291906200020e565b50600060088190555062000323565b80600290805190602001906200013c9291906200020e565b5050565b600033905090565b6000600360009054906101000a900473ffffffffffffffffffffffffffffffffffffffff16905081600360006101000a81548173ffffffffffffffffffffffffffffffffffffffff021916908373ffffffffffffffffffffffffffffffffffffffff1602179055508173ffffffffffffffffffffffffffffffffffffffff168173ffffffffffffffffffffffffffffffffffffffff167f8be0079c531659141344cd1fd0a4f28419497f9722a3daafe3b4186f6b6457e060405160405180910390a35050565b8280546200021c90620002ed565b90600052602060002090601f0160209004810192826200024057600085556200028c565b82601f106200025b57805160ff19168380011785556200028c565b828001600101855582156200028c579182015b828111156200028b5782518255916020019190600101906200026e565b5b5090506200029b91906200029f565b5090565b5b80821115620002ba576000816000905550600101620002a0565b5090565b7f4e487b7100000000000000000000000000000000000000000000000000000000600052602260045260246000fd5b600060028204905060018216806200030657607f821691505b602082108114156200031d576200031c620002be565b5b50919050565b61418780620003336000396000f3fe608060405234801561001057600080fd5b50600436106101575760003560e01c80638da5cb5b116100c3578063d81d0a151161007c578063d81d0a15146103d6578063e985e9c5146103f2578063f242432a14610422578063f2fde38b1461043e578063f59dfdfb1461045a578063f5a0d6c01461047657610157565b80638da5cb5b1461030257806395d89b4114610320578063a22cb4651461033e578063b390c0ab1461035a578063c1e0372814610376578063c87b56dd146103a657610157565b80634e1273f4116101155780634e1273f414610256578063510f41041461028657806351330ab4146102a25780636204f5d7146102be578063715018a6146102dc57806383ca4b6f146102e657610157565b8062fdd58e1461015c57806301ffc9a71461018c57806306fdde03146101bc5780630e89341c146101da5780632eb2c2d61461020a5780633c93d8be14610226575b600080fd5b61017660048036038101906101719190612837565b610494565b6040516101839190612886565b60405180910390f35b6101a660048036038101906101a191906128f9565b61055d565b6040516101b39190612941565b60405180910390f35b6101c461063f565b6040516101d191906129f5565b60405180910390f35b6101f460048036038101906101ef9190612a17565b6106cd565b60405161020191906129f5565b60405180910390f35b610224600480360381019061021f9190612c41565b610703565b005b610240600480360381019061023b9190612a17565b6107a4565b60405161024d91906129f5565b60405180910390f35b610270600480360381019061026b9190612dd3565b610919565b60405161027d9190612f09565b60405180910390f35b6102a0600480360381019061029b9190612f2b565b610a32565b005b6102bc60048036038101906102b7919061304f565b610adb565b005b6102c6610c58565b6040516102d39190612886565b60405180910390f35b6102e4610c62565b005b61030060048036038101906102fb91906130ca565b610cea565b005b61030a610cf9565b6040516103179190613151565b60405180910390f35b610328610d23565b60405161033591906129f5565b60405180910390f35b61035860048036038101906103539190613198565b610db1565b005b610374600480360381019061036f91906131d8565b610dc7565b005b610390600480360381019061038b9190612a17565b610dd6565b60405161039d919061328f565b60405180910390f35b6103c060048036038101906103bb9190612a17565b610e5b565b6040516103cd91906129f5565b60405180910390f35b6103f060048036038101906103eb91906132aa565b610efb565b005b61040c60048036038101906104079190613335565b610f97565b6040516104199190612941565b60405180910390f35b61043c60048036038101906104379190613375565b61102b565b005b6104586004803603810190610453919061340c565b6110cc565b005b610474600480360381019061046f9190612a17565b6111c4565b005b61047e611219565b60405161048b9190612886565b60405180910390f35b60008073ffffffffffffffffffffffffffffffffffffffff168373ffffffffffffffffffffffffffffffffffffffff161415610505576040517f08c379a00000000000000000000000000000000000000000000000000000000081526004016104fc906134ab565b60405180910390fd5b60008083815260200190815260200160002060008473ffffffffffffffffffffffffffffffffffffffff1673ffffffffffffffffffffffffffffffffffffffff16815260200190815260200160002054905092915050565b60007fd9b67a26000000000000000000000000000000000000000000000000000000007bffffffffffffffffffffffffffffffffffffffffffffffffffffffff1916827bffffffffffffffffffffffffffffffffffffffffffffffffffffffff1916148061062857507f0e89341c000000000000000000000000000000000000000000000000000000007bffffffffffffffffffffffffffffffffffffffffffffffffffffffff1916827bffffffffffffffffffffffffffffffffffffffffffffffffffffffff1916145b8061063857506106378261121f565b5b9050919050565b6006805461064c906134fa565b80601f0160208091040260200160405190810160405280929190818152602001828054610678906134fa565b80156106c55780601f1061069a576101008083540402835291602001916106c5565b820191906000526020600020905b8154815290600101906020018083116106a857829003601f168201915b505050505081565b6060806106d9836107a4565b9050806040516020016106ec91906135b4565b604051602081830303815290604052915050919050565b61070b611289565b73ffffffffffffffffffffffffffffffffffffffff168573ffffffffffffffffffffffffffffffffffffffff16148061075157506107508561074b611289565b610f97565b5b610790576040517f08c379a000000000000000000000000000000000000000000000000000000000815260040161078790613648565b60405180910390fd5b61079d8585858585611291565b5050505050565b606060008214156107ec576040518060400160405280600181526020017f30000000000000000000000000000000000000000000000000000000000000008152509050610914565b600082905060005b6000821461081657808061080790613697565b915050600482901c91506107f4565b6000600f905060008267ffffffffffffffff81111561083857610837612a49565b5b6040519080825280601f01601f19166020018201604052801561086a5781602001600182028036833780820191505090505b50905060008390505b6000871461090b57600083881690506009811161089f5780603061089791906136e0565b60f81b6108b0565b8060376108ac91906136e0565b60f81b5b83836108bb90613736565b935083815181106108cf576108ce613760565b5b60200101907effffffffffffffffffffffffffffffffffffffffffffffffffffffffffffff1916908160001a905350600488901c975050610873565b81955050505050505b919050565b6060815183511461095f576040517f08c379a000000000000000000000000000000000000000000000000000000000815260040161095690613801565b60405180910390fd5b6000835167ffffffffffffffff81111561097c5761097b612a49565b5b6040519080825280602002602001820160405280156109aa5781602001602082028036833780820191505090505b50905060005b8451811015610a27576109f78582815181106109cf576109ce613760565b5b60200260200101518583815181106109ea576109e9613760565b5b6020026020010151610494565b828281518110610a0a57610a09613760565b5b60200260200101818152505080610a2090613697565b90506109b0565b508091505092915050565b610a3a611289565b73ffffffffffffffffffffffffffffffffffffffff16610a58610cf9565b73ffffffffffffffffffffffffffffffffffffffff1614610aae576040517f08c379a0000000000000000000000000000000000000000000000000000000008152600401610aa59061386d565b60405180910390fd5b610ab98585856115a5565b610ad485838360405180602001604052806000815250611856565b5050505050565b610ae3611289565b73ffffffffffffffffffffffffffffffffffffffff16610b01610cf9565b73ffffffffffffffffffffffffffffffffffffffff1614610b57576040517f08c379a0000000000000000000000000000000000000000000000000000000008152600401610b4e9061386d565b60405180910390fd5b60005b84811015610c50576040518060a001604052808781526020018560ff1681526020018460ff168152602001428152602001838152506004600060085481526020019081526020016000206000820151816000015560208201518160010160006101000a81548160ff021916908360ff16021790555060408201518160010160016101000a81548160ff021916908360ff1602179055506060820151816002015560808201518160030155905050610c2533600854600160405180602001604052806000815250611a74565b60086000815480929190610c3890613697565b91905055508080610c4890613697565b915050610b5a565b505050505050565b6000600854905090565b610c6a611289565b73ffffffffffffffffffffffffffffffffffffffff16610c88610cf9565b73ffffffffffffffffffffffffffffffffffffffff1614610cde576040517f08c379a0000000000000000000000000000000000000000000000000000000008152600401610cd59061386d565b60405180910390fd5b610ce86000611c0a565b565b610cf53383836115a5565b5050565b6000600360009054906101000a900473ffffffffffffffffffffffffffffffffffffffff16905090565b60078054610d30906134fa565b80601f0160208091040260200160405190810160405280929190818152602001828054610d5c906134fa565b8015610da95780601f10610d7e57610100808354040283529160200191610da9565b820191906000526020600020905b815481529060010190602001808311610d8c57829003601f168201915b505050505081565b610dc3610dbc611289565b8383611cd0565b5050565b610dd2338383611e3d565b5050565b610dde61275a565b600460008381526020019081526020016000206040518060a0016040529081600082015481526020016001820160009054906101000a900460ff1660ff1660ff1681526020016001820160019054906101000a900460ff1660ff1660ff168152602001600282015481526020016003820154815250509050919050565b60056020528060005260406000206000915090508054610e7a906134fa565b80601f0160208091040260200160405190810160405280929190818152602001828054610ea6906134fa565b8015610ef35780601f10610ec857610100808354040283529160200191610ef3565b820191906000526020600020905b815481529060010190602001808311610ed657829003601f168201915b505050505081565b610f03611289565b73ffffffffffffffffffffffffffffffffffffffff16610f21610cf9565b73ffffffffffffffffffffffffffffffffffffffff1614610f77576040517f08c379a0000000000000000000000000000000000000000000000000000000008152600401610f6e9061386d565b60405180910390fd5b610f9283838360405180602001604052806000815250611856565b505050565b6000600160008473ffffffffffffffffffffffffffffffffffffffff1673ffffffffffffffffffffffffffffffffffffffff16815260200190815260200160002060008373ffffffffffffffffffffffffffffffffffffffff1673ffffffffffffffffffffffffffffffffffffffff16815260200190815260200160002060009054906101000a900460ff16905092915050565b611033611289565b73ffffffffffffffffffffffffffffffffffffffff168573ffffffffffffffffffffffffffffffffffffffff161480611079575061107885611073611289565b610f97565b5b6110b8576040517f08c379a00000000000000000000000000000000000000000000000000000000081526004016110af906138ff565b60405180910390fd5b6110c5858585858561205a565b5050505050565b6110d4611289565b73ffffffffffffffffffffffffffffffffffffffff166110f2610cf9565b73ffffffffffffffffffffffffffffffffffffffff1614611148576040517f08c379a000000000000000000000000000000000000000000000000000000000815260040161113f9061386d565b60405180910390fd5b600073ffffffffffffffffffffffffffffffffffffffff168173ffffffffffffffffffffffffffffffffffffffff1614156111b8576040517f08c379a00000000000000000000000000000000000000000000000000000000081526004016111af90613991565b60405180910390fd5b6111c181611c0a565b50565b600060046000838152602001908152602001600020905042816003015482600201546111f091906136e0565b116111fa57600080fd5b4260046000848152602001908152602001600020600201819055505050565b60085481565b60007f01ffc9a7000000000000000000000000000000000000000000000000000000007bffffffffffffffffffffffffffffffffffffffffffffffffffffffff1916827bffffffffffffffffffffffffffffffffffffffffffffffffffffffff1916149050919050565b600033905090565b81518351146112d5576040517f08c379a00000000000000000000000000000000000000000000000000000000081526004016112cc90613a23565b60405180910390fd5b600073ffffffffffffffffffffffffffffffffffffffff168473ffffffffffffffffffffffffffffffffffffffff161415611345576040517f08c379a000000000000000000000000000000000000000000000000000000000815260040161133c90613ab5565b60405180910390fd5b600061134f611289565b905061135f8187878787876122dc565b60005b84518110156115105760008582815181106113805761137f613760565b5b60200260200101519050600085838151811061139f5761139e613760565b5b60200260200101519050600080600084815260200190815260200160002060008b73ffffffffffffffffffffffffffffffffffffffff1673ffffffffffffffffffffffffffffffffffffffff16815260200190815260200160002054905081811015611440576040517f08c379a000000000000000000000000000000000000000000000000000000000815260040161143790613b47565b60405180910390fd5b81810360008085815260200190815260200160002060008c73ffffffffffffffffffffffffffffffffffffffff1673ffffffffffffffffffffffffffffffffffffffff168152602001908152602001600020819055508160008085815260200190815260200160002060008b73ffffffffffffffffffffffffffffffffffffffff1673ffffffffffffffffffffffffffffffffffffffff16815260200190815260200160002060008282546114f591906136e0565b925050819055505050508061150990613697565b9050611362565b508473ffffffffffffffffffffffffffffffffffffffff168673ffffffffffffffffffffffffffffffffffffffff168273ffffffffffffffffffffffffffffffffffffffff167f4a39dc06d4c0dbc64b70af90fd698a233a518aa5d07e595d983b8c0526c8f7fb8787604051611587929190613b67565b60405180910390a461159d81878787878761231d565b505050505050565b600073ffffffffffffffffffffffffffffffffffffffff168373ffffffffffffffffffffffffffffffffffffffff161415611615576040517f08c379a000000000000000000000000000000000000000000000000000000000815260040161160c90613c10565b60405180910390fd5b8051825114611659576040517f08c379a000000000000000000000000000000000000000000000000000000000815260040161165090613a23565b60405180910390fd5b6000611663611289565b9050611683818560008686604051806020016040528060008152506122dc565b60005b83518110156117d05760008482815181106116a4576116a3613760565b5b6020026020010151905060008483815181106116c3576116c2613760565b5b60200260200101519050600080600084815260200190815260200160002060008973ffffffffffffffffffffffffffffffffffffffff1673ffffffffffffffffffffffffffffffffffffffff16815260200190815260200160002054905081811015611764576040517f08c379a000000000000000000000000000000000000000000000000000000000815260040161175b90613ca2565b60405180910390fd5b81810360008085815260200190815260200160002060008a73ffffffffffffffffffffffffffffffffffffffff1673ffffffffffffffffffffffffffffffffffffffff1681526020019081526020016000208190555050505080806117c890613697565b915050611686565b50600073ffffffffffffffffffffffffffffffffffffffff168473ffffffffffffffffffffffffffffffffffffffff168273ffffffffffffffffffffffffffffffffffffffff167f4a39dc06d4c0dbc64b70af90fd698a233a518aa5d07e595d983b8c0526c8f7fb8686604051611848929190613b67565b60405180910390a450505050565b600073ffffffffffffffffffffffffffffffffffffffff168473ffffffffffffffffffffffffffffffffffffffff1614156118c6576040517f08c379a00000000000000000000000000000000000000000000000000000000081526004016118bd90613d34565b60405180910390fd5b815183511461190a576040517f08c379a000000000000000000000000000000000000000000000000000000000815260040161190190613a23565b60405180910390fd5b6000611914611289565b9050611925816000878787876122dc565b60005b84518110156119de5783818151811061194457611943613760565b5b602002602001015160008087848151811061196257611961613760565b5b6020026020010151815260200190815260200160002060008873ffffffffffffffffffffffffffffffffffffffff1673ffffffffffffffffffffffffffffffffffffffff16815260200190815260200160002060008282546119c491906136e0565b9250508190555080806119d690613697565b915050611928565b508473ffffffffffffffffffffffffffffffffffffffff16600073ffffffffffffffffffffffffffffffffffffffff168273ffffffffffffffffffffffffffffffffffffffff167f4a39dc06d4c0dbc64b70af90fd698a233a518aa5d07e595d983b8c0526c8f7fb8787604051611a56929190613b67565b60405180910390a4611a6d8160008787878761231d565b5050505050565b600073ffffffffffffffffffffffffffffffffffffffff168473ffffffffffffffffffffffffffffffffffffffff161415611ae4576040517f08c379a0000000000000000000000000000000000000000000000000000000008152600401611adb90613d34565b60405180910390fd5b6000611aee611289565b9050611b0f81600087611b00886124f5565b611b09886124f5565b876122dc565b8260008086815260200190815260200160002060008773ffffffffffffffffffffffffffffffffffffffff1673ffffffffffffffffffffffffffffffffffffffff1681526020019081526020016000206000828254611b6e91906136e0565b925050819055508473ffffffffffffffffffffffffffffffffffffffff16600073ffffffffffffffffffffffffffffffffffffffff168273ffffffffffffffffffffffffffffffffffffffff167fc3d58168c5ae7397731d063d5bbf3d657854427343f4c083240f7aacaa2d0f628787604051611bec929190613d54565b60405180910390a4611c038160008787878761256f565b5050505050565b6000600360009054906101000a900473ffffffffffffffffffffffffffffffffffffffff16905081600360006101000a81548173ffffffffffffffffffffffffffffffffffffffff021916908373ffffffffffffffffffffffffffffffffffffffff1602179055508173ffffffffffffffffffffffffffffffffffffffff168173ffffffffffffffffffffffffffffffffffffffff167f8be0079c531659141344cd1fd0a4f28419497f9722a3daafe3b4186f6b6457e060405160405180910390a35050565b8173ffffffffffffffffffffffffffffffffffffffff168373ffffffffffffffffffffffffffffffffffffffff161415611d3f576040517f08c379a0000000000000000000000000000000000000000000000000000000008152600401611d3690613def565b60405180910390fd5b80600160008573ffffffffffffffffffffffffffffffffffffffff1673ffffffffffffffffffffffffffffffffffffffff16815260200190815260200160002060008473ffffffffffffffffffffffffffffffffffffffff1673ffffffffffffffffffffffffffffffffffffffff16815260200190815260200160002060006101000a81548160ff0219169083151502179055508173ffffffffffffffffffffffffffffffffffffffff168373ffffffffffffffffffffffffffffffffffffffff167f17307eab39ab6107e8899845ad3d59bd9653f200f220920489ca2b5937696c3183604051611e309190612941565b60405180910390a3505050565b600073ffffffffffffffffffffffffffffffffffffffff168373ffffffffffffffffffffffffffffffffffffffff161415611ead576040517f08c379a0000000000000000000000000000000000000000000000000000000008152600401611ea490613c10565b60405180910390fd5b6000611eb7611289565b9050611ee781856000611ec9876124f5565b611ed2876124f5565b604051806020016040528060008152506122dc565b600080600085815260200190815260200160002060008673ffffffffffffffffffffffffffffffffffffffff1673ffffffffffffffffffffffffffffffffffffffff16815260200190815260200160002054905082811015611f7e576040517f08c379a0000000000000000000000000000000000000000000000000000000008152600401611f7590613ca2565b60405180910390fd5b82810360008086815260200190815260200160002060008773ffffffffffffffffffffffffffffffffffffffff1673ffffffffffffffffffffffffffffffffffffffff16815260200190815260200160002081905550600073ffffffffffffffffffffffffffffffffffffffff168573ffffffffffffffffffffffffffffffffffffffff168373ffffffffffffffffffffffffffffffffffffffff167fc3d58168c5ae7397731d063d5bbf3d657854427343f4c083240f7aacaa2d0f62878760405161204b929190613d54565b60405180910390a45050505050565b600073ffffffffffffffffffffffffffffffffffffffff168473ffffffffffffffffffffffffffffffffffffffff1614156120ca576040517f08c379a00000000000000000000000000000000000000000000000000000000081526004016120c190613ab5565b60405180910390fd5b60006120d4611289565b90506120f48187876120e5886124f5565b6120ee886124f5565b876122dc565b600080600086815260200190815260200160002060008873ffffffffffffffffffffffffffffffffffffffff1673ffffffffffffffffffffffffffffffffffffffff1681526020019081526020016000205490508381101561218b576040517f08c379a000000000000000000000000000000000000000000000000000000000815260040161218290613b47565b60405180910390fd5b83810360008087815260200190815260200160002060008973ffffffffffffffffffffffffffffffffffffffff1673ffffffffffffffffffffffffffffffffffffffff168152602001908152602001600020819055508360008087815260200190815260200160002060008873ffffffffffffffffffffffffffffffffffffffff1673ffffffffffffffffffffffffffffffffffffffff168152602001908152602001600020600082825461224091906136e0565b925050819055508573ffffffffffffffffffffffffffffffffffffffff168773ffffffffffffffffffffffffffffffffffffffff168373ffffffffffffffffffffffffffffffffffffffff167fc3d58168c5ae7397731d063d5bbf3d657854427343f4c083240f7aacaa2d0f6288886040516122bd929190613d54565b60405180910390a46122d382888888888861256f565b50505050505050565b60006004600060085481526020019081526020016000209050428160030154826002015461230a91906136e0565b1161231457600080fd5b50505050505050565b61233c8473ffffffffffffffffffffffffffffffffffffffff16612747565b156124ed578373ffffffffffffffffffffffffffffffffffffffff1663bc197c8187878686866040518663ffffffff1660e01b8152600401612382959493929190613e64565b6020604051808303816000875af19250505080156123be57506040513d601f19601f820116820180604052508101906123bb9190613ee1565b60015b612464576123ca613f1b565b806308c379a0141561242757506123df613f3d565b806123ea5750612429565b806040517f08c379a000000000000000000000000000000000000000000000000000000000815260040161241e91906129f5565b60405180910390fd5b505b6040517f08c379a000000000000000000000000000000000000000000000000000000000815260040161245b90614045565b60405180910390fd5b63bc197c8160e01b7bffffffffffffffffffffffffffffffffffffffffffffffffffffffff1916817bffffffffffffffffffffffffffffffffffffffffffffffffffffffff1916146124eb576040517f08c379a00000000000000000000000000000000000000000000000000000000081526004016124e2906140d7565b60405180910390fd5b505b505050505050565b60606000600167ffffffffffffffff81111561251457612513612a49565b5b6040519080825280602002602001820160405280156125425781602001602082028036833780820191505090505b509050828160008151811061255a57612559613760565b5b60200260200101818152505080915050919050565b61258e8473ffffffffffffffffffffffffffffffffffffffff16612747565b1561273f578373ffffffffffffffffffffffffffffffffffffffff1663f23a6e6187878686866040518663ffffffff1660e01b81526004016125d49594939291906140f7565b6020604051808303816000875af192505050801561261057506040513d601f19601f8201168201806040525081019061260d9190613ee1565b60015b6126b65761261c613f1b565b806308c379a014156126795750612631613f3d565b8061263c575061267b565b806040517f08c379a000000000000000000000000000000000000000000000000000000000815260040161267091906129f5565b60405180910390fd5b505b6040517f08c379a00000000000000000000000000000000000000000000000000000000081526004016126ad90614045565b60405180910390fd5b63f23a6e6160e01b7bffffffffffffffffffffffffffffffffffffffffffffffffffffffff1916817bffffffffffffffffffffffffffffffffffffffffffffffffffffffff19161461273d576040517f08c379a0000000000000000000000000000000000000000000000000000000008152600401612734906140d7565b60405180910390fd5b505b505050505050565b600080823b905060008111915050919050565b6040518060a0016040528060008152602001600060ff168152602001600060ff16815260200160008152602001600081525090565b6000604051905090565b600080fd5b600080fd5b600073ffffffffffffffffffffffffffffffffffffffff82169050919050565b60006127ce826127a3565b9050919050565b6127de816127c3565b81146127e957600080fd5b50565b6000813590506127fb816127d5565b92915050565b6000819050919050565b61281481612801565b811461281f57600080fd5b50565b6000813590506128318161280b565b92915050565b6000806040838503121561284e5761284d612799565b5b600061285c858286016127ec565b925050602061286d85828601612822565b9150509250929050565b61288081612801565b82525050565b600060208201905061289b6000830184612877565b92915050565b60007fffffffff0000000000000000000000000000000000000000000000000000000082169050919050565b6128d6816128a1565b81146128e157600080fd5b50565b6000813590506128f3816128cd565b92915050565b60006020828403121561290f5761290e612799565b5b600061291d848285016128e4565b91505092915050565b60008115159050919050565b61293b81612926565b82525050565b60006020820190506129566000830184612932565b92915050565b600081519050919050565b600082825260208201905092915050565b60005b8381101561299657808201518184015260208101905061297b565b838111156129a5576000848401525b50505050565b6000601f19601f8301169050919050565b60006129c78261295c565b6129d18185612967565b93506129e1818560208601612978565b6129ea816129ab565b840191505092915050565b60006020820190508181036000830152612a0f81846129bc565b905092915050565b600060208284031215612a2d57612a2c612799565b5b6000612a3b84828501612822565b91505092915050565b600080fd5b7f4e487b7100000000000000000000000000000000000000000000000000000000600052604160045260246000fd5b612a81826129ab565b810181811067ffffffffffffffff82111715612aa057612a9f612a49565b5b80604052505050565b6000612ab361278f565b9050612abf8282612a78565b919050565b600067ffffffffffffffff821115612adf57612ade612a49565b5b602082029050602081019050919050565b600080fd5b6000612b08612b0384612ac4565b612aa9565b90508083825260208201905060208402830185811115612b2b57612b2a612af0565b5b835b81811015612b545780612b408882612822565b845260208401935050602081019050612b2d565b5050509392505050565b600082601f830112612b7357612b72612a44565b5b8135612b83848260208601612af5565b91505092915050565b600080fd5b600067ffffffffffffffff821115612bac57612bab612a49565b5b612bb5826129ab565b9050602081019050919050565b82818337600083830152505050565b6000612be4612bdf84612b91565b612aa9565b905082815260208101848484011115612c0057612bff612b8c565b5b612c0b848285612bc2565b509392505050565b600082601f830112612c2857612c27612a44565b5b8135612c38848260208601612bd1565b91505092915050565b600080600080600060a08688031215612c5d57612c5c612799565b5b6000612c6b888289016127ec565b9550506020612c7c888289016127ec565b945050604086013567ffffffffffffffff811115612c9d57612c9c61279e565b5b612ca988828901612b5e565b935050606086013567ffffffffffffffff811115612cca57612cc961279e565b5b612cd688828901612b5e565b925050608086013567ffffffffffffffff811115612cf757612cf661279e565b5b612d0388828901612c13565b9150509295509295909350565b600067ffffffffffffffff821115612d2b57612d2a612a49565b5b602082029050602081019050919050565b6000612d4f612d4a84612d10565b612aa9565b90508083825260208201905060208402830185811115612d7257612d71612af0565b5b835b81811015612d9b5780612d8788826127ec565b845260208401935050602081019050612d74565b5050509392505050565b600082601f830112612dba57612db9612a44565b5b8135612dca848260208601612d3c565b91505092915050565b60008060408385031215612dea57612de9612799565b5b600083013567ffffffffffffffff811115612e0857612e0761279e565b5b612e1485828601612da5565b925050602083013567ffffffffffffffff811115612e3557612e3461279e565b5b612e4185828601612b5e565b9150509250929050565b600081519050919050565b600082825260208201905092915050565b6000819050602082019050919050565b612e8081612801565b82525050565b6000612e928383612e77565b60208301905092915050565b6000602082019050919050565b6000612eb682612e4b565b612ec08185612e56565b9350612ecb83612e67565b8060005b83811015612efc578151612ee38882612e86565b9750612eee83612e9e565b925050600181019050612ecf565b5085935050505092915050565b60006020820190508181036000830152612f238184612eab565b905092915050565b600080600080600060a08688031215612f4757612f46612799565b5b6000612f55888289016127ec565b955050602086013567ffffffffffffffff811115612f7657612f7561279e565b5b612f8288828901612b5e565b945050604086013567ffffffffffffffff811115612fa357612fa261279e565b5b612faf88828901612b5e565b935050606086013567ffffffffffffffff811115612fd057612fcf61279e565b5b612fdc88828901612b5e565b925050608086013567ffffffffffffffff811115612ffd57612ffc61279e565b5b61300988828901612b5e565b9150509295509295909350565b600060ff82169050919050565b61302c81613016565b811461303757600080fd5b50565b60008135905061304981613023565b92915050565b600080600080600060a0868803121561306b5761306a612799565b5b600061307988828901612822565b955050602061308a88828901612822565b945050604061309b8882890161303a565b93505060606130ac8882890161303a565b92505060806130bd88828901612822565b9150509295509295909350565b600080604083850312156130e1576130e0612799565b5b600083013567ffffffffffffffff8111156130ff576130fe61279e565b5b61310b85828601612b5e565b925050602083013567ffffffffffffffff81111561312c5761312b61279e565b5b61313885828601612b5e565b9150509250929050565b61314b816127c3565b82525050565b60006020820190506131666000830184613142565b92915050565b61317581612926565b811461318057600080fd5b50565b6000813590506131928161316c565b92915050565b600080604083850312156131af576131ae612799565b5b60006131bd858286016127ec565b92505060206131ce85828601613183565b9150509250929050565b600080604083850312156131ef576131ee612799565b5b60006131fd85828601612822565b925050602061320e85828601612822565b9150509250929050565b61322181613016565b82525050565b60a08201600082015161323d6000850182612e77565b5060208201516132506020850182613218565b5060408201516132636040850182613218565b5060608201516132766060850182612e77565b5060808201516132896080850182612e77565b50505050565b600060a0820190506132a46000830184613227565b92915050565b6000806000606084860312156132c3576132c2612799565b5b60006132d1868287016127ec565b935050602084013567ffffffffffffffff8111156132f2576132f161279e565b5b6132fe86828701612b5e565b925050604084013567ffffffffffffffff81111561331f5761331e61279e565b5b61332b86828701612b5e565b9150509250925092565b6000806040838503121561334c5761334b612799565b5b600061335a858286016127ec565b925050602061336b858286016127ec565b9150509250929050565b600080600080600060a0868803121561339157613390612799565b5b600061339f888289016127ec565b95505060206133b0888289016127ec565b94505060406133c188828901612822565b93505060606133d288828901612822565b925050608086013567ffffffffffffffff8111156133f3576133f261279e565b5b6133ff88828901612c13565b9150509295509295909350565b60006020828403121561342257613421612799565b5b6000613430848285016127ec565b91505092915050565b7f455243313135353a2062616c616e636520717565727920666f7220746865207a60008201527f65726f2061646472657373000000000000000000000000000000000000000000602082015250565b6000613495602b83612967565b91506134a082613439565b604082019050919050565b600060208201905081810360008301526134c481613488565b9050919050565b7f4e487b7100000000000000000000000000000000000000000000000000000000600052602260045260246000fd5b6000600282049050600182168061351257607f821691505b60208210811415613526576135256134cb565b5b50919050565b600081905092915050565b7f697066733a2f2f66300000000000000000000000000000000000000000000000600082015250565b600061356d60098361352c565b915061357882613537565b600982019050919050565b600061358e8261295c565b613598818561352c565b93506135a8818560208601612978565b80840191505092915050565b60006135bf82613560565b91506135cb8284613583565b915081905092915050565b7f455243313135353a207472616e736665722063616c6c6572206973206e6f742060008201527f6f776e6572206e6f7220617070726f7665640000000000000000000000000000602082015250565b6000613632603283612967565b915061363d826135d6565b604082019050919050565b6000602082019050818103600083015261366181613625565b9050919050565b7f4e487b7100000000000000000000000000000000000000000000000000000000600052601160045260246000fd5b60006136a282612801565b91507fffffffffffffffffffffffffffffffffffffffffffffffffffffffffffffffff8214156136d5576136d4613668565b5b600182019050919050565b60006136eb82612801565b91506136f683612801565b9250827fffffffffffffffffffffffffffffffffffffffffffffffffffffffffffffffff0382111561372b5761372a613668565b5b828201905092915050565b600061374182612801565b9150600082141561375557613754613668565b5b600182039050919050565b7f4e487b7100000000000000000000000000000000000000000000000000000000600052603260045260246000fd5b7f455243313135353a206163636f756e747320616e6420696473206c656e67746860008201527f206d69736d617463680000000000000000000000000000000000000000000000602082015250565b60006137eb602983612967565b91506137f68261378f565b604082019050919050565b6000602082019050818103600083015261381a816137de565b9050919050565b7f4f776e61626c653a2063616c6c6572206973206e6f7420746865206f776e6572600082015250565b6000613857602083612967565b915061386282613821565b602082019050919050565b600060208201905081810360008301526138868161384a565b9050919050565b7f455243313135353a2063616c6c6572206973206e6f74206f776e6572206e6f7260008201527f20617070726f7665640000000000000000000000000000000000000000000000602082015250565b60006138e9602983612967565b91506138f48261388d565b604082019050919050565b60006020820190508181036000830152613918816138dc565b9050919050565b7f4f776e61626c653a206e6577206f776e657220697320746865207a65726f206160008201527f6464726573730000000000000000000000000000000000000000000000000000602082015250565b600061397b602683612967565b91506139868261391f565b604082019050919050565b600060208201905081810360008301526139aa8161396e565b9050919050565b7f455243313135353a2069647320616e6420616d6f756e7473206c656e6774682060008201527f6d69736d61746368000000000000000000000000000000000000000000000000602082015250565b6000613a0d602883612967565b9150613a18826139b1565b604082019050919050565b60006020820190508181036000830152613a3c81613a00565b9050919050565b7f455243313135353a207472616e7366657220746f20746865207a65726f20616460008201527f6472657373000000000000000000000000000000000000000000000000000000602082015250565b6000613a9f602583612967565b9150613aaa82613a43565b604082019050919050565b60006020820190508181036000830152613ace81613a92565b9050919050565b7f455243313135353a20696e73756666696369656e742062616c616e636520666f60008201527f72207472616e7366657200000000000000000000000000000000000000000000602082015250565b6000613b31602a83612967565b9150613b3c82613ad5565b604082019050919050565b60006020820190508181036000830152613b6081613b24565b9050919050565b60006040820190508181036000830152613b818185612eab565b90508181036020830152613b958184612eab565b90509392505050565b7f455243313135353a206275726e2066726f6d20746865207a65726f206164647260008201527f6573730000000000000000000000000000000000000000000000000000000000602082015250565b6000613bfa602383612967565b9150613c0582613b9e565b604082019050919050565b60006020820190508181036000830152613c2981613bed565b9050919050565b7f455243313135353a206275726e20616d6f756e7420657863656564732062616c60008201527f616e636500000000000000000000000000000000000000000000000000000000602082015250565b6000613c8c602483612967565b9150613c9782613c30565b604082019050919050565b60006020820190508181036000830152613cbb81613c7f565b9050919050565b7f455243313135353a206d696e7420746f20746865207a65726f2061646472657360008201527f7300000000000000000000000000000000000000000000000000000000000000602082015250565b6000613d1e602183612967565b9150613d2982613cc2565b604082019050919050565b60006020820190508181036000830152613d4d81613d11565b9050919050565b6000604082019050613d696000830185612877565b613d766020830184612877565b9392505050565b7f455243313135353a2073657474696e6720617070726f76616c2073746174757360008201527f20666f722073656c660000000000000000000000000000000000000000000000602082015250565b6000613dd9602983612967565b9150613de482613d7d565b604082019050919050565b60006020820190508181036000830152613e0881613dcc565b9050919050565b600081519050919050565b600082825260208201905092915050565b6000613e3682613e0f565b613e408185613e1a565b9350613e50818560208601612978565b613e59816129ab565b840191505092915050565b600060a082019050613e796000830188613142565b613e866020830187613142565b8181036040830152613e988186612eab565b90508181036060830152613eac8185612eab565b90508181036080830152613ec08184613e2b565b90509695505050505050565b600081519050613edb816128cd565b92915050565b600060208284031215613ef757613ef6612799565b5b6000613f0584828501613ecc565b91505092915050565b60008160e01c9050919050565b600060033d1115613f3a5760046000803e613f37600051613f0e565b90505b90565b600060443d1015613f4d57613fd0565b613f5561278f565b60043d036004823e80513d602482011167ffffffffffffffff82111715613f7d575050613fd0565b808201805167ffffffffffffffff811115613f9b5750505050613fd0565b80602083010160043d038501811115613fb8575050505050613fd0565b613fc782602001850186612a78565b82955050505050505b90565b7f455243313135353a207472616e7366657220746f206e6f6e204552433131353560008201527f526563656976657220696d706c656d656e746572000000000000000000000000602082015250565b600061402f603483612967565b915061403a82613fd3565b604082019050919050565b6000602082019050818103600083015261405e81614022565b9050919050565b7f455243313135353a204552433131353552656365697665722072656a6563746560008201527f6420746f6b656e73000000000000000000000000000000000000000000000000602082015250565b60006140c1602883612967565b91506140cc82614065565b604082019050919050565b600060208201905081810360008301526140f0816140b4565b9050919050565b600060a08201905061410c6000830188613142565b6141196020830187613142565b6141266040830186612877565b6141336060830185612877565b81810360808301526141458184613e2b565b9050969550505050505056fea2646970667358221220cac9ffcc0e09905eb4e5f550b254be94fd4c148c214ee2bcbeec1e51726613cd64736f6c634300080a0033",
  "immutableReferences": {},
  "source": "pragma solidity >=0.7.0 <0.9.0;\n\n//import 1155 token contract from Openzeppelin\nimport \"../node_modules/@openzeppelin/contracts/token/ERC1155/ERC1155.sol\";\nimport \"../node_modules/@openzeppelin/contracts/utils/math/SafeMath.sol\";\nimport \"../node_modules/@openzeppelin/contracts/access/Ownable.sol\";\n\ncontract Token is ERC1155, Ownable {\n    using SafeMath for uint256;\n\n    // Hashtro struct can be used within arrays and mappings\n    struct Hashtro {\n        uint256 id;\n        uint8 damage;\n        uint8 power;\n        uint256 lastMeal;\n        uint256 endurance; // 24 hours\n    }\n    // mapping that reference each Hashtro by their token id\n    mapping(uint256 => Hashtro) private _tokenDetails; // 0 -> however many get created\n    mapping(uint256 => string) public tokenURI;\n\n    string public name;\n    string public symbol;\n    uint256 public tokensInCirculation;\n\n    // parent ERC1155 constructor requires this\n    // https://game.example/api/item/0000000000000000000000000000000000000000000000000000000000000001.json\n    // \"ipfs://QmdRfxFBzKPdjYy94hu3KvmWkNbRvL4QLkDSSyKZZcASb4/metadata/{id}\"\n\n    constructor() ERC1155(\"ipfs://f0{id}\") {\n        name = \"Hashtros\";\n        symbol = \"HASHTROS\";\n        tokensInCirculation = 0;\n    }\n\n    function getTokenDetails(uint256 tokenId)\n        public\n        view\n        returns (Hashtro memory)\n    {\n        return _tokenDetails[tokenId];\n    }\n\n    function getTokenCirculations() public view returns (uint256) {\n        return tokensInCirculation;\n    }\n\n    function feed(uint256 tokenId) public {\n        Hashtro storage hashtro = _tokenDetails[tokenId];\n        require(hashtro.lastMeal + hashtro.endurance > block.timestamp); // must not have died of starvation; Hashtro is still alive\n        _tokenDetails[tokenId].lastMeal = block.timestamp; // update when hashtro was last fed according to block time\n    }\n\n    /*   function mint(\n        address to,\n        uint256 id,\n        uint256 amount,\n        bytes memory data\n        \n    )   public virtual  {\n\n        _mint(msg.sender, id, amount, data);\n    }\n     */\n    // mint is our publicly exposed func, _mint is parent contract's mint func\n    function mint(\n        uint256 _id,\n        uint256 _amount,\n        uint8 _damage,\n        uint8 _power,\n        uint256 _endurance\n    ) public onlyOwner {\n        for (uint256 i = 0; i < _amount; i++) {\n            // only owner address can mint owner_address, token_id, bytecode\n            _tokenDetails[tokensInCirculation] = Hashtro(\n                _id,\n                _damage,\n                _power,\n                block.timestamp,\n                _endurance\n            );\n            _mint(msg.sender, tokensInCirculation, 1, \"\"); // <- '1' in 1155 = NFT\n            // iterate circulating tokens by minted amount above\n            tokensInCirculation++;\n        }\n    }\n\n    function mintBatch(\n        address _to,\n        uint256[] memory _ids,\n        uint256[] memory _amounts\n    ) external onlyOwner {\n        _mintBatch(_to, _ids, _amounts, \"\");\n    }\n\n    function burn(uint256 _id, uint256 _amount) external {\n        _burn(msg.sender, _id, _amount);\n    }\n\n    function burnBatch(uint256[] memory _ids, uint256[] memory _amounts)\n        external\n    {\n        _burnBatch(msg.sender, _ids, _amounts);\n    }\n\n    function burnForMint(\n        address _from,\n        uint256[] memory _burnIds,\n        uint256[] memory _burnAmounts,\n        uint256[] memory _mintIds,\n        uint256[] memory _mintAmounts\n    ) external onlyOwner {\n        _burnBatch(_from, _burnIds, _burnAmounts);\n        _mintBatch(_from, _mintIds, _mintAmounts, \"\");\n    }\n\n    function _beforeTokenTransfer(\n        address,\n        address,\n        address,\n        uint256[] memory,\n        uint256[] memory,\n        bytes memory\n    ) internal view override {\n        // cannot be transferred IF dead.\n        Hashtro storage hashtro = _tokenDetails[tokensInCirculation];\n        require(hashtro.lastMeal + hashtro.endurance > block.timestamp); // must not have died of starvation; Hashtro is still alive\n    }\n\n    function uint2hexstr(uint256 i) public pure returns (string memory) {\n        if (i == 0) return \"0\";\n        uint256 j = i;\n        uint256 length;\n        while (j != 0) {\n            length++;\n            j = j >> 4;\n        }\n        uint256 mask = 15;\n        bytes memory bstr = new bytes(length);\n        uint256 k = length;\n        while (i != 0) {\n            uint256 curr = (i & mask);\n            bstr[--k] = curr > 9\n                ? bytes1(uint8(55 + curr))\n                : bytes1(uint8(48 + curr)); // 55 = 65 - 10\n            i = i >> 4;\n        }\n        return string(bstr);\n    }\n\n    /*     function setURI(uint256 _id, string memory _uri) external onlyOwner {\n        tokenURI[_id] = _uri;\n        emit URI(_uri, _id);\n    } */\n\n    function uri(uint256 _tokenID)\n        public\n        pure\n        override\n        returns (string memory)\n    {\n        string memory hexstringtokenID;\n        hexstringtokenID = uint2hexstr(_tokenID);\n\n        return string(abi.encodePacked(\"ipfs://f0\", hexstringtokenID));\n    }\n\n    /*\n    function uri(uint256 _id) public view override returns (string memory) {\n        return tokenURI[_id];\n    }\n    */\n}\n",
  "sourcePath": "/Users/ashleydavison/dev/nft-game-sandbox/contracts/Token.sol",
  "compiler": {
    "name": "solc",
    "version": "0.8.10+commit.fc410830.Emscripten.clang"
  },
  "schemaVersion": "3.4.4",
  "updatedAt": "2022-01-13T00:21:11.804Z",
  "networkType": "ethereum",
  "devdoc": {
    "kind": "dev",
    "methods": {
      "balanceOf(address,uint256)": {
        "details": "See {IERC1155-balanceOf}. Requirements: - `account` cannot be the zero address."
      },
      "balanceOfBatch(address[],uint256[])": {
        "details": "See {IERC1155-balanceOfBatch}. Requirements: - `accounts` and `ids` must have the same length."
      },
      "isApprovedForAll(address,address)": {
        "details": "See {IERC1155-isApprovedForAll}."
      },
      "owner()": {
        "details": "Returns the address of the current owner."
      },
      "renounceOwnership()": {
        "details": "Leaves the contract without owner. It will not be possible to call `onlyOwner` functions anymore. Can only be called by the current owner. NOTE: Renouncing ownership will leave the contract without an owner, thereby removing any functionality that is only available to the owner."
      },
      "safeBatchTransferFrom(address,address,uint256[],uint256[],bytes)": {
        "details": "See {IERC1155-safeBatchTransferFrom}."
      },
      "safeTransferFrom(address,address,uint256,uint256,bytes)": {
        "details": "See {IERC1155-safeTransferFrom}."
      },
      "setApprovalForAll(address,bool)": {
        "details": "See {IERC1155-setApprovalForAll}."
      },
      "supportsInterface(bytes4)": {
        "details": "See {IERC165-supportsInterface}."
      },
      "transferOwnership(address)": {
        "details": "Transfers ownership of the contract to a new account (`newOwner`). Can only be called by the current owner."
      }
    },
    "version": 1
  },
  "userdoc": {
    "kind": "user",
    "methods": {},
    "version": 1
  }
}