{
  "contractName": "Token",
  "abi": [
    {
      "inputs": [],
      "stateMutability": "nonpayable",
      "type": "constructor"
    },
    {
      "anonymous": false,
      "inputs": [
        {
          "indexed": true,
          "internalType": "address",
          "name": "account",
          "type": "address"
        },
        {
          "indexed": true,
          "internalType": "address",
          "name": "operator",
          "type": "address"
        },
        {
          "indexed": false,
          "internalType": "bool",
          "name": "approved",
          "type": "bool"
        }
      ],
      "name": "ApprovalForAll",
      "type": "event"
    },
    {
      "anonymous": false,
      "inputs": [
        {
          "indexed": true,
          "internalType": "address",
          "name": "previousOwner",
          "type": "address"
        },
        {
          "indexed": true,
          "internalType": "address",
          "name": "newOwner",
          "type": "address"
        }
      ],
      "name": "OwnershipTransferred",
      "type": "event"
    },
    {
      "anonymous": false,
      "inputs": [
        {
          "indexed": true,
          "internalType": "address",
          "name": "operator",
          "type": "address"
        },
        {
          "indexed": true,
          "internalType": "address",
          "name": "from",
          "type": "address"
        },
        {
          "indexed": true,
          "internalType": "address",
          "name": "to",
          "type": "address"
        },
        {
          "indexed": false,
          "internalType": "uint256[]",
          "name": "ids",
          "type": "uint256[]"
        },
        {
          "indexed": false,
          "internalType": "uint256[]",
          "name": "values",
          "type": "uint256[]"
        }
      ],
      "name": "TransferBatch",
      "type": "event"
    },
    {
      "anonymous": false,
      "inputs": [
        {
          "indexed": true,
          "internalType": "address",
          "name": "operator",
          "type": "address"
        },
        {
          "indexed": true,
          "internalType": "address",
          "name": "from",
          "type": "address"
        },
        {
          "indexed": true,
          "internalType": "address",
          "name": "to",
          "type": "address"
        },
        {
          "indexed": false,
          "internalType": "uint256",
          "name": "id",
          "type": "uint256"
        },
        {
          "indexed": false,
          "internalType": "uint256",
          "name": "value",
          "type": "uint256"
        }
      ],
      "name": "TransferSingle",
      "type": "event"
    },
    {
      "anonymous": false,
      "inputs": [
        {
          "indexed": false,
          "internalType": "string",
          "name": "value",
          "type": "string"
        },
        {
          "indexed": true,
          "internalType": "uint256",
          "name": "id",
          "type": "uint256"
        }
      ],
      "name": "URI",
      "type": "event"
    },
    {
      "inputs": [
        {
          "internalType": "address",
          "name": "account",
          "type": "address"
        },
        {
          "internalType": "uint256",
          "name": "id",
          "type": "uint256"
        }
      ],
      "name": "balanceOf",
      "outputs": [
        {
          "internalType": "uint256",
          "name": "",
          "type": "uint256"
        }
      ],
      "stateMutability": "view",
      "type": "function"
    },
    {
      "inputs": [
        {
          "internalType": "address[]",
          "name": "accounts",
          "type": "address[]"
        },
        {
          "internalType": "uint256[]",
          "name": "ids",
          "type": "uint256[]"
        }
      ],
      "name": "balanceOfBatch",
      "outputs": [
        {
          "internalType": "uint256[]",
          "name": "",
          "type": "uint256[]"
        }
      ],
      "stateMutability": "view",
      "type": "function"
    },
    {
      "inputs": [
        {
          "internalType": "address",
          "name": "account",
          "type": "address"
        },
        {
          "internalType": "address",
          "name": "operator",
          "type": "address"
        }
      ],
      "name": "isApprovedForAll",
      "outputs": [
        {
          "internalType": "bool",
          "name": "",
          "type": "bool"
        }
      ],
      "stateMutability": "view",
      "type": "function"
    },
    {
      "inputs": [],
      "name": "owner",
      "outputs": [
        {
          "internalType": "address",
          "name": "",
          "type": "address"
        }
      ],
      "stateMutability": "view",
      "type": "function"
    },
    {
      "inputs": [],
      "name": "renounceOwnership",
      "outputs": [],
      "stateMutability": "nonpayable",
      "type": "function"
    },
    {
      "inputs": [
        {
          "internalType": "address",
          "name": "from",
          "type": "address"
        },
        {
          "internalType": "address",
          "name": "to",
          "type": "address"
        },
        {
          "internalType": "uint256[]",
          "name": "ids",
          "type": "uint256[]"
        },
        {
          "internalType": "uint256[]",
          "name": "amounts",
          "type": "uint256[]"
        },
        {
          "internalType": "bytes",
          "name": "data",
          "type": "bytes"
        }
      ],
      "name": "safeBatchTransferFrom",
      "outputs": [],
      "stateMutability": "nonpayable",
      "type": "function"
    },
    {
      "inputs": [
        {
          "internalType": "address",
          "name": "from",
          "type": "address"
        },
        {
          "internalType": "address",
          "name": "to",
          "type": "address"
        },
        {
          "internalType": "uint256",
          "name": "id",
          "type": "uint256"
        },
        {
          "internalType": "uint256",
          "name": "amount",
          "type": "uint256"
        },
        {
          "internalType": "bytes",
          "name": "data",
          "type": "bytes"
        }
      ],
      "name": "safeTransferFrom",
      "outputs": [],
      "stateMutability": "nonpayable",
      "type": "function"
    },
    {
      "inputs": [
        {
          "internalType": "address",
          "name": "operator",
          "type": "address"
        },
        {
          "internalType": "bool",
          "name": "approved",
          "type": "bool"
        }
      ],
      "name": "setApprovalForAll",
      "outputs": [],
      "stateMutability": "nonpayable",
      "type": "function"
    },
    {
      "inputs": [
        {
          "internalType": "bytes4",
          "name": "interfaceId",
          "type": "bytes4"
        }
      ],
      "name": "supportsInterface",
      "outputs": [
        {
          "internalType": "bool",
          "name": "",
          "type": "bool"
        }
      ],
      "stateMutability": "view",
      "type": "function"
    },
    {
      "inputs": [],
      "name": "tokensInCirculation",
      "outputs": [
        {
          "internalType": "uint256",
          "name": "",
          "type": "uint256"
        }
      ],
      "stateMutability": "view",
      "type": "function"
    },
    {
      "inputs": [
        {
          "internalType": "address",
          "name": "newOwner",
          "type": "address"
        }
      ],
      "name": "transferOwnership",
      "outputs": [],
      "stateMutability": "nonpayable",
      "type": "function"
    },
    {
      "inputs": [
        {
          "internalType": "uint256",
          "name": "",
          "type": "uint256"
        }
      ],
      "name": "uri",
      "outputs": [
        {
          "internalType": "string",
          "name": "",
          "type": "string"
        }
      ],
      "stateMutability": "view",
      "type": "function"
    },
    {
      "inputs": [
        {
          "internalType": "uint256",
          "name": "tokenId",
          "type": "uint256"
        }
      ],
      "name": "getTokenDetails",
      "outputs": [
        {
          "components": [
            {
              "internalType": "uint8",
              "name": "damage",
              "type": "uint8"
            },
            {
              "internalType": "uint8",
              "name": "power",
              "type": "uint8"
            },
            {
              "internalType": "uint256",
              "name": "lastMeal",
              "type": "uint256"
            },
            {
              "internalType": "uint256",
              "name": "endurance",
              "type": "uint256"
            }
          ],
          "internalType": "struct Token.Pet",
          "name": "",
          "type": "tuple"
        }
      ],
      "stateMutability": "view",
      "type": "function"
    },
    {
      "inputs": [
        {
          "internalType": "uint256",
          "name": "amount",
          "type": "uint256"
        },
        {
          "internalType": "uint8",
          "name": "damage",
          "type": "uint8"
        },
        {
          "internalType": "uint8",
          "name": "power",
          "type": "uint8"
        },
        {
          "internalType": "uint256",
          "name": "endurance",
          "type": "uint256"
        }
      ],
      "name": "mint",
      "outputs": [],
      "stateMutability": "nonpayable",
      "type": "function"
    },
    {
      "inputs": [
        {
          "internalType": "uint256",
          "name": "tokenId",
          "type": "uint256"
        }
      ],
      "name": "feed",
      "outputs": [],
      "stateMutability": "nonpayable",
      "type": "function"
    }
  ],
  "bytecode": "0x60806040523480156200001157600080fd5b50604051806060016040528060328152602001620032da603291396200003d816200006c60201b60201c565b506200005e620000526200008860201b60201c565b6200009060201b60201c565b60006005819055506200026b565b80600290805190602001906200008492919062000156565b5050565b600033905090565b6000600360009054906101000a900473ffffffffffffffffffffffffffffffffffffffff16905081600360006101000a81548173ffffffffffffffffffffffffffffffffffffffff021916908373ffffffffffffffffffffffffffffffffffffffff1602179055508173ffffffffffffffffffffffffffffffffffffffff168173ffffffffffffffffffffffffffffffffffffffff167f8be0079c531659141344cd1fd0a4f28419497f9722a3daafe3b4186f6b6457e060405160405180910390a35050565b828054620001649062000235565b90600052602060002090601f016020900481019282620001885760008555620001d4565b82601f10620001a357805160ff1916838001178555620001d4565b82800160010185558215620001d4579182015b82811115620001d3578251825591602001919060010190620001b6565b5b509050620001e39190620001e7565b5090565b5b8082111562000202576000816000905550600101620001e8565b5090565b7f4e487b7100000000000000000000000000000000000000000000000000000000600052602260045260246000fd5b600060028204905060018216806200024e57607f821691505b6020821081141562000265576200026462000206565b5b50919050565b61305f806200027b6000396000f3fe608060405234801561001057600080fd5b50600436106100f45760003560e01c80638da5cb5b11610097578063f242432a11610066578063f242432a14610295578063f2fde38b146102b1578063f59dfdfb146102cd578063f5a0d6c0146102e9576100f4565b80638da5cb5b146101fb578063a22cb46514610219578063c1e0372814610235578063e985e9c514610265576100f4565b80632eb2c2d6116100d35780632eb2c2d6146101895780634e1273f4146101a5578063689e26b3146101d5578063715018a6146101f1576100f4565b8062fdd58e146100f957806301ffc9a7146101295780630e89341c14610159575b600080fd5b610113600480360381019061010e9190611b5c565b610307565b6040516101209190611bab565b60405180910390f35b610143600480360381019061013e9190611c1e565b6103d0565b6040516101509190611c66565b60405180910390f35b610173600480360381019061016e9190611c81565b6104b2565b6040516101809190611d47565b60405180910390f35b6101a3600480360381019061019e9190611f66565b610546565b005b6101bf60048036038101906101ba91906120f8565b6105e7565b6040516101cc919061222e565b60405180910390f35b6101ef60048036038101906101ea9190612289565b610700565b005b6101f961086c565b005b6102036108f4565b60405161021091906122ff565b60405180910390f35b610233600480360381019061022e9190612346565b61091e565b005b61024f600480360381019061024a9190611c81565b610934565b60405161025c91906123ea565b60405180910390f35b61027f600480360381019061027a9190612405565b6109af565b60405161028c9190611c66565b60405180910390f35b6102af60048036038101906102aa9190612445565b610a43565b005b6102cb60048036038101906102c691906124dc565b610ae4565b005b6102e760048036038101906102e29190611c81565b610bdc565b005b6102f1610c31565b6040516102fe9190611bab565b60405180910390f35b60008073ffffffffffffffffffffffffffffffffffffffff168373ffffffffffffffffffffffffffffffffffffffff161415610378576040517f08c379a000000000000000000000000000000000000000000000000000000000815260040161036f9061257b565b60405180910390fd5b60008083815260200190815260200160002060008473ffffffffffffffffffffffffffffffffffffffff1673ffffffffffffffffffffffffffffffffffffffff16815260200190815260200160002054905092915050565b60007fd9b67a26000000000000000000000000000000000000000000000000000000007bffffffffffffffffffffffffffffffffffffffffffffffffffffffff1916827bffffffffffffffffffffffffffffffffffffffffffffffffffffffff1916148061049b57507f0e89341c000000000000000000000000000000000000000000000000000000007bffffffffffffffffffffffffffffffffffffffffffffffffffffffff1916827bffffffffffffffffffffffffffffffffffffffffffffffffffffffff1916145b806104ab57506104aa82610c37565b5b9050919050565b6060600280546104c1906125ca565b80601f01602080910402602001604051908101604052809291908181526020018280546104ed906125ca565b801561053a5780601f1061050f5761010080835404028352916020019161053a565b820191906000526020600020905b81548152906001019060200180831161051d57829003601f168201915b50505050509050919050565b61054e610ca1565b73ffffffffffffffffffffffffffffffffffffffff168573ffffffffffffffffffffffffffffffffffffffff16148061059457506105938561058e610ca1565b6109af565b5b6105d3576040517f08c379a00000000000000000000000000000000000000000000000000000000081526004016105ca9061266e565b60405180910390fd5b6105e08585858585610ca9565b5050505050565b6060815183511461062d576040517f08c379a000000000000000000000000000000000000000000000000000000000815260040161062490612700565b60405180910390fd5b6000835167ffffffffffffffff81111561064a57610649611d6e565b5b6040519080825280602002602001820160405280156106785781602001602082028036833780820191505090505b50905060005b84518110156106f5576106c585828151811061069d5761069c612720565b5b60200260200101518583815181106106b8576106b7612720565b5b6020026020010151610307565b8282815181106106d8576106d7612720565b5b602002602001018181525050806106ee9061277e565b905061067e565b508091505092915050565b610708610ca1565b73ffffffffffffffffffffffffffffffffffffffff166107266108f4565b73ffffffffffffffffffffffffffffffffffffffff161461077c576040517f08c379a000000000000000000000000000000000000000000000000000000000815260040161077390612813565b60405180910390fd5b60005b848110156108655760405180608001604052808560ff1681526020018460ff1681526020014281526020018381525060046000600554815260200190815260200160002060008201518160000160006101000a81548160ff021916908360ff16021790555060208201518160000160016101000a81548160ff021916908360ff160217905550604082015181600101556060820151816002015590505061083a33600554600160405180602001604052806000815250610fbd565b6005600081548092919061084d9061277e565b9190505550808061085d9061277e565b91505061077f565b5050505050565b610874610ca1565b73ffffffffffffffffffffffffffffffffffffffff166108926108f4565b73ffffffffffffffffffffffffffffffffffffffff16146108e8576040517f08c379a00000000000000000000000000000000000000000000000000000000081526004016108df90612813565b60405180910390fd5b6108f26000611153565b565b6000600360009054906101000a900473ffffffffffffffffffffffffffffffffffffffff16905090565b610930610929610ca1565b8383611219565b5050565b61093c611a86565b600460008381526020019081526020016000206040518060800160405290816000820160009054906101000a900460ff1660ff1660ff1681526020016000820160019054906101000a900460ff1660ff1660ff168152602001600182015481526020016002820154815250509050919050565b6000600160008473ffffffffffffffffffffffffffffffffffffffff1673ffffffffffffffffffffffffffffffffffffffff16815260200190815260200160002060008373ffffffffffffffffffffffffffffffffffffffff1673ffffffffffffffffffffffffffffffffffffffff16815260200190815260200160002060009054906101000a900460ff16905092915050565b610a4b610ca1565b73ffffffffffffffffffffffffffffffffffffffff168573ffffffffffffffffffffffffffffffffffffffff161480610a915750610a9085610a8b610ca1565b6109af565b5b610ad0576040517f08c379a0000000000000000000000000000000000000000000000000000000008152600401610ac7906128a5565b60405180910390fd5b610add8585858585611386565b5050505050565b610aec610ca1565b73ffffffffffffffffffffffffffffffffffffffff16610b0a6108f4565b73ffffffffffffffffffffffffffffffffffffffff1614610b60576040517f08c379a0000000000000000000000000000000000000000000000000000000008152600401610b5790612813565b60405180910390fd5b600073ffffffffffffffffffffffffffffffffffffffff168173ffffffffffffffffffffffffffffffffffffffff161415610bd0576040517f08c379a0000000000000000000000000000000000000000000000000000000008152600401610bc790612937565b60405180910390fd5b610bd981611153565b50565b60006004600083815260200190815260200160002090504281600201548260010154610c089190612957565b11610c1257600080fd5b4260046000848152602001908152602001600020600101819055505050565b60055481565b60007f01ffc9a7000000000000000000000000000000000000000000000000000000007bffffffffffffffffffffffffffffffffffffffffffffffffffffffff1916827bffffffffffffffffffffffffffffffffffffffffffffffffffffffff1916149050919050565b600033905090565b8151835114610ced576040517f08c379a0000000000000000000000000000000000000000000000000000000008152600401610ce490612a1f565b60405180910390fd5b600073ffffffffffffffffffffffffffffffffffffffff168473ffffffffffffffffffffffffffffffffffffffff161415610d5d576040517f08c379a0000000000000000000000000000000000000000000000000000000008152600401610d5490612ab1565b60405180910390fd5b6000610d67610ca1565b9050610d77818787878787611608565b60005b8451811015610f28576000858281518110610d9857610d97612720565b5b602002602001015190506000858381518110610db757610db6612720565b5b60200260200101519050600080600084815260200190815260200160002060008b73ffffffffffffffffffffffffffffffffffffffff1673ffffffffffffffffffffffffffffffffffffffff16815260200190815260200160002054905081811015610e58576040517f08c379a0000000000000000000000000000000000000000000000000000000008152600401610e4f90612b43565b60405180910390fd5b81810360008085815260200190815260200160002060008c73ffffffffffffffffffffffffffffffffffffffff1673ffffffffffffffffffffffffffffffffffffffff168152602001908152602001600020819055508160008085815260200190815260200160002060008b73ffffffffffffffffffffffffffffffffffffffff1673ffffffffffffffffffffffffffffffffffffffff1681526020019081526020016000206000828254610f0d9190612957565b9250508190555050505080610f219061277e565b9050610d7a565b508473ffffffffffffffffffffffffffffffffffffffff168673ffffffffffffffffffffffffffffffffffffffff168273ffffffffffffffffffffffffffffffffffffffff167f4a39dc06d4c0dbc64b70af90fd698a233a518aa5d07e595d983b8c0526c8f7fb8787604051610f9f929190612b63565b60405180910390a4610fb5818787878787611649565b505050505050565b600073ffffffffffffffffffffffffffffffffffffffff168473ffffffffffffffffffffffffffffffffffffffff16141561102d576040517f08c379a000000000000000000000000000000000000000000000000000000000815260040161102490612c0c565b60405180910390fd5b6000611037610ca1565b90506110588160008761104988611821565b61105288611821565b87611608565b8260008086815260200190815260200160002060008773ffffffffffffffffffffffffffffffffffffffff1673ffffffffffffffffffffffffffffffffffffffff16815260200190815260200160002060008282546110b79190612957565b925050819055508473ffffffffffffffffffffffffffffffffffffffff16600073ffffffffffffffffffffffffffffffffffffffff168273ffffffffffffffffffffffffffffffffffffffff167fc3d58168c5ae7397731d063d5bbf3d657854427343f4c083240f7aacaa2d0f628787604051611135929190612c2c565b60405180910390a461114c8160008787878761189b565b5050505050565b6000600360009054906101000a900473ffffffffffffffffffffffffffffffffffffffff16905081600360006101000a81548173ffffffffffffffffffffffffffffffffffffffff021916908373ffffffffffffffffffffffffffffffffffffffff1602179055508173ffffffffffffffffffffffffffffffffffffffff168173ffffffffffffffffffffffffffffffffffffffff167f8be0079c531659141344cd1fd0a4f28419497f9722a3daafe3b4186f6b6457e060405160405180910390a35050565b8173ffffffffffffffffffffffffffffffffffffffff168373ffffffffffffffffffffffffffffffffffffffff161415611288576040517f08c379a000000000000000000000000000000000000000000000000000000000815260040161127f90612cc7565b60405180910390fd5b80600160008573ffffffffffffffffffffffffffffffffffffffff1673ffffffffffffffffffffffffffffffffffffffff16815260200190815260200160002060008473ffffffffffffffffffffffffffffffffffffffff1673ffffffffffffffffffffffffffffffffffffffff16815260200190815260200160002060006101000a81548160ff0219169083151502179055508173ffffffffffffffffffffffffffffffffffffffff168373ffffffffffffffffffffffffffffffffffffffff167f17307eab39ab6107e8899845ad3d59bd9653f200f220920489ca2b5937696c31836040516113799190611c66565b60405180910390a3505050565b600073ffffffffffffffffffffffffffffffffffffffff168473ffffffffffffffffffffffffffffffffffffffff1614156113f6576040517f08c379a00000000000000000000000000000000000000000000000000000000081526004016113ed90612ab1565b60405180910390fd5b6000611400610ca1565b905061142081878761141188611821565b61141a88611821565b87611608565b600080600086815260200190815260200160002060008873ffffffffffffffffffffffffffffffffffffffff1673ffffffffffffffffffffffffffffffffffffffff168152602001908152602001600020549050838110156114b7576040517f08c379a00000000000000000000000000000000000000000000000000000000081526004016114ae90612b43565b60405180910390fd5b83810360008087815260200190815260200160002060008973ffffffffffffffffffffffffffffffffffffffff1673ffffffffffffffffffffffffffffffffffffffff168152602001908152602001600020819055508360008087815260200190815260200160002060008873ffffffffffffffffffffffffffffffffffffffff1673ffffffffffffffffffffffffffffffffffffffff168152602001908152602001600020600082825461156c9190612957565b925050819055508573ffffffffffffffffffffffffffffffffffffffff168773ffffffffffffffffffffffffffffffffffffffff168373ffffffffffffffffffffffffffffffffffffffff167fc3d58168c5ae7397731d063d5bbf3d657854427343f4c083240f7aacaa2d0f6288886040516115e9929190612c2c565b60405180910390a46115ff82888888888861189b565b50505050505050565b6000600460006005548152602001908152602001600020905042816002015482600101546116369190612957565b1161164057600080fd5b50505050505050565b6116688473ffffffffffffffffffffffffffffffffffffffff16611a73565b15611819578373ffffffffffffffffffffffffffffffffffffffff1663bc197c8187878686866040518663ffffffff1660e01b81526004016116ae959493929190612d3c565b6020604051808303816000875af19250505080156116ea57506040513d601f19601f820116820180604052508101906116e79190612db9565b60015b611790576116f6612df3565b806308c379a01415611753575061170b612e15565b806117165750611755565b806040517f08c379a000000000000000000000000000000000000000000000000000000000815260040161174a9190611d47565b60405180910390fd5b505b6040517f08c379a000000000000000000000000000000000000000000000000000000000815260040161178790612f1d565b60405180910390fd5b63bc197c8160e01b7bffffffffffffffffffffffffffffffffffffffffffffffffffffffff1916817bffffffffffffffffffffffffffffffffffffffffffffffffffffffff191614611817576040517f08c379a000000000000000000000000000000000000000000000000000000000815260040161180e90612faf565b60405180910390fd5b505b505050505050565b60606000600167ffffffffffffffff8111156118405761183f611d6e565b5b60405190808252806020026020018201604052801561186e5781602001602082028036833780820191505090505b509050828160008151811061188657611885612720565b5b60200260200101818152505080915050919050565b6118ba8473ffffffffffffffffffffffffffffffffffffffff16611a73565b15611a6b578373ffffffffffffffffffffffffffffffffffffffff1663f23a6e6187878686866040518663ffffffff1660e01b8152600401611900959493929190612fcf565b6020604051808303816000875af192505050801561193c57506040513d601f19601f820116820180604052508101906119399190612db9565b60015b6119e257611948612df3565b806308c379a014156119a5575061195d612e15565b8061196857506119a7565b806040517f08c379a000000000000000000000000000000000000000000000000000000000815260040161199c9190611d47565b60405180910390fd5b505b6040517f08c379a00000000000000000000000000000000000000000000000000000000081526004016119d990612f1d565b60405180910390fd5b63f23a6e6160e01b7bffffffffffffffffffffffffffffffffffffffffffffffffffffffff1916817bffffffffffffffffffffffffffffffffffffffffffffffffffffffff191614611a69576040517f08c379a0000000000000000000000000000000000000000000000000000000008152600401611a6090612faf565b60405180910390fd5b505b505050505050565b600080823b905060008111915050919050565b6040518060800160405280600060ff168152602001600060ff16815260200160008152602001600081525090565b6000604051905090565b600080fd5b600080fd5b600073ffffffffffffffffffffffffffffffffffffffff82169050919050565b6000611af382611ac8565b9050919050565b611b0381611ae8565b8114611b0e57600080fd5b50565b600081359050611b2081611afa565b92915050565b6000819050919050565b611b3981611b26565b8114611b4457600080fd5b50565b600081359050611b5681611b30565b92915050565b60008060408385031215611b7357611b72611abe565b5b6000611b8185828601611b11565b9250506020611b9285828601611b47565b9150509250929050565b611ba581611b26565b82525050565b6000602082019050611bc06000830184611b9c565b92915050565b60007fffffffff0000000000000000000000000000000000000000000000000000000082169050919050565b611bfb81611bc6565b8114611c0657600080fd5b50565b600081359050611c1881611bf2565b92915050565b600060208284031215611c3457611c33611abe565b5b6000611c4284828501611c09565b91505092915050565b60008115159050919050565b611c6081611c4b565b82525050565b6000602082019050611c7b6000830184611c57565b92915050565b600060208284031215611c9757611c96611abe565b5b6000611ca584828501611b47565b91505092915050565b600081519050919050565b600082825260208201905092915050565b60005b83811015611ce8578082015181840152602081019050611ccd565b83811115611cf7576000848401525b50505050565b6000601f19601f8301169050919050565b6000611d1982611cae565b611d238185611cb9565b9350611d33818560208601611cca565b611d3c81611cfd565b840191505092915050565b60006020820190508181036000830152611d618184611d0e565b905092915050565b600080fd5b7f4e487b7100000000000000000000000000000000000000000000000000000000600052604160045260246000fd5b611da682611cfd565b810181811067ffffffffffffffff82111715611dc557611dc4611d6e565b5b80604052505050565b6000611dd8611ab4565b9050611de48282611d9d565b919050565b600067ffffffffffffffff821115611e0457611e03611d6e565b5b602082029050602081019050919050565b600080fd5b6000611e2d611e2884611de9565b611dce565b90508083825260208201905060208402830185811115611e5057611e4f611e15565b5b835b81811015611e795780611e658882611b47565b845260208401935050602081019050611e52565b5050509392505050565b600082601f830112611e9857611e97611d69565b5b8135611ea8848260208601611e1a565b91505092915050565b600080fd5b600067ffffffffffffffff821115611ed157611ed0611d6e565b5b611eda82611cfd565b9050602081019050919050565b82818337600083830152505050565b6000611f09611f0484611eb6565b611dce565b905082815260208101848484011115611f2557611f24611eb1565b5b611f30848285611ee7565b509392505050565b600082601f830112611f4d57611f4c611d69565b5b8135611f5d848260208601611ef6565b91505092915050565b600080600080600060a08688031215611f8257611f81611abe565b5b6000611f9088828901611b11565b9550506020611fa188828901611b11565b945050604086013567ffffffffffffffff811115611fc257611fc1611ac3565b5b611fce88828901611e83565b935050606086013567ffffffffffffffff811115611fef57611fee611ac3565b5b611ffb88828901611e83565b925050608086013567ffffffffffffffff81111561201c5761201b611ac3565b5b61202888828901611f38565b9150509295509295909350565b600067ffffffffffffffff8211156120505761204f611d6e565b5b602082029050602081019050919050565b600061207461206f84612035565b611dce565b9050808382526020820190506020840283018581111561209757612096611e15565b5b835b818110156120c057806120ac8882611b11565b845260208401935050602081019050612099565b5050509392505050565b600082601f8301126120df576120de611d69565b5b81356120ef848260208601612061565b91505092915050565b6000806040838503121561210f5761210e611abe565b5b600083013567ffffffffffffffff81111561212d5761212c611ac3565b5b612139858286016120ca565b925050602083013567ffffffffffffffff81111561215a57612159611ac3565b5b61216685828601611e83565b9150509250929050565b600081519050919050565b600082825260208201905092915050565b6000819050602082019050919050565b6121a581611b26565b82525050565b60006121b7838361219c565b60208301905092915050565b6000602082019050919050565b60006121db82612170565b6121e5818561217b565b93506121f08361218c565b8060005b8381101561222157815161220888826121ab565b9750612213836121c3565b9250506001810190506121f4565b5085935050505092915050565b6000602082019050818103600083015261224881846121d0565b905092915050565b600060ff82169050919050565b61226681612250565b811461227157600080fd5b50565b6000813590506122838161225d565b92915050565b600080600080608085870312156122a3576122a2611abe565b5b60006122b187828801611b47565b94505060206122c287828801612274565b93505060406122d387828801612274565b92505060606122e487828801611b47565b91505092959194509250565b6122f981611ae8565b82525050565b600060208201905061231460008301846122f0565b92915050565b61232381611c4b565b811461232e57600080fd5b50565b6000813590506123408161231a565b92915050565b6000806040838503121561235d5761235c611abe565b5b600061236b85828601611b11565b925050602061237c85828601612331565b9150509250929050565b61238f81612250565b82525050565b6080820160008201516123ab6000850182612386565b5060208201516123be6020850182612386565b5060408201516123d1604085018261219c565b5060608201516123e4606085018261219c565b50505050565b60006080820190506123ff6000830184612395565b92915050565b6000806040838503121561241c5761241b611abe565b5b600061242a85828601611b11565b925050602061243b85828601611b11565b9150509250929050565b600080600080600060a0868803121561246157612460611abe565b5b600061246f88828901611b11565b955050602061248088828901611b11565b945050604061249188828901611b47565b93505060606124a288828901611b47565b925050608086013567ffffffffffffffff8111156124c3576124c2611ac3565b5b6124cf88828901611f38565b9150509295509295909350565b6000602082840312156124f2576124f1611abe565b5b600061250084828501611b11565b91505092915050565b7f455243313135353a2062616c616e636520717565727920666f7220746865207a60008201527f65726f2061646472657373000000000000000000000000000000000000000000602082015250565b6000612565602b83611cb9565b915061257082612509565b604082019050919050565b6000602082019050818103600083015261259481612558565b9050919050565b7f4e487b7100000000000000000000000000000000000000000000000000000000600052602260045260246000fd5b600060028204905060018216806125e257607f821691505b602082108114156125f6576125f561259b565b5b50919050565b7f455243313135353a207472616e736665722063616c6c6572206973206e6f742060008201527f6f776e6572206e6f7220617070726f7665640000000000000000000000000000602082015250565b6000612658603283611cb9565b9150612663826125fc565b604082019050919050565b600060208201905081810360008301526126878161264b565b9050919050565b7f455243313135353a206163636f756e747320616e6420696473206c656e67746860008201527f206d69736d617463680000000000000000000000000000000000000000000000602082015250565b60006126ea602983611cb9565b91506126f58261268e565b604082019050919050565b60006020820190508181036000830152612719816126dd565b9050919050565b7f4e487b7100000000000000000000000000000000000000000000000000000000600052603260045260246000fd5b7f4e487b7100000000000000000000000000000000000000000000000000000000600052601160045260246000fd5b600061278982611b26565b91507fffffffffffffffffffffffffffffffffffffffffffffffffffffffffffffffff8214156127bc576127bb61274f565b5b600182019050919050565b7f4f776e61626c653a2063616c6c6572206973206e6f7420746865206f776e6572600082015250565b60006127fd602083611cb9565b9150612808826127c7565b602082019050919050565b6000602082019050818103600083015261282c816127f0565b9050919050565b7f455243313135353a2063616c6c6572206973206e6f74206f776e6572206e6f7260008201527f20617070726f7665640000000000000000000000000000000000000000000000602082015250565b600061288f602983611cb9565b915061289a82612833565b604082019050919050565b600060208201905081810360008301526128be81612882565b9050919050565b7f4f776e61626c653a206e6577206f776e657220697320746865207a65726f206160008201527f6464726573730000000000000000000000000000000000000000000000000000602082015250565b6000612921602683611cb9565b915061292c826128c5565b604082019050919050565b6000602082019050818103600083015261295081612914565b9050919050565b600061296282611b26565b915061296d83611b26565b9250827fffffffffffffffffffffffffffffffffffffffffffffffffffffffffffffffff038211156129a2576129a161274f565b5b828201905092915050565b7f455243313135353a2069647320616e6420616d6f756e7473206c656e6774682060008201527f6d69736d61746368000000000000000000000000000000000000000000000000602082015250565b6000612a09602883611cb9565b9150612a14826129ad565b604082019050919050565b60006020820190508181036000830152612a38816129fc565b9050919050565b7f455243313135353a207472616e7366657220746f20746865207a65726f20616460008201527f6472657373000000000000000000000000000000000000000000000000000000602082015250565b6000612a9b602583611cb9565b9150612aa682612a3f565b604082019050919050565b60006020820190508181036000830152612aca81612a8e565b9050919050565b7f455243313135353a20696e73756666696369656e742062616c616e636520666f60008201527f72207472616e7366657200000000000000000000000000000000000000000000602082015250565b6000612b2d602a83611cb9565b9150612b3882612ad1565b604082019050919050565b60006020820190508181036000830152612b5c81612b20565b9050919050565b60006040820190508181036000830152612b7d81856121d0565b90508181036020830152612b9181846121d0565b90509392505050565b7f455243313135353a206d696e7420746f20746865207a65726f2061646472657360008201527f7300000000000000000000000000000000000000000000000000000000000000602082015250565b6000612bf6602183611cb9565b9150612c0182612b9a565b604082019050919050565b60006020820190508181036000830152612c2581612be9565b9050919050565b6000604082019050612c416000830185611b9c565b612c4e6020830184611b9c565b9392505050565b7f455243313135353a2073657474696e6720617070726f76616c2073746174757360008201527f20666f722073656c660000000000000000000000000000000000000000000000602082015250565b6000612cb1602983611cb9565b9150612cbc82612c55565b604082019050919050565b60006020820190508181036000830152612ce081612ca4565b9050919050565b600081519050919050565b600082825260208201905092915050565b6000612d0e82612ce7565b612d188185612cf2565b9350612d28818560208601611cca565b612d3181611cfd565b840191505092915050565b600060a082019050612d5160008301886122f0565b612d5e60208301876122f0565b8181036040830152612d7081866121d0565b90508181036060830152612d8481856121d0565b90508181036080830152612d988184612d03565b90509695505050505050565b600081519050612db381611bf2565b92915050565b600060208284031215612dcf57612dce611abe565b5b6000612ddd84828501612da4565b91505092915050565b60008160e01c9050919050565b600060033d1115612e125760046000803e612e0f600051612de6565b90505b90565b600060443d1015612e2557612ea8565b612e2d611ab4565b60043d036004823e80513d602482011167ffffffffffffffff82111715612e55575050612ea8565b808201805167ffffffffffffffff811115612e735750505050612ea8565b80602083010160043d038501811115612e90575050505050612ea8565b612e9f82602001850186611d9d565b82955050505050505b90565b7f455243313135353a207472616e7366657220746f206e6f6e204552433131353560008201527f526563656976657220696d706c656d656e746572000000000000000000000000602082015250565b6000612f07603483611cb9565b9150612f1282612eab565b604082019050919050565b60006020820190508181036000830152612f3681612efa565b9050919050565b7f455243313135353a204552433131353552656365697665722072656a6563746560008201527f6420746f6b656e73000000000000000000000000000000000000000000000000602082015250565b6000612f99602883611cb9565b9150612fa482612f3d565b604082019050919050565b60006020820190508181036000830152612fc881612f8c565b9050919050565b600060a082019050612fe460008301886122f0565b612ff160208301876122f0565b612ffe6040830186611b9c565b61300b6060830185611b9c565b818103608083015261301d8184612d03565b9050969550505050505056fea26469706673582212206e78cabeb4c93411b1a56396377d938b13cc92ac78314d9b64ce3e2140c0f7f264736f6c634300080a0033697066733a2f2f494e534552545f594f55525f4349445f4d455441484153482f6d657461646174612f7b69647d2e6a736f6e",
  "immutableReferences": {},
  "source": "pragma solidity >=0.7.0 <0.9.0;\n\n//import 1155 token contract from Openzeppelin\nimport \"../node_modules/@openzeppelin/contracts/token/ERC1155/ERC1155.sol\";\nimport \"../node_modules/@openzeppelin/contracts/utils/math/SafeMath.sol\";\nimport \"../node_modules/@openzeppelin/contracts/access/Ownable.sol\";\n\ncontract Token is ERC1155, Ownable {\n    using SafeMath for uint256;\n\n    // Pet struct can be used within arrays and mappings\n    struct Pet {\n        uint8 damage;\n        uint8 power;\n        uint256 lastMeal;\n        uint256 endurance; // 24 hours\n    }\n    // mapping that reference each Pet by their token id\n    mapping(uint256 => Pet) private _tokenDetails; // 0 -> however many get created\n\n    uint256 public tokensInCirculation;\n\n    // https://token-cdn-domain/000000000000000000000000000000000000000000000000000000000004cce0.json\n    // parent ERC1155 constructor requires this\n    constructor()\n        ERC1155(\"ipfs://INSERT_YOUR_CID_METAHASH/metadata/{id}.json\")\n    {\n        tokensInCirculation = 0;\n    }\n\n    function getTokenDetails(uint256 tokenId) public view returns (Pet memory) {\n        return _tokenDetails[tokenId];\n    }\n\n    // mint is our publicly exposed func, _mint is parent contract's mint func\n    function mint(\n        uint256 amount,\n        uint8 damage,\n        uint8 power,\n        uint256 endurance\n    ) public onlyOwner {\n        for (uint256 i = 0; i < amount; i++) {\n            // only owner address can mint owner_address, token_id, bytecode\n            _tokenDetails[tokensInCirculation] = Pet(\n                damage,\n                power,\n                block.timestamp,\n                endurance\n            );\n            _mint(msg.sender, tokensInCirculation, 1, \"\"); // <- '1' in 1155 = NFT\n            // iterate circulating tokens by minted amount above\n            tokensInCirculation++;\n        }\n    }\n\n    function feed(uint256 tokenId) public {\n        Pet storage pet = _tokenDetails[tokenId];\n        require(pet.lastMeal + pet.endurance > block.timestamp); // must not have died of starvation; Pet is still alive\n        _tokenDetails[tokenId].lastMeal = block.timestamp;\n    }\n\n    function _beforeTokenTransfer(\n        address,\n        address,\n        address,\n        uint256[] memory,\n        uint256[] memory,\n        bytes memory\n    ) internal view override {\n        // cannot be transferred IF dead.\n        Pet storage pet = _tokenDetails[tokensInCirculation];\n        require(pet.lastMeal + pet.endurance > block.timestamp); // must not have died of starvation; Pet is still alive\n    }\n}\n\n/* \n\n//import \"../node_modules/@openzeppelin/contracts/token/ERC1155/presets/ERC1155PresetMinterPauser.sol\";\n\ncontract Tokens is ERC1155PresetMinterPauser {\n    uint256 public gameIDCounter;\n\n    mapping(string => uint256) public idmap;\n    mapping(uint256 => string) public lookupmap;\n\n    constructor() ERC1155PresetMinterPauser(\"https://img.youtube.com/vi/\") {\n        // base URI\n    }\n\n    function addGameID(string memory gameID, uint256 initialSupply) external {\n        require(\n            hasRole(MINTER_ROLE, _msgSender()),\n            \"Tokens: must have minter role to mint.\"\n        );\n        require(idmap[gameID] == 0, \"Tokens: This game already exists.\");\n\n        gameIDCounter = gameIDCounter + 1;\n        idmap[gameID] = gameIDCounter;\n        lookupmap[gameIDCounter] = gameID;\n\n        _mint(msg.sender, gameIDCounter, initialSupply, \"\");\n    }\n\n    function uri(uint256 id)\n        public\n        view\n        virtual\n        override\n        returns (string memory)\n    {\n        return\n            string(\n                abi.encodePacked(super.uri(id), lookupmap[id], \"/hqdefault.jpg\")\n            );\n    }\n\n    function getAllTokens(address account)\n        public\n        view\n        returns (uint256[] memory)\n    {\n        uint256 numTokens = 0;\n        for (uint256 i = 0; i <= gameIDCounter; i++) {\n            if (balanceOf(account, i) > 0) {\n                numTokens++;\n            }\n        }\n        uint256[] memory ret = new uint256[](numTokens);\n        uint256 counter = 0;\n        for (uint256 i = 0; i <= gameIDCounter; i++) {\n            if (balanceOf(account, i) > 0) {\n                ret[counter] = i;\n                counter++;\n            }\n        }\n        return ret;\n    }\n} */\n\n/* \ncontract Token is ERC1155, Ownable {\n\n    uint256 public constant ASTEROID = 0;\n\n    struct Pet {\n        uint8 damage;\n        uint8 power;\n        uint256 lastMeal;\n        uint256 endurance; // 24 hours\n    }\n\n    mapping(uint256 => Pet) private _tokenDetails; // 0 -> however many get created */\n\n/*     constructor(string memory name, string memory symbol)\n        ERC1155(name, symbol)\n        _mint(msg.sender, ASTEROID, 10**18, \"\");\n    {} */\n/*\nfunction addAsteroidID(string memory asteroidID, uint256 initialSupply) external {\n        require(\n            hasRole(MINTER_ROLE, _msgSender()),\n            \"Tokens: must have minter role to mint.\"\n        );\n        require(idmap[gameID] == 0, \"Tokens: This game already exists.\");\n\n        gameIDCounter = gameIDCounter + 1;\n        idmap[gameID] = gameIDCounter;\n        lookupmap[gameIDCounter] = gameID;\n\n        _mint(msg.sender, gameIDCounter, initialSupply, \"\");\n    }\n\n\n}\n */\n",
  "sourcePath": "/Users/ashleydavison/dev/nft-game-sandbox/contracts/Token.sol",
  "compiler": {
    "name": "solc",
    "version": "0.8.10+commit.fc410830.Emscripten.clang"
  },
  "schemaVersion": "3.4.4",
  "updatedAt": "2022-01-09T00:08:39.785Z",
  "devdoc": {
    "kind": "dev",
    "methods": {
      "balanceOf(address,uint256)": {
        "details": "See {IERC1155-balanceOf}. Requirements: - `account` cannot be the zero address."
      },
      "balanceOfBatch(address[],uint256[])": {
        "details": "See {IERC1155-balanceOfBatch}. Requirements: - `accounts` and `ids` must have the same length."
      },
      "isApprovedForAll(address,address)": {
        "details": "See {IERC1155-isApprovedForAll}."
      },
      "owner()": {
        "details": "Returns the address of the current owner."
      },
      "renounceOwnership()": {
        "details": "Leaves the contract without owner. It will not be possible to call `onlyOwner` functions anymore. Can only be called by the current owner. NOTE: Renouncing ownership will leave the contract without an owner, thereby removing any functionality that is only available to the owner."
      },
      "safeBatchTransferFrom(address,address,uint256[],uint256[],bytes)": {
        "details": "See {IERC1155-safeBatchTransferFrom}."
      },
      "safeTransferFrom(address,address,uint256,uint256,bytes)": {
        "details": "See {IERC1155-safeTransferFrom}."
      },
      "setApprovalForAll(address,bool)": {
        "details": "See {IERC1155-setApprovalForAll}."
      },
      "supportsInterface(bytes4)": {
        "details": "See {IERC165-supportsInterface}."
      },
      "transferOwnership(address)": {
        "details": "Transfers ownership of the contract to a new account (`newOwner`). Can only be called by the current owner."
      },
      "uri(uint256)": {
        "details": "See {IERC1155MetadataURI-uri}. This implementation returns the same URI for *all* token types. It relies on the token type ID substitution mechanism https://eips.ethereum.org/EIPS/eip-1155#metadata[defined in the EIP]. Clients calling this function must replace the `\\{id\\}` substring with the actual token type ID."
      }
    },
    "version": 1
  },
  "userdoc": {
    "kind": "user",
    "methods": {},
    "version": 1
  }
}