{
  "contractName": "Token",
  "abi": [
    {
      "inputs": [],
      "stateMutability": "nonpayable",
      "type": "constructor"
    },
    {
      "anonymous": false,
      "inputs": [
        {
          "indexed": true,
          "internalType": "address",
          "name": "account",
          "type": "address"
        },
        {
          "indexed": true,
          "internalType": "address",
          "name": "operator",
          "type": "address"
        },
        {
          "indexed": false,
          "internalType": "bool",
          "name": "approved",
          "type": "bool"
        }
      ],
      "name": "ApprovalForAll",
      "type": "event"
    },
    {
      "anonymous": false,
      "inputs": [
        {
          "indexed": true,
          "internalType": "address",
          "name": "previousOwner",
          "type": "address"
        },
        {
          "indexed": true,
          "internalType": "address",
          "name": "newOwner",
          "type": "address"
        }
      ],
      "name": "OwnershipTransferred",
      "type": "event"
    },
    {
      "anonymous": false,
      "inputs": [
        {
          "indexed": true,
          "internalType": "address",
          "name": "operator",
          "type": "address"
        },
        {
          "indexed": true,
          "internalType": "address",
          "name": "from",
          "type": "address"
        },
        {
          "indexed": true,
          "internalType": "address",
          "name": "to",
          "type": "address"
        },
        {
          "indexed": false,
          "internalType": "uint256[]",
          "name": "ids",
          "type": "uint256[]"
        },
        {
          "indexed": false,
          "internalType": "uint256[]",
          "name": "values",
          "type": "uint256[]"
        }
      ],
      "name": "TransferBatch",
      "type": "event"
    },
    {
      "anonymous": false,
      "inputs": [
        {
          "indexed": true,
          "internalType": "address",
          "name": "operator",
          "type": "address"
        },
        {
          "indexed": true,
          "internalType": "address",
          "name": "from",
          "type": "address"
        },
        {
          "indexed": true,
          "internalType": "address",
          "name": "to",
          "type": "address"
        },
        {
          "indexed": false,
          "internalType": "uint256",
          "name": "id",
          "type": "uint256"
        },
        {
          "indexed": false,
          "internalType": "uint256",
          "name": "value",
          "type": "uint256"
        }
      ],
      "name": "TransferSingle",
      "type": "event"
    },
    {
      "anonymous": false,
      "inputs": [
        {
          "indexed": false,
          "internalType": "string",
          "name": "value",
          "type": "string"
        },
        {
          "indexed": true,
          "internalType": "uint256",
          "name": "id",
          "type": "uint256"
        }
      ],
      "name": "URI",
      "type": "event"
    },
    {
      "inputs": [
        {
          "internalType": "address",
          "name": "account",
          "type": "address"
        },
        {
          "internalType": "uint256",
          "name": "id",
          "type": "uint256"
        }
      ],
      "name": "balanceOf",
      "outputs": [
        {
          "internalType": "uint256",
          "name": "",
          "type": "uint256"
        }
      ],
      "stateMutability": "view",
      "type": "function",
      "constant": true
    },
    {
      "inputs": [
        {
          "internalType": "address[]",
          "name": "accounts",
          "type": "address[]"
        },
        {
          "internalType": "uint256[]",
          "name": "ids",
          "type": "uint256[]"
        }
      ],
      "name": "balanceOfBatch",
      "outputs": [
        {
          "internalType": "uint256[]",
          "name": "",
          "type": "uint256[]"
        }
      ],
      "stateMutability": "view",
      "type": "function",
      "constant": true
    },
    {
      "inputs": [
        {
          "internalType": "address",
          "name": "account",
          "type": "address"
        },
        {
          "internalType": "address",
          "name": "operator",
          "type": "address"
        }
      ],
      "name": "isApprovedForAll",
      "outputs": [
        {
          "internalType": "bool",
          "name": "",
          "type": "bool"
        }
      ],
      "stateMutability": "view",
      "type": "function",
      "constant": true
    },
    {
      "inputs": [],
      "name": "name",
      "outputs": [
        {
          "internalType": "string",
          "name": "",
          "type": "string"
        }
      ],
      "stateMutability": "view",
      "type": "function",
      "constant": true
    },
    {
      "inputs": [],
      "name": "owner",
      "outputs": [
        {
          "internalType": "address",
          "name": "",
          "type": "address"
        }
      ],
      "stateMutability": "view",
      "type": "function",
      "constant": true
    },
    {
      "inputs": [],
      "name": "renounceOwnership",
      "outputs": [],
      "stateMutability": "nonpayable",
      "type": "function"
    },
    {
      "inputs": [
        {
          "internalType": "address",
          "name": "from",
          "type": "address"
        },
        {
          "internalType": "address",
          "name": "to",
          "type": "address"
        },
        {
          "internalType": "uint256[]",
          "name": "ids",
          "type": "uint256[]"
        },
        {
          "internalType": "uint256[]",
          "name": "amounts",
          "type": "uint256[]"
        },
        {
          "internalType": "bytes",
          "name": "data",
          "type": "bytes"
        }
      ],
      "name": "safeBatchTransferFrom",
      "outputs": [],
      "stateMutability": "nonpayable",
      "type": "function"
    },
    {
      "inputs": [
        {
          "internalType": "address",
          "name": "from",
          "type": "address"
        },
        {
          "internalType": "address",
          "name": "to",
          "type": "address"
        },
        {
          "internalType": "uint256",
          "name": "id",
          "type": "uint256"
        },
        {
          "internalType": "uint256",
          "name": "amount",
          "type": "uint256"
        },
        {
          "internalType": "bytes",
          "name": "data",
          "type": "bytes"
        }
      ],
      "name": "safeTransferFrom",
      "outputs": [],
      "stateMutability": "nonpayable",
      "type": "function"
    },
    {
      "inputs": [
        {
          "internalType": "address",
          "name": "operator",
          "type": "address"
        },
        {
          "internalType": "bool",
          "name": "approved",
          "type": "bool"
        }
      ],
      "name": "setApprovalForAll",
      "outputs": [],
      "stateMutability": "nonpayable",
      "type": "function"
    },
    {
      "inputs": [
        {
          "internalType": "bytes4",
          "name": "interfaceId",
          "type": "bytes4"
        }
      ],
      "name": "supportsInterface",
      "outputs": [
        {
          "internalType": "bool",
          "name": "",
          "type": "bool"
        }
      ],
      "stateMutability": "view",
      "type": "function",
      "constant": true
    },
    {
      "inputs": [],
      "name": "symbol",
      "outputs": [
        {
          "internalType": "string",
          "name": "",
          "type": "string"
        }
      ],
      "stateMutability": "view",
      "type": "function",
      "constant": true
    },
    {
      "inputs": [
        {
          "internalType": "uint256",
          "name": "",
          "type": "uint256"
        }
      ],
      "name": "tokenURI",
      "outputs": [
        {
          "internalType": "string",
          "name": "",
          "type": "string"
        }
      ],
      "stateMutability": "view",
      "type": "function",
      "constant": true
    },
    {
      "inputs": [],
      "name": "tokensInCirculation",
      "outputs": [
        {
          "internalType": "uint256",
          "name": "",
          "type": "uint256"
        }
      ],
      "stateMutability": "view",
      "type": "function",
      "constant": true
    },
    {
      "inputs": [
        {
          "internalType": "address",
          "name": "newOwner",
          "type": "address"
        }
      ],
      "name": "transferOwnership",
      "outputs": [],
      "stateMutability": "nonpayable",
      "type": "function"
    },
    {
      "inputs": [
        {
          "internalType": "uint256",
          "name": "",
          "type": "uint256"
        }
      ],
      "name": "uri",
      "outputs": [
        {
          "internalType": "string",
          "name": "",
          "type": "string"
        }
      ],
      "stateMutability": "view",
      "type": "function",
      "constant": true
    },
    {
      "inputs": [
        {
          "internalType": "uint256",
          "name": "_id",
          "type": "uint256"
        }
      ],
      "name": "getTokenDetails",
      "outputs": [
        {
          "components": [
            {
              "internalType": "uint256",
              "name": "id",
              "type": "uint256"
            },
            {
              "internalType": "uint8",
              "name": "damage",
              "type": "uint8"
            },
            {
              "internalType": "uint8",
              "name": "power",
              "type": "uint8"
            },
            {
              "internalType": "uint256",
              "name": "lastMeal",
              "type": "uint256"
            },
            {
              "internalType": "uint256",
              "name": "endurance",
              "type": "uint256"
            }
          ],
          "internalType": "struct Token.Hashtro",
          "name": "",
          "type": "tuple"
        }
      ],
      "stateMutability": "view",
      "type": "function",
      "constant": true
    },
    {
      "inputs": [],
      "name": "getTokenCirculations",
      "outputs": [
        {
          "internalType": "uint256",
          "name": "",
          "type": "uint256"
        }
      ],
      "stateMutability": "view",
      "type": "function",
      "constant": true
    },
    {
      "inputs": [
        {
          "internalType": "uint256",
          "name": "tokenId",
          "type": "uint256"
        }
      ],
      "name": "feed",
      "outputs": [],
      "stateMutability": "nonpayable",
      "type": "function"
    },
    {
      "inputs": [
        {
          "internalType": "uint256",
          "name": "_id",
          "type": "uint256"
        },
        {
          "internalType": "uint256",
          "name": "_amount",
          "type": "uint256"
        },
        {
          "internalType": "uint8",
          "name": "_damage",
          "type": "uint8"
        },
        {
          "internalType": "uint8",
          "name": "_power",
          "type": "uint8"
        },
        {
          "internalType": "uint256",
          "name": "_endurance",
          "type": "uint256"
        }
      ],
      "name": "mint",
      "outputs": [],
      "stateMutability": "nonpayable",
      "type": "function"
    },
    {
      "inputs": [
        {
          "internalType": "address",
          "name": "_to",
          "type": "address"
        },
        {
          "internalType": "uint256[]",
          "name": "_ids",
          "type": "uint256[]"
        },
        {
          "internalType": "uint256[]",
          "name": "_amounts",
          "type": "uint256[]"
        }
      ],
      "name": "mintBatch",
      "outputs": [],
      "stateMutability": "nonpayable",
      "type": "function"
    },
    {
      "inputs": [
        {
          "internalType": "uint256",
          "name": "_id",
          "type": "uint256"
        },
        {
          "internalType": "uint256",
          "name": "_amount",
          "type": "uint256"
        }
      ],
      "name": "burn",
      "outputs": [],
      "stateMutability": "nonpayable",
      "type": "function"
    },
    {
      "inputs": [
        {
          "internalType": "uint256[]",
          "name": "_ids",
          "type": "uint256[]"
        },
        {
          "internalType": "uint256[]",
          "name": "_amounts",
          "type": "uint256[]"
        }
      ],
      "name": "burnBatch",
      "outputs": [],
      "stateMutability": "nonpayable",
      "type": "function"
    },
    {
      "inputs": [
        {
          "internalType": "address",
          "name": "_from",
          "type": "address"
        },
        {
          "internalType": "uint256[]",
          "name": "_burnIds",
          "type": "uint256[]"
        },
        {
          "internalType": "uint256[]",
          "name": "_burnAmounts",
          "type": "uint256[]"
        },
        {
          "internalType": "uint256[]",
          "name": "_mintIds",
          "type": "uint256[]"
        },
        {
          "internalType": "uint256[]",
          "name": "_mintAmounts",
          "type": "uint256[]"
        }
      ],
      "name": "burnForMint",
      "outputs": [],
      "stateMutability": "nonpayable",
      "type": "function"
    },
    {
      "inputs": [
        {
          "internalType": "uint256",
          "name": "_id",
          "type": "uint256"
        },
        {
          "internalType": "string",
          "name": "_uri",
          "type": "string"
        }
      ],
      "name": "setURI",
      "outputs": [],
      "stateMutability": "nonpayable",
      "type": "function"
    }
  ],
  "bytecode": "0x60806040523480156200001157600080fd5b506040518060400160405280600d81526020017f697066733a2f2f66307b69647d0000000000000000000000000000000000000081525062000059816200012460201b60201c565b506200007a6200006e6200014060201b60201c565b6200014860201b60201c565b6040518060400160405280600881526020017f4861736874726f7300000000000000000000000000000000000000000000000081525060069080519060200190620000c79291906200020e565b506040518060400160405280600881526020017f4841534854524f5300000000000000000000000000000000000000000000000081525060079080519060200190620001159291906200020e565b50600060088190555062000323565b80600290805190602001906200013c9291906200020e565b5050565b600033905090565b6000600360009054906101000a900473ffffffffffffffffffffffffffffffffffffffff16905081600360006101000a81548173ffffffffffffffffffffffffffffffffffffffff021916908373ffffffffffffffffffffffffffffffffffffffff1602179055508173ffffffffffffffffffffffffffffffffffffffff168173ffffffffffffffffffffffffffffffffffffffff167f8be0079c531659141344cd1fd0a4f28419497f9722a3daafe3b4186f6b6457e060405160405180910390a35050565b8280546200021c90620002ed565b90600052602060002090601f0160209004810192826200024057600085556200028c565b82601f106200025b57805160ff19168380011785556200028c565b828001600101855582156200028c579182015b828111156200028b5782518255916020019190600101906200026e565b5b5090506200029b91906200029f565b5090565b5b80821115620002ba576000816000905550600101620002a0565b5090565b7f4e487b7100000000000000000000000000000000000000000000000000000000600052602260045260246000fd5b600060028204905060018216806200030657607f821691505b602082108114156200031d576200031c620002be565b5b50919050565b61420880620003336000396000f3fe608060405234801561001057600080fd5b50600436106101575760003560e01c80638da5cb5b116100c3578063d81d0a151161007c578063d81d0a15146103c2578063e985e9c5146103de578063f242432a1461040e578063f2fde38b1461042a578063f59dfdfb14610446578063f5a0d6c01461046257610157565b80638da5cb5b146102ee57806395d89b411461030c578063a22cb4651461032a578063b390c0ab14610346578063c1e0372814610362578063c87b56dd1461039257610157565b8063510f410411610115578063510f41041461025657806351330ab4146102725780636204f5d71461028e578063715018a6146102ac57806383ca4b6f146102b6578063862440e2146102d257610157565b8062fdd58e1461015c57806301ffc9a71461018c57806306fdde03146101bc5780630e89341c146101da5780632eb2c2d61461020a5780634e1273f414610226575b600080fd5b6101766004803603810190610171919061288f565b610480565b60405161018391906128de565b60405180910390f35b6101a660048036038101906101a19190612951565b610549565b6040516101b39190612999565b60405180910390f35b6101c461062b565b6040516101d19190612a4d565b60405180910390f35b6101f460048036038101906101ef9190612a6f565b6106b9565b6040516102019190612a4d565b60405180910390f35b610224600480360381019061021f9190612c99565b61074d565b005b610240600480360381019061023b9190612e2b565b6107ee565b60405161024d9190612f61565b60405180910390f35b610270600480360381019061026b9190612f83565b610907565b005b61028c600480360381019061028791906130a7565b6109b0565b005b610296610b2d565b6040516102a391906128de565b60405180910390f35b6102b4610b37565b005b6102d060048036038101906102cb9190613122565b610bbf565b005b6102ec60048036038101906102e7919061323b565b610bce565b005b6102f6610cae565b60405161030391906132a6565b60405180910390f35b610314610cd8565b6040516103219190612a4d565b60405180910390f35b610344600480360381019061033f91906132ed565b610d66565b005b610360600480360381019061035b919061332d565b610d7c565b005b61037c60048036038101906103779190612a6f565b610d8b565b60405161038991906133e4565b60405180910390f35b6103ac60048036038101906103a79190612a6f565b610e10565b6040516103b99190612a4d565b60405180910390f35b6103dc60048036038101906103d791906133ff565b610eb0565b005b6103f860048036038101906103f3919061348a565b610f4c565b6040516104059190612999565b60405180910390f35b610428600480360381019061042391906134ca565b610fe0565b005b610444600480360381019061043f9190613561565b611081565b005b610460600480360381019061045b9190612a6f565b611179565b005b61046a6111ce565b60405161047791906128de565b60405180910390f35b60008073ffffffffffffffffffffffffffffffffffffffff168373ffffffffffffffffffffffffffffffffffffffff1614156104f1576040517f08c379a00000000000000000000000000000000000000000000000000000000081526004016104e890613600565b60405180910390fd5b60008083815260200190815260200160002060008473ffffffffffffffffffffffffffffffffffffffff1673ffffffffffffffffffffffffffffffffffffffff16815260200190815260200160002054905092915050565b60007fd9b67a26000000000000000000000000000000000000000000000000000000007bffffffffffffffffffffffffffffffffffffffffffffffffffffffff1916827bffffffffffffffffffffffffffffffffffffffffffffffffffffffff1916148061061457507f0e89341c000000000000000000000000000000000000000000000000000000007bffffffffffffffffffffffffffffffffffffffffffffffffffffffff1916827bffffffffffffffffffffffffffffffffffffffffffffffffffffffff1916145b806106245750610623826111d4565b5b9050919050565b600680546106389061364f565b80601f01602080910402602001604051908101604052809291908181526020018280546106649061364f565b80156106b15780601f10610686576101008083540402835291602001916106b1565b820191906000526020600020905b81548152906001019060200180831161069457829003601f168201915b505050505081565b6060600280546106c89061364f565b80601f01602080910402602001604051908101604052809291908181526020018280546106f49061364f565b80156107415780601f1061071657610100808354040283529160200191610741565b820191906000526020600020905b81548152906001019060200180831161072457829003601f168201915b50505050509050919050565b61075561123e565b73ffffffffffffffffffffffffffffffffffffffff168573ffffffffffffffffffffffffffffffffffffffff16148061079b575061079a8561079561123e565b610f4c565b5b6107da576040517f08c379a00000000000000000000000000000000000000000000000000000000081526004016107d1906136f3565b60405180910390fd5b6107e78585858585611246565b5050505050565b60608151835114610834576040517f08c379a000000000000000000000000000000000000000000000000000000000815260040161082b90613785565b60405180910390fd5b6000835167ffffffffffffffff81111561085157610850612aa1565b5b60405190808252806020026020018201604052801561087f5781602001602082028036833780820191505090505b50905060005b84518110156108fc576108cc8582815181106108a4576108a36137a5565b5b60200260200101518583815181106108bf576108be6137a5565b5b6020026020010151610480565b8282815181106108df576108de6137a5565b5b602002602001018181525050806108f590613803565b9050610885565b508091505092915050565b61090f61123e565b73ffffffffffffffffffffffffffffffffffffffff1661092d610cae565b73ffffffffffffffffffffffffffffffffffffffff1614610983576040517f08c379a000000000000000000000000000000000000000000000000000000000815260040161097a90613898565b60405180910390fd5b61098e85858561155a565b6109a98583836040518060200160405280600081525061180b565b5050505050565b6109b861123e565b73ffffffffffffffffffffffffffffffffffffffff166109d6610cae565b73ffffffffffffffffffffffffffffffffffffffff1614610a2c576040517f08c379a0000000000000000000000000000000000000000000000000000000008152600401610a2390613898565b60405180910390fd5b60005b84811015610b25576040518060a001604052808781526020018560ff1681526020018460ff168152602001428152602001838152506004600060085481526020019081526020016000206000820151816000015560208201518160010160006101000a81548160ff021916908360ff16021790555060408201518160010160016101000a81548160ff021916908360ff1602179055506060820151816002015560808201518160030155905050610afa33600854600160405180602001604052806000815250611a29565b60086000815480929190610b0d90613803565b91905055508080610b1d90613803565b915050610a2f565b505050505050565b6000600854905090565b610b3f61123e565b73ffffffffffffffffffffffffffffffffffffffff16610b5d610cae565b73ffffffffffffffffffffffffffffffffffffffff1614610bb3576040517f08c379a0000000000000000000000000000000000000000000000000000000008152600401610baa90613898565b60405180910390fd5b610bbd6000611bbf565b565b610bca33838361155a565b5050565b610bd661123e565b73ffffffffffffffffffffffffffffffffffffffff16610bf4610cae565b73ffffffffffffffffffffffffffffffffffffffff1614610c4a576040517f08c379a0000000000000000000000000000000000000000000000000000000008152600401610c4190613898565b60405180910390fd5b80600560008481526020019081526020016000209080519060200190610c7192919061270f565b50817f6bb7ff708619ba0610cba295a58592e0451dee2622938c8755667688daf3529b82604051610ca29190612a4d565b60405180910390a25050565b6000600360009054906101000a900473ffffffffffffffffffffffffffffffffffffffff16905090565b60078054610ce59061364f565b80601f0160208091040260200160405190810160405280929190818152602001828054610d119061364f565b8015610d5e5780601f10610d3357610100808354040283529160200191610d5e565b820191906000526020600020905b815481529060010190602001808311610d4157829003601f168201915b505050505081565b610d78610d7161123e565b8383611c85565b5050565b610d87338383611df2565b5050565b610d93612795565b600460008381526020019081526020016000206040518060a0016040529081600082015481526020016001820160009054906101000a900460ff1660ff1660ff1681526020016001820160019054906101000a900460ff1660ff1660ff168152602001600282015481526020016003820154815250509050919050565b60056020528060005260406000206000915090508054610e2f9061364f565b80601f0160208091040260200160405190810160405280929190818152602001828054610e5b9061364f565b8015610ea85780601f10610e7d57610100808354040283529160200191610ea8565b820191906000526020600020905b815481529060010190602001808311610e8b57829003601f168201915b505050505081565b610eb861123e565b73ffffffffffffffffffffffffffffffffffffffff16610ed6610cae565b73ffffffffffffffffffffffffffffffffffffffff1614610f2c576040517f08c379a0000000000000000000000000000000000000000000000000000000008152600401610f2390613898565b60405180910390fd5b610f478383836040518060200160405280600081525061180b565b505050565b6000600160008473ffffffffffffffffffffffffffffffffffffffff1673ffffffffffffffffffffffffffffffffffffffff16815260200190815260200160002060008373ffffffffffffffffffffffffffffffffffffffff1673ffffffffffffffffffffffffffffffffffffffff16815260200190815260200160002060009054906101000a900460ff16905092915050565b610fe861123e565b73ffffffffffffffffffffffffffffffffffffffff168573ffffffffffffffffffffffffffffffffffffffff16148061102e575061102d8561102861123e565b610f4c565b5b61106d576040517f08c379a00000000000000000000000000000000000000000000000000000000081526004016110649061392a565b60405180910390fd5b61107a858585858561200f565b5050505050565b61108961123e565b73ffffffffffffffffffffffffffffffffffffffff166110a7610cae565b73ffffffffffffffffffffffffffffffffffffffff16146110fd576040517f08c379a00000000000000000000000000000000000000000000000000000000081526004016110f490613898565b60405180910390fd5b600073ffffffffffffffffffffffffffffffffffffffff168173ffffffffffffffffffffffffffffffffffffffff16141561116d576040517f08c379a0000000000000000000000000000000000000000000000000000000008152600401611164906139bc565b60405180910390fd5b61117681611bbf565b50565b600060046000838152602001908152602001600020905042816003015482600201546111a591906139dc565b116111af57600080fd5b4260046000848152602001908152602001600020600201819055505050565b60085481565b60007f01ffc9a7000000000000000000000000000000000000000000000000000000007bffffffffffffffffffffffffffffffffffffffffffffffffffffffff1916827bffffffffffffffffffffffffffffffffffffffffffffffffffffffff1916149050919050565b600033905090565b815183511461128a576040517f08c379a000000000000000000000000000000000000000000000000000000000815260040161128190613aa4565b60405180910390fd5b600073ffffffffffffffffffffffffffffffffffffffff168473ffffffffffffffffffffffffffffffffffffffff1614156112fa576040517f08c379a00000000000000000000000000000000000000000000000000000000081526004016112f190613b36565b60405180910390fd5b600061130461123e565b9050611314818787878787612291565b60005b84518110156114c5576000858281518110611335576113346137a5565b5b602002602001015190506000858381518110611354576113536137a5565b5b60200260200101519050600080600084815260200190815260200160002060008b73ffffffffffffffffffffffffffffffffffffffff1673ffffffffffffffffffffffffffffffffffffffff168152602001908152602001600020549050818110156113f5576040517f08c379a00000000000000000000000000000000000000000000000000000000081526004016113ec90613bc8565b60405180910390fd5b81810360008085815260200190815260200160002060008c73ffffffffffffffffffffffffffffffffffffffff1673ffffffffffffffffffffffffffffffffffffffff168152602001908152602001600020819055508160008085815260200190815260200160002060008b73ffffffffffffffffffffffffffffffffffffffff1673ffffffffffffffffffffffffffffffffffffffff16815260200190815260200160002060008282546114aa91906139dc565b92505081905550505050806114be90613803565b9050611317565b508473ffffffffffffffffffffffffffffffffffffffff168673ffffffffffffffffffffffffffffffffffffffff168273ffffffffffffffffffffffffffffffffffffffff167f4a39dc06d4c0dbc64b70af90fd698a233a518aa5d07e595d983b8c0526c8f7fb878760405161153c929190613be8565b60405180910390a46115528187878787876122d2565b505050505050565b600073ffffffffffffffffffffffffffffffffffffffff168373ffffffffffffffffffffffffffffffffffffffff1614156115ca576040517f08c379a00000000000000000000000000000000000000000000000000000000081526004016115c190613c91565b60405180910390fd5b805182511461160e576040517f08c379a000000000000000000000000000000000000000000000000000000000815260040161160590613aa4565b60405180910390fd5b600061161861123e565b905061163881856000868660405180602001604052806000815250612291565b60005b8351811015611785576000848281518110611659576116586137a5565b5b602002602001015190506000848381518110611678576116776137a5565b5b60200260200101519050600080600084815260200190815260200160002060008973ffffffffffffffffffffffffffffffffffffffff1673ffffffffffffffffffffffffffffffffffffffff16815260200190815260200160002054905081811015611719576040517f08c379a000000000000000000000000000000000000000000000000000000000815260040161171090613d23565b60405180910390fd5b81810360008085815260200190815260200160002060008a73ffffffffffffffffffffffffffffffffffffffff1673ffffffffffffffffffffffffffffffffffffffff16815260200190815260200160002081905550505050808061177d90613803565b91505061163b565b50600073ffffffffffffffffffffffffffffffffffffffff168473ffffffffffffffffffffffffffffffffffffffff168273ffffffffffffffffffffffffffffffffffffffff167f4a39dc06d4c0dbc64b70af90fd698a233a518aa5d07e595d983b8c0526c8f7fb86866040516117fd929190613be8565b60405180910390a450505050565b600073ffffffffffffffffffffffffffffffffffffffff168473ffffffffffffffffffffffffffffffffffffffff16141561187b576040517f08c379a000000000000000000000000000000000000000000000000000000000815260040161187290613db5565b60405180910390fd5b81518351146118bf576040517f08c379a00000000000000000000000000000000000000000000000000000000081526004016118b690613aa4565b60405180910390fd5b60006118c961123e565b90506118da81600087878787612291565b60005b8451811015611993578381815181106118f9576118f86137a5565b5b6020026020010151600080878481518110611917576119166137a5565b5b6020026020010151815260200190815260200160002060008873ffffffffffffffffffffffffffffffffffffffff1673ffffffffffffffffffffffffffffffffffffffff168152602001908152602001600020600082825461197991906139dc565b92505081905550808061198b90613803565b9150506118dd565b508473ffffffffffffffffffffffffffffffffffffffff16600073ffffffffffffffffffffffffffffffffffffffff168273ffffffffffffffffffffffffffffffffffffffff167f4a39dc06d4c0dbc64b70af90fd698a233a518aa5d07e595d983b8c0526c8f7fb8787604051611a0b929190613be8565b60405180910390a4611a22816000878787876122d2565b5050505050565b600073ffffffffffffffffffffffffffffffffffffffff168473ffffffffffffffffffffffffffffffffffffffff161415611a99576040517f08c379a0000000000000000000000000000000000000000000000000000000008152600401611a9090613db5565b60405180910390fd5b6000611aa361123e565b9050611ac481600087611ab5886124aa565b611abe886124aa565b87612291565b8260008086815260200190815260200160002060008773ffffffffffffffffffffffffffffffffffffffff1673ffffffffffffffffffffffffffffffffffffffff1681526020019081526020016000206000828254611b2391906139dc565b925050819055508473ffffffffffffffffffffffffffffffffffffffff16600073ffffffffffffffffffffffffffffffffffffffff168273ffffffffffffffffffffffffffffffffffffffff167fc3d58168c5ae7397731d063d5bbf3d657854427343f4c083240f7aacaa2d0f628787604051611ba1929190613dd5565b60405180910390a4611bb881600087878787612524565b5050505050565b6000600360009054906101000a900473ffffffffffffffffffffffffffffffffffffffff16905081600360006101000a81548173ffffffffffffffffffffffffffffffffffffffff021916908373ffffffffffffffffffffffffffffffffffffffff1602179055508173ffffffffffffffffffffffffffffffffffffffff168173ffffffffffffffffffffffffffffffffffffffff167f8be0079c531659141344cd1fd0a4f28419497f9722a3daafe3b4186f6b6457e060405160405180910390a35050565b8173ffffffffffffffffffffffffffffffffffffffff168373ffffffffffffffffffffffffffffffffffffffff161415611cf4576040517f08c379a0000000000000000000000000000000000000000000000000000000008152600401611ceb90613e70565b60405180910390fd5b80600160008573ffffffffffffffffffffffffffffffffffffffff1673ffffffffffffffffffffffffffffffffffffffff16815260200190815260200160002060008473ffffffffffffffffffffffffffffffffffffffff1673ffffffffffffffffffffffffffffffffffffffff16815260200190815260200160002060006101000a81548160ff0219169083151502179055508173ffffffffffffffffffffffffffffffffffffffff168373ffffffffffffffffffffffffffffffffffffffff167f17307eab39ab6107e8899845ad3d59bd9653f200f220920489ca2b5937696c3183604051611de59190612999565b60405180910390a3505050565b600073ffffffffffffffffffffffffffffffffffffffff168373ffffffffffffffffffffffffffffffffffffffff161415611e62576040517f08c379a0000000000000000000000000000000000000000000000000000000008152600401611e5990613c91565b60405180910390fd5b6000611e6c61123e565b9050611e9c81856000611e7e876124aa565b611e87876124aa565b60405180602001604052806000815250612291565b600080600085815260200190815260200160002060008673ffffffffffffffffffffffffffffffffffffffff1673ffffffffffffffffffffffffffffffffffffffff16815260200190815260200160002054905082811015611f33576040517f08c379a0000000000000000000000000000000000000000000000000000000008152600401611f2a90613d23565b60405180910390fd5b82810360008086815260200190815260200160002060008773ffffffffffffffffffffffffffffffffffffffff1673ffffffffffffffffffffffffffffffffffffffff16815260200190815260200160002081905550600073ffffffffffffffffffffffffffffffffffffffff168573ffffffffffffffffffffffffffffffffffffffff168373ffffffffffffffffffffffffffffffffffffffff167fc3d58168c5ae7397731d063d5bbf3d657854427343f4c083240f7aacaa2d0f628787604051612000929190613dd5565b60405180910390a45050505050565b600073ffffffffffffffffffffffffffffffffffffffff168473ffffffffffffffffffffffffffffffffffffffff16141561207f576040517f08c379a000000000000000000000000000000000000000000000000000000000815260040161207690613b36565b60405180910390fd5b600061208961123e565b90506120a981878761209a886124aa565b6120a3886124aa565b87612291565b600080600086815260200190815260200160002060008873ffffffffffffffffffffffffffffffffffffffff1673ffffffffffffffffffffffffffffffffffffffff16815260200190815260200160002054905083811015612140576040517f08c379a000000000000000000000000000000000000000000000000000000000815260040161213790613bc8565b60405180910390fd5b83810360008087815260200190815260200160002060008973ffffffffffffffffffffffffffffffffffffffff1673ffffffffffffffffffffffffffffffffffffffff168152602001908152602001600020819055508360008087815260200190815260200160002060008873ffffffffffffffffffffffffffffffffffffffff1673ffffffffffffffffffffffffffffffffffffffff16815260200190815260200160002060008282546121f591906139dc565b925050819055508573ffffffffffffffffffffffffffffffffffffffff168773ffffffffffffffffffffffffffffffffffffffff168373ffffffffffffffffffffffffffffffffffffffff167fc3d58168c5ae7397731d063d5bbf3d657854427343f4c083240f7aacaa2d0f628888604051612272929190613dd5565b60405180910390a4612288828888888888612524565b50505050505050565b6000600460006008548152602001908152602001600020905042816003015482600201546122bf91906139dc565b116122c957600080fd5b50505050505050565b6122f18473ffffffffffffffffffffffffffffffffffffffff166126fc565b156124a2578373ffffffffffffffffffffffffffffffffffffffff1663bc197c8187878686866040518663ffffffff1660e01b8152600401612337959493929190613ee5565b6020604051808303816000875af192505050801561237357506040513d601f19601f820116820180604052508101906123709190613f62565b60015b6124195761237f613f9c565b806308c379a014156123dc5750612394613fbe565b8061239f57506123de565b806040517f08c379a00000000000000000000000000000000000000000000000000000000081526004016123d39190612a4d565b60405180910390fd5b505b6040517f08c379a0000000000000000000000000000000000000000000000000000000008152600401612410906140c6565b60405180910390fd5b63bc197c8160e01b7bffffffffffffffffffffffffffffffffffffffffffffffffffffffff1916817bffffffffffffffffffffffffffffffffffffffffffffffffffffffff1916146124a0576040517f08c379a000000000000000000000000000000000000000000000000000000000815260040161249790614158565b60405180910390fd5b505b505050505050565b60606000600167ffffffffffffffff8111156124c9576124c8612aa1565b5b6040519080825280602002602001820160405280156124f75781602001602082028036833780820191505090505b509050828160008151811061250f5761250e6137a5565b5b60200260200101818152505080915050919050565b6125438473ffffffffffffffffffffffffffffffffffffffff166126fc565b156126f4578373ffffffffffffffffffffffffffffffffffffffff1663f23a6e6187878686866040518663ffffffff1660e01b8152600401612589959493929190614178565b6020604051808303816000875af19250505080156125c557506040513d601f19601f820116820180604052508101906125c29190613f62565b60015b61266b576125d1613f9c565b806308c379a0141561262e57506125e6613fbe565b806125f15750612630565b806040517f08c379a00000000000000000000000000000000000000000000000000000000081526004016126259190612a4d565b60405180910390fd5b505b6040517f08c379a0000000000000000000000000000000000000000000000000000000008152600401612662906140c6565b60405180910390fd5b63f23a6e6160e01b7bffffffffffffffffffffffffffffffffffffffffffffffffffffffff1916817bffffffffffffffffffffffffffffffffffffffffffffffffffffffff1916146126f2576040517f08c379a00000000000000000000000000000000000000000000000000000000081526004016126e990614158565b60405180910390fd5b505b505050505050565b600080823b905060008111915050919050565b82805461271b9061364f565b90600052602060002090601f01602090048101928261273d5760008555612784565b82601f1061275657805160ff1916838001178555612784565b82800160010185558215612784579182015b82811115612783578251825591602001919060010190612768565b5b50905061279191906127ca565b5090565b6040518060a0016040528060008152602001600060ff168152602001600060ff16815260200160008152602001600081525090565b5b808211156127e35760008160009055506001016127cb565b5090565b6000604051905090565b600080fd5b600080fd5b600073ffffffffffffffffffffffffffffffffffffffff82169050919050565b6000612826826127fb565b9050919050565b6128368161281b565b811461284157600080fd5b50565b6000813590506128538161282d565b92915050565b6000819050919050565b61286c81612859565b811461287757600080fd5b50565b60008135905061288981612863565b92915050565b600080604083850312156128a6576128a56127f1565b5b60006128b485828601612844565b92505060206128c58582860161287a565b9150509250929050565b6128d881612859565b82525050565b60006020820190506128f360008301846128cf565b92915050565b60007fffffffff0000000000000000000000000000000000000000000000000000000082169050919050565b61292e816128f9565b811461293957600080fd5b50565b60008135905061294b81612925565b92915050565b600060208284031215612967576129666127f1565b5b60006129758482850161293c565b91505092915050565b60008115159050919050565b6129938161297e565b82525050565b60006020820190506129ae600083018461298a565b92915050565b600081519050919050565b600082825260208201905092915050565b60005b838110156129ee5780820151818401526020810190506129d3565b838111156129fd576000848401525b50505050565b6000601f19601f8301169050919050565b6000612a1f826129b4565b612a2981856129bf565b9350612a398185602086016129d0565b612a4281612a03565b840191505092915050565b60006020820190508181036000830152612a678184612a14565b905092915050565b600060208284031215612a8557612a846127f1565b5b6000612a938482850161287a565b91505092915050565b600080fd5b7f4e487b7100000000000000000000000000000000000000000000000000000000600052604160045260246000fd5b612ad982612a03565b810181811067ffffffffffffffff82111715612af857612af7612aa1565b5b80604052505050565b6000612b0b6127e7565b9050612b178282612ad0565b919050565b600067ffffffffffffffff821115612b3757612b36612aa1565b5b602082029050602081019050919050565b600080fd5b6000612b60612b5b84612b1c565b612b01565b90508083825260208201905060208402830185811115612b8357612b82612b48565b5b835b81811015612bac5780612b98888261287a565b845260208401935050602081019050612b85565b5050509392505050565b600082601f830112612bcb57612bca612a9c565b5b8135612bdb848260208601612b4d565b91505092915050565b600080fd5b600067ffffffffffffffff821115612c0457612c03612aa1565b5b612c0d82612a03565b9050602081019050919050565b82818337600083830152505050565b6000612c3c612c3784612be9565b612b01565b905082815260208101848484011115612c5857612c57612be4565b5b612c63848285612c1a565b509392505050565b600082601f830112612c8057612c7f612a9c565b5b8135612c90848260208601612c29565b91505092915050565b600080600080600060a08688031215612cb557612cb46127f1565b5b6000612cc388828901612844565b9550506020612cd488828901612844565b945050604086013567ffffffffffffffff811115612cf557612cf46127f6565b5b612d0188828901612bb6565b935050606086013567ffffffffffffffff811115612d2257612d216127f6565b5b612d2e88828901612bb6565b925050608086013567ffffffffffffffff811115612d4f57612d4e6127f6565b5b612d5b88828901612c6b565b9150509295509295909350565b600067ffffffffffffffff821115612d8357612d82612aa1565b5b602082029050602081019050919050565b6000612da7612da284612d68565b612b01565b90508083825260208201905060208402830185811115612dca57612dc9612b48565b5b835b81811015612df35780612ddf8882612844565b845260208401935050602081019050612dcc565b5050509392505050565b600082601f830112612e1257612e11612a9c565b5b8135612e22848260208601612d94565b91505092915050565b60008060408385031215612e4257612e416127f1565b5b600083013567ffffffffffffffff811115612e6057612e5f6127f6565b5b612e6c85828601612dfd565b925050602083013567ffffffffffffffff811115612e8d57612e8c6127f6565b5b612e9985828601612bb6565b9150509250929050565b600081519050919050565b600082825260208201905092915050565b6000819050602082019050919050565b612ed881612859565b82525050565b6000612eea8383612ecf565b60208301905092915050565b6000602082019050919050565b6000612f0e82612ea3565b612f188185612eae565b9350612f2383612ebf565b8060005b83811015612f54578151612f3b8882612ede565b9750612f4683612ef6565b925050600181019050612f27565b5085935050505092915050565b60006020820190508181036000830152612f7b8184612f03565b905092915050565b600080600080600060a08688031215612f9f57612f9e6127f1565b5b6000612fad88828901612844565b955050602086013567ffffffffffffffff811115612fce57612fcd6127f6565b5b612fda88828901612bb6565b945050604086013567ffffffffffffffff811115612ffb57612ffa6127f6565b5b61300788828901612bb6565b935050606086013567ffffffffffffffff811115613028576130276127f6565b5b61303488828901612bb6565b925050608086013567ffffffffffffffff811115613055576130546127f6565b5b61306188828901612bb6565b9150509295509295909350565b600060ff82169050919050565b6130848161306e565b811461308f57600080fd5b50565b6000813590506130a18161307b565b92915050565b600080600080600060a086880312156130c3576130c26127f1565b5b60006130d18882890161287a565b95505060206130e28882890161287a565b94505060406130f388828901613092565b935050606061310488828901613092565b92505060806131158882890161287a565b9150509295509295909350565b60008060408385031215613139576131386127f1565b5b600083013567ffffffffffffffff811115613157576131566127f6565b5b61316385828601612bb6565b925050602083013567ffffffffffffffff811115613184576131836127f6565b5b61319085828601612bb6565b9150509250929050565b600067ffffffffffffffff8211156131b5576131b4612aa1565b5b6131be82612a03565b9050602081019050919050565b60006131de6131d98461319a565b612b01565b9050828152602081018484840111156131fa576131f9612be4565b5b613205848285612c1a565b509392505050565b600082601f83011261322257613221612a9c565b5b81356132328482602086016131cb565b91505092915050565b60008060408385031215613252576132516127f1565b5b60006132608582860161287a565b925050602083013567ffffffffffffffff811115613281576132806127f6565b5b61328d8582860161320d565b9150509250929050565b6132a08161281b565b82525050565b60006020820190506132bb6000830184613297565b92915050565b6132ca8161297e565b81146132d557600080fd5b50565b6000813590506132e7816132c1565b92915050565b60008060408385031215613304576133036127f1565b5b600061331285828601612844565b9250506020613323858286016132d8565b9150509250929050565b60008060408385031215613344576133436127f1565b5b60006133528582860161287a565b92505060206133638582860161287a565b9150509250929050565b6133768161306e565b82525050565b60a0820160008201516133926000850182612ecf565b5060208201516133a5602085018261336d565b5060408201516133b8604085018261336d565b5060608201516133cb6060850182612ecf565b5060808201516133de6080850182612ecf565b50505050565b600060a0820190506133f9600083018461337c565b92915050565b600080600060608486031215613418576134176127f1565b5b600061342686828701612844565b935050602084013567ffffffffffffffff811115613447576134466127f6565b5b61345386828701612bb6565b925050604084013567ffffffffffffffff811115613474576134736127f6565b5b61348086828701612bb6565b9150509250925092565b600080604083850312156134a1576134a06127f1565b5b60006134af85828601612844565b92505060206134c085828601612844565b9150509250929050565b600080600080600060a086880312156134e6576134e56127f1565b5b60006134f488828901612844565b955050602061350588828901612844565b94505060406135168882890161287a565b93505060606135278882890161287a565b925050608086013567ffffffffffffffff811115613548576135476127f6565b5b61355488828901612c6b565b9150509295509295909350565b600060208284031215613577576135766127f1565b5b600061358584828501612844565b91505092915050565b7f455243313135353a2062616c616e636520717565727920666f7220746865207a60008201527f65726f2061646472657373000000000000000000000000000000000000000000602082015250565b60006135ea602b836129bf565b91506135f58261358e565b604082019050919050565b60006020820190508181036000830152613619816135dd565b9050919050565b7f4e487b7100000000000000000000000000000000000000000000000000000000600052602260045260246000fd5b6000600282049050600182168061366757607f821691505b6020821081141561367b5761367a613620565b5b50919050565b7f455243313135353a207472616e736665722063616c6c6572206973206e6f742060008201527f6f776e6572206e6f7220617070726f7665640000000000000000000000000000602082015250565b60006136dd6032836129bf565b91506136e882613681565b604082019050919050565b6000602082019050818103600083015261370c816136d0565b9050919050565b7f455243313135353a206163636f756e747320616e6420696473206c656e67746860008201527f206d69736d617463680000000000000000000000000000000000000000000000602082015250565b600061376f6029836129bf565b915061377a82613713565b604082019050919050565b6000602082019050818103600083015261379e81613762565b9050919050565b7f4e487b7100000000000000000000000000000000000000000000000000000000600052603260045260246000fd5b7f4e487b7100000000000000000000000000000000000000000000000000000000600052601160045260246000fd5b600061380e82612859565b91507fffffffffffffffffffffffffffffffffffffffffffffffffffffffffffffffff821415613841576138406137d4565b5b600182019050919050565b7f4f776e61626c653a2063616c6c6572206973206e6f7420746865206f776e6572600082015250565b60006138826020836129bf565b915061388d8261384c565b602082019050919050565b600060208201905081810360008301526138b181613875565b9050919050565b7f455243313135353a2063616c6c6572206973206e6f74206f776e6572206e6f7260008201527f20617070726f7665640000000000000000000000000000000000000000000000602082015250565b60006139146029836129bf565b915061391f826138b8565b604082019050919050565b6000602082019050818103600083015261394381613907565b9050919050565b7f4f776e61626c653a206e6577206f776e657220697320746865207a65726f206160008201527f6464726573730000000000000000000000000000000000000000000000000000602082015250565b60006139a66026836129bf565b91506139b18261394a565b604082019050919050565b600060208201905081810360008301526139d581613999565b9050919050565b60006139e782612859565b91506139f283612859565b9250827fffffffffffffffffffffffffffffffffffffffffffffffffffffffffffffffff03821115613a2757613a266137d4565b5b828201905092915050565b7f455243313135353a2069647320616e6420616d6f756e7473206c656e6774682060008201527f6d69736d61746368000000000000000000000000000000000000000000000000602082015250565b6000613a8e6028836129bf565b9150613a9982613a32565b604082019050919050565b60006020820190508181036000830152613abd81613a81565b9050919050565b7f455243313135353a207472616e7366657220746f20746865207a65726f20616460008201527f6472657373000000000000000000000000000000000000000000000000000000602082015250565b6000613b206025836129bf565b9150613b2b82613ac4565b604082019050919050565b60006020820190508181036000830152613b4f81613b13565b9050919050565b7f455243313135353a20696e73756666696369656e742062616c616e636520666f60008201527f72207472616e7366657200000000000000000000000000000000000000000000602082015250565b6000613bb2602a836129bf565b9150613bbd82613b56565b604082019050919050565b60006020820190508181036000830152613be181613ba5565b9050919050565b60006040820190508181036000830152613c028185612f03565b90508181036020830152613c168184612f03565b90509392505050565b7f455243313135353a206275726e2066726f6d20746865207a65726f206164647260008201527f6573730000000000000000000000000000000000000000000000000000000000602082015250565b6000613c7b6023836129bf565b9150613c8682613c1f565b604082019050919050565b60006020820190508181036000830152613caa81613c6e565b9050919050565b7f455243313135353a206275726e20616d6f756e7420657863656564732062616c60008201527f616e636500000000000000000000000000000000000000000000000000000000602082015250565b6000613d0d6024836129bf565b9150613d1882613cb1565b604082019050919050565b60006020820190508181036000830152613d3c81613d00565b9050919050565b7f455243313135353a206d696e7420746f20746865207a65726f2061646472657360008201527f7300000000000000000000000000000000000000000000000000000000000000602082015250565b6000613d9f6021836129bf565b9150613daa82613d43565b604082019050919050565b60006020820190508181036000830152613dce81613d92565b9050919050565b6000604082019050613dea60008301856128cf565b613df760208301846128cf565b9392505050565b7f455243313135353a2073657474696e6720617070726f76616c2073746174757360008201527f20666f722073656c660000000000000000000000000000000000000000000000602082015250565b6000613e5a6029836129bf565b9150613e6582613dfe565b604082019050919050565b60006020820190508181036000830152613e8981613e4d565b9050919050565b600081519050919050565b600082825260208201905092915050565b6000613eb782613e90565b613ec18185613e9b565b9350613ed18185602086016129d0565b613eda81612a03565b840191505092915050565b600060a082019050613efa6000830188613297565b613f076020830187613297565b8181036040830152613f198186612f03565b90508181036060830152613f2d8185612f03565b90508181036080830152613f418184613eac565b90509695505050505050565b600081519050613f5c81612925565b92915050565b600060208284031215613f7857613f776127f1565b5b6000613f8684828501613f4d565b91505092915050565b60008160e01c9050919050565b600060033d1115613fbb5760046000803e613fb8600051613f8f565b90505b90565b600060443d1015613fce57614051565b613fd66127e7565b60043d036004823e80513d602482011167ffffffffffffffff82111715613ffe575050614051565b808201805167ffffffffffffffff81111561401c5750505050614051565b80602083010160043d038501811115614039575050505050614051565b61404882602001850186612ad0565b82955050505050505b90565b7f455243313135353a207472616e7366657220746f206e6f6e204552433131353560008201527f526563656976657220696d706c656d656e746572000000000000000000000000602082015250565b60006140b06034836129bf565b91506140bb82614054565b604082019050919050565b600060208201905081810360008301526140df816140a3565b9050919050565b7f455243313135353a204552433131353552656365697665722072656a6563746560008201527f6420746f6b656e73000000000000000000000000000000000000000000000000602082015250565b60006141426028836129bf565b915061414d826140e6565b604082019050919050565b6000602082019050818103600083015261417181614135565b9050919050565b600060a08201905061418d6000830188613297565b61419a6020830187613297565b6141a760408301866128cf565b6141b460608301856128cf565b81810360808301526141c68184613eac565b9050969550505050505056fea2646970667358221220980e41a9be08fff532c48e7ac10a0e6d4d12af2fdd4bde347fc6a4860f9bce7b64736f6c634300080a0033",
  "immutableReferences": {},
  "source": "// SPDX-License-Identifier: MIT\npragma solidity >=0.7.0 <0.9.0;\n\n//import 1155 token contract from Openzeppelin\nimport \"../node_modules/@openzeppelin/contracts/token/ERC1155/ERC1155.sol\";\nimport \"../node_modules/@openzeppelin/contracts/utils/math/SafeMath.sol\";\nimport \"../node_modules/@openzeppelin/contracts/access/Ownable.sol\";\n\ncontract Token is ERC1155, Ownable {\n    using SafeMath for uint256;\n\n    // Hashtro struct can be used within arrays and mappings\n    struct Hashtro {\n        uint256 id;\n        uint8 damage;\n        uint8 power;\n        uint256 lastMeal;\n        uint256 endurance; // 24 hours\n    }\n    // mapping that reference each Hashtro by their token id\n    mapping(uint256 => Hashtro) private _tokenDetails; // 0 -> however many get created\n    mapping(uint256 => string) public tokenURI;\n\n    string public name;\n    string public symbol;\n    uint256 public tokensInCirculation;\n\n    // parent ERC1155 constructor requires this\n    // https://game.example/api/item/0000000000000000000000000000000000000000000000000000000000000001.json\n    // \"ipfs://QmdRfxFBzKPdjYy94hu3KvmWkNbRvL4QLkDSSyKZZcASb4/metadata/{id}\"\n\n    constructor() ERC1155(\"ipfs://f0{id}\") {\n        name = \"Hashtros\";\n        symbol = \"HASHTROS\";\n        tokensInCirculation = 0;\n    }\n\n    function getTokenDetails(uint256 _id) public view returns (Hashtro memory) {\n        return _tokenDetails[_id];\n    }\n\n    function getTokenCirculations() public view returns (uint256) {\n        return tokensInCirculation;\n    }\n\n    function feed(uint256 tokenId) public {\n        Hashtro storage hashtro = _tokenDetails[tokenId];\n        require(hashtro.lastMeal + hashtro.endurance > block.timestamp); // must not have died of starvation; Hashtro is still alive\n        _tokenDetails[tokenId].lastMeal = block.timestamp; // update when hashtro was last fed according to block time\n    }\n\n    /*\n    function mint(\n        address to,\n        uint256 id,\n        uint256 amount,\n        bytes memory data\n        \n    )   public virtual  {\n\n        _mint(msg.sender, id, amount, data);\n    }   \n    */\n\n    // mint is our publicly exposed func, _mint is parent contract's mint func\n    function mint(\n        uint256 _id,\n        uint256 _amount,\n        uint8 _damage,\n        uint8 _power,\n        uint256 _endurance\n    ) public onlyOwner {\n        for (uint256 i = 0; i < _amount; i++) {\n            // only owner address can mint owner_address, token_id, bytecode\n            _tokenDetails[tokensInCirculation] = Hashtro(\n                _id,\n                _damage,\n                _power,\n                block.timestamp,\n                _endurance\n            );\n            _mint(msg.sender, tokensInCirculation, 1, \"\"); // <- '1' in 1155 = NFT\n            // iterate circulating tokens by minted amount above\n            tokensInCirculation++;\n        }\n    }\n\n    function mintBatch(\n        address _to,\n        uint256[] memory _ids,\n        uint256[] memory _amounts\n    ) external onlyOwner {\n        _mintBatch(_to, _ids, _amounts, \"\");\n    }\n\n    function burn(uint256 _id, uint256 _amount) external {\n        _burn(msg.sender, _id, _amount);\n    }\n\n    function burnBatch(uint256[] memory _ids, uint256[] memory _amounts)\n        external\n    {\n        _burnBatch(msg.sender, _ids, _amounts);\n    }\n\n    function burnForMint(\n        address _from,\n        uint256[] memory _burnIds,\n        uint256[] memory _burnAmounts,\n        uint256[] memory _mintIds,\n        uint256[] memory _mintAmounts\n    ) external onlyOwner {\n        _burnBatch(_from, _burnIds, _burnAmounts);\n        _mintBatch(_from, _mintIds, _mintAmounts, \"\");\n    }\n\n    function _beforeTokenTransfer(\n        address,\n        address,\n        address,\n        uint256[] memory,\n        uint256[] memory,\n        bytes memory\n    ) internal view override {\n        // cannot be transferred IF dead.\n        Hashtro storage hashtro = _tokenDetails[tokensInCirculation];\n        require(hashtro.lastMeal + hashtro.endurance > block.timestamp); // must not have died of starvation; Hashtro is still alive\n    }\n\n    function setURI(uint256 _id, string memory _uri) external onlyOwner {\n        tokenURI[_id] = _uri;\n        emit URI(_uri, _id);\n    }\n\n    /*\n    function uri(uint256 _tokenID)\n        public\n        pure\n        override\n        returns (string memory)\n    {\n        string memory hexstringtokenID;\n        hexstringtokenID = uint2hexstr(_tokenID);\n\n        return string(abi.encodePacked(\"ipfs://f0\", hexstringtokenID));\n    }\n    */\n\n    /*     function uri(uint256 _tokenID)\n        public\n        view\n        override\n        returns (string memory)\n    {\n        //return tokenURI[_tokenID];\n        return _uri;\n    }\n    */\n}\n",
  "sourcePath": "/Users/ashleydavison/dev/nft-game-sandbox/contracts/Token.sol",
  "compiler": {
    "name": "solc",
    "version": "0.8.10+commit.fc410830.Emscripten.clang"
  },
  "schemaVersion": "3.4.4",
  "updatedAt": "2022-02-11T23:16:28.213Z",
  "networkType": "ethereum",
  "devdoc": {
    "kind": "dev",
    "methods": {
      "balanceOf(address,uint256)": {
        "details": "See {IERC1155-balanceOf}. Requirements: - `account` cannot be the zero address."
      },
      "balanceOfBatch(address[],uint256[])": {
        "details": "See {IERC1155-balanceOfBatch}. Requirements: - `accounts` and `ids` must have the same length."
      },
      "isApprovedForAll(address,address)": {
        "details": "See {IERC1155-isApprovedForAll}."
      },
      "owner()": {
        "details": "Returns the address of the current owner."
      },
      "renounceOwnership()": {
        "details": "Leaves the contract without owner. It will not be possible to call `onlyOwner` functions anymore. Can only be called by the current owner. NOTE: Renouncing ownership will leave the contract without an owner, thereby removing any functionality that is only available to the owner."
      },
      "safeBatchTransferFrom(address,address,uint256[],uint256[],bytes)": {
        "details": "See {IERC1155-safeBatchTransferFrom}."
      },
      "safeTransferFrom(address,address,uint256,uint256,bytes)": {
        "details": "See {IERC1155-safeTransferFrom}."
      },
      "setApprovalForAll(address,bool)": {
        "details": "See {IERC1155-setApprovalForAll}."
      },
      "supportsInterface(bytes4)": {
        "details": "See {IERC165-supportsInterface}."
      },
      "transferOwnership(address)": {
        "details": "Transfers ownership of the contract to a new account (`newOwner`). Can only be called by the current owner."
      },
      "uri(uint256)": {
        "details": "See {IERC1155MetadataURI-uri}. This implementation returns the same URI for *all* token types. It relies on the token type ID substitution mechanism https://eips.ethereum.org/EIPS/eip-1155#metadata[defined in the EIP]. Clients calling this function must replace the `\\{id\\}` substring with the actual token type ID."
      }
    },
    "version": 1
  },
  "userdoc": {
    "kind": "user",
    "methods": {},
    "version": 1
  }
}