{
  "contractName": "Token",
  "abi": [
    {
      "inputs": [],
      "stateMutability": "nonpayable",
      "type": "constructor"
    },
    {
      "anonymous": false,
      "inputs": [
        {
          "indexed": true,
          "internalType": "address",
          "name": "account",
          "type": "address"
        },
        {
          "indexed": true,
          "internalType": "address",
          "name": "operator",
          "type": "address"
        },
        {
          "indexed": false,
          "internalType": "bool",
          "name": "approved",
          "type": "bool"
        }
      ],
      "name": "ApprovalForAll",
      "type": "event"
    },
    {
      "anonymous": false,
      "inputs": [
        {
          "indexed": true,
          "internalType": "address",
          "name": "previousOwner",
          "type": "address"
        },
        {
          "indexed": true,
          "internalType": "address",
          "name": "newOwner",
          "type": "address"
        }
      ],
      "name": "OwnershipTransferred",
      "type": "event"
    },
    {
      "anonymous": false,
      "inputs": [
        {
          "indexed": true,
          "internalType": "address",
          "name": "operator",
          "type": "address"
        },
        {
          "indexed": true,
          "internalType": "address",
          "name": "from",
          "type": "address"
        },
        {
          "indexed": true,
          "internalType": "address",
          "name": "to",
          "type": "address"
        },
        {
          "indexed": false,
          "internalType": "uint256[]",
          "name": "ids",
          "type": "uint256[]"
        },
        {
          "indexed": false,
          "internalType": "uint256[]",
          "name": "values",
          "type": "uint256[]"
        }
      ],
      "name": "TransferBatch",
      "type": "event"
    },
    {
      "anonymous": false,
      "inputs": [
        {
          "indexed": true,
          "internalType": "address",
          "name": "operator",
          "type": "address"
        },
        {
          "indexed": true,
          "internalType": "address",
          "name": "from",
          "type": "address"
        },
        {
          "indexed": true,
          "internalType": "address",
          "name": "to",
          "type": "address"
        },
        {
          "indexed": false,
          "internalType": "uint256",
          "name": "id",
          "type": "uint256"
        },
        {
          "indexed": false,
          "internalType": "uint256",
          "name": "value",
          "type": "uint256"
        }
      ],
      "name": "TransferSingle",
      "type": "event"
    },
    {
      "anonymous": false,
      "inputs": [
        {
          "indexed": false,
          "internalType": "string",
          "name": "value",
          "type": "string"
        },
        {
          "indexed": true,
          "internalType": "uint256",
          "name": "id",
          "type": "uint256"
        }
      ],
      "name": "URI",
      "type": "event"
    },
    {
      "inputs": [
        {
          "internalType": "address",
          "name": "account",
          "type": "address"
        },
        {
          "internalType": "uint256",
          "name": "id",
          "type": "uint256"
        }
      ],
      "name": "balanceOf",
      "outputs": [
        {
          "internalType": "uint256",
          "name": "",
          "type": "uint256"
        }
      ],
      "stateMutability": "view",
      "type": "function"
    },
    {
      "inputs": [
        {
          "internalType": "address[]",
          "name": "accounts",
          "type": "address[]"
        },
        {
          "internalType": "uint256[]",
          "name": "ids",
          "type": "uint256[]"
        }
      ],
      "name": "balanceOfBatch",
      "outputs": [
        {
          "internalType": "uint256[]",
          "name": "",
          "type": "uint256[]"
        }
      ],
      "stateMutability": "view",
      "type": "function"
    },
    {
      "inputs": [
        {
          "internalType": "address",
          "name": "account",
          "type": "address"
        },
        {
          "internalType": "address",
          "name": "operator",
          "type": "address"
        }
      ],
      "name": "isApprovedForAll",
      "outputs": [
        {
          "internalType": "bool",
          "name": "",
          "type": "bool"
        }
      ],
      "stateMutability": "view",
      "type": "function"
    },
    {
      "inputs": [],
      "name": "owner",
      "outputs": [
        {
          "internalType": "address",
          "name": "",
          "type": "address"
        }
      ],
      "stateMutability": "view",
      "type": "function"
    },
    {
      "inputs": [],
      "name": "renounceOwnership",
      "outputs": [],
      "stateMutability": "nonpayable",
      "type": "function"
    },
    {
      "inputs": [
        {
          "internalType": "address",
          "name": "from",
          "type": "address"
        },
        {
          "internalType": "address",
          "name": "to",
          "type": "address"
        },
        {
          "internalType": "uint256[]",
          "name": "ids",
          "type": "uint256[]"
        },
        {
          "internalType": "uint256[]",
          "name": "amounts",
          "type": "uint256[]"
        },
        {
          "internalType": "bytes",
          "name": "data",
          "type": "bytes"
        }
      ],
      "name": "safeBatchTransferFrom",
      "outputs": [],
      "stateMutability": "nonpayable",
      "type": "function"
    },
    {
      "inputs": [
        {
          "internalType": "address",
          "name": "from",
          "type": "address"
        },
        {
          "internalType": "address",
          "name": "to",
          "type": "address"
        },
        {
          "internalType": "uint256",
          "name": "id",
          "type": "uint256"
        },
        {
          "internalType": "uint256",
          "name": "amount",
          "type": "uint256"
        },
        {
          "internalType": "bytes",
          "name": "data",
          "type": "bytes"
        }
      ],
      "name": "safeTransferFrom",
      "outputs": [],
      "stateMutability": "nonpayable",
      "type": "function"
    },
    {
      "inputs": [
        {
          "internalType": "address",
          "name": "operator",
          "type": "address"
        },
        {
          "internalType": "bool",
          "name": "approved",
          "type": "bool"
        }
      ],
      "name": "setApprovalForAll",
      "outputs": [],
      "stateMutability": "nonpayable",
      "type": "function"
    },
    {
      "inputs": [
        {
          "internalType": "bytes4",
          "name": "interfaceId",
          "type": "bytes4"
        }
      ],
      "name": "supportsInterface",
      "outputs": [
        {
          "internalType": "bool",
          "name": "",
          "type": "bool"
        }
      ],
      "stateMutability": "view",
      "type": "function"
    },
    {
      "inputs": [],
      "name": "tokensInCirculation",
      "outputs": [
        {
          "internalType": "uint256",
          "name": "",
          "type": "uint256"
        }
      ],
      "stateMutability": "view",
      "type": "function"
    },
    {
      "inputs": [
        {
          "internalType": "address",
          "name": "newOwner",
          "type": "address"
        }
      ],
      "name": "transferOwnership",
      "outputs": [],
      "stateMutability": "nonpayable",
      "type": "function"
    },
    {
      "inputs": [
        {
          "internalType": "uint256",
          "name": "",
          "type": "uint256"
        }
      ],
      "name": "uri",
      "outputs": [
        {
          "internalType": "string",
          "name": "",
          "type": "string"
        }
      ],
      "stateMutability": "view",
      "type": "function"
    },
    {
      "inputs": [
        {
          "internalType": "uint256",
          "name": "tokenId",
          "type": "uint256"
        }
      ],
      "name": "getTokenDetails",
      "outputs": [
        {
          "components": [
            {
              "internalType": "uint8",
              "name": "damage",
              "type": "uint8"
            },
            {
              "internalType": "uint8",
              "name": "power",
              "type": "uint8"
            },
            {
              "internalType": "uint256",
              "name": "lastMeal",
              "type": "uint256"
            },
            {
              "internalType": "uint256",
              "name": "endurance",
              "type": "uint256"
            }
          ],
          "internalType": "struct Token.Pet",
          "name": "",
          "type": "tuple"
        }
      ],
      "stateMutability": "view",
      "type": "function"
    },
    {
      "inputs": [
        {
          "internalType": "uint256",
          "name": "amount",
          "type": "uint256"
        },
        {
          "internalType": "uint8",
          "name": "damage",
          "type": "uint8"
        },
        {
          "internalType": "uint8",
          "name": "power",
          "type": "uint8"
        },
        {
          "internalType": "uint256",
          "name": "endurance",
          "type": "uint256"
        }
      ],
      "name": "mint",
      "outputs": [],
      "stateMutability": "nonpayable",
      "type": "function"
    }
  ],
  "bytecode": "0x60806040523480156200001157600080fd5b5060405180606001604052806032815260200162003225603291396200003d816200006c60201b60201c565b506200005e620000526200008860201b60201c565b6200009060201b60201c565b60006005819055506200026b565b80600290805190602001906200008492919062000156565b5050565b600033905090565b6000600360009054906101000a900473ffffffffffffffffffffffffffffffffffffffff16905081600360006101000a81548173ffffffffffffffffffffffffffffffffffffffff021916908373ffffffffffffffffffffffffffffffffffffffff1602179055508173ffffffffffffffffffffffffffffffffffffffff168173ffffffffffffffffffffffffffffffffffffffff167f8be0079c531659141344cd1fd0a4f28419497f9722a3daafe3b4186f6b6457e060405160405180910390a35050565b828054620001649062000235565b90600052602060002090601f016020900481019282620001885760008555620001d4565b82601f10620001a357805160ff1916838001178555620001d4565b82800160010185558215620001d4579182015b82811115620001d3578251825591602001919060010190620001b6565b5b509050620001e39190620001e7565b5090565b5b8082111562000202576000816000905550600101620001e8565b5090565b7f4e487b7100000000000000000000000000000000000000000000000000000000600052602260045260246000fd5b600060028204905060018216806200024e57607f821691505b6020821081141562000265576200026462000206565b5b50919050565b612faa806200027b6000396000f3fe608060405234801561001057600080fd5b50600436106100e95760003560e01c80638da5cb5b1161008c578063e985e9c511610066578063e985e9c51461025a578063f242432a1461028a578063f2fde38b146102a6578063f5a0d6c0146102c2576100e9565b80638da5cb5b146101f0578063a22cb4651461020e578063c1e037281461022a576100e9565b80632eb2c2d6116100c85780632eb2c2d61461017e5780634e1273f41461019a578063689e26b3146101ca578063715018a6146101e6576100e9565b8062fdd58e146100ee57806301ffc9a71461011e5780630e89341c1461014e575b600080fd5b61010860048036038101906101039190611aa7565b6102e0565b6040516101159190611af6565b60405180910390f35b61013860048036038101906101339190611b69565b6103a9565b6040516101459190611bb1565b60405180910390f35b61016860048036038101906101639190611bcc565b61048b565b6040516101759190611c92565b60405180910390f35b61019860048036038101906101939190611eb1565b61051f565b005b6101b460048036038101906101af9190612043565b6105c0565b6040516101c19190612179565b60405180910390f35b6101e460048036038101906101df91906121d4565b6106d9565b005b6101ee610845565b005b6101f86108cd565b604051610205919061224a565b60405180910390f35b61022860048036038101906102239190612291565b6108f7565b005b610244600480360381019061023f9190611bcc565b61090d565b6040516102519190612335565b60405180910390f35b610274600480360381019061026f9190612350565b610988565b6040516102819190611bb1565b60405180910390f35b6102a4600480360381019061029f9190612390565b610a1c565b005b6102c060048036038101906102bb9190612427565b610abd565b005b6102ca610bb5565b6040516102d79190611af6565b60405180910390f35b60008073ffffffffffffffffffffffffffffffffffffffff168373ffffffffffffffffffffffffffffffffffffffff161415610351576040517f08c379a0000000000000000000000000000000000000000000000000000000008152600401610348906124c6565b60405180910390fd5b60008083815260200190815260200160002060008473ffffffffffffffffffffffffffffffffffffffff1673ffffffffffffffffffffffffffffffffffffffff16815260200190815260200160002054905092915050565b60007fd9b67a26000000000000000000000000000000000000000000000000000000007bffffffffffffffffffffffffffffffffffffffffffffffffffffffff1916827bffffffffffffffffffffffffffffffffffffffffffffffffffffffff1916148061047457507f0e89341c000000000000000000000000000000000000000000000000000000007bffffffffffffffffffffffffffffffffffffffffffffffffffffffff1916827bffffffffffffffffffffffffffffffffffffffffffffffffffffffff1916145b80610484575061048382610bbb565b5b9050919050565b60606002805461049a90612515565b80601f01602080910402602001604051908101604052809291908181526020018280546104c690612515565b80156105135780601f106104e857610100808354040283529160200191610513565b820191906000526020600020905b8154815290600101906020018083116104f657829003601f168201915b50505050509050919050565b610527610c25565b73ffffffffffffffffffffffffffffffffffffffff168573ffffffffffffffffffffffffffffffffffffffff16148061056d575061056c85610567610c25565b610988565b5b6105ac576040517f08c379a00000000000000000000000000000000000000000000000000000000081526004016105a3906125b9565b60405180910390fd5b6105b98585858585610c2d565b5050505050565b60608151835114610606576040517f08c379a00000000000000000000000000000000000000000000000000000000081526004016105fd9061264b565b60405180910390fd5b6000835167ffffffffffffffff81111561062357610622611cb9565b5b6040519080825280602002602001820160405280156106515781602001602082028036833780820191505090505b50905060005b84518110156106ce5761069e8582815181106106765761067561266b565b5b60200260200101518583815181106106915761069061266b565b5b60200260200101516102e0565b8282815181106106b1576106b061266b565b5b602002602001018181525050806106c7906126c9565b9050610657565b508091505092915050565b6106e1610c25565b73ffffffffffffffffffffffffffffffffffffffff166106ff6108cd565b73ffffffffffffffffffffffffffffffffffffffff1614610755576040517f08c379a000000000000000000000000000000000000000000000000000000000815260040161074c9061275e565b60405180910390fd5b60005b8481101561083e5760405180608001604052808560ff1681526020018460ff1681526020014281526020018381525060046000600554815260200190815260200160002060008201518160000160006101000a81548160ff021916908360ff16021790555060208201518160000160016101000a81548160ff021916908360ff160217905550604082015181600101556060820151816002015590505061081333600554600160405180602001604052806000815250610f41565b60056000815480929190610826906126c9565b91905055508080610836906126c9565b915050610758565b5050505050565b61084d610c25565b73ffffffffffffffffffffffffffffffffffffffff1661086b6108cd565b73ffffffffffffffffffffffffffffffffffffffff16146108c1576040517f08c379a00000000000000000000000000000000000000000000000000000000081526004016108b89061275e565b60405180910390fd5b6108cb60006110d7565b565b6000600360009054906101000a900473ffffffffffffffffffffffffffffffffffffffff16905090565b610909610902610c25565b838361119d565b5050565b6109156119d1565b600460008381526020019081526020016000206040518060800160405290816000820160009054906101000a900460ff1660ff1660ff1681526020016000820160019054906101000a900460ff1660ff1660ff168152602001600182015481526020016002820154815250509050919050565b6000600160008473ffffffffffffffffffffffffffffffffffffffff1673ffffffffffffffffffffffffffffffffffffffff16815260200190815260200160002060008373ffffffffffffffffffffffffffffffffffffffff1673ffffffffffffffffffffffffffffffffffffffff16815260200190815260200160002060009054906101000a900460ff16905092915050565b610a24610c25565b73ffffffffffffffffffffffffffffffffffffffff168573ffffffffffffffffffffffffffffffffffffffff161480610a6a5750610a6985610a64610c25565b610988565b5b610aa9576040517f08c379a0000000000000000000000000000000000000000000000000000000008152600401610aa0906127f0565b60405180910390fd5b610ab6858585858561130a565b5050505050565b610ac5610c25565b73ffffffffffffffffffffffffffffffffffffffff16610ae36108cd565b73ffffffffffffffffffffffffffffffffffffffff1614610b39576040517f08c379a0000000000000000000000000000000000000000000000000000000008152600401610b309061275e565b60405180910390fd5b600073ffffffffffffffffffffffffffffffffffffffff168173ffffffffffffffffffffffffffffffffffffffff161415610ba9576040517f08c379a0000000000000000000000000000000000000000000000000000000008152600401610ba090612882565b60405180910390fd5b610bb2816110d7565b50565b60055481565b60007f01ffc9a7000000000000000000000000000000000000000000000000000000007bffffffffffffffffffffffffffffffffffffffffffffffffffffffff1916827bffffffffffffffffffffffffffffffffffffffffffffffffffffffff1916149050919050565b600033905090565b8151835114610c71576040517f08c379a0000000000000000000000000000000000000000000000000000000008152600401610c6890612914565b60405180910390fd5b600073ffffffffffffffffffffffffffffffffffffffff168473ffffffffffffffffffffffffffffffffffffffff161415610ce1576040517f08c379a0000000000000000000000000000000000000000000000000000000008152600401610cd8906129a6565b60405180910390fd5b6000610ceb610c25565b9050610cfb81878787878761158c565b60005b8451811015610eac576000858281518110610d1c57610d1b61266b565b5b602002602001015190506000858381518110610d3b57610d3a61266b565b5b60200260200101519050600080600084815260200190815260200160002060008b73ffffffffffffffffffffffffffffffffffffffff1673ffffffffffffffffffffffffffffffffffffffff16815260200190815260200160002054905081811015610ddc576040517f08c379a0000000000000000000000000000000000000000000000000000000008152600401610dd390612a38565b60405180910390fd5b81810360008085815260200190815260200160002060008c73ffffffffffffffffffffffffffffffffffffffff1673ffffffffffffffffffffffffffffffffffffffff168152602001908152602001600020819055508160008085815260200190815260200160002060008b73ffffffffffffffffffffffffffffffffffffffff1673ffffffffffffffffffffffffffffffffffffffff1681526020019081526020016000206000828254610e919190612a58565b9250508190555050505080610ea5906126c9565b9050610cfe565b508473ffffffffffffffffffffffffffffffffffffffff168673ffffffffffffffffffffffffffffffffffffffff168273ffffffffffffffffffffffffffffffffffffffff167f4a39dc06d4c0dbc64b70af90fd698a233a518aa5d07e595d983b8c0526c8f7fb8787604051610f23929190612aae565b60405180910390a4610f39818787878787611594565b505050505050565b600073ffffffffffffffffffffffffffffffffffffffff168473ffffffffffffffffffffffffffffffffffffffff161415610fb1576040517f08c379a0000000000000000000000000000000000000000000000000000000008152600401610fa890612b57565b60405180910390fd5b6000610fbb610c25565b9050610fdc81600087610fcd8861176c565b610fd68861176c565b8761158c565b8260008086815260200190815260200160002060008773ffffffffffffffffffffffffffffffffffffffff1673ffffffffffffffffffffffffffffffffffffffff168152602001908152602001600020600082825461103b9190612a58565b925050819055508473ffffffffffffffffffffffffffffffffffffffff16600073ffffffffffffffffffffffffffffffffffffffff168273ffffffffffffffffffffffffffffffffffffffff167fc3d58168c5ae7397731d063d5bbf3d657854427343f4c083240f7aacaa2d0f6287876040516110b9929190612b77565b60405180910390a46110d0816000878787876117e6565b5050505050565b6000600360009054906101000a900473ffffffffffffffffffffffffffffffffffffffff16905081600360006101000a81548173ffffffffffffffffffffffffffffffffffffffff021916908373ffffffffffffffffffffffffffffffffffffffff1602179055508173ffffffffffffffffffffffffffffffffffffffff168173ffffffffffffffffffffffffffffffffffffffff167f8be0079c531659141344cd1fd0a4f28419497f9722a3daafe3b4186f6b6457e060405160405180910390a35050565b8173ffffffffffffffffffffffffffffffffffffffff168373ffffffffffffffffffffffffffffffffffffffff16141561120c576040517f08c379a000000000000000000000000000000000000000000000000000000000815260040161120390612c12565b60405180910390fd5b80600160008573ffffffffffffffffffffffffffffffffffffffff1673ffffffffffffffffffffffffffffffffffffffff16815260200190815260200160002060008473ffffffffffffffffffffffffffffffffffffffff1673ffffffffffffffffffffffffffffffffffffffff16815260200190815260200160002060006101000a81548160ff0219169083151502179055508173ffffffffffffffffffffffffffffffffffffffff168373ffffffffffffffffffffffffffffffffffffffff167f17307eab39ab6107e8899845ad3d59bd9653f200f220920489ca2b5937696c31836040516112fd9190611bb1565b60405180910390a3505050565b600073ffffffffffffffffffffffffffffffffffffffff168473ffffffffffffffffffffffffffffffffffffffff16141561137a576040517f08c379a0000000000000000000000000000000000000000000000000000000008152600401611371906129a6565b60405180910390fd5b6000611384610c25565b90506113a48187876113958861176c565b61139e8861176c565b8761158c565b600080600086815260200190815260200160002060008873ffffffffffffffffffffffffffffffffffffffff1673ffffffffffffffffffffffffffffffffffffffff1681526020019081526020016000205490508381101561143b576040517f08c379a000000000000000000000000000000000000000000000000000000000815260040161143290612a38565b60405180910390fd5b83810360008087815260200190815260200160002060008973ffffffffffffffffffffffffffffffffffffffff1673ffffffffffffffffffffffffffffffffffffffff168152602001908152602001600020819055508360008087815260200190815260200160002060008873ffffffffffffffffffffffffffffffffffffffff1673ffffffffffffffffffffffffffffffffffffffff16815260200190815260200160002060008282546114f09190612a58565b925050819055508573ffffffffffffffffffffffffffffffffffffffff168773ffffffffffffffffffffffffffffffffffffffff168373ffffffffffffffffffffffffffffffffffffffff167fc3d58168c5ae7397731d063d5bbf3d657854427343f4c083240f7aacaa2d0f62888860405161156d929190612b77565b60405180910390a46115838288888888886117e6565b50505050505050565b505050505050565b6115b38473ffffffffffffffffffffffffffffffffffffffff166119be565b15611764578373ffffffffffffffffffffffffffffffffffffffff1663bc197c8187878686866040518663ffffffff1660e01b81526004016115f9959493929190612c87565b6020604051808303816000875af192505050801561163557506040513d601f19601f820116820180604052508101906116329190612d04565b60015b6116db57611641612d3e565b806308c379a0141561169e5750611656612d60565b8061166157506116a0565b806040517f08c379a00000000000000000000000000000000000000000000000000000000081526004016116959190611c92565b60405180910390fd5b505b6040517f08c379a00000000000000000000000000000000000000000000000000000000081526004016116d290612e68565b60405180910390fd5b63bc197c8160e01b7bffffffffffffffffffffffffffffffffffffffffffffffffffffffff1916817bffffffffffffffffffffffffffffffffffffffffffffffffffffffff191614611762576040517f08c379a000000000000000000000000000000000000000000000000000000000815260040161175990612efa565b60405180910390fd5b505b505050505050565b60606000600167ffffffffffffffff81111561178b5761178a611cb9565b5b6040519080825280602002602001820160405280156117b95781602001602082028036833780820191505090505b50905082816000815181106117d1576117d061266b565b5b60200260200101818152505080915050919050565b6118058473ffffffffffffffffffffffffffffffffffffffff166119be565b156119b6578373ffffffffffffffffffffffffffffffffffffffff1663f23a6e6187878686866040518663ffffffff1660e01b815260040161184b959493929190612f1a565b6020604051808303816000875af192505050801561188757506040513d601f19601f820116820180604052508101906118849190612d04565b60015b61192d57611893612d3e565b806308c379a014156118f057506118a8612d60565b806118b357506118f2565b806040517f08c379a00000000000000000000000000000000000000000000000000000000081526004016118e79190611c92565b60405180910390fd5b505b6040517f08c379a000000000000000000000000000000000000000000000000000000000815260040161192490612e68565b60405180910390fd5b63f23a6e6160e01b7bffffffffffffffffffffffffffffffffffffffffffffffffffffffff1916817bffffffffffffffffffffffffffffffffffffffffffffffffffffffff1916146119b4576040517f08c379a00000000000000000000000000000000000000000000000000000000081526004016119ab90612efa565b60405180910390fd5b505b505050505050565b600080823b905060008111915050919050565b6040518060800160405280600060ff168152602001600060ff16815260200160008152602001600081525090565b6000604051905090565b600080fd5b600080fd5b600073ffffffffffffffffffffffffffffffffffffffff82169050919050565b6000611a3e82611a13565b9050919050565b611a4e81611a33565b8114611a5957600080fd5b50565b600081359050611a6b81611a45565b92915050565b6000819050919050565b611a8481611a71565b8114611a8f57600080fd5b50565b600081359050611aa181611a7b565b92915050565b60008060408385031215611abe57611abd611a09565b5b6000611acc85828601611a5c565b9250506020611add85828601611a92565b9150509250929050565b611af081611a71565b82525050565b6000602082019050611b0b6000830184611ae7565b92915050565b60007fffffffff0000000000000000000000000000000000000000000000000000000082169050919050565b611b4681611b11565b8114611b5157600080fd5b50565b600081359050611b6381611b3d565b92915050565b600060208284031215611b7f57611b7e611a09565b5b6000611b8d84828501611b54565b91505092915050565b60008115159050919050565b611bab81611b96565b82525050565b6000602082019050611bc66000830184611ba2565b92915050565b600060208284031215611be257611be1611a09565b5b6000611bf084828501611a92565b91505092915050565b600081519050919050565b600082825260208201905092915050565b60005b83811015611c33578082015181840152602081019050611c18565b83811115611c42576000848401525b50505050565b6000601f19601f8301169050919050565b6000611c6482611bf9565b611c6e8185611c04565b9350611c7e818560208601611c15565b611c8781611c48565b840191505092915050565b60006020820190508181036000830152611cac8184611c59565b905092915050565b600080fd5b7f4e487b7100000000000000000000000000000000000000000000000000000000600052604160045260246000fd5b611cf182611c48565b810181811067ffffffffffffffff82111715611d1057611d0f611cb9565b5b80604052505050565b6000611d236119ff565b9050611d2f8282611ce8565b919050565b600067ffffffffffffffff821115611d4f57611d4e611cb9565b5b602082029050602081019050919050565b600080fd5b6000611d78611d7384611d34565b611d19565b90508083825260208201905060208402830185811115611d9b57611d9a611d60565b5b835b81811015611dc45780611db08882611a92565b845260208401935050602081019050611d9d565b5050509392505050565b600082601f830112611de357611de2611cb4565b5b8135611df3848260208601611d65565b91505092915050565b600080fd5b600067ffffffffffffffff821115611e1c57611e1b611cb9565b5b611e2582611c48565b9050602081019050919050565b82818337600083830152505050565b6000611e54611e4f84611e01565b611d19565b905082815260208101848484011115611e7057611e6f611dfc565b5b611e7b848285611e32565b509392505050565b600082601f830112611e9857611e97611cb4565b5b8135611ea8848260208601611e41565b91505092915050565b600080600080600060a08688031215611ecd57611ecc611a09565b5b6000611edb88828901611a5c565b9550506020611eec88828901611a5c565b945050604086013567ffffffffffffffff811115611f0d57611f0c611a0e565b5b611f1988828901611dce565b935050606086013567ffffffffffffffff811115611f3a57611f39611a0e565b5b611f4688828901611dce565b925050608086013567ffffffffffffffff811115611f6757611f66611a0e565b5b611f7388828901611e83565b9150509295509295909350565b600067ffffffffffffffff821115611f9b57611f9a611cb9565b5b602082029050602081019050919050565b6000611fbf611fba84611f80565b611d19565b90508083825260208201905060208402830185811115611fe257611fe1611d60565b5b835b8181101561200b5780611ff78882611a5c565b845260208401935050602081019050611fe4565b5050509392505050565b600082601f83011261202a57612029611cb4565b5b813561203a848260208601611fac565b91505092915050565b6000806040838503121561205a57612059611a09565b5b600083013567ffffffffffffffff81111561207857612077611a0e565b5b61208485828601612015565b925050602083013567ffffffffffffffff8111156120a5576120a4611a0e565b5b6120b185828601611dce565b9150509250929050565b600081519050919050565b600082825260208201905092915050565b6000819050602082019050919050565b6120f081611a71565b82525050565b600061210283836120e7565b60208301905092915050565b6000602082019050919050565b6000612126826120bb565b61213081856120c6565b935061213b836120d7565b8060005b8381101561216c57815161215388826120f6565b975061215e8361210e565b92505060018101905061213f565b5085935050505092915050565b60006020820190508181036000830152612193818461211b565b905092915050565b600060ff82169050919050565b6121b18161219b565b81146121bc57600080fd5b50565b6000813590506121ce816121a8565b92915050565b600080600080608085870312156121ee576121ed611a09565b5b60006121fc87828801611a92565b945050602061220d878288016121bf565b935050604061221e878288016121bf565b925050606061222f87828801611a92565b91505092959194509250565b61224481611a33565b82525050565b600060208201905061225f600083018461223b565b92915050565b61226e81611b96565b811461227957600080fd5b50565b60008135905061228b81612265565b92915050565b600080604083850312156122a8576122a7611a09565b5b60006122b685828601611a5c565b92505060206122c78582860161227c565b9150509250929050565b6122da8161219b565b82525050565b6080820160008201516122f660008501826122d1565b50602082015161230960208501826122d1565b50604082015161231c60408501826120e7565b50606082015161232f60608501826120e7565b50505050565b600060808201905061234a60008301846122e0565b92915050565b6000806040838503121561236757612366611a09565b5b600061237585828601611a5c565b925050602061238685828601611a5c565b9150509250929050565b600080600080600060a086880312156123ac576123ab611a09565b5b60006123ba88828901611a5c565b95505060206123cb88828901611a5c565b94505060406123dc88828901611a92565b93505060606123ed88828901611a92565b925050608086013567ffffffffffffffff81111561240e5761240d611a0e565b5b61241a88828901611e83565b9150509295509295909350565b60006020828403121561243d5761243c611a09565b5b600061244b84828501611a5c565b91505092915050565b7f455243313135353a2062616c616e636520717565727920666f7220746865207a60008201527f65726f2061646472657373000000000000000000000000000000000000000000602082015250565b60006124b0602b83611c04565b91506124bb82612454565b604082019050919050565b600060208201905081810360008301526124df816124a3565b9050919050565b7f4e487b7100000000000000000000000000000000000000000000000000000000600052602260045260246000fd5b6000600282049050600182168061252d57607f821691505b60208210811415612541576125406124e6565b5b50919050565b7f455243313135353a207472616e736665722063616c6c6572206973206e6f742060008201527f6f776e6572206e6f7220617070726f7665640000000000000000000000000000602082015250565b60006125a3603283611c04565b91506125ae82612547565b604082019050919050565b600060208201905081810360008301526125d281612596565b9050919050565b7f455243313135353a206163636f756e747320616e6420696473206c656e67746860008201527f206d69736d617463680000000000000000000000000000000000000000000000602082015250565b6000612635602983611c04565b9150612640826125d9565b604082019050919050565b6000602082019050818103600083015261266481612628565b9050919050565b7f4e487b7100000000000000000000000000000000000000000000000000000000600052603260045260246000fd5b7f4e487b7100000000000000000000000000000000000000000000000000000000600052601160045260246000fd5b60006126d482611a71565b91507fffffffffffffffffffffffffffffffffffffffffffffffffffffffffffffffff8214156127075761270661269a565b5b600182019050919050565b7f4f776e61626c653a2063616c6c6572206973206e6f7420746865206f776e6572600082015250565b6000612748602083611c04565b915061275382612712565b602082019050919050565b600060208201905081810360008301526127778161273b565b9050919050565b7f455243313135353a2063616c6c6572206973206e6f74206f776e6572206e6f7260008201527f20617070726f7665640000000000000000000000000000000000000000000000602082015250565b60006127da602983611c04565b91506127e58261277e565b604082019050919050565b60006020820190508181036000830152612809816127cd565b9050919050565b7f4f776e61626c653a206e6577206f776e657220697320746865207a65726f206160008201527f6464726573730000000000000000000000000000000000000000000000000000602082015250565b600061286c602683611c04565b915061287782612810565b604082019050919050565b6000602082019050818103600083015261289b8161285f565b9050919050565b7f455243313135353a2069647320616e6420616d6f756e7473206c656e6774682060008201527f6d69736d61746368000000000000000000000000000000000000000000000000602082015250565b60006128fe602883611c04565b9150612909826128a2565b604082019050919050565b6000602082019050818103600083015261292d816128f1565b9050919050565b7f455243313135353a207472616e7366657220746f20746865207a65726f20616460008201527f6472657373000000000000000000000000000000000000000000000000000000602082015250565b6000612990602583611c04565b915061299b82612934565b604082019050919050565b600060208201905081810360008301526129bf81612983565b9050919050565b7f455243313135353a20696e73756666696369656e742062616c616e636520666f60008201527f72207472616e7366657200000000000000000000000000000000000000000000602082015250565b6000612a22602a83611c04565b9150612a2d826129c6565b604082019050919050565b60006020820190508181036000830152612a5181612a15565b9050919050565b6000612a6382611a71565b9150612a6e83611a71565b9250827fffffffffffffffffffffffffffffffffffffffffffffffffffffffffffffffff03821115612aa357612aa261269a565b5b828201905092915050565b60006040820190508181036000830152612ac8818561211b565b90508181036020830152612adc818461211b565b90509392505050565b7f455243313135353a206d696e7420746f20746865207a65726f2061646472657360008201527f7300000000000000000000000000000000000000000000000000000000000000602082015250565b6000612b41602183611c04565b9150612b4c82612ae5565b604082019050919050565b60006020820190508181036000830152612b7081612b34565b9050919050565b6000604082019050612b8c6000830185611ae7565b612b996020830184611ae7565b9392505050565b7f455243313135353a2073657474696e6720617070726f76616c2073746174757360008201527f20666f722073656c660000000000000000000000000000000000000000000000602082015250565b6000612bfc602983611c04565b9150612c0782612ba0565b604082019050919050565b60006020820190508181036000830152612c2b81612bef565b9050919050565b600081519050919050565b600082825260208201905092915050565b6000612c5982612c32565b612c638185612c3d565b9350612c73818560208601611c15565b612c7c81611c48565b840191505092915050565b600060a082019050612c9c600083018861223b565b612ca9602083018761223b565b8181036040830152612cbb818661211b565b90508181036060830152612ccf818561211b565b90508181036080830152612ce38184612c4e565b90509695505050505050565b600081519050612cfe81611b3d565b92915050565b600060208284031215612d1a57612d19611a09565b5b6000612d2884828501612cef565b91505092915050565b60008160e01c9050919050565b600060033d1115612d5d5760046000803e612d5a600051612d31565b90505b90565b600060443d1015612d7057612df3565b612d786119ff565b60043d036004823e80513d602482011167ffffffffffffffff82111715612da0575050612df3565b808201805167ffffffffffffffff811115612dbe5750505050612df3565b80602083010160043d038501811115612ddb575050505050612df3565b612dea82602001850186611ce8565b82955050505050505b90565b7f455243313135353a207472616e7366657220746f206e6f6e204552433131353560008201527f526563656976657220696d706c656d656e746572000000000000000000000000602082015250565b6000612e52603483611c04565b9150612e5d82612df6565b604082019050919050565b60006020820190508181036000830152612e8181612e45565b9050919050565b7f455243313135353a204552433131353552656365697665722072656a6563746560008201527f6420746f6b656e73000000000000000000000000000000000000000000000000602082015250565b6000612ee4602883611c04565b9150612eef82612e88565b604082019050919050565b60006020820190508181036000830152612f1381612ed7565b9050919050565b600060a082019050612f2f600083018861223b565b612f3c602083018761223b565b612f496040830186611ae7565b612f566060830185611ae7565b8181036080830152612f688184612c4e565b9050969550505050505056fea2646970667358221220f17132a0898a0faefcfc35b565792ddccf7356885b2d02512b6d8f484312145f64736f6c634300080a0033697066733a2f2f494e534552545f594f55525f4349445f4d455441484153482f6d657461646174612f7b69647d2e6a736f6e",
  "immutableReferences": {},
  "source": "pragma solidity >=0.7.0 <0.9.0;\n\n//import 1155 token contract from Openzeppelin\nimport \"../../node_modules/@openzeppelin/contracts/token/ERC1155/ERC1155.sol\";\nimport \"../../node_modules/@openzeppelin/contracts/utils/math/SafeMath.sol\";\nimport \"../../node_modules/@openzeppelin/contracts/access/Ownable.sol\";\n\ncontract Token is ERC1155, Ownable {\n    using SafeMath for uint256;\n\n    struct Pet {\n        uint8 damage;\n        uint8 power;\n        uint256 lastMeal;\n        uint256 endurance; // 24 hours\n    }\n    mapping(uint256 => Pet) private _tokenDetails; // 0 -> however many get created */\n\n    uint256 public tokensInCirculation;\n\n    // https://token-cdn-domain/000000000000000000000000000000000000000000000000000000000004cce0.json\n    constructor()\n        ERC1155(\"ipfs://INSERT_YOUR_CID_METAHASH/metadata/{id}.json\")\n    {\n        tokensInCirculation = 0;\n    }\n\n    function getTokenDetails(uint256 tokenId) public view returns (Pet memory) {\n        return _tokenDetails[tokenId];\n    }\n\n    function mint(\n        uint256 amount,\n        uint8 damage,\n        uint8 power,\n        uint256 endurance\n    ) public onlyOwner {\n        for (uint256 i = 0; i < amount; i++) {\n            // only owner address can mint owner_address, token_id, bytecode\n            _tokenDetails[tokensInCirculation] = Pet(\n                damage,\n                power,\n                block.timestamp,\n                endurance\n            );\n            _mint(msg.sender, tokensInCirculation, 1, \"\"); // <- '1' in 1155 = NFT\n            // iterate circulating tokens by minted amount above\n            tokensInCirculation++;\n        }\n    }\n\n    /*     function feed(uint256 tokenID) public {\n        Pet storage pet = _tokenDetails[tokensInCirculation];\n        require(pet.lastMeal + pet.endurance > block.timestamp); // must not have died of starvation; Pet is still alive\n        _tokenDetails[tokensInCirculation].lastMeal = block.timestamp;\n    } */\n\n    // _beforeTokenTransfer(operator, from, address(0), ids, amounts, \"\");\n    /*     function _beforeTokenTransfer(\n        address operator,\n        address from,\n        address to,\n        uint256[] memory ids,\n        uint256[] memory amounts,\n        bytes memory data\n    ) internal override {\n        // cannot be transferred IF dead.\n        Pet storage pet = _tokenDetails[tokensInCirculation];\n        require(pet.lastMeal + pet.endurance > block.timestamp); // must not have died of starvation; Pet is still alive\n    } */\n}\n\n/* \n\n//import \"../node_modules/@openzeppelin/contracts/token/ERC1155/presets/ERC1155PresetMinterPauser.sol\";\n\ncontract Tokens is ERC1155PresetMinterPauser {\n    uint256 public gameIDCounter;\n\n    mapping(string => uint256) public idmap;\n    mapping(uint256 => string) public lookupmap;\n\n    constructor() ERC1155PresetMinterPauser(\"https://img.youtube.com/vi/\") {\n        // base URI\n    }\n\n    function addGameID(string memory gameID, uint256 initialSupply) external {\n        require(\n            hasRole(MINTER_ROLE, _msgSender()),\n            \"Tokens: must have minter role to mint.\"\n        );\n        require(idmap[gameID] == 0, \"Tokens: This game already exists.\");\n\n        gameIDCounter = gameIDCounter + 1;\n        idmap[gameID] = gameIDCounter;\n        lookupmap[gameIDCounter] = gameID;\n\n        _mint(msg.sender, gameIDCounter, initialSupply, \"\");\n    }\n\n    function uri(uint256 id)\n        public\n        view\n        virtual\n        override\n        returns (string memory)\n    {\n        return\n            string(\n                abi.encodePacked(super.uri(id), lookupmap[id], \"/hqdefault.jpg\")\n            );\n    }\n\n    function getAllTokens(address account)\n        public\n        view\n        returns (uint256[] memory)\n    {\n        uint256 numTokens = 0;\n        for (uint256 i = 0; i <= gameIDCounter; i++) {\n            if (balanceOf(account, i) > 0) {\n                numTokens++;\n            }\n        }\n        uint256[] memory ret = new uint256[](numTokens);\n        uint256 counter = 0;\n        for (uint256 i = 0; i <= gameIDCounter; i++) {\n            if (balanceOf(account, i) > 0) {\n                ret[counter] = i;\n                counter++;\n            }\n        }\n        return ret;\n    }\n} */\n\n/* \ncontract Token is ERC1155, Ownable {\n\n    uint256 public constant ASTEROID = 0;\n\n    struct Pet {\n        uint8 damage;\n        uint8 power;\n        uint256 lastMeal;\n        uint256 endurance; // 24 hours\n    }\n\n    mapping(uint256 => Pet) private _tokenDetails; // 0 -> however many get created */\n\n/*     constructor(string memory name, string memory symbol)\n        ERC1155(name, symbol)\n        _mint(msg.sender, ASTEROID, 10**18, \"\");\n    {} */\n/*\nfunction addAsteroidID(string memory asteroidID, uint256 initialSupply) external {\n        require(\n            hasRole(MINTER_ROLE, _msgSender()),\n            \"Tokens: must have minter role to mint.\"\n        );\n        require(idmap[gameID] == 0, \"Tokens: This game already exists.\");\n\n        gameIDCounter = gameIDCounter + 1;\n        idmap[gameID] = gameIDCounter;\n        lookupmap[gameIDCounter] = gameID;\n\n        _mint(msg.sender, gameIDCounter, initialSupply, \"\");\n    }\n\n\n}\n */\n",
  "sourcePath": "/Users/ashleydavison/dev/nft-game-sandbox/smart contracts/contracts/Token.sol",
  "compiler": {
    "name": "solc",
    "version": "0.8.10+commit.fc410830.Emscripten.clang"
  },
  "schemaVersion": "3.4.4",
  "updatedAt": "2021-12-19T21:58:11.433Z",
  "devdoc": {
    "kind": "dev",
    "methods": {
      "balanceOf(address,uint256)": {
        "details": "See {IERC1155-balanceOf}. Requirements: - `account` cannot be the zero address."
      },
      "balanceOfBatch(address[],uint256[])": {
        "details": "See {IERC1155-balanceOfBatch}. Requirements: - `accounts` and `ids` must have the same length."
      },
      "isApprovedForAll(address,address)": {
        "details": "See {IERC1155-isApprovedForAll}."
      },
      "owner()": {
        "details": "Returns the address of the current owner."
      },
      "renounceOwnership()": {
        "details": "Leaves the contract without owner. It will not be possible to call `onlyOwner` functions anymore. Can only be called by the current owner. NOTE: Renouncing ownership will leave the contract without an owner, thereby removing any functionality that is only available to the owner."
      },
      "safeBatchTransferFrom(address,address,uint256[],uint256[],bytes)": {
        "details": "See {IERC1155-safeBatchTransferFrom}."
      },
      "safeTransferFrom(address,address,uint256,uint256,bytes)": {
        "details": "See {IERC1155-safeTransferFrom}."
      },
      "setApprovalForAll(address,bool)": {
        "details": "See {IERC1155-setApprovalForAll}."
      },
      "supportsInterface(bytes4)": {
        "details": "See {IERC165-supportsInterface}."
      },
      "transferOwnership(address)": {
        "details": "Transfers ownership of the contract to a new account (`newOwner`). Can only be called by the current owner."
      },
      "uri(uint256)": {
        "details": "See {IERC1155MetadataURI-uri}. This implementation returns the same URI for *all* token types. It relies on the token type ID substitution mechanism https://eips.ethereum.org/EIPS/eip-1155#metadata[defined in the EIP]. Clients calling this function must replace the `\\{id\\}` substring with the actual token type ID."
      }
    },
    "version": 1
  },
  "userdoc": {
    "kind": "user",
    "methods": {},
    "version": 1
  }
}